:100000000262E4020006C2AFD2AF32025343C2AF73
:10001000D2AF3202000E909921E0FEA3E0FF126BF6
:0200200032228A
:07002300026778126E15223E
:10002B00026F6C90970612280A0000300090970A16
:10003B00E4F0A3740CF07D007C307F5A1263857B57
:10004B00017A9979D9909708E4F0A37418F07F009E
:10005B007E30124053E49094FDF09094FDE0C394F5
:10006B000774809480506EE025E025E024D9F5825A
:10007B00E43499F5831227E6E4FBFAF9F8C3122767
:10008B00C160229094FDE025E025E024D9F582E4BF
:10009B003499F5831227E67B3F7A42790F7800C3B8
:1000AB001227C150289094FDE025E025E024B3F5FC
:1000BB0082E43499F5831227E69094FDE025E02540
:1000CB00E024D9F582E43499F5831227FE9094FD50
:1000DB00E004F080857B017A9979D990971AE4F046
:0C00EB00A37414F07FA07EA61242C02275
:1000F800FFFF4457494E5435429B110000419B0A6B
:1001080000429B0B0000419B0D00419B0E00429B4F
:100118000F0000429B170000429B150000429B13F2
:1001280000005A99F53FC900690064000086000A7A
:100138002D2D203A3A000000000000000000005A6F
:100148009A0F3FCC01270064000086000A2D2D2F4E
:100158003A3A000000000000000000005A9AAC3F44
:10016800D001E50064000001E5006402AD007D00F7
:10017800100017181802000000603C9A70400040F8
:10018800A04140401040B04150402040C041604034
:100198003040D04170404040E04180405040F04104
:1001A800904060410041A04070411041B040804102
:1001B8002041C04090413041D0549A5C41E041F820
:1001C80042104228424042584270428842A042B8F7
:1001D800489A4D0000000000000000429A550000B7
:1001E800429A5A0000429A570000419A5900429A8E
:1001F8003B0000429A290005498000B2E2CAD4BAFD
:10020800BAD7D6006E60800949443030BBD8B7E70A
:10021800B8DFCEC2000000000000000000000000AF
:10022800000000000000000049443031BBD8B7E7A7
:10023800B5CDCEC2000000000000000000000000A4
:10024800000000000000000049443032BBD8B7E786
:10025800B8DFCAAA0000000000000000000000008B
:10026800000000000000000049443033BBD8B7E765
:10027800B5CDCAAA00000000000000000000000080
:10028800000000000000000049443034CBCDB7E73F
:10029800B8DFCEC20000000000000000000000002F
:1002A800000000000000000049443035CBCDB7E71E
:1002B800B5CDCEC200000000000000000000000024
:1002C800000000000000000049443036CBCDB7E7FD
:1002D800B8DFCAAA0000000000000000000000000B
:1002E800000000000000000049443037CBCDB7E7DC
:1002F800B5CDCAAA00000000000000000000000000
:10030800000000000000000049443038B1A3C1F4E7
:1003180000000000000000000000000000000000D5
:10032800000000000000000049443039CEC2CAAACB
:10033800B6C8B4ABB8D0C6F7B9CAD5CF000000006C
:100348000000000000000000494431304E5443D200
:10035800ECB3A30000000000000000000000000053
:10036800000000000000000049443131B7E7BBFA43
:1003780031B9CAD5CF00000000000000000000001D
:10038800000000000000000049443132B1A3C1F46C
:100398000000000000000000000000000000000055
:1003A800000000000000000049443133B1A3C1F44B
:1003B8000000000000000000000000000000000035
:1003C800000000000000000049443134B1A3C1F42A
:1003D8000000000000000000000000000000000015
:1003E800000000000000000049443135B1A3C1F409
:1003F80000000000000000000000000000000000F5
:10040800000000000000000049443136CDE2B7E7A3
:10041800BBFAB9CAD5CF00000000000000000000F8
:10042800000000000000000049443137B7E7BBFA7C
:1004380031D4CBD0D0B3ACCAB1000000000000006A
:10044800000000000000000049443138B1A3C1F4A5
:100458000000000000000000000000000000000094
:10046800000000000000000049443139B1A3C1F484
:100478000000000000000000000000000000000074
:10048800000000000000000049443230B1A3C1F46C
:100498000000000000000000000000000000000054
:1004A800000000000000000049443231B1A3C1F44B
:1004B8000000000000000000000000000000000034
:1004C800000000000000000049443232CDE2B7E7E6
:1004D800BBFAD4CBD0D0B3ACCAB100000000000046
:1004E800000000000000000049443233B8DFD1B9F1
:1004F80031BFAAB9D80000000000000000000000C9
:10050800000000000000000049443234B8DFD1B9CF
:1005180031CBF8CBC0000000000000000000000054
:10052800000000000000000049443235B5CDD1B9C3
:1005380031B8E6BEAF000000000000000000000077
:10054800000000000000000049443236B5CDD1B9A2
:1005580031CBF8CBC0000000000000000000000014
:10056800000000000000000049443237C5C5C6F845
:10057800CEC2B6C831B8E6BEAF0000000000000029
:10058800000000000000000049443238C5C5C6F824
:10059800CEC2B6C831CBF8CBC000000000000000C6
:1005A800000000000000000049443239B6CCD6DC17
:1005B800C6DA31B8E6BEAF00000000000000000057
:1005C800000000000000000049443330D1B9BBFAF4
:1005D80031D4CBD0D0B3ACCAB100000000000000C9
:1005E800000000000000000049443331B7E7BBFABF
:1005F80031B9CAD5CF00000000000000000000009B
:10060800000000000000000049443332B7E7BBFA9D
:1006180032B9CAD5CF000000000000000000000079
:10062800000000000000000049443333B7E7BBFA7C
:1006380033B9CAD5CF000000000000000000000058
:10064800000000000000000049443334B7E7BBFA5B
:1006580034B9CAD5CF000000000000000000000037
:10066800000000000000000049443335C5C5C6F845
:10067800CEC2B6C832B8E6BEAF0000000000000027
:10068800000000000000000049443336C5C5C6F824
:10069800CEC2B6C832CBF8CBC000000000000000C4
:1006A800000000000000000049443337B6CCD6DC17
:1006B800C6DA32B8E6BEAF00000000000000000055
:1006C800000000000000000049443338D1B9BBFAEB
:1006D80032D4CBD0D0B3ACCAB100000000000000C7
:1006E800000000000000000049443339BCD3CAAA06
:1006F800C6F7B5E7C1F7B9FDB4F300000000000084
:10070800000000000000000049443430CBCDB7E7BA
:10071800B4ABB8D0C6F7B9CAD5CF00000000000006
:10072800000000000000000049443431BDF8BFDA81
:10073800B4ABB8D0C6F7B9CAD5CF000000000000E6
:10074800000000000000000049443432B3F6BFDA6C
:10075800B4ABB8D0C6F7B9CAD5CF000000000000C6
:10076800000000000000000049443433BCD3C8C86E
:10077800C6F7B8E6BEAF00000000000000000000A9
:10078800000000000000000049443434BCD3C8C84D
:10079800C6F731B3ACCAB100000000000000000089
:1007A800000000000000000049443435BCD3C8C82C
:1007B800C6F732B3ACCAB100000000000000000068
:1007C800000000000000000049443436B6CFB5E709
:1007D800D6D8C6F4000000000000000000000000A9
:1007E800000000000000000049443437B5E7D4B4E5
:1007F800CFE0D0F2B4EDCEF300000000000000001E
:10080800000000000000000049443438B5E7D4B4C3
:10081800C6B5C2CAC6ABB8DF0000000000000000C1
:10082800000000000000000049443439B5E7D4B4A2
:10083800C6B5C2CAC6ABB5CD0000000000000000B6
:1008480000000000000000004944353041CFE0B905
:10085800FDD1B90000000000000000000000000009
:1008680000000000000000004944353142CFE0B9E3
:10087800FDD1B900000000000000000000000000E9
:1008880000000000000000004944353243CFE0B9C1
:10089800FDD1B900000000000000000000000000C9
:1008A80000000000000000004944353341CFE0C794
:1008B800B7D1B900000000000000000000000000EF
:1008C80000000000000000004944353442CFE0C772
:1008D800B7D1B900000000000000000000000000CF
:1008E80000000000000000004944353543CFE0C750
:1008F800B7D1B900000000000000000000000000AF
:1009080000000000000000004944353641CFE0C82F
:10091800B1CFE0000000000000000000000000006F
:1009280000000000000000004944353742CFE0C80D
:10093800B1CFE0000000000000000000000000004F
:1009480000000000000000004944353843CFE0C8EB
:10095800B1CFE0000000000000000000000000002F
:10096800000000000000000049443539C6F8C1F70E
:10097800B6AACAA7B8E6BEAF000000000000000093
:10098800000000000000000049443630B9FDC2CB29
:10099800CDF8D4CBD0D0B3ACCAB100000000000071
:1009A800000000000000000049443631BFD5C6F8F9
:1009B800C2CBCDF8B6C2C8FB0000000000000000A2
:1009C800000000000000000049443632D4B6B3CC21
:1009D800B9D8BBFAB8E6BEAF0000000000000000BE
:1009E800000000000000000049443633C2A9CBAE25
:1009F800B8E6BEAF000000000000000000000000E4
:100A0800000000000000000049443634C8BABFD8CE
:100A1800CDA8D0C5D2ECB3A30000000000000000B0
:100A2800000000000000000049443635B1A3C1F4BD
:100A380000000000000000000000000000000000AE
:100A4800000000000000000049443636B5CDB9FD6D
:100A5800C8C8B6C831B8E6BEAF0000000000000044
:100A6800000000000000000049443637B5CDB9FD4C
:100A7800C8C8B6C832B8E6BEAF0000000000000023
:100A8800000000000000000049443638D1CCCEED0B
:100A9800B8E6BEAF00000000000000000000000043
:100AA800000000000000000049443639D3C3BBA74A
:100AB800D7D4B6A8D2E5B8E6BEAF00000000000063
:100AC800000000000000000049443730B5E7D4B406
:100AD800D2ECB3A3000000000000000000000000FA
:100AE800000000000000000049443731B1A3C1F400
:100AF80000000000000000000000000000000000EE
:100B0800000000000000000049443732B1A3C1F4DE
:100B180000000000000000000000000000000000CD
:100B2800000000000000000049443733B1A3C1F4BD
:100B380000000000000000000000000000000000AD
:100B4800000000000000000049443734B1A3C1F49C
:100B5800000000000000000000000000000000008D
:100B6800000000000000000049443735B1A3C1F47B
:100B7800000000000000000000000000000000006D
:100B8800000000000000000049443736B1A3C1F45A
:100B9800000000000000000000000000000000004D
:100BA800000000000000000049443737B1A3C1F439
:100BB800000000000000000000000000000000002D
:100BC800000000000000000049443738B1A3C1F418
:100BD800000000000000000000000000000000000D
:100BE800000000000000000049443739B1A3C1F4F7
:100BF80000000000000000000000000000000000ED
:100C0800000000000000000049443830C5C5CBAEE4
:100C1800B8DFCBAECEBB0000000000000000000033
:100C2800000000000000000049443831BCD3CAAAC3
:100C3800C6F7D2ECB3A300000000000000000000DB
:100C4800000000000000000049443832B7E7D1B97D
:100C5800B9FDB5CD00000000000000000000000054
:100C6800000000000000000049443833B1A3C1F47B
:100C7800000000000000000000000000000000006C
:100C8800000000000000000049443834B8DFD1B942
:100C980031D1B9C1A600000000000000000000002A
:100CA800000000000000000049443835C0E4C4FDDD
:100CB800CBAEC5CCC2FACBAE0000000000000000ED
:100CC8000000000000000000494438364D4F503104
:100CD800B8E6BEAF00000000000000000000000001
:100CE8000000000000000000494438374D4F5032E2
:100CF800B8E6BEAF000000000000000000000000E1
:100D08000000000000000000494438384C4F5031C2
:100D1800B8E6BEAF000000000000000000000000C0
:100D28000000000000000000494438394C4F5032A0
:100D3800B8E6BEAF000000000000000000000000A0
:100D4800000000000000000049443930C9E8B1B88B
:100D5800CAB9D3C3B3ACCAB1000000000000000098
:100D6800000000000000000049443931B1A3C1F47B
:100D7800000000000000000000000000000000006B
:100D8800000000000000000049443932B1A3C1F45A
:100D9800000000000000000000000000000000004B
:100DA800000000000000000049443933B1A3C1F439
:100DB800000000000000000000000000000000002B
:100DC800000000000000000049443934B1A3C1F418
:100DD800000000000000000000000000000000000B
:100DE800000000000000000049443935B1A3C1F4F7
:100DF80000000000000000000000000000000000EB
:100E0800000000000000000049443936B1A3C1F4D5
:100E180000000000000000000000000000000000CA
:100E2800000000000000000049443937B1A3C1F4B4
:100E380000000000000000000000000000000000AA
:100E4800000000000000000049443938B1A3C1F493
:100E5800000000000000000000000000000000008A
:100E6800000000000000000049443939B1A3C1F472
:100E7800000000000000000000000000000000006A
:100E880000000000000000004944313030B1A3C127
:100E9800F400000000000000000000000000000056
:100EA80000000000000000004944313031B1A3C106
:100EB800F400000000000000000000000000000036
:100EC80000000000000000004944313032B1A3C1E5
:100ED800F400000000000000000000000000000016
:100EE80000000000000000004944313033B1A3C1C4
:100EF800F4000000000000000000000000000000F6
:100F080000000000000000004944313034B1A3C1A2
:100F1800F4000000000000000000000000000000D5
:100F280000000000000000004944313035B1A3C181
:100F3800F4000000000000000000000000000000B5
:100F480000000000000000004944313036B1A3C160
:100F5800F400000000000000000000000000000095
:100F680000000000000000004944313037B1A3C13F
:100F7800F400000000000000000000000000000075
:100F880000000000000000004944313038B1A3C11E
:100F9800F400000000000000000000000000000055
:100FA80000000000000000004944313039B1A3C1FD
:100FB800F400000000000000000000000000000035
:100FC80000000000000000004944313130B1A3C1E5
:100FD800F400000000000000000000000000000015
:100FE80000000000000000004944313131B1A3C1C4
:100FF800F4000000000000000000000000000000F5
:1010080000000000000000004944313132B1A3C1A2
:10101800F4000000000000000000000000000000D4
:1010280000000000000000004944313133B1A3C181
:10103800F4000000000000000000000000000000B4
:1010480000000000000000004944313134B1A3C160
:10105800F400000000000000000000000000000094
:101068000000000000000000419B1900479AE900B9
:10107800000000000000479ADA00000000000000AD
:10108800489AF00000000000000000489AE10000C3
:10109800000000000000C100429AD80000529AC621
:1010A8000000000000000000000000000000000038
:1010B8000000429AFA0000429AFC0000429AF800A6
:1010C80000449B0600000000429AFE0000449B007A
:1010D8000000000002080000040B00000000040FDC
:1010E80000000000429B040000010A006100971EF6
:1010F80000C1814001C0804101C0804100C18140E0
:1011080001C0804100C1814000C1814001C08041CF
:1011180001C0804100C1814000C1814001C08041BF
:1011280000C1814001C0804101C0804100C18140AF
:1011380001C0804100C1814000C1814001C080419F
:1011480000C1814001C0804101C0804100C181408F
:1011580000C1814001C0804101C0804100C181407F
:1011680001C0804100C1814000C1814001C080416F
:1011780001C0804100C1814000C1814001C080415F
:1011880000C1814001C0804101C0804100C181404F
:1011980000C1814001C0804101C0804100C181403F
:1011A80001C0804100C1814000C1814001C080412F
:1011B80000C1814001C0804101C0804100C181401F
:1011C80001C0804100C1814000C1814001C080410F
:1011D80001C0804100C1814000C1814001C08041FF
:1011E80000C1814001C0804101C0804100C18140EF
:1011F8006100981E00C0C101C30302C2C60607C72A
:1012080005C5C404CC0C0DCD0FCFCE0E0ACACB0B2E
:10121800C90908C8D81819D91BDBDA1A1EDEDF1F5E
:10122800DD1D1CDC14D4D515D71716D6D21213D34E
:1012380011D1D010F03031F133F3F23236F6F737FE
:10124800F53534F43CFCFD3DFF3F3EFEFA3A3BFBEE
:1012580039F9F83828E8E929EB2B2AEAEE2E2FEF9E
:101268002DEDEC2CE42425E527E7E62622E2E3230E
:10127800E12120E0A06061A163A3A26266A6A7673E
:10128800A56564A46CACAD6DAF6F6EAEAA6A6BABAE
:1012980069A9A86878B8B979BB7B7ABABE7E7FBFDE
:1012A8007DBDBC7CB47475B577B7B67672B2B373CE
:1012B800B17170B05090915193535292965657977E
:1012C800559594549C5C5D9D5F9F9E5E5A9A9B5B6E
:1012D80099595898884849894B8B8A4A4E8E8F4F1E
:1012E8008D4D4C8C4484854587474686824243838E
:1012F8004181804041947800418F99004494F900DD
:10130800000000418F9400448F950000000064D0D5
:101318008FA85A021003C80250155016000000FF8B
:101328005A020303C8000000D920031C00FF5A0218
:101338000301C8010039D923031900FF5A02060125
:10134800C803D984D924010000395A020301C8010D
:101358000039D925010400FF5A020601C802D987BD
:10136800D927010400FF5A020303C8010039D9A094
:10137800011A00FF5A020302C8000000D9A3031093
:1013880000FF5A020302C801000AAA20032600FF30
:101398005A020301C801000AAA22036900FF5A027F
:1013A8000302C801000AAA23036B00FF5A020301C3
:1013B800C801000AAA25037700FF5A02031FC801C3
:1013C800000BAB20037500FF5A020601C803AC806E
:1013D800AC20023A000C5A020306C800000DAEA069
:1013E800032000FF5A020601C803AF80AF20023B6A
:1013F800000F5A020301C803B300B320011A0013F7
:101408005A020302C803B300B321013B00135A0276
:101418000601C803B380B320011A00135A0206015B
:10142800C803B381B321013B00135A020601C80364
:10143800B382B322013C00135A020305C803B40067
:10144800B420015B00145A020601C803B480B4201A
:10145800015B00145A020601C803B481B421015C7F
:1014680000145A020601C803B482B422015D0014B4
:101478005A020601C803B483B423015E00145A0259
:101488000601C803B484B424015F00145A0203019E
:10149800C803B600B62002E400165A020301C803C6
:1014A800B600B62102EA00165A020601C803B68041
:1014B800B62002E400165A020601C803B681B62116
:1014C80002EA00165A020301C803B800B820010D49
:1014D80000185A020301C803B800B821010F001808
:1014E8005A020301C803B800B822015A00185A0268
:1014F8000601C803B880B820010D00185A02060179
:10150800C803B881B821010F00185A020601C803A0
:10151800B882B822015A00185A020301C803B90058
:10152800B920010800195A020302C803B900B921F9
:10153800010A00195A020301C803B900B92301A717
:1015480000195A020601C803B980B9200108001918
:101558005A020601C803B981B921010A00195A02C1
:101568000601C803B982B922010B00195A02060103
:10157800C803B983B92301A700195A020301C80394
:10158800BB00BB200210001B5A020301C803BB00AA
:10159800BB210213001B5A020301C803BB00BB2274
:1015A8000216001B5A020302C803BB00BB23021920
:1015B800001B5A020303C803BB00BB24027D001BA7
:1015C8005A020302C803BB00BB250246001B5A028D
:1015D8000301C803BB00BB270277001B5A020601A0
:1015E800C803BB80BB200210001B5A020601C803B7
:1015F800BB81BB210213001B5A020601C803BB8230
:10160800BB220216001B5A020601C803BB83BB2378
:101618000219001B5A020601C803BB84BB24027DC1
:10162800001B5A020601C803BB85BB250246001BE6
:101638005A020601C803BB86BB260247001B5A0292
:101648000601C803BB87BB270277001B5A020302A7
:10165800C803BF00BF200102001F5A020301C803CC
:10166800BF00BF220107001F5A020301C803BF00C1
:10167800BF2301A5001F5A020601C803BF80BF206F
:101688000102001F5A020601C803BF81BF210103DE
:10169800001F5A020601C803BF82BF220107001FAC
:1016A8005A020601C803BF83BF2301A5001F5A02BF
:1016B8000301C803C300C32002EB00235A0203013D
:1016C800C803C300C32101A900235A020301C801AA
:1016D8000023D925010400FF5A020601C803C3806C
:1016E800C32002EB00235A020601C803C381C321A9
:1016F80001A900235A020601C803C382C32201A814
:1017080000235A020301C8010023C323037500FF05
:101718005A020301C8010023C324037700FF5A02B9
:101728000302C803C400C420012D00245A02030187
:10173800C803C400C422012900245A020302C803B2
:10174800C400C423012B00245A020601C803C48024
:10175800C420012D00245A020601C803C481C421F3
:10176800012E00245A020601C803C482C42201299A
:1017780000245A020601C803C483C423012B002491
:101788005A020601C803C484C424012C00245A0246
:101798000303C803C600C6A0030200265A020301B9
:1017A800C803D500D520011A00355A020302C80320
:1017B800D500D521013B00355A020601C803D58062
:1017C800D520011A00355A020601C803D581D52152
:1017D800013B00355A020601C803D582D522013CD7
:1017E80000354E8F9A000000000000000000000045
:1017F800000000428E6A000061288E6C5A13B320E4
:10180800B350B3805A13B321B351B3815A13B322DF
:10181800B352B3825A14B420B450B4805A14B421C9
:10182800B451B4815A14B422B452B4825A14B423B1
:10183800B453B4835A14B424B454B4845A16B62096
:10184800B650B6805A16B621B651B6815A18B82085
:10185800B850B8805A18B821B851B8815A18B82267
:10186800B852B8825A19B920B950B9805A19B92151
:10187800B951B9815A19B922B952B9825A19B92339
:10188800B953B9835A1BBB20BB50BB805A1BBB2121
:10189800BB51BB815A1BBB22BB52BB825A1BBB2309
:1018A800BB53BB835A1BBB24BB54BB845A1BBB25ED
:1018B800BB55BB855A1BBB26BB56BB865A1BBB27D1
:1018C800BB57BB875A1FBF20BF50BF805A1FBF21BD
:1018D800BF51BF815A1FBF22BF52BF825A1FBF23A9
:1018E800BF53BF835A24C420C450C4805A24C4217F
:1018F800C451C4815A24C422C452C4825A24C42361
:10190800C453C4835A24C424C454C4845A35D52027
:10191800D550D5805A35D521D551D5815A35D522BE
:10192800D552D582418E69005C99D900000000002B
:10193800000000000000000000000000000000009F
:10194800000000000000005C99B3000000000000E7
:1019580000010000000200027360000A2D08000365
:1019680010CC0007ED654199AFFF608C992300000A
:10197800010002000300040005000600070008003B
:1019880009000A000B000C000D000E000F011000EA
:101998001100120213001400150016001700180396
:1019A80019001A001B021C001D001E001F00200049
:1019B80021002202230024002500260027002800F9
:1019C80029002A002B002C002D002E002F003000AB
:1019D800310032003300340035003600370038005B
:1019E80039003A003B003C003D003E003F00400506
:1019F800410042004300440045004A99CF000101DC
:101A0800030203030604024299B10000429921002F
:101A18000042991E00004199200000AF13EF1313F4
:101A2800543F5401640160030223E77B017A9479EF
:101A3800FD909708F0A3740CF07F217ED9124053D3
:101A48009094FFE0FEA3E0FF9094FDE0FCA3E02F5C
:101A5800FFEC3EFE909A3BE0FCA3E06F7002EE6C58
:101A680060589094FFE0FEA3E0FF9094FDE0FCA393
:101A7800E02FFFEC3EFE909A3BE0FCA3E0C39FEC16
:101A88009E501D909507E4F0A304F0FB7A95790722
:101A980090971AE4F0A37402F07F267ED91242C010
:101AA8009094FFE0FEA3E0FF9094FDE0FCA3E02FFC
:101AB800FFEC3E909A3BF0A3EFF09094FDE0FEA37C
:101AC800E0D39400EE9400500CA3E0FEA3E0940051
:101AD800EE94004020909507E0FEA3E04E60167B50
:101AE800017A9A792990971AE4F0A37402F07FA0FA
:101AF8007E001242C0909B11E0FEA3E0640D4E6090
:101B080003021EA4909B11E0A3E0FF909A55E0FC0D
:101B1800A3E06F7002EC6E601EE4909A5AF0A3F096
:101B28007B017A9A795A90971AF0A37402F07F0190
:101B38007EAE1242C080167B017A9A795A90970835
:101B4800E4F0A37402F07F017EAE1240537B017A69
:101B58009479FD909708E4F0A37410F07FA07EAE0E
:101B6800124053E490950BF0A3E05407F07B017A00
:101B78009A792B78FD7C947D017E007F10122A498A
:101B8800EF702F909A57E0FEA3E0FF909A5AE0FC7E
:101B9800A3E0B5071DECB50619909B11E0FEA3E084
:101BA800FF909A55E0FCA3E06F7002EC6E700302A0
:101BB80021997B017A9479FD782B7C9A7D017E00AE
:101BC8007F101224B8E4909A59F0909530F09095CF
:101BD80030E0C39408748094804003021E4CE49063
:101BE800952FF090952FE0C3941074809480400353
:101BF800021E43A3E0C454F0FF90952FE02F909568
:101C080034F0E075F018A42400FFE5F03435FE7BCD
:101C1800017A9479FD909708E4F0A37430F01240AB
:101C2800537B017A9479FD90953112286790952F0E
:101C3800E0FF7E007401A807088005C333CE33CEC9
:101C4800D8F9FF909530E025E0242BF582E4349A0A
:101C5800F583E0FCA3E0FDEE5CFEEF5D4E70030251
:101C68001D9A9095311228471225FF645A7004E591
:101C7800F064A57003021D3790953112284774A5AA
:101C880075F05A1226627B017A957911909708E4CB
:101C9800F0A37408F07F107E001240537B017A9500
:101CA800791178FF7C947D017E007F031224B87B34
:101CB800017A95791578027C957D017E007F031263
:101CC80024B87E007F087D007B017A957905122A69
:101CD8006D909534E0FF90950BE4F0A3EFF07B0155
:101CE8007A95790DC002C00190953475F020A4242E
:101CF80009F9748035F0FA90954812286790954B49
:101D0800E4F0A37420F0D001D0021266AA909534B2
:101D1800E075F018A42400FFE5F03435FE7B017A65
:101D28009479FD90971AE4F0A37430F01242C090B1
:101D38009A5AE0FEA3E0FF7C007D0A122536909AAD
:101D480059E0C39FEC9E4041A3E0FEA3E0FF1225AB
:101D580036EF240AFFE43EFE909A59E0C39FEC9EBA
:101D68005027909534E075F018A42400FDE5F03470
:101D780035FC909A5AE0A3E075F00AA4FF909A59AE
:101D8800E0C39FFF7B0D125856909A59E004F00269
:101D98001E3A9095311228471225FF645A7004E5BF
:101DA800F064A56003021E3A7B017A957911909739
:101DB80008F0A37408F07F107E001240537B017A6C
:101DC80095791178057C957D017E007F031224B8F2
:101DD8007B017A95791578087C957D017E007F03D3
:101DE8001224B8909534E0FF90950BE4F0A3EFF03F
:101DF8007B017A9479FD90971AE4F0A37410F07F30
:101E0800007E301242C0125EFEE49094FDF0A3F012
:101E1800909534E075F018A42400FFE5F03435FE01
:101E28007B017A9479FD90971AE4F0A37402F0127A
:101E380042C090952FE004F0021BEB909530E0042F
:101E4800F0021BD6909A59E090952FF0909A5AE09C
:101E5800FEA3E0FF7C007D0A122536EF240AFFE48A
:101E68003EFE90952FE0C39FEC9E501D909A5AE03D
:101E7800A3E075F00AA4FF90952FE0C39FFF1257C7
:101E88001790952FE004F080C3909A5AE0FEA3E0E3
:101E9800FF909A57EEF0A3EFF00221997B017A9414
:101EA80079FD909708E4F0A37410F07FA07EAE123D
:101EB8004053E490950BF0A3E05407F07B017A9A25
:101EC800792B78FD7C947D017E007F10122A49EFE2
:101ED80070030221997B017A9479FD78317C957D94
:101EE800017E007F101224B8E4909530F090953070
:101EF800E0C39406748094804003022186E49095A0
:101F08002FF090952FE0C3941074809480400302C2
:101F1800217DE0FF7E007401A807088005C333CE49
:101F280033CED8F9FF909530E025E02431F582E4EE
:101F38003495F583E0FCA3E0FDEE5CFCEF5DFD90DD
:101F4800952FE0FF7E007401A807088005C333CEF3
:101F580033CED8F9FF909530E025E0242BF582E4C4
:101F6800349AF583E0FAA3E0FBEE5AFEEF5B6D705E
:101F780002EE6C7003022174909530E0C454F0FFB7
:101F880090952FE02F909544F0E075F018A4240068
:101F9800FFE5F03435FE7B017A9479FD909708E4EB
:101FA800F0A37430F01240537B017A9479FD909538
:101FB8004112286790952FE0FF7E007401A807085A
:101FC8008005C333CE33CED8F9FF909530E025E0B5
:101FD8002431F582E43495F583E0FCA3E0FDEE5C62
:101FE800FEEF5D4E70030220C19095411228471202
:101FF80025FF645A7004E5F064A57003022174900B
:10200800954112284774A575F05A1226627B017A09
:10201800957911909708E4F0A37408F07F107E007A
:102028001240537B017A95791178FF7C947D017E6B
:10203800007F031224B87B017A95791578027C9584
:102048007D017E007F031224B87E007F087D007B1F
:10205800017A957905122A6D909544E0FF90950BC9
:10206800E4F0A3EFF07B017A95790DC002C00190EE
:10207800954475F020A42409F9748035F0FA9095F8
:102088004812286790954BE4F0A37420F0D001D053
:10209800021266AA909544E075F018A42400FFE5A2
:1020A800F03435FE7B017A9479FD90971AE4F0A319
:1020B8007430F01242C002217490954112284712E0
:1020C80025FF645A7004E5F064A560030221747B5F
:1020D800017A957911909708F0A37408F07F107E23
:1020E800001240537B017A95791178057C957D0122
:1020F8007E007F031224B87B017A95791578087CD5
:10210800957D017E007F031224B8909544E0FF90EE
:10211800950BE4F0A3EFF07B017A9479FD90971A80
:10212800E4F0A37410F07F007E301242C0125EFE0D
:10213800E49094FDF0A3F0909544E075F018A42481
:1021480000FFE5F03435FE7B017A9479FD90971A0B
:10215800E4F0A37402F01242C0909A5AE0FEA3E0A1
:102168002401FFE43E909A57F0A3EFF090952FE0FA
:1021780004F0021F0A909530E004F0021EF57B017E
:102188007A957931782B7C9A7D017E007F10122414
:10219800B8909B11E0FEA3E0640E4E60030223D7C3
:1021A800909B11E0A3E0FF909A55E0FCA3E06F70CC
:1021B80002EC6E601EE4909A5AF0A3F07B017A9AC2
:1021C800795A90971AF0A37402F07F017EAE1242FA
:1021D800C080347B017A9A795A909708E4F0A37406
:1021E80002F07F017EAE124053909A57E0FEA3E0C2
:1021F800FF909A5AE0FCA3E06F7002EC6E70030245
:1022080023D780030223D7909A5AE0FEA3E0FF90D9
:102218009A57EEF0A3EFF0E4A3F0909A59E0C39434
:102228000A7480948040030223BDA3E0FEA3E0FF6C
:102238007C007D0A122536909A59E02FFFEC3EFE6D
:10224800909A53E0FCA3E0FDC3EF9DEE9C4003028F
:1022580023BD909A5AE0FEA3E0FF7C007D0A122578
:1022680036909A59E02FFFEC3EFE909A4FE0FCA37F
:10227800E0D39FEC9E4032909A5AE0FEA3E0FF7CA8
:1022880000122536909A59E02FFFEC3EFEEF24010C
:10229800FFE43EFE909A4FE0FCA3E0C39FFFEC9E54
:1022A800909531F0A3EFF0803A909A5AE0FEA3E0BF
:1022B800FF7C007D0A122536909A59E02FFFEC3EEC
:1022C800FEEF2401FFE43EFE909A4FE0FCA3E024D9
:1022D80000FDEC3402FCC3ED9FFFEC9E909531F0BD
:1022E800A3EFF0909531E0FEA3E07803C333CE333B
:1022F800CED8F92400FFEE3420FEE4FCFD909706CA
:102308001227FE90970AE4F0A37408F07D007C3051
:102318007F5A1263857B017A9479FD909708E4F0DF
:10232800A37410F07F007E301240537B017A9579B8
:102338000DC003C002C00190950BE0FEA3E0780534
:10234800C333CE33CED8F92409F974803EFA7B0121
:1023580090954812286790954BE4F0A37420F0D02C
:1023680001D002D0031266AA909A59E025E0245CB5
:10237800F582E4349AF583E0FEA3E0FF7B017A94CA
:1023880079FD90971AE4F0A37430F01242C0909A45
:1023980059E025E0245CF582E4349AF583E0FCA357
:1023A800E0FD909A59E0FF7B0E125856909A59E03A
:1023B80004F0022222909A59E0C3940A748094800F
:1023C800500DE0FF125717909A59E004F080E690FC
:1023D8009B11E0FEA3E0FF909A55EEF0A3EFF022E8
:1023E800E709F608DFFA8046E709F208DFFA803ED7
:1023F80088828C83E709F0A3DFFA8032E309F608C4
:10240800DFFA8078E309F208DFFA807088828C832B
:10241800E309F0A3DFFA806489828A83E0A3F608DF
:10242800DFFA805889828A83E0A3F208DFFA804CB9
:1024380080D280FA80C680D4806980F28033801090
:1024480080A680EA809A80A880DA80E280CA8033F9
:1024580089828A83ECFAE493A3C8C582C8CCC58371
:10246800CCF0A3C8C582C8CCC583CCDFE9DEE78041
:102478000D89828A83E493A3F608DFF9ECFAA9F0C0
:10248800EDFB2289828A83ECFAE0A3C8C582C8CC16
:10249800C583CCF0A3C8C582C8CCC583CCDFEADE2F
:1024A800E880DB89828A83E493A3F208DFF980CC91
:1024B80088F0EF60010E4E60C388F0ED2402B4048A
:1024C8000050B9F582EB2402B4040050AF23234531
:1024D800822390243873BB010689828A83E02250C4
:1024E80002E722BBFE02E32289828A83E49322BBAD
:1024F800010CE58229F582E5833AF583E02250064E
:10250800E92582F8E622BBFE06E92582F8E222E503
:102518008229F582E5833AF583E49322BB01068993
:10252800828A83F0225002F722BBFE01F322EF8D4C
:10253800F0A4A8F0CF8CF0A428CE8DF0A42EFE2213
:10254800BC000BBE0029EF8DF084FFADF022E4CC77
:10255800F875F008EF2FFFEE33FEEC33FCEE9DEC40
:10256800984005FCEE9DFE0FD5F0E9E4CEFD22ED86
:10257800F8F5F0EE8420D21CFEADF075F008EF2FD0
:10258800FFED33FD4007985006D5F0F222C398FDC1
:102598000FD5F0EA22C2D5EC30E709B2D5E4C39DE5
:1025A800FDE49CFCEE30E715B2D5E4C39FFFE49E42
:1025B800FE122548C3E49DFDE49CFC8003122548D7
:1025C80030D507C3E49FFFE49EFE22C5F0F8A3E0E0
:1025D80028F0C5F0F8E582158270021583E038F01E
:1025E80022A3F8E0C5F025F0F0E582158270021507
:1025F80083E0C838F0E822BB010A89828A83E0F5C3
:10260800F0A3E022500687F009E71922BBFE07E392
:10261800F5F009E3192289828A83E493F5F07401BD
:102628009322BB0110E58229F582E5833AF583E020
:10263800F5F0A3E0225009E92582F886F008E622A1
:10264800BBFE0AE92582F8E2F5F008E222E5832AD2
:10265800F583E993F5F0A3E99322BB010A89828AFD
:1026680083F0E5F0A3F0225006F709A7F01922BB82
:10267800FE06F3E5F009F31922EF2BFFEE3AFEED23
:1026880039FDEC38FC22E88FF0A4CC8BF0A42CFCAC
:10269800E98EF0A42CFC8AF0EDA42CFCEA8EF0A4C0
:1026A800CDA8F08BF0A42DCC3825F0FDE98FF0A44F
:1026B8002CCD35F0FCEB8EF0A4FEA9F0EB8FF0A446
:1026C800CFC5F02ECD39FEE43CFCEAA42DCE35F082
:1026D800FDE43CFC2275F008758200EF2FFFEE3315
:1026E800FECD33CDCC33CCC58233C5829BED9AEC7D
:1026F80099E58298400CF582EE9BFEED9AFDEC99E7
:10270800FC0FD5F0D6E4CEFBE4CDFAE4CCF9A882F0
:1027180022B800C1B90059BA002DEC8BF084CFCE95
:10272800CDFCE5F0CBF97818EF2FFFEE33FEED3353
:10273800FDEC33FCEB33FB10D703994004EB99FB1A
:102748000FD8E5E4F9FA227818EF2FFFEE33FEED03
:1027580033FDEC33FCC933C910D7059BE99A400710
:10276800EC9BFCE99AF90FD8E0E4C9FAE4CCFB2227
:1027780075F010EF2FFFEE33FEED33FDCC33CCC8F0
:1027880033C810D7079BEC9AE899400AED9BFDECFB
:102798009AFCE899F80FD5F0DAE4CDFBE4CCFAE43A
:1027A800C8F922EB9FF5F0EA9E42F0E99D42F0EC71
:1027B8006480C864809845F022EB9FF5F0EA9E4259
:1027C800F0E99D42F0E89C45F022E86010ECA2E7B1
:1027D80013FCED13FDEE13FEEF13FFD8F022E0FC1F
:1027E800A3E0FDA3E0FEA3E0FF22E0F8A3E0F9A345
:1027F800E0FAA3E0FB22ECF0A3EDF0A3EEF0A3EFE8
:10280800F022A8828583F0D083D082122821122852
:1028180021122821122821E473E493A3C583C5F06B
:10282800C583C8C582C8F0A3C583C5F0C583C8C51C
:1028380082C822A42582F582E5F03583F58322E05B
:10284800FBA3E0FAA3E0F922F8E0FBA3A3E0F92553
:10285800F0F0E582158270021583E0FA38F022EB79
:10286800F0A3EAF0A3E9F022D083D082F8E49370D1
:1028780012740193700DA3A393F8740193F58288E1
:1028880083E4737402936860EFA3A3A380DFD0830B
:10289800D082F8E4937012740193700DA3A393F897
:1028A800740193F5828883E473740293B5F0067417
:1028B80003936860E9A3A3A3A380D8E3F5F009E232
:1028C80008B5F06BDFF58067E3F5F009E608B5F0C9
:1028D8005EDFF5805A87F009E608B5F052DFF6802A
:1028E8004E87F009E208B5F046DFF6804288828C10
:1028F8008387F009E0A3B5F036DFF6803288828C52
:102908008387F009E493A3B5F025DFF58021888259
:102918008C83E3F5F009E0A3B5F014DFF5801088A7
:10292800828C83E3F5F009E493A3B5F002DFF402A7
:1029380029F2808780E9809080D4803E8015806E5F
:10294800807E809D80B7808D80A380518074803C7C
:102958000229FE89828A83ECFAE493F5F0A3C8C5BC
:1029680082C8CCC583CCE493A3C8C582C8CCC58330
:10297800CCB5F076DFE3DEE1807089828A83E49368
:10298800F5F0A3E208B5F062DFF4805E89828A83FD
:10299800E0F5F0A3E608B5F051DFF5804D89828AAD
:1029A80083E0F5F0A3E208B5F040DFF5803C8982CA
:1029B8008A83E493F5F0A3E608B5F02EDFF4802AC5
:1029C8008002805789828A83ECFAE493F5F0A3C8E1
:1029D800C582C8CCC583CCE0A3C8C582C8CCC58392
:1029E800CCB5F006DFE4DEE280007FFFB5F0020F31
:1029F8002240027F012289828A83ECFAE0F5F0A363
:102A0800C8C582C8CCC583CCE0A3C8C582C8CCC51C
:102A180083CCB5F0D5DFE5DEE380CF89828A83EC0D
:102A2800FAE0F5F0A3C8C582C8CCC583CCE493A36B
:102A3800C8C582C8CCC583CCB5F0AFDFE4DEE28080
:102A4800A988F0EF60010E4E60ABED2402B40400DB
:102A58005098F582EB2402B40400508E232345825B
:102A68002390293A73EF4E6012EF60010EEDBB011F
:102A78000B89828A83F0A3DFFCDEFA2289F05007F3
:102A8800F709DFFCA9F022BBFEFCF309DFFCA9F083
:102A980022F8BB010DE58229F582E5833AF583E842
:102AA800F0225006E92582C8F622BBFE05E92582F8
:102AB800C8F2227BFF7A7179F378387C957D017EA4
:102AC800007F3E1224B87BFF7A72793178777C9543
:102AD8007D017E007F241224B87B017A9579389095
:102AE8009708E4F0A3743EF07F207EAB124053E4D5
:102AF800909576F0909576E0C39410748094804019
:102B080003022D5CE0FF7E007401A807088005C35E
:102B180033CE33CED8F9FF90953EE0FCA3E0FDEE2E
:102B28005CFEEF5D4E7003022D40909576E0FF7ECF
:102B3800007401A807088005C333CE33CED8F9FF47
:102B4800909542E0FCA3E0FDEE5CFEEF5D4E700365
:102B5800022CED909576E0FF1313543F2407FFE411
:102B68003390959DF0A3EFF090959DE0FEA3E025AE
:102B7800E0FFEE33FE74382FF58274953EF583E05E
:102B8800FEA3E0FF909576E0540325E025E0FDEFF5
:102B9800A805088005CEC313CE13D8F9540FFF90AB
:102BA800959BE4F0A3EFF090959BE0FEA3E08EF0F8
:102BB8001228962BDF00002BF700012C0F00022CA7
:102BC8002700042C3E00052C5500062C6C00082C10
:102BD80083000900002C9A909576E025E02477F58B
:102BE80082E43495F583E4F0A37405F0022CAF90E9
:102BF8009576E025E02477F582E43495F583E4F0D2
:102C0800A37406F0022CAF909576E025E02477F5C2
:102C180082E43495F583E4F0A37407F0022CAF90B6
:102C28009576E025E02477F582E43495F583E4F0A1
:102C3800A37408F08071909576E025E02477F582FA
:102C4800E43495F583E4F0A37409F0805A909576FE
:102C5800E025E02477F582E43495F583E4F0A37465
:102C68000AF08043909576E025E02477F582E434F5
:102C780095F583E4F0A37403F0802C909576E02515
:102C8800E02477F582E43495F583E4F0A37404F046
:102C98008015909576E025E02477F582E43495F563
:102CA80083E4F0A37405F0909576E0FF7E0074014C
:102CB800A807088005C333CE33CED8F9FF90953ADC
:102CC800E0FCA3E0FDEE5CFEEF5D4E607E90957645
:102CD800E025E02477F582E43495F583E475F0087F
:102CE8001225D38066909576E0FF7E007401A807D0
:102CF800088005C333CE33CED8F9FF90953AE0FC6F
:102D0800A3E0FDEE5CFEEF5D4E6017909576E02542
:102D1800E02477F582E43495F583E4F0A37402F0B7
:102D28008029909576E025E02477F582E43495F5BE
:102D380083E4F0A304F08013909576E025E02477EF
:102D4800F582E43495F583E4F0A3F0909576E004F9
:102D5800F0022AFC9095767410F0909576E0C39472
:102D680012748094804003022FCDE024F0FF7E008F
:102D78007401A807088005C333CE33CED8F9FF9075
:102D88009540E0FCA3E0FDEE5CFEEF5D4E700302B3
:102D98002FB1909576E024F0FF7E007401A8070813
:102DA8008005C333CE33CED8F9FF909544E0FCA319
:102DB800E0FDEE5CFEEF5D4E7003022F5C909576B1
:102DC800E0FF1313543F2407FFE43390959DF0A3CD
:102DD800EFF090959DE0FEA3E025E0FFEE33FE7452
:102DE800382FF58274953EF583E0FEA3E0FF9095B9
:102DF80076E0540325E025E0FDEFA805088005CE20
:102E0800C313CE13D8F9540FFF90959BE4F0A3EFAA
:102E1800F090959BE0FEA3E08EF01228962E4900D4
:102E2800002E6100012E7900022E9100042EA800C8
:102E3800052EBF00062ED600082EED000900002F33
:102E480004909576E025E02477F582E43495F583BF
:102E5800E4F0A37405F0022F19909576E025E0249C
:102E680077F582E43495F583E4F0A37406F0022F35
:102E780019909576E025E02477F582E43495F5837A
:102E8800E4F0A37407F0022F19909576E025E0246A
:102E980077F582E43495F583E4F0A37408F0807143
:102EA800909576E025E02477F582E43495F583E47F
:102EB800F0A37409F0805A909576E025E02477F520
:102EC80082E43495F583E4F0A3740AF08043909586
:102ED80076E025E02477F582E43495F583E4F0A3E1
:102EE8007403F0802C909576E025E02477F582E451
:102EF8003495F583E4F0A37404F08015909576E09A
:102F080025E02477F582E43495F583E4F0A374058D
:102F1800F0909576E024F0FF7E007401A807088001
:102F280005C333CE33CED8F9FF90953CE0FCA3E03F
:102F3800FDEE5CFEEF5D4E7003022FC4909576E0C7
:102F480025E02477F582E43495F583E475F00812DA
:102F580025D38068909576E024F0FF7E007401A860
:102F680007088005C333CE33CED8F9FF90953CE0EF
:102F7800FCA3E0FDEE5CFEEF5D4E6017909576E0F9
:102F880025E02477F582E43495F583E4F0A3740210
:102F9800F08029909576E025E02477F582E4349551
:102FA800F583E4F0A304F08013909576E025E024FF
:102FB80077F582E43495F583E4F0A3F0909576E014
:102FC80004F0022D627B017A95797790971AE4F0E4
:102FD800A37424F07FA07EAB1242C022E51330E038
:102FE800167B017A9B7911909708E4F0A37402F09C
:102FF8007F147E00124053E51320E20302348F90C1
:103008009B11E0FEA3E04E7026909B0AE0C3940655
:10301800748094805005E004F08014909B0AE0646A
:1030280006700C7F39FE126B32909B0AE004F09018
:103038009B11E0FEA3E0640B4E7003122ABB909B29
:1030480011E0FEA3E064294E60030231277B017A78
:10305800957900909708F0A3741CF07FB07EC91290
:103068004053E49094FDF09094FDE0C3940774807D
:1030780094804003023111E025E025E02400F58228
:10308800E43495F583E0FEA3E0C4F8540FC868FD66
:10309800EEC454F048FC9094FDE025E025E02402BD
:1030A800F582E43495F583E0FEA3E0EEC4540F2DD9
:1030B800FFE43C9094FEF0A3EFF09094FEE0FEA3B2
:1030C800E0FF7C007D181225489094FDE025E0245F
:1030D8001CF582E43495F583EEF0A3EFF09094FEAE
:1030E800E0FEA3E0FF7C007D181225489094FDE0E7
:1030F80025E0242AF582E43495F583ECF0A3EDF07D
:103108009094FDE004F002306F7B017A95791C9071
:10311800971AE4F0A3741CF07F207EC91242C09075
:103128009B11E0FEA3E064264E60030232087B0197
:103138007A95790D909708F0A37406F07FA07EC663
:1031480012405390950DE0FEA3E0FFEEC4F854F052
:10315800C868FEEFC4540F489094FDEEF0A3E4F065
:103168009094FDE0FCA3E0FD90950DE0FEA3E078CF
:1031780007CEC313CE13D8F9541FFFECFEED4FFF53
:103188009094FDEEF0A3EFF090950DE0A3E0547F4E
:103198009094FFF0A3E4F09094FFE0FCA3E0FD908E
:1031A8009511E0FEA3E0EEFFECFEED4FFF9094FFDB
:1031B800EEF0A3EFF0909511E0A3E0909501F0A355
:1031C800E4F090950FE0FEA3E0FF909503EEF0A3E6
:1031D800EFF0A37402F0A314F0A37407F0A3E4F0D3
:1031E800A37418F0A3E4F0A3F0A3F07B017A947918
:1031F800FD90971AF0A37410F07F207EC61242C08B
:10320800909B11E0FEA3E0642F4E60030232E97B3D
:10321800017A9479FD909708F0A37402F07F107EEC
:10322800CF1240537B017A957901909708E4F0A377
:103238007402F07F227ECF1240539094FDE0FEA3EB
:10324800E0FF909B0BE0FCA3E06F7002EC6E606007
:103258009094FDE0A3E0909B0BEEF0A3EFF0909527
:1032680001E0FEA3E0543FFF909501EEF0A3EFF0DC
:10327800909501E0FCA3E0FD9094FDE0A3E07E00C2
:1032880054037806C333CE33CED8F9FFEC4EFEEDA7
:103298004FFF909501EEF0A3EFF07B017A9579014D
:1032A80090971AE4F0A37402F07F227ECF1242C0F6
:1032B800909501E0FEA3E07806CEC313CE13D8F9AB
:1032C8005403FF909503E4F0A3EFF07B017A95791E
:1032D8000390971AE4F0A37402F07F117ECF124294
:1032E800C0909B11E0FEA3E064234E7056909B0DA6
:1032F800E0C394057480948050429094FDE4F0A358
:1033080004F0FB7A9479FD90971AE4F0A37402F024
:103318007F277ED91242C09094FDE4F0A3745AF03E
:103328007B017A9479FD90971AE4F0A37402F07FF8
:10333800877ED91242C0909B0DE004F0E4909B0E6A
:10334800F08072909B0EE0C3940574809480506066
:10335800E49094FDF0A3F07B017A9479FD909708AE
:10336800F0A37402F07F297EC71240539094FDE0C9
:10337800FEA3E04E70347B017A9479FD90971AF0A1
:10338800A37402F07F277ED91242C09094FDE4F026
:10339800A3745AF07B017A9479FD90971AE4F0A30C
:1033A8007402F07F877ED91242C0909B0EE004F031
:1033B800E4909B0DF07B017A9479FD909708E4F0F6
:1033C800A37402F07F167E001240539094FDE0FE35
:1033D800A3E04E6025E49094FDF0A3F07B017A947D
:1033E80079FD90971AF0A37402F07F167E001242BE
:1033F800C0E4909B0FF0A3F08046909B0FE0FEA3E3
:10340800E0C39458EE9402500C909B0FE475F001C1
:103418001225D3802B909B0FE0FEA3E0B45821EE39
:10342800B4021D909B0FE475F0011225D3909B11F7
:10343800E0FEA3E064394E60077F397E00126B32EC
:103448007B017A9479FD909708E4F0A37402F07FE9
:10345800007EE01240539094FDE0FEA3E0EE30E0E1
:1034680014909B11E0FEA3E064414E601A7F417EF8
:1034780000126B3222909B11E0FEA3E064414E7073
:10348800067F39FE126B32229095021228679095BA
:1034980005ECF0A3EDF0909505E0FEA3E0C39405DC
:1034A800EE940050030237E5E4A3F0A3F0909502F0
:1034B800122847909507E0FEA3E0F5828E83122438
:1034C800F7640260030237BF90950212284790956F
:1034D80007E0A3E029F9EA3EFA9000011224F71266
:1034E800287034F703364606370810000037BF90B7
:1034F8009502122847909507E0FEA3E029F9EA3ED5
:10350800FA9000021224F7FF90950BE4F0A3EFF075
:10351800909507E0A3E0FF90950BE0FCA3E02FFF58
:10352800EC3EFEEF2405FFE43EFE909505E0FCA38B
:10353800E0FDD3EF9DEE9C4011909505E0FEA3E0E1
:10354800FFA3EEF0A3EFF00237BF909502122847D1
:10355800909507E0FEA3E029F9EA3EFA90950BE082
:10356800FEA3E02403FDE43EFC12640A909509EEF4
:10357800F0A3EFF0909502122847909507E0FEA37C
:10358800E029F9EA3EFA90950BE0FEA3E029F9EA72
:103598003EFA9000031224F7FD909509E0FEA3E09F
:1035A800EE6D7001E460030237BF90950212284760
:1035B800909507E0FEA3E029F9EA3EFA90950BE022
:1035C800FEA3E029F9EA3EFA9000041224F7FF90DE
:1035D8009509E0A3E06F7001E460030237BF908FA4
:1035E800A2E0FEA3E0FF909502122847909507E01D
:1035F800FCA3E029F9EA3CFAE92403F9E43AFA9051
:10360800950BE0FCA3E0FD90971AECF0A3EDF01207
:1036180042C07E007F0E7D007B017A8F799A122A44
:103628006D90950BE0FEA3E02405FFE43E9095071E
:10363800F0A3EFF0908E69E04402F00237BF909556
:1036480007E0FEA3E02408FFE43EFE909505E0FCB9
:10365800A3E0FDD3EF9DEE9C4011909505E0FEA3FD
:10366800E0FFA3EEF0A3EFF00237BF909502122817
:1036780047909507E0FEA3E029F9EA3EFA7D067C2B
:103688000012640A909509EEF0A3EFF090950212EB
:103698002847909507E0FEA3E029F9EA3EFA900052
:1036A800061224F7FD909509E0FEA3E0EE6D700187
:1036B800E460030237BF909502122847909507E00F
:1036C800FEA3E029F9EA3EFA9000071224F7FF90DA
:1036D8009509E0A3E06F7001E460030237BF90959D
:1036E8000775F0081225D37E007F0E7D007B017AD6
:1036F8008F799A122A6D908E69E04402F00237BFE2
:10370800909507E0FEA3E02408FFE43EFE909505AF
:10371800E0FCA3E0FDD3EF9DEE9C4011909505E001
:10372800FEA3E0FFA3EEF0A3EFF00237BF909502EF
:10373800122847909507E0FEA3E029F9EA3EFA7DB2
:10374800067C0012640A909509EEF0A3EFF09095BC
:1037580002122847909507E0FEA3E029F9EA3EFA0D
:103768009000061224F7FD909509E0FEA3E0EE6DA7
:103778007001E47042909502122847909507E0FE88
:10378800A3E029F9EA3EFA9000071224F7FF909582
:1037980009E0A3E0B50720E490950775F008122525
:1037A800D37E007F0E7D007B017A8F799A122A6D75
:1037B800908E69E04402F0909507E475F0011225B7
:1037C800D3909505E0FEA3E024FBFFEE34FFFEA3B3
:1037D800E0FCA3E0C39FEC9E50030234B522909511
:1037E800021228679095021228471225FFFF90952C
:1037F80005E5F0F0A3EFF0909505E0FEA3E0C39493
:1038080058EE94004003023B06909505E0A3E09033
:103818008FA875F00E12283BEE75F00EA42583F5DF
:1038280083E0645A6003023AF9909505E0A3E090BA
:103838008FAB75F00E12283BEE75F00EA42583F5BC
:1038480083E07003023AF9909505E0A3E0908FAD0C
:1038580075F00E12283BEE75F00EA42583F583E073
:103868007003023B06909505E0A3E0908FAD75F0DC
:103878000E12283BEE75F00EA42583F583E0640153
:103888007034909505E0A3E0908FAE75F00E122885
:103898003BEE75F00EA42583F583E0FEA3E0FF90D0
:1038A8009B11E0FCA3E06F7002EC6E6003023AF932
:1038B800023B06023AF9909505E0FEA3E0908FAD31
:1038C80075F00E12283BEE75F00EA42583F583E003
:1038D800640260030239C5909505E0A3E0908FAEBD
:1038E80075F00E12283BEE75F00EA42583F583E0E3
:1038F800FEA3E0FF7B017A957907909708E4F0A38F
:103908007402F0124053909507E0A3E0645A6003F4
:10391800023AF9909505E0FEA3E0C39457EE9400AF
:103928005061909505E0A3E0908FBB75F00E1228CA
:103938003BEE75F00EA42583F583E0640270449095
:103948009505E0A3E0908FBC75F00E12283BEE754C
:10395800F00EA42583F583E0FEA3E0FF909505E033
:10396800FCA3E0908FAE75F00E12283BEC75F00EBC
:10397800A42583F583E0FCA3E06F7002EC6E70036E
:10398800023B06E4909507F0A3F0909505E0FEA3AE
:10399800E0908FAE75F00E12283BEE75F00EA42560
:1039A80083F583E0FEA3E0FF7B017A957907909782
:1039B8001AE4F0A37402F01242C0023B0690950587
:1039C800E0FEA3E0908FAD75F00E12283BEE75F087
:1039D8000EA42583F583E064036003023AF9909509
:1039E80005E0A3E0908FB475F00E12283BEE75F059
:1039F8000EA42583F583E0FEA3E0FF909B11E0FC75
:103A0800A3E0FDEF6D7002EE6C6003023AF9909549
:103A180005E0FEA3E0908FAE75F00E12283BEE7520
:103A2800F00EA42583F583E0FEA3E0FF7B017A95E1
:103A38007907909708E4F0A37402F0124053909528
:103A480007E0A3E0645A6003023AF9909505E0FEA6
:103A5800A3E0C39457EE9400505E909505E0A3E070
:103A6800908FBB75F00E12283BEE75F00EA42583DF
:103A7800F583E064037041909505E0A3E0908FBC66
:103A880075F00E12283BEE75F00EA42583F583E041
:103A9800FEA3E0FF909505E0FCA3E0908FAE75F0E3
:103AA8000E12283BEC75F00EA42583F583E0FCA3E9
:103AB800E06F7002EC6E6046E4909507F0A3F0901A
:103AC8009505E0FEA3E0908FAE75F00E12283BEE50
:103AD80075F00EA42583F583E0FEA3E0FF7B017A51
:103AE80095790790971AE4F0A37402F01242C08007
:103AF8000D909505E475F0011225D30237FF9095D6
:103B080005E0FEA3E0FF909502122847EE8FF01221
:103B180026622290950D122867909510ECF0A3ED7F
:103B2800F07BFF7A72798F78127C957D017E007F19
:103B3800181224B890950D12284790000A12262AC8
:103B4800246CFFE5F0340790953EF0A3EFF09095D4
:103B58003EE0FEA3E0FF7C007D6412259DED4C60F5
:103B68001390953EE0FEA3E0FF7C007D0412259DA6
:103B7800ED4C601390953EE0FEA3E0FF7C017D9044
:103B880012259DED4C70067E007F0180047E007F2B
:103B98000090953AEEF0A3EFF090950D122847901B
:103BA800000A12262A24BAFFE5F034FFFE3395E016
:103BB800FDFC90952A1227FE90950D12284790003B
:103BC8000812262AC39401E5F0648094805040903E
:103BD800953AE0FEA3E064014E703490952A1227CE
:103BE800E6EF2402FFE43EFEE43DFDE43CFCE47B1A
:103BF80004FAF9F8126B79EF24FFFFEE34FFFEEDBB
:103C080034FFFDEC34FFFC9095321227FE802290A1
:103C1800952A1227E6EF2402FFE43EFEE43DFDE488
:103C28003CFCE47B04FAF9F8126B79909532122780
:103C3800FE90952E12280A00000000E490953CF0B2
:103C4800A3F090950D12284790000812262AFF909D
:103C5800953CE0FCA3E0C39FE5F06480F8EC648049
:103C680098504890952E1227E6C006C00790953CBC
:103C7800E0FEA3E025E0FFEE33FE74122FF5827418
:103C8800953EF583E0FEA3E0FFFBAA06EA3395E044
:103C9800F9F8D007D00612268190952E1227FE90AB
:103CA800953CE475F0011225D3809790952E122744
:103CB800E6C006C00790950D122847900006122608
:103CC8002A24FFFFE5F034FFFEAB07FA3395E0F94D
:103CD800F8D007D00612268190952E1227FE9095CF
:103CE8002E1227E6C004C005C006C007E47F6D7E1B
:103CF80001FDFC90952A1227F212268E9095321219
:103D080027F2122681A804A905AA06AB07D007D076
:103D180006D005D00412268190952E1227FE909584
:103D28000D12284790000412262AFF909510E0FCF7
:103D3800A3E0FDC3EF9DFFE5F09CFE3395E0FDFC9D
:103D48009095361227FEE47F107E0EFDFC90953686
:103D58001227F212268EC004C005C006C0077F8055
:103D68007E517D017C0090952E1227F212268EA896
:103D780004A905AA06AB07D007D006D005D00412BF
:103D88002681C004C005C006C00790950D122847BB
:103D980090000212262AFFAEF07C007D3C122536E8
:103DA800AB07AA06EA3395E0F9F8D007D006D005A4
:103DB800D004122681C006C00790950D122847121C
:103DC80025FFFFAEF0FBAA06EA3395E0F9F8D00725
:103DD800D00612268122E51330E10D909B13E4757D
:103DE800F0011225D312598B909B13E0FEA3E0C378
:103DF80094B8EE940B5003024052E4909B13F0A346
:103E0800F0909B17E0FEA3E02400FFEE341090949E
:103E1800FDF0A3EFF07B017A9479FF909708E4F026
:103E2800A37402F07FA37ED91240539094FFE475E7
:103E3800F0C81225D39094FDE0FEA3E0FF7B017A41
:103E48009479FF90971AE4F0A37402F01242C0909C
:103E58009B17E0FEA3E02400FFEE34189094FDF0D9
:103E6800A3EFF07B017A9479FF909708E4F0A374AC
:103E780002F07FA47ED91240539094FDE0FEA3E0A7
:103E8800FF7B017A9479FF90971AE4F0A37402F00B
:103E98001242C0909B17E0FEA3E0FF909503EEF05E
:103EA800A3EFF0909B17E475F0011225D3909B17B0
:103EB800E0FEA3E0C394FEEE94074007E4909B174E
:103EC800F0A3F07B017A9B791790971AE4F0A3741A
:103ED80002F07F007E031242C07B017A9B79179023
:103EE800971AE4F0A37402F0FF7E031242C0909583
:103EF800017407F0A374FEF07B017A95790190971D
:103F08001AE4F0A37402F07F087E501242C07B01CD
:103F18007A95790190971AE4F0A37402F07F097EEC
:103F2800501242C09095017402F0A3748AF07B018C
:103F38007A95790190971AE4F0A37402F07F117EC4
:103F4800501242C0909ADEE075F03CA4FFA3E07CDA
:103F5800002FFFEC35F0909B15F0A3EFF0909B1528
:103F6800E0FEA3E0FF1251C5909B17E0A3E030E00C
:103F78000302405290950374FFF5F01225D39095F3
:103F880003E0FEA3E02400FFEE3410FE7B017A94E8
:103F980079FD909708E4F0A37404F01240539095CB
:103FA8000174A5F0A3745AF07B017A9479FD909777
:103FB8001AE4F0A37406F07F007E501242C0909578
:103FC80003E0FEA3E0FFE4FCFD9097061227FE90B5
:103FD800970AE4F0A37404F07D007C507FA5126377
:103FE80085909503E0FEA3E02400FFEE3418FE7BE5
:103FF800017A9479FD909708E4F0A37404F01240D4
:104008005390950174A5F0A3745AF07B017A9479C2
:10401800FD90971AE4F0A37406F07F007E501242D8
:10402800C0909503E0FEA3E02400FFEE3408FEE410
:10403800FCFD9097061227FE90970AE4F0A37404FB
:10404800F07D007C507FA512638522909703EEF0E7
:10405800A3EFF0A31228677B007A007900C003C0A1
:1040680002C001909705122847D082D083D0E06B18
:104078007008E965827003EA658370030242BF90A5
:104088009708E0FEA3E04E70030242BF909708E055
:10409800A3E0FFEEC313FEEF13FF909703E0FCA32A
:1040A800E02FFFEE3CFED3EF94FEEE94FF400302B8
:1040B80042BFC2AF909703E0A3E0540190970AF083
:1040C800909703E0FEA3E0FFEEC313FEEF13FF900B
:1040D8009703EEF0A3EFF0909703E0FEA3E07810CB
:1040E800CEC313CE13D8F9F5F1909703E0FEA3E001
:1040F800EEF5F2909703E0A3E0F5F3E4F5F875F434
:1041080001D2FF30FCFDD2FD90970AE06401707285
:10411800909708E0FEA3E064014E700AC2FBC2FA61
:10412800D2F9C2F88008C2FBC2FAD2F9D2F8D2FE9C
:1041380020FEFD909708E0FEA3E064014E701A90FF
:10414800970575F001122850E5FC12252490970870
:1041580074FFF5F01225D38029909705E475F001D6
:10416800122850E5FC122524909705E475F00112F9
:104178002850E5FD12252490970874FF75F0FE126B
:1041880025D3909708E0FEA3E04E70030242BA9050
:104198009708E0A3E0C39404EE940040030242634E
:1041A800909708E0A3E08EF012289641D7000141CD
:1041B800CD000241C30003000041DFD2FBD2FAD296
:1041C800F9C2F88012D2FBD2FAC2F9C2F88008D23A
:1041D800FBC2FAC2F9C2F8D2FE20FEFD909708E0B1
:1041E800FEA3E08EF01228964250000142300002F1
:1041F80042000003000042BA909705E475F00112EE
:104208002850E5FA122524909705E475F001122844
:1042180050E5FB122524909705E475F0011228500B
:10422800E5FC1225240242BA909705E475F00112C4
:104238002850E5FA122524909705E475F001122814
:1042480050E5FB122524806A909705E475F0011269
:104258002850E5FA12252480598057D2FBD2FAD289
:10426800F9D2F8D2FE20FEFD909705E475F0011210
:104278002850E5FA122524909705E475F0011228D4
:1042880050E5FB122524909705E475F0011228509B
:10429800E5FC122524909705E475F001122850E5F5
:1042A800FD12252490970874FF75F0FC1225D3029F
:1042B800418AE4F5F8D2AF22909715EEF0A3EFF01B
:1042C800A31228677B007A007900C003C002C001EE
:1042D800909717122847D082D083D0E06B7008E9F6
:1042E80065827003EA6583700302452B90971AE094
:1042F800FEA3E04E700302452B90971AE0A3E0FF5F
:10430800EEC313FEEF13FF909715E0FCA3E02FFF19
:10431800EE3CFED3EF94FEEE94FF400302452BC221
:10432800AF909715E0A3E0540190971CF090971573
:10433800E0FEA3E0FFEEC313FEEF13FF909715EE28
:10434800F0A3EFF0909715E0FEA3E07810CEC3132A
:10435800CE13D8F9F5F1909715E0FEA3E0EEF5F24B
:10436800909715E0A3E0F5F3E4F5F875F401D2FFB2
:1043780030FCFDC2FD90971CE06401707290971AA2
:10438800E0FEA3E064014E700AC2FBC2FAD2F9C291
:10439800F88008C2FBC2FAD2F9D2F890971AE0FE68
:1043A800A3E064014E701A90971775F00112285017
:1043B8001224DEF5FC90971A74FFF5F01225D380CD
:1043C80029909717E475F0011228501224DEF5FCA5
:1043D800909717E475F0011228501224DEF5FD902D
:1043E800971A74FF75F0FE1225D3D2FE20FEFD90B9
:1043F800971AE0FEA3E04E700302452690971AE054
:10440800A3E0C39404EE940040030244CF90971AAB
:10441800E0A3E08EF012289644440001443A0002DA
:10442800443000030000444CD2FBD2FAD2F9C2F85F
:104438008012D2FBD2FAC2F9C2F88008D2FBC2FAC3
:10444800C2F9C2F890971AE0FEA3E08EF0122896FF
:1044580044B700014497000244680003000044C6C2
:10446800909717E475F0011228501224DEF5FA909F
:104478009717E475F0011228501224DEF5FB909787
:1044880017E475F0011228501224DEF5FC802F90F5
:104498009717E475F0011228501224DEF5FA909768
:1044A80017E475F0011228501224DEF5FB800F90F6
:1044B8009717E475F0011228501224DEF5FAD2FE9F
:1044C80030FE5B80FB8057D2FBD2FAD2F9D2F8904B
:1044D8009717E475F0011228501224DEF5FA909728
:1044E80017E475F0011228501224DEF5FB90971797
:1044F800E475F0011228501224DEF5FC909717E4B9
:1045080075F0011228501224DEF5FDD2FE20FEFDC2
:1045180090971A74FF75F0FC1225D30243F7E4F55F
:10452800F8D2AF227BFF7A71796F78FD7C947D0198
:104538007E007F201224B87B017A9479FD90951F24
:10454800122867909522122867E490951DF0A3F031
:1045580090951DE0FEA3E0C3EE940240030245F5EA
:1045680090951DE0A3E07803C333CE33CED8F92469
:1045780000FFEE3420FEE4FCFD9097061227FE9023
:10458800970AE4F0A37408F07D007C307F5A126328
:10459800857B017A9479FD909708E4F0A37410F074
:1045A8007F007E3012405390951F1228471225FF36
:1045B800645A7004E5F064A5602690952212284795
:1045C8001225FFB4A527E5F0B45A229095221228A7
:1045D80047784D7C9A7D017E007F081224B8800DB3
:1045E80090951DE475F0011225D3024558E4909585
:1045F8001DF0A3F090951DE0FEA3E0C3940AEE948D
:104608000040030247877BFF7A71798F78257C9574
:104618007D017E007F201224B87B017A9979F57894
:10462800257C957D017E007F1A1224B890951DE0A7
:10463800FEA3E0FF7C007D1B122536EF2464FFE417
:104648003E909529F0A3EFF090952E7401F0909587
:104658001DE0FEA3E0909A7075F00612283BEE75F7
:10466800F006A42583F583E0FEA3E0FF7B017A959D
:10467800792590971AE4F0A37420F01242C07B01C8
:104688007A9A790F78257C957D017E007F1A12240D
:10469800B890951DE0FEA3E0FF7C007D1B12253637
:1046A800EF2464FFE43E909529F0A3EFF090952E57
:1046B8007401F090951DE0FEA3E0909A7275F006E3
:1046C80012283BEE75F006A42583F583E0FEA3E0EF
:1046D800FF7B017A95792590971AE4F0A37420F06E
:1046E8001242C07B017A9A79AC78257C957D017E4F
:1046F800007F1A1224B890951DE0FEA3E0FF7C000D
:104708007D1B122536EF2464FFE43E909529F0A323
:10471800EFF090951DE0FEA3E0FF122536EF24642C
:10472800FFE43E90952FF0A3EFF090951DE0FEA3D7
:10473800E0FF122536EF247DFFE43E909533F0A389
:10474800EFF090951DE0FEA3E0909A7475F00612C4
:10475800283BEE75F006A42583F583E0FEA3E0FF71
:104768007B017A95792590971AE4F0A37420F012CA
:1047780042C090951DE475F0011225D30245FC2234
:10478800126E717F64126A497F10126A49126EEDC7
:10479800126E717F65126A499095067406F09095BD
:1047A80006E0D3940074809480401D1269F49095BB
:1047B80006E024FEF582E43494F583EFF0126E8C63
:1047C800909506E014F080D61269F49094FEEFF00C
:1047D800126EA5126EED7B017A9479FE78E97C9AC7
:1047E8007D017E007F071224B8E4909506F090952D
:1047F80006E0C3940374809480504BE024FEF58255
:10480800E43494F583E0FFC4540F909507F0909535
:1048180006E024FEF582E43494F583E0540F909585
:1048280008F0909507E075F00AA4FFA3E02FFF9029
:104838009506E024FEF582E43494F583EFF0909534
:1048480006E004F080A89095067404F0909506E0C0
:10485800C3940774809480504BE024FEF582E434BE
:1048680094F583E0FFC4540F909507F0909506E007
:1048780024FEF582E43494F583E0540F909508F013
:10488800909507E075F00AA4FFA3E02FFF90950626
:10489800E024FEF582E43494F583EFF0909506E089
:1048A80004F080A89094FEE0FFA3E0FDA3E0FB12D3
:1048B800548D909501EFF07B017A9479FE90971AC8
:1048C800E4F0A37408F07F107E001242C07B017AE6
:1048D8009479FE78DA7C9A7D017E007F071224B8ED
:1048E8007B017A9A79DE90971AE4F0A37402F07F3C
:1048F800287ECD1242C0909AD8E0FEA3E0C3944827
:10490800EE9403500A909AD8E475F0011225D390DA
:104918009503E06013A3E0600F909AD8E0FEA3E04F
:10492800C39447EE940350062000030249D790959C
:104938000912280A00000000909504E0FF909AC62A
:10494800E4F0A3EFF0909503E0FF909AC8E4F0A399
:10495800EFF0909502E0FF909ACAE4F0A3EFF09090
:104968009500E0FF909ACCE4F0A3EFF09094FFE07C
:1049780024FFFFE434FF909ACEF0A3EFF09094FE6A
:10498800E02464FFE433909AD0F0A3EFF09094FE13
:10499800E4F0A3745AF0A3E4F0A37412F07B017A54
:1049A8009A79C67D087C00123B1B9095021227FE5F
:1049B8007B017A9479FE90971AE4F0A37408F07F4B
:1049C800157E501242C0E4909AD8F0A3F0C200229B
:1049D800E49094FDF0A3F0E51320E003024C247B5F
:1049E800017A9479FD909708E4F0A37402F07F149B
:1049F8007E501240539094FDE0FEA3E04E700302F7
:104A08004C249094FDE0A3E08EF01228964B9FA4CE
:104A1800004BA4A4014BA9A4A04BA9A4A14BA9A4F1
:104A2800A24BA9A4A34BA9A4A44BA9A4A54BA9A490
:104A3800A64BA9A4A74BA9A4A84BA9A4A94BA9A470
:104A4800AA4BA9A4AB4BA9A4AC4BA9A4AD4BA9A450
:104A5800AE4BA9A4AF4BA9A4B04BA9A4B14BA9A430
:104A6800B24BA9A4B34BA9A4B44BA9A4B54BA9A410
:104A7800B64BA9A4B74BA9A4B84BA9A4B94BA9A4F0
:104A8800BA4BA9A4BB4BA9A4BC4BA9A4BD4BA9A4D0
:104A9800BE4BA9A4BF4BA9A4C04BA9A4C14BA9A4B0
:104AA800C24BA9A4C34BA9A4C44BA9A4C54BA9A490
:104AB800C64BA9A4C74BA9A4C84BA9A4C94BA9A470
:104AC800CA4BA9A4CB4BA9A4CC4BA9A4CD4BA9A450
:104AD800CE4BA9A4CF4BA9A4D04BA9A4D14BA9A430
:104AE800D24BA9A4D34BA9A4D44BA9A4D54BA9A410
:104AF800D64BA9A4D74BA9A4D84BA9A4D94BA9A4F0
:104B0800DA4BA9A4DB4BA9A4DC4BA9A4DD4BA9A4CF
:104B1800DE4BA9A4DF4BA9A4E04BA9A4E14BA9A4AF
:104B2800E24BA9A4E34BA9A4E44BA9A4E54BB6A482
:104B3800F04BB6A4F14BB6A4F24BB6A4F34BC3A604
:104B4800004C08A6014BC8AC004BCDAC014BD2B70A
:104B5800004BF3B83C4BF3B8694BD7C2004BDCC3EE
:104B6800004BE1C7014BE6C9014BE6C9064BE6C954
:104B78000C4BE6C90E4BE6C9114C00D6004B95D933
:104B8800004B9AD9264C05E00000004C0812671229
:104B9800806E126E5480691265D38064120016808C
:104BA8005F9094FDE0FEA3E0FF12688F805290941E
:104BB800FDE0FEA3E0FF1268E9804512617A8040BB
:104BC80012699C803B126CF18036126D278031127D
:104BD8006DC2802C1265668027126C7980229094B1
:104BE800FDE0FEA3E0FF126A9C80159094FDE0FEB4
:104BF800A3E0FF126AE78008126BBD8003126BFC0A
:104C0800E49094FDF0A3F07B017A9479FD90971AD3
:104C1800F0A37402F07F147E501242C0227BFF7A08
:104C28006F796F78FD7C947D017E027F001224B835
:104C380090970612280A0000000090970A7410F056
:104C4800A3E4F0FD7C107F5A1263859096FD7410E2
:104C5800F0A3E4F09096FDE0FEA3E0C394FEEE948A
:104C68001750699096FDE0A3E0FF7B017A9479FDE7
:104C78009097087402F0A3E4F0124053E49096FF72
:104C8800F0A3F09096FFE0FEA3E0C3EE9401502F4E
:104C98009096FFE0A3E025E0FFEE33FE74FD2FF5CC
:104CA8008274943EF583E0FEA3E0645A7003EE64D8
:104CB800A560199096FFE475F0011225D380C49081
:104CC80096FD740175F0001225D380889096FFE058
:104CD800FEA3E0FF9096FDE0FCA3E02FFFEC3E90E2
:104CE8009701F0A3EFF0909701E0FEA3E0C394FED4
:104CF800EE941740099097017410F0A3E4F0909790
:104D08000174F075F0001225D3909701E0FEA3E03E
:104D1800FF909B17EEF0A3EFF07B017A9779019053
:104D2800971AE4F0A37402F07F007E031242C07B5E
:104D3800017A97790190971AE4F0A37402F0FF7E44
:104D4800031242C07B017A97790190971AE4F0A385
:104D58007402F07F087E501242C07B017A97790175
:104D680090971AE4F0A37402F07F097E501242C0B3
:104D78009094FD7407F0A374FEF07B017A9479FD9A
:104D880090971AE4F0A37402F07F017E031242C0E8
:104D98007B017A9479FD90971AE4F0A37402F004E9
:104DA800FFFE1242C09094FDE4F0A37406F0A3E461
:104DB800F0A304F0A3E4F0A3742EF0A37401F0A30D
:104DC800744CF0A37401F0A37471F0A37401F0A300
:104DD8007477F0A37401F0A3748AF0A37402F0A3AB
:104DE800748AF0A37401F0A37471F0A374FFF0A3A4
:104DF800E4F07B017A9479FD90971AF0A37414F08B
:104E08007F0A7E501242C0909ADEE075F03CA4FF03
:104E1800A3E07C002FFFEC35F0909B15F0A3EFF09A
:104E2800909B15E0FEA3E0FF1251C5227B007A009B
:104E380079009094FD122867908F99E064016003CF
:104E4800024ECB908F94E0FF909478E0D39F40116E
:104E5800E0908F94F09094F912280A0000000080E6
:104E680062908F94E0FF909478E06F7056FFFEFD9B
:104E7800FC9094F91227F2D31227C140389094F984
:104E88001227F2C3E50E9BFFE50D9AFEE50C99FD8E
:104E9800E50B98FCE47B14FAF9F8C31227C15023F8
:104EA8007B017A947979909478E0FD7C00123490B3
:104EB800126DEF800EAF0EAE0DAD0CAC0B9094F9E9
:104EC8001227FE908E69E030E046E020E129908FBD
:104ED800951227F2C3E50E9BFBE50D9AFAE50C99AE
:104EE800F9E50B98F8908F9EE0FFE4FCFDFEC312F5
:104EF80027C1500302502F908E69E030E10AA3E4E5
:104F080075F0011225D3802F908E69E054FEF022AF
:104F1800908F951227F2C3E50E9BFFE50D9AFEE5EB
:104F28000C99FDE50B98FCE47BF47A01F9F8D312AF
:104F380027C1400302502F908E6AE0FEA3E04E7016
:104F4800031255D2908F9512280A00000000E4F54C
:104F58000EF50DF50CF50B908E69E054FDF0E0545C
:104F6800FEF0126DEF7B017A8E796A1237E6908E29
:104F78006AE0FEA3E0C39458EE9400400302502870
:104F8800908E6AE0A3E0FF7C007D0E12253674A89F
:104F98002FF9748F3EFA7B01789A7C8F7D017E0011
:104FA8007F0E1224B8126DEF908F9CE0640370128C
:104FB8007B017A8F799A125BCD908E69E04401F07B
:104FC8008054908F9CE064067034908FA2E0FEA31A
:104FD800E0FF7B017A957900909708E4F0A37402CA
:104FE800F01240537B017A8F799A909500E0FCA3E8
:104FF800E0FD125CE8908E69E04401F08018908F23
:105008009CE0641070107B017A8F799A125030906E
:105018008E69E04401F0E4F50EF50DF50CF50B2270
:10502800E4908E6AF0A3F022909502122867E4902B
:105038009507F09095021228479000011224F7FF77
:10504800909507E0FE04F074082EF582E43495F597
:1050580083EFF0909507E0FF04F074082FF582E4E1
:105068003495F5837410F090950212284790000A41
:1050780012262AE5F0FF909507E0FE04F074082E4A
:10508800F582E43495F583EFF09095021228479065
:10509800000A12262AFF909507E0FE04F074082EF5
:1050A800F582E43495F583EFF09095021228479045
:1050B80000031224F7FFE4909507E0FE04F074085B
:1050C8002EF582E43495F583E4F090950212284792
:1050D8009000031224F7FF909507E0FE04F074088F
:1050E8002EF582E43495F583EFF090950212284767
:1050F8009000031224F725E0FF909507E0FE04F0E6
:1051080074082EF582E43495F583EFF0908FA2E0D1
:10511800FEA3E0FFC006C007909507E02408F9E465
:105128003495FA7B01C003C002C001909502122891
:10513800479000031224F775F002A4FF909708E542
:10514800F0F0A3EFF0D001D002D003D007D00612C0
:1051580040539095021228479000031224F725E047
:10516800FF909507E02FF07B017A957908E0FD7CA8
:105178000012640A909505EEF0A3EFF0909505E013
:10518800FEA3E0EEFFA3E0FE04F074082EF582E42F
:105198003495F583EFF0909505E0A3E0FFA3E0FEDA
:1051A80004F074082EF582E43495F583EFF07B0162
:1051B8007A957908909507E0FD1268352290970353
:1051C800EEF0A3EFF0909703E0FEA3E0FFA3EEF06C
:1051D800A3EFF0909705E0FEA3E0C39478EE648017
:1051E8009480500D909705740575F0A01225D38012
:1051F800E2909705E0FEA3E024D8FFEE34FFA3F089
:10520800A3EFF0909705E0A3E024B0FFEE34FF9001
:105218009709F0A3EFF0909705E0A3E02488FFEE4C
:1052280034FF90970BF0A3EFF0909705E0A3E0FF11
:105238007C057DA012259D909705ECF0A3EDF090DC
:105248009705E0FEA3E0FF7C007D3C12259D90972A
:105258000DEFF0909705E0FEA3E0FF7C007D3C1287
:10526800259D90970EEDF0909707E0FEA3E0FF7C58
:10527800057DA012259D909707ECF0A3EDF090977F
:1052880007E0FEA3E0FF7C007D3C12259D90970F70
:10529800EFF0909707E0FEA3E0FF7C007D3C12252D
:1052A8009D909710EDF0909709E0FEA3E0FF7C0534
:1052B8007DA012259D909709ECF0A3EDF090970939
:1052C800E0FEA3E0FF7C007D3C12259D909711EF46
:1052D800F0909709E0FEA3E0FF7C007D3C12259D3D
:1052E800909712EDF090970BE0FEA3E0FF7C057D10
:1052F800A012259D90970BECF0A3EDF090970BE092
:10530800FEA3E0FF7C007D3C12259D909713EFF0F3
:1053180090970BE0FEA3E0FF7C007D3C12259D905A
:105328009714EDF07B017A97790D90971AE4F0A322
:105338007408F07F207ECD1242C022C0E0C0F0C0C9
:1053480083C082C0D075D000C000C001C002C003B5
:10535800C004C005C006C007C2AF758CBC758ACD35
:10536800909AFAE475F0011225D3909AFAE0FEA318
:10537800E0D394E8EE94034018909AFAE4F0A3F08E
:10538800A375F0011225D3909AF8E475F00112255F
:10539800D343C901909B061227E6E47B01FAF9F88A
:1053A800122681909B061227FE909AFEE475F00162
:1053B8001225D3909B001227E6E4F8122681909BD1
:1053C800001227FE909B04E0FEA3E0FFE4FCFD7BB7
:1053D800DC7AFFF8D31227AB400A909B04E475F0FF
:1053E800011225D30509E50970020508AF12AE11AF
:1053F800AD10AC0FE47B01FAF9F81226818F128EFA
:10540800118D108C0FAF0EAE0DAD0CAC0BE4122647
:10541800818F0E8E0D8D0C8C0BE47B64AF12AE1158
:10542800AD10AC0F122719AC00AD01AE02AF03E40A
:10543800FBFAF9F8C31227C17003430A02E47BF4AC
:105448007A01F9F8AF12AE11AD10AC0F122719ACF2
:1054580000AD01AE02AF03E4FBFAF9F8C31227C1AD
:105468007003430A04430A01D2AFD007D006D0051F
:10547800D004D003D002D001D000D0D0D082D083C5
:10548800D0F0D0E03290950DEFF0A3EDF0A3EBF063
:10549800E490951AF0A3F090950DE024D0FFE43441
:1054A8000790951AF0A3EFF090951AE0FEA3E0FF9D
:1054B8007C007D64122548909510ECF0A3EDF090E7
:1054C800951AE0FEA3E0FF7C007D641225489095C4
:1054D80012EEF0A3EFF090950EE0FF909514E4F033
:1054E800A3EFF090950FE0FF909516E4F0A3EFF08E
:1054F800909514E0FEA3E064014E600B909514E0D3
:10550800A3E064024E701490951074FFF5F0122514
:10551800D3909514E475F00C1225D3909510E0FE05
:10552800A3E07802CEC313CE13D8F9FF909510E00C
:10553800FCA3E02FFDEE3CFCA3E0FEA3E07802CE46
:10554800C313CE13D8F92DFDEC3EFC909512E0FE66
:10555800A3E025E0FFEE33FEC3ED9FFBEC9EFAA32C
:10556800E0FEA3E02401FFE43EFE7C007D0D122551
:10557800367D05122548EF2BFFEE3AFEA3E0FCA38B
:10558800E02FFFEE3CFEEF24FFFFEE34FFA3F0A375
:10559800EFF0909518E0FEA3E0C3EE9400500C9055
:1055A8009518E475F0071225D380E7909518E0FE6A
:1055B800A3E0FF7C007D07122548909518ECF0A326
:1055C800EDF0909518E0A3E0FF227BFF7A72795501
:1055D80078027C957D017E007F281224B8E490959E
:1055E8002AF0A3F090952AE0FEA3E0C39425EE9458
:1055F80000400302571690952AE0A3E07803C333CE
:10560800CE33CED8F9246DF582748E3EF583E0FF53
:10561800909B11E0FCA3E0FDEF6D7001EC600302CC
:10562800570990952AE0FEA3E07803C333CE33CE22
:10563800D8F9246EF582748E3EF583E0FEA3E0FF70
:105648007B017A957902909708E4F0A37402F0122E
:10565800405390952AE0FEA3E07803C333CE33CEBF
:10566800D8F92470F582748E3EF583E0FEA3E0FF3E
:105678007B017A957904909708E4F0A37402F012FC
:105688004053909504E0FEA3E0FF909502E0FCA350
:10569800E06F7002EC6E606990952AE0FEA3E078F6
:1056A80003C333CE33CED8F92470F582748E3EF519
:1056B80083E0FEA3E0FF7B017A95790290971AE4D4
:1056C800F0A37402F01242C0909506E4F0A3745A55
:1056D800F090952AE0FEA3E07803C333CE33CED80A
:1056E800F92472F582748E3EF583E0FEA3E0FF7B19
:1056F800017A95790690971AE4F0A37402F01242A1
:10570800C090952AE475F0011225D30255EC229039
:105718009545EFF07BFF7A7179CF78467C957D01CE
:105728007E007F201224B87B017A9979F578467C2F
:10573800957D017E007F1A1224B8909545E075F09A
:105748001BA42464FFE435F090954AF0A3EFF09091
:10575800954F7401F0909545E075F006A42470F516
:1057680082E4349AF583E0FEA3E0FF7B017A957921
:105778004690971AE4F0A37420F01242C07B017A95
:105788009A790F78467C957D017E007F1A1224B89D
:10579800909545E075F01BA42464FFE435F09095DE
:1057A8004AF0A3EFF090954F7401F0909545E0759D
:1057B800F006A42472F582E4349AF583E0FEA3E0AF
:1057C800FF7B017A95794690971AE4F0A37420F04C
:1057D8001242C07B017A9A79AC78467C957D017E2D
:1057E800007F1A1224B8909545E075F01BA4246434
:1057F800FFE435F090954AF0A3EFF0909545E075F9
:10580800F01BA42464FFE435F0909550F0A3EFF06A
:10581800909545E075F01BA4247DFFE435F0909544
:1058280054F0A3EFF0909545E075F006A42474F5C4
:1058380082E4349AF583E0FEA3E0FF7B017A957950
:105848004690971AE4F0A37420F01242C022909573
:1058580045EFF0A3ECF0A3EDF0A3EBF07BFF7A713A
:1058680079AF78497C957D017E007F201224B87B32
:10587800017A9979F578497C957D017E007F1A1225
:1058880024B8909545E075F01BA42464FFE435F036
:1058980090954DF0A3EFF0E4909552F0909546E086
:1058A800FEA3E02401FFE43E909549F0A3EFF090B9
:1058B8009545E075F006A42470F582E4349AF583E2
:1058C800E0FEA3E0FF7B017A95794990971AE4F00E
:1058D800A37420F01242C07B017A9A790F78497C30
:1058E800957D017E007F1A1224B8909545E075F0E9
:1058F8001BA42464FFE435F090954DF0A3EFF090DD
:105908009548E0FFC3740E9F909552F0909546E03D
:10591800FEA3E02404FFE43E909549F0A3EFF09045
:105928009545E075F006A42472F582E4349AF5836F
:10593800E0FEA3E0FF7B017A95794990971AE4F09D
:10594800A37420F01242C0909546E0FEA3E024081C
:10595800FFE43E909549F0A3EFF0909545E075F08F
:1059680006A42474F582E4349AF583E0FEA3E0FFEC
:105978007B017A95794990971AE4F0A37402F012A2
:1059880042C0227B017A957905909708E4F0A374C8
:1059980004F07F087E50124053909507E0FEA3E084
:1059A800FF909505E0FCA3E06F7002EC6E700302B7
:1059B8005AAE7B017A95790590971AE4F0A37402A0
:1059C800F07F097E501242C0909505E0FEA3E024C6
:1059D80002FFEE34F890950DF0A3EFF0909505E0F6
:1059E800A3E0FF909B17E0FCA3E02FFFEC3E90950F
:1059F80009F0A3EFF0909509E0FEA3E0C394FEEE52
:105A08009407400B90950974F875F0021225D37B22
:105A1800017A95790990971AE4F0A37402F07F004F
:105A28007E031242C07B017A95790990971AE4F0B7
:105A3800A37402F0FF7E031242C0909505E0FEA316
:105A4800E07802CEC313CE13D8F9FF909505EEF097
:105A5800A3EFF0909505E475F08F1225D37B017ABA
:105A680095790590971AE4F0A37402F07F117E509F
:105A78001242C090950DE0FEA3E0FF7C007D051268
:105A8800253690950DEEF0A3EFF0909B15E0FEA360
:105A9800E0FF90950DEE8FF01225D390950DE0FE66
:105AA800A3E0FF1251C522E490950AF07B017A9A8F
:105AB80079F0909708F0A37408F07F9C7E0012405C
:105AC80053909AF0E0645A6003025BCCA3E064A5AB
