:100000000262F2020006C2AFD2AF32025351C2AF57
:10001000D2AF3202000E90992FE0FEA3E0FF126BE8
:0200200040227C
:07002300026786126E232222
:10002B00026F7A90971412281800003000909718DE
:10003B00E4F0A3740CF07D007C307F5A1263937B49
:10004B00017A9979E7909716E4F0A37418F07F0082
:10005B007E30124061E490950BF090950BE0C394C9
:10006B000774809480506EE025E025E024E7F5824C
:10007B00E43499F5831227F4E4FBFAF9F8C3122759
:10008B00CF602290950BE025E025E024E7F582E494
:10009B003499F5831227F47B3F7A42790F7800C3AA
:1000AB001227CF502890950BE025E025E024C1F5D1
:1000BB0082E43499F5831227F490950BE025E02523
:1000CB00E024E7F582E43499F58312280C90950B24
:1000DB00E004F080857B017A9979E7909728E4F02A
:0C00EB00A37414F07FA07EA61242CE2267
:1000F800FFFF4457494E5435429B1F0000419B184F
:1001080000429B190000419B1B00419B1C00429B25
:100118001D0000429B250000429B230000429B21BA
:1001280000005A9A033FC900690064000086000A6B
:100138002D2D203A3A000000000000000000005A6F
:100148009A1D3FCC01270064000086000A2D2D2F40
:100158003A3A000000000000000000005A9ABA3F36
:10016800D001E50064000001E5006402AD007D00F7
:10017800100017181802000000603C9A7E400040EA
:10018800A04140401040B04150402040C041604034
:100198003040D04170404040E04180405040F04104
:1001A800904060410041A04070411041B040804102
:1001B8002041C04090413041D0549A6A41E041F812
:1001C80042104228424042584270428842A042B8F7
:1001D800489A5B0000000000000000429A6300009B
:1001E800429A680000429A650000419A6700429A64
:1001F800490000429A370005498000B2E2CAD4BAE1
:10020800BAD7D6006E60800949443030BBD8B7E70A
:10021800B8DFCEC2000000000000000000000000AF
:10022800000000000000000049443031BBD8B7E7A7
:10023800B5CDCEC2000000000000000000000000A4
:10024800000000000000000049443032BBD8B7E786
:10025800B8DFCAAA0000000000000000000000008B
:10026800000000000000000049443033BBD8B7E765
:10027800B5CDCAAA00000000000000000000000080
:10028800000000000000000049443034CBCDB7E73F
:10029800B8DFCEC20000000000000000000000002F
:1002A800000000000000000049443035CBCDB7E71E
:1002B800B5CDCEC200000000000000000000000024
:1002C800000000000000000049443036CBCDB7E7FD
:1002D800B8DFCAAA0000000000000000000000000B
:1002E800000000000000000049443037CBCDB7E7DC
:1002F800B5CDCAAA00000000000000000000000000
:10030800000000000000000049443038B1A3C1F4E7
:1003180000000000000000000000000000000000D5
:10032800000000000000000049443039CEC2CAAACB
:10033800B6C8B4ABB8D0C6F7B9CAD5CF000000006C
:100348000000000000000000494431304E5443D200
:10035800ECB3A30000000000000000000000000053
:10036800000000000000000049443131B7E7BBFA43
:1003780031B9CAD5CF00000000000000000000001D
:10038800000000000000000049443132B1A3C1F46C
:100398000000000000000000000000000000000055
:1003A800000000000000000049443133B1A3C1F44B
:1003B8000000000000000000000000000000000035
:1003C800000000000000000049443134B1A3C1F42A
:1003D8000000000000000000000000000000000015
:1003E800000000000000000049443135B1A3C1F409
:1003F80000000000000000000000000000000000F5
:10040800000000000000000049443136CDE2B7E7A3
:10041800BBFAB9CAD5CF00000000000000000000F8
:10042800000000000000000049443137B7E7BBFA7C
:1004380031D4CBD0D0B3ACCAB1000000000000006A
:10044800000000000000000049443138B1A3C1F4A5
:100458000000000000000000000000000000000094
:10046800000000000000000049443139B1A3C1F484
:100478000000000000000000000000000000000074
:10048800000000000000000049443230B1A3C1F46C
:100498000000000000000000000000000000000054
:1004A800000000000000000049443231B1A3C1F44B
:1004B8000000000000000000000000000000000034
:1004C800000000000000000049443232CDE2B7E7E6
:1004D800BBFAD4CBD0D0B3ACCAB100000000000046
:1004E800000000000000000049443233B8DFD1B9F1
:1004F80031BFAAB9D80000000000000000000000C9
:10050800000000000000000049443234B8DFD1B9CF
:1005180031CBF8CBC0000000000000000000000054
:10052800000000000000000049443235B5CDD1B9C3
:1005380031B8E6BEAF000000000000000000000077
:10054800000000000000000049443236B5CDD1B9A2
:1005580031CBF8CBC0000000000000000000000014
:10056800000000000000000049443237C5C5C6F845
:10057800CEC2B6C831B8E6BEAF0000000000000029
:10058800000000000000000049443238C5C5C6F824
:10059800CEC2B6C831CBF8CBC000000000000000C6
:1005A800000000000000000049443239B6CCD6DC17
:1005B800C6DA31B8E6BEAF00000000000000000057
:1005C800000000000000000049443330D1B9BBFAF4
:1005D80031D4CBD0D0B3ACCAB100000000000000C9
:1005E800000000000000000049443331B7E7BBFABF
:1005F80031B9CAD5CF00000000000000000000009B
:10060800000000000000000049443332B7E7BBFA9D
:1006180032B9CAD5CF000000000000000000000079
:10062800000000000000000049443333B7E7BBFA7C
:1006380033B9CAD5CF000000000000000000000058
:10064800000000000000000049443334B7E7BBFA5B
:1006580034B9CAD5CF000000000000000000000037
:10066800000000000000000049443335C5C5C6F845
:10067800CEC2B6C832B8E6BEAF0000000000000027
:10068800000000000000000049443336C5C5C6F824
:10069800CEC2B6C832CBF8CBC000000000000000C4
:1006A800000000000000000049443337B6CCD6DC17
:1006B800C6DA32B8E6BEAF00000000000000000055
:1006C800000000000000000049443338D1B9BBFAEB
:1006D80032D4CBD0D0B3ACCAB100000000000000C7
:1006E800000000000000000049443339BCD3CAAA06
:1006F800C6F7B5E7C1F7B9FDB4F300000000000084
:10070800000000000000000049443430CBCDB7E7BA
:10071800B4ABB8D0C6F7B9CAD5CF00000000000006
:10072800000000000000000049443431BDF8BFDA81
:10073800B4ABB8D0C6F7B9CAD5CF000000000000E6
:10074800000000000000000049443432B3F6BFDA6C
:10075800B4ABB8D0C6F7B9CAD5CF000000000000C6
:10076800000000000000000049443433BCD3C8C86E
:10077800C6F7B8E6BEAF00000000000000000000A9
:10078800000000000000000049443434BCD3C8C84D
:10079800C6F731B3ACCAB100000000000000000089
:1007A800000000000000000049443435BCD3C8C82C
:1007B800C6F732B3ACCAB100000000000000000068
:1007C800000000000000000049443436B6CFB5E709
:1007D800D6D8C6F4000000000000000000000000A9
:1007E800000000000000000049443437B5E7D4B4E5
:1007F800CFE0D0F2B4EDCEF300000000000000001E
:10080800000000000000000049443438B5E7D4B4C3
:10081800C6B5C2CAC6ABB8DF0000000000000000C1
:10082800000000000000000049443439B5E7D4B4A2
:10083800C6B5C2CAC6ABB5CD0000000000000000B6
:1008480000000000000000004944353041CFE0B905
:10085800FDD1B90000000000000000000000000009
:1008680000000000000000004944353142CFE0B9E3
:10087800FDD1B900000000000000000000000000E9
:1008880000000000000000004944353243CFE0B9C1
:10089800FDD1B900000000000000000000000000C9
:1008A80000000000000000004944353341CFE0C794
:1008B800B7D1B900000000000000000000000000EF
:1008C80000000000000000004944353442CFE0C772
:1008D800B7D1B900000000000000000000000000CF
:1008E80000000000000000004944353543CFE0C750
:1008F800B7D1B900000000000000000000000000AF
:1009080000000000000000004944353641CFE0C82F
:10091800B1CFE0000000000000000000000000006F
:1009280000000000000000004944353742CFE0C80D
:10093800B1CFE0000000000000000000000000004F
:1009480000000000000000004944353843CFE0C8EB
:10095800B1CFE0000000000000000000000000002F
:10096800000000000000000049443539C6F8C1F70E
:10097800B6AACAA7B8E6BEAF000000000000000093
:10098800000000000000000049443630B9FDC2CB29
:10099800CDF8D4CBD0D0B3ACCAB100000000000071
:1009A800000000000000000049443631BFD5C6F8F9
:1009B800C2CBCDF8B6C2C8FB0000000000000000A2
:1009C800000000000000000049443632D4B6B3CC21
:1009D800B9D8BBFAB8E6BEAF0000000000000000BE
:1009E800000000000000000049443633C2A9CBAE25
:1009F800B8E6BEAF000000000000000000000000E4
:100A0800000000000000000049443634C8BABFD8CE
:100A1800CDA8D0C5D2ECB3A30000000000000000B0
:100A2800000000000000000049443635B1A3C1F4BD
:100A380000000000000000000000000000000000AE
:100A4800000000000000000049443636B5CDB9FD6D
:100A5800C8C8B6C831B8E6BEAF0000000000000044
:100A6800000000000000000049443637B5CDB9FD4C
:100A7800C8C8B6C832B8E6BEAF0000000000000023
:100A8800000000000000000049443638D1CCCEED0B
:100A9800B8E6BEAF00000000000000000000000043
:100AA800000000000000000049443639D3C3BBA74A
:100AB800D7D4B6A8D2E5B8E6BEAF00000000000063
:100AC800000000000000000049443730B5E7D4B406
:100AD800D2ECB3A3000000000000000000000000FA
:100AE800000000000000000049443731B1A3C1F400
:100AF80000000000000000000000000000000000EE
:100B0800000000000000000049443732B1A3C1F4DE
:100B180000000000000000000000000000000000CD
:100B2800000000000000000049443733B1A3C1F4BD
:100B380000000000000000000000000000000000AD
:100B4800000000000000000049443734B1A3C1F49C
:100B5800000000000000000000000000000000008D
:100B6800000000000000000049443735B1A3C1F47B
:100B7800000000000000000000000000000000006D
:100B8800000000000000000049443736B1A3C1F45A
:100B9800000000000000000000000000000000004D
:100BA800000000000000000049443737B1A3C1F439
:100BB800000000000000000000000000000000002D
:100BC800000000000000000049443738B1A3C1F418
:100BD800000000000000000000000000000000000D
:100BE800000000000000000049443739B1A3C1F4F7
:100BF80000000000000000000000000000000000ED
:100C0800000000000000000049443830C5C5CBAEE4
:100C1800B8DFCBAECEBB0000000000000000000033
:100C2800000000000000000049443831BCD3CAAAC3
:100C3800C6F7D2ECB3A300000000000000000000DB
:100C4800000000000000000049443832B7E7D1B97D
:100C5800B9FDB5CD00000000000000000000000054
:100C6800000000000000000049443833B1A3C1F47B
:100C7800000000000000000000000000000000006C
:100C8800000000000000000049443834B8DFD1B942
:100C980031D1B9C1A600000000000000000000002A
:100CA800000000000000000049443835C0E4C4FDDD
:100CB800CBAEC5CCC2FACBAE0000000000000000ED
:100CC8000000000000000000494438364D4F503104
:100CD800B8E6BEAF00000000000000000000000001
:100CE8000000000000000000494438374D4F5032E2
:100CF800B8E6BEAF000000000000000000000000E1
:100D08000000000000000000494438384C4F5031C2
:100D1800B8E6BEAF000000000000000000000000C0
:100D28000000000000000000494438394C4F5032A0
:100D3800B8E6BEAF000000000000000000000000A0
:100D4800000000000000000049443930C9E8B1B88B
:100D5800CAB9D3C3B3ACCAB1000000000000000098
:100D6800000000000000000049443931B1A3C1F47B
:100D7800000000000000000000000000000000006B
:100D8800000000000000000049443932B1A3C1F45A
:100D9800000000000000000000000000000000004B
:100DA800000000000000000049443933B1A3C1F439
:100DB800000000000000000000000000000000002B
:100DC800000000000000000049443934B1A3C1F418
:100DD800000000000000000000000000000000000B
:100DE800000000000000000049443935B1A3C1F4F7
:100DF80000000000000000000000000000000000EB
:100E0800000000000000000049443936B1A3C1F4D5
:100E180000000000000000000000000000000000CA
:100E2800000000000000000049443937B1A3C1F4B4
:100E380000000000000000000000000000000000AA
:100E4800000000000000000049443938B1A3C1F493
:100E5800000000000000000000000000000000008A
:100E6800000000000000000049443939B1A3C1F472
:100E7800000000000000000000000000000000006A
:100E880000000000000000004944313030B1A3C127
:100E9800F400000000000000000000000000000056
:100EA80000000000000000004944313031B1A3C106
:100EB800F400000000000000000000000000000036
:100EC80000000000000000004944313032B1A3C1E5
:100ED800F400000000000000000000000000000016
:100EE80000000000000000004944313033B1A3C1C4
:100EF800F4000000000000000000000000000000F6
:100F080000000000000000004944313034B1A3C1A2
:100F1800F4000000000000000000000000000000D5
:100F280000000000000000004944313035B1A3C181
:100F3800F4000000000000000000000000000000B5
:100F480000000000000000004944313036B1A3C160
:100F5800F400000000000000000000000000000095
:100F680000000000000000004944313037B1A3C13F
:100F7800F400000000000000000000000000000075
:100F880000000000000000004944313038B1A3C11E
:100F9800F400000000000000000000000000000055
:100FA80000000000000000004944313039B1A3C1FD
:100FB800F400000000000000000000000000000035
:100FC80000000000000000004944313130B1A3C1E5
:100FD800F400000000000000000000000000000015
:100FE80000000000000000004944313131B1A3C1C4
:100FF800F4000000000000000000000000000000F5
:1010080000000000000000004944313132B1A3C1A2
:10101800F4000000000000000000000000000000D4
:1010280000000000000000004944313133B1A3C181
:10103800F4000000000000000000000000000000B4
:1010480000000000000000004944313134B1A3C160
:10105800F400000000000000000000000000000094
:101068000000000000000000419B2700479AF7009D
:10107800000000000000479AE8000000000000009F
:10108800489AFE0000000000000000489AEF0000A7
:10109800000000000000C100429AE60000529AD405
:1010A8000000000000000000000000000000000038
:1010B8000000429B080000429B0A0000429B060079
:1010C80000449B1400000000429B0C0000449B0E4F
:1010D8000000000002080000040B00000000040FDC
:1010E80000000000429B120000010A006100972CDA
:1010F80000C1814001C0804101C0804100C18140E0
:1011080001C0804100C1814000C1814001C08041CF
:1011180001C0804100C1814000C1814001C08041BF
:1011280000C1814001C0804101C0804100C18140AF
:1011380001C0804100C1814000C1814001C080419F
:1011480000C1814001C0804101C0804100C181408F
:1011580000C1814001C0804101C0804100C181407F
:1011680001C0804100C1814000C1814001C080416F
:1011780001C0804100C1814000C1814001C080415F
:1011880000C1814001C0804101C0804100C181404F
:1011980000C1814001C0804101C0804100C181403F
:1011A80001C0804100C1814000C1814001C080412F
:1011B80000C1814001C0804101C0804100C181401F
:1011C80001C0804100C1814000C1814001C080410F
:1011D80001C0804100C1814000C1814001C08041FF
:1011E80000C1814001C0804101C0804100C18140EF
:1011F8006100982C00C0C101C30302C2C60607C71C
:1012080005C5C404CC0C0DCD0FCFCE0E0ACACB0B2E
:10121800C90908C8D81819D91BDBDA1A1EDEDF1F5E
:10122800DD1D1CDC14D4D515D71716D6D21213D34E
:1012380011D1D010F03031F133F3F23236F6F737FE
:10124800F53534F43CFCFD3DFF3F3EFEFA3A3BFBEE
:1012580039F9F83828E8E929EB2B2AEAEE2E2FEF9E
:101268002DEDEC2CE42425E527E7E62622E2E3230E
:10127800E12120E0A06061A163A3A26266A6A7673E
:10128800A56564A46CACAD6DAF6F6EAEAA6A6BABAE
:1012980069A9A86878B8B979BB7B7ABABE7E7FBFDE
:1012A8007DBDBC7CB47475B577B7B67672B2B373CE
:1012B800B17170B05090915193535292965657977E
:1012C800559594549C5C5D9D5F9F9E5E5A9A9B5B6E
:1012D80099595898884849894B8B8A4A4E8E8F4F1E
:1012E8008D4D4C8C4484854587474686824243838E
:1012F8004181804041948600418F990044950700C0
:10130800000000418F9400448F950000000064DEC7
:101318008FA85A021003C80250155016000000FF8B
:101328005A020303C8000000D920031C00FF5A0218
:101338000301C8010039D923031900FF5A02060125
:10134800C803D984D924010000395A020301C8010D
:101358000039D925010400FF5A020601C802D987BD
:10136800D927010400FF5A020303C8010039D9A094
:10137800011A00FF5A020302C8000000D9A3031093
:1013880000FF5A020302C801000AAA20032600FF30
:101398005A020301C801000AAA22036900FF5A027F
:1013A8000302C801000AAA23036B00FF5A020301C3
:1013B800C801000AAA25037700FF5A02031FC801C3
:1013C800000BAB20037500FF5A020601C803AC806E
:1013D800AC20023A000C5A020306C800000DAEA069
:1013E800032000FF5A020601C803AF80AF20023B6A
:1013F800000F5A020301C803B300B320011A0013F7
:101408005A020302C803B300B321013B00135A0276
:101418000601C803B380B320011A00135A0206015B
:10142800C803B381B321013B00135A020601C80364
:10143800B382B322013C00135A020305C803B40067
:10144800B420015B00145A020601C803B480B4201A
:10145800015B00145A020601C803B481B421015C7F
:1014680000145A020601C803B482B422015D0014B4
:101478005A020601C803B483B423015E00145A0259
:101488000601C803B484B424015F00145A0203019E
:10149800C803B600B62002E400165A020301C803C6
:1014A800B600B62102EA00165A020601C803B68041
:1014B800B62002E400165A020601C803B681B62116
:1014C80002EA00165A020301C803B800B820010D49
:1014D80000185A020301C803B800B821010F001808
:1014E8005A020301C803B800B822015A00185A0268
:1014F8000601C803B880B820010D00185A02060179
:10150800C803B881B821010F00185A020601C803A0
:10151800B882B822015A00185A020601C803B88ACC
:10152800B82A023B00185A020301C803B900B920BF
:10153800010800195A020302C803B900B921010AB7
:1015480000195A020301C803B900B92301A70019F9
:101558005A020601C803B980B920010800195A02C5
:101568000601C803B981B921010A00195A02060106
:10157800C803B982B922010B00195A020601C8032F
:10158800B983B92301A700195A020301C803BB0094
:10159800BB200210001B5A020301C803BB00BB2179
:1015A8000213001B5A020301C803BB00BB22021628
:1015B800001B5A020302C803BB00BB230219001B0D
:1015C8005A020303C803BB00BB24027D001B5A0256
:1015D8000302C803BB00BB250246001B5A020301D5
:1015E800C803BB00BB270277001B5A020601C803C9
:1015F800BB80BB200210001B5A020601C803BB8136
:10160800BB210213001B5A020601C803BB82BB227E
:101618000216001B5A020601C803BB83BB2302192A
:10162800001B5A020601C803BB84BB24027D001BB1
:101638005A020601C803BB85BB250246001B5A0295
:101648000601C803BB86BB260247001B5A020601D7
:10165800C803BB87BB270277001B5A020302C803D3
:10166800BF00BF200102001F5A020301C803BF00C8
:10167800BF220107001F5A020301C803BF00BF238E
:1016880001A5001F5A020601C803BF80BF2001023E
:10169800001F5A020601C803BF81BF210103001FB2
:1016A8005A020601C803BF82BF220107001F5A025F
:1016B8000601C803BF83BF2301A5001F5A02030107
:1016C800C803C300C32002EB00235A020301C80366
:1016D800C300C32101A900235A020301C801002342
:1016E800D925010400FF5A020601C803C380C3209C
:1016F80002EB00235A020601C803C381C32101A9D2
:1017080000235A020601C803C382C32201A800238A
:101718005A020301C8010023C323037500FF5A02BC
:101728000301C8010023C324037700FF5A02030200
:10173800C803C400C420012D00245A020301C803B1
:10174800C400C422012900245A020302C803C400A9
:10175800C423012B00245A020601C803C480C420F4
:10176800012D00245A020601C803C481C421012E98
:1017780000245A020601C803C482C4220129002495
:101788005A020601C803C483C423012B00245A0249
:101798000601C803C484C424012C00245A0203038C
:1017A800C803C600C6A0030200265A020301C803E4
:1017B800D500D520011A00355A020302C803D50006
:1017C800D521013B00355A020601C803D580D52032
:1017D800011A00355A020601C803D581D521013BFB
:1017E80000355A020601C803D582D522013C0035CE
:1017F8004E8F9A000000000000000000000000006A
:1018080000428E6A000061288E6C5A13B320B350D0
:10181800B3805A13B321B351B3815A13B322B352CD
:10182800B3825A14B420B450B4805A14B421B451B9
:10183800B4815A14B422B452B4825A14B423B4539F
:10184800B4835A14B424B454B4845A16B620B65087
:10185800B6805A16B621B651B6815A18B820B85073
:10186800B8805A18B821B851B8815A18B822B85255
:10187800B8825A19B920B950B9805A19B921B95141
:10188800B9815A19B922B952B9825A19B923B95327
:10189800B9835A1BBB20BB50BB805A1BBB21BB5111
:1018A800BB815A1BBB22BB52BB825A1BBB23BB53F7
:1018B800BB835A1BBB24BB54BB845A1BBB25BB55DB
:1018C800BB855A1BBB26BB56BB865A1BBB27BB57BF
:1018D800BB875A1FBF20BF50BF805A1FBF21BF51AF
:1018E800BF815A1FBF22BF52BF825A1FBF23BF5397
:1018F800BF835A24C420C450C4805A24C421C4516C
:10190800C4815A24C422C452C4825A24C423C4534E
:10191800C4835A24C424C454C4845A35D520D55009
:10192800D5805A35D521D551D5815A35D522D552AC
:10193800D582418E69005C99E70000000000000034
:10194800000000000000000000000000000000008F
:1019580000000000005C99C10000000000000001C8
:101968000000000200027360000A2D08000310CC7A
:101978000007ED654199BDFF608C993100000100B9
:101988000200030004000500060007000800090023
:101998000A000B000C000D000E000F0110001100D2
:1019A800120213001400150016001700180319007E
:1019B8001A001B021C001D001E001F002000210031
:1019C80022022300240025002600270028002900E1
:1019D8002A002B002C002D002E002F003000310093
:1019E8003200330034003500360037003800390043
:1019F8003A003B003C003D003E003F0040054100EE
:101A080042004300440045004A99DD0001010302F9
:101A180003030604024299BF000042992F000042C6
:101A2800992C000041992E0000AF13EF1313543F77
:101A38005401640160030223F57B017A95790B90C8
:101A48009716F0A3740CF07F217ED912406190950F
:101A58000DE0FEA3E0FF90950BE0FCA3E02FFFEC68
:101A68003EFE909A49E0FCA3E06F7002EE6C60586D
:101A780090950DE0FEA3E0FF90950BE0FCA3E02F0E
:101A8800FFEC3EFE909A49E0FCA3E0C39FEC9E5019
:101A98001D909515E4F0A304F0FB7A9579159097BD
:101AA80028E4F0A37402F07F267ED91242CE9095E6
:101AB8000DE0FEA3E0FF90950BE0FCA3E02FFFEC08
:101AC8003E909A49F0A3EFF090950BE0FEA3E0D387
:101AD8009400EE9400500CA3E0FEA3E09400EE9472
:101AE800004020909515E0FEA3E04E60167B017A39
:101AF8009A7937909728E4F0A37402F07FA07E00CB
:101B08001242CE909B1FE0FEA3E0640D4E600302DC
:101B18001EB2909B1FE0A3E0FF909A63E0FCA3E055
:101B28006F7002EC6E601EE4909A68F0A3F07B017F
:101B38007A9A7968909728F0A37402F07F017EAEB4
:101B48001242CE80167B017A9A7968909716E4F053
:101B5800A37402F07F017EAE1240617B017A957911
:101B68000B909716E4F0A37410F07FA07EAE12409D
:101B780061E4909519F0A3E05407F07B017A9A7913
:101B880039780B7C957D017E007F10122A57EF7003
:101B98002F909A65E0FEA3E0FF909A68E0FCA3E02E
:101BA800B5071DECB50619909B1FE0FEA3E0FF905A
:101BB8009A63E0FCA3E06F7002EC6E70030221A749
:101BC8007B017A95790B78397C9A7D017E007F10AC
:101BD8001224C6E4909A67F090953EF090953EE006
:101BE800C39408748094804003021E5AE490953D83
:101BF800F090953DE0C39410748094804003021ED9
:101C080051A3E0C454F0FF90953DE02F909542F029
:101C1800E075F018A42400FFE5F03435FE7B017A66
:101C280095790B909716E4F0A37430F01240617B1D
:101C3800017A95790B90953F12287590953DE0FFB4
:101C48007E007401A807088005C333CE33CED8F9C7
:101C5800FF90953EE025E02439F582E4349AF58337
:101C6800E0FCA3E0FDEE5CFEEF5D4E7003021DA8F4
:101C780090953F12285512260D645A7004E5F064B9
:101C8800A57003021D4590953F12285574A575F05F
:101C98005A1226707B017A95791F909716E4F0A363
:101CA8007408F07F107E001240617B017A95791FDD
:101CB800780D7C957D017E007F031224C67B017A16
:101CC80095792378107C957D017E007F031224C6C8
:101CD8007E007F087D007B017A957913122A7B901C
:101CE8009542E0FF909519E4F0A3EFF07B017A9517
:101CF800791BC002C00190954275F020A42409F90F
:101D0800748035F0FA909556122875909559E4F03C
:101D1800A37420F0D001D0021266B8909542E07505
:101D2800F018A42400FFE5F03435FE7B017A95799C
:101D38000B909728E4F0A37430F01242CE909A6882
:101D4800E0FEA3E0FF7C007D0A122544909A67E03C
:101D5800C39FEC9E4041A3E0FEA3E0FF122544EFA1
:101D6800240AFFE43EFE909A67E0C39FEC9E50274A
:101D7800909542E075F018A42400FDE5F03435FC98
:101D8800909A68E0A3E075F00AA4FF909A67E0C310
:101D98009FFF7B0D125864909A67E004F0021E487A
:101DA80090953F12285512260D645A7004E5F06488
:101DB800A56003021E487B017A95791F909716F05B
:101DC800A37408F07F107E001240617B017A957938
:101DD8001F78137C957D017E007F031224C67B014A
:101DE8007A95792378167C957D017E007F031224ED
:101DF800C6909542E0FF909519E4F0A3EFF07B01BF
:101E08007A95790B909728E4F0A37410F07F007E00
:101E1800301242CE125F0CE490950BF0A3F090952F
:101E280042E075F018A42400FFE5F03435FE7B018C
:101E38007A95790B909728E4F0A37402F01242CEB9
:101E480090953DE004F0021BF990953EE004F00205
:101E58001BE4909A67E090953DF0909A68E0FEA3A5
:101E6800E0FF7C007D0A122544EF240AFFE43EFED1
:101E780090953DE0C39FEC9E501D909A68E0A3E0CA
:101E880075F00AA4FF90953DE0C39FFF1257259077
:101E9800953DE004F080C3909A68E0FEA3E0FF90CF
:101EA8009A65EEF0A3EFF00221A77B017A95790BF2
:101EB800909716E4F0A37410F07FA07EAE124061F4
:101EC800E4909519F0A3E05407F07B017A9A7939E8
:101ED800780B7C957D017E007F10122A57EF7003E6
:101EE8000221A77B017A95790B783F7C957D017E4D
:101EF800007F101224C6E490953EF090953EE0C312
:101F08009406748094804003022194E490953DF0F7
:101F180090953DE0C3941074809480400302218B17
:101F2800E0FF7E007401A807088005C333CE33CED6
:101F3800D8F9FF90953EE025E0243FF582E43495FA
:101F4800F583E0FCA3E0FDEE5CFCEF5DFD90953DC4
:101F5800E0FF7E007401A807088005C333CE33CEA6
:101F6800D8F9FF90953EE025E02439F582E4349ACB
:101F7800F583E0FAA3E0FBEE5AFEEF5B6D7002EE2C
:101F88006C700302218290953EE0C454F0FF909556
:101F98003DE02F909552F0E075F018A42400FFE57D
:101FA800F03435FE7B017A95790B909716E4F0A30F
:101FB8007430F01240617B017A95790B90954F123D
:101FC800287590953DE0FF7E007401A807088005FC
:101FD800C333CE33CED8F9FF90953EE025E0243FB9
:101FE800F582E43495F583E0FCA3E0FDEE5CFEEFBA
:101FF8005D4E70030220CF90954F12285512260D82
:10200800645A7004E5F064A5700302218290954F2C
:1020180012285574A575F05A1226707B017A9579A5
:102028001F909716E4F0A37408F07F107E0012400A
:10203800617B017A95791F780D7C957D017E007F03
:10204800031224C67B017A95792378107C957D014B
:102058007E007F031224C67E007F087D007B017A04
:10206800957913122A7B909552E0FF909519E4F028
:10207800A3EFF07B017A95791BC002C001909552BD
:1020880075F020A42409F9748035F0FA9095561259
:102098002875909559E4F0A37420F0D001D002126D
:1020A80066B8909552E075F018A42400FFE5F03466
:1020B80035FE7B017A95790B909728E4F0A374306C
:1020C800F01242CE02218290954F12285512260D09
:1020D800645A7004E5F064A560030221827B017AEA
:1020E80095791F909716F0A37408F07F107E001260
:1020F80040617B017A95791F78137C957D017E007C
:102108007F031224C67B017A95792378167C957D06
:10211800017E007F031224C6909552E0FF90951926
:10212800E4F0A3EFF07B017A95790B909728E4F01F
:10213800A37410F07F007E301242CE125F0CE49040
:10214800950BF0A3F0909552E075F018A42400FFC9
:10215800E5F03435FE7B017A95790B909728E4F009
:10216800A37402F01242CE909A68E0FEA3E0240124
:10217800FFE43E909A65F0A3EFF090953DE004F0FF
:10218800021F1890953EE004F0021F037B017A9528
:10219800793F78397C9A7D017E007F101224C690A1
:1021A8009B1FE0FEA3E0640E4E60030223E5909BB4
:1021B8001FE0A3E0FF909A63E0FCA3E06F7002ECDD
:1021C8006E601EE4909A68F0A3F07B017A9A7968B1
:1021D800909728F0A37402F07F017EAE1242CE8061
:1021E800347B017A9A7968909716E4F0A37402F028
:1021F8007F017EAE124061909A65E0FEA3E0FF90F9
:102208009A68E0FCA3E06F7002EC6E70030223E5AD
:1022180080030223E5909A68E0FEA3E0FF909A65A8
:10222800EEF0A3EFF0E4A3F0909A67E0C3940A7489
:1022380080948040030223CBA3E0FEA3E0FF7C0050
:102248007D0A122544909A67E02FFFEC3EFE909A93
:1022580061E0FCA3E0FDC3EF9DEE9C40030223CBAD
:10226800909A68E0FEA3E0FF7C007D0A1225449066
:102278009A67E02FFFEC3EFE909A5DE0FCA3E0D366
:102288009FEC9E4032909A68E0FEA3E0FF7C00122B
:102298002544909A67E02FFFEC3EFEEF2401FFE40F
:1022A8003EFE909A5DE0FCA3E0C39FFFEC9E9095F4
:1022B8003FF0A3EFF0803A909A68E0FEA3E0FF7C3D
:1022C800007D0A122544909A67E02FFFEC3EFEEF4E
:1022D8002401FFE43EFE909A5DE0FCA3E02400FDAB
:1022E800EC3402FCC3ED9FFFEC9E90953FF0A3EF0A
:1022F800F090953FE0FEA3E07803C333CE33CED809
:10230800F92400FFEE3420FEE4FCFD909714122817
:102318000C909718E4F0A37408F07D007C307F5A85
:102328001263937B017A95790B909716E4F0A37466
:1023380010F07F007E301240617B017A95791BC0D6
:1023480003C002C001909519E0FEA3E07805C333ED
:10235800CE33CED8F92409F974803EFA7B019095E2
:1023680056122875909559E4F0A37420F0D001D046
:1023780002D0031266B8909A67E025E0246AF582D5
:10238800E4349AF583E0FEA3E0FF7B017A95790BAC
:10239800909728E4F0A37430F01242CE909A67E048
:1023A80025E0246AF582E4349AF583E0FCA3E0FD95
:1023B800909A67E0FF7B0E125864909A67E004F0E9
:1023C800022230909A67E0C3940A74809480500D7A
:1023D800E0FF125725909A67E004F080E6909B1F73
:1023E800E0FEA3E0FF909A63EEF0A3EFF022E70986
:1023F800F608DFFA8046E709F208DFFA803E8882AD
:102408008C83E709F0A3DFFA8032E309F608DFFAE4
:102418008078E309F208DFFA807088828C83E30908
:10242800F0A3DFFA806489828A83E0A3F608DFFAE2
:10243800805889828A83E0A3F208DFFA804C80D230
:1024480080FA80C680D4806980F28033801080A6AC
:1024580080EA809A80A880DA80E280CA8033898204
:102468008A83ECFAE493A3C8C582C8CCC583CCF0B0
:10247800A3C8C582C8CCC583CCDFE9DEE7800D8957
:10248800828A83E493A3F608DFF9ECFAA9F0EDFB5E
:102498002289828A83ECFAE0A3C8C582C8CCC583A6
:1024A800CCF0A3C8C582C8CCC583CCDFEADEE880FF
:1024B800DB89828A83E493A3F208DFF980CC88F071
:1024C800EF60010E4E60C388F0ED2402B4040050A2
:1024D800B9F582EB2402B4040050AF2323458223CC
:1024E80090244673BB010689828A83E0225002E762
:1024F80022BBFE02E32289828A83E49322BB010C79
:10250800E58229F582E5833AF583E0225006E9253C
:1025180082F8E622BBFE06E92582F8E222E5822956
:10252800F582E5833AF583E49322BB010689828A22
:1025380083F0225002F722BBFE01F322EF8DF0A4B4
:10254800A8F0CF8CF0A428CE8DF0A42EFE22BC00DB
:102558000BBE0029EF8DF084FFADF022E4CCF875B6
:10256800F008EF2FFFEE33FEEC33FCEE9DEC9840C5
:1025780005FCEE9DFE0FD5F0E9E4CEFD22EDF8F561
:10258800F0EE8420D21CFEADF075F008EF2FFFEDC1
:1025980033FD4007985006D5F0F222C398FD0FD5B9
:1025A800F0EA22C2D5EC30E709B2D5E4C39DFDE4D8
:1025B8009CFCEE30E715B2D5E4C39FFFE49EFE1203
:1025C8002556C3E49DFDE49CFC800312255630D5B6
:1025D80007C3E49FFFE49EFE22C5F0F8A3E028F0BD
:1025E800C5F0F8E582158270021583E038F022A361
:1025F800F8E0C5F025F0F0E582158270021583E059
:10260800C838F0E822BB010A89828A83E0F5F0A382
:10261800E022500687F009E71922BBFE07E3F5F030
:1026280009E3192289828A83E493F5F074019322DD
:10263800BB0110E58229F582E5833AF583E0F5F0E0
:10264800A3E0225009E92582F886F008E622BBFEBD
:102658000AE92582F8E2F5F008E222E5832AF58303
:10266800E993F5F0A3E99322BB010A89828A83F0F2
:10267800E5F0A3F0225006F709A7F01922BBFE06E1
:10268800F3E5F009F31922EF2BFFEE3AFEED39FDE1
:10269800EC38FC22E88FF0A4CC8BF0A42CFCE98E5B
:1026A800F0A42CFC8AF0EDA42CFCEA8EF0A4CDA8B2
:1026B800F08BF0A42DCC3825F0FDE98FF0A42CCDBB
:1026C80035F0FCEB8EF0A4FEA9F0EB8FF0A4CFC59B
:1026D800F02ECD39FEE43CFCEAA42DCE35F0FDE425
:1026E8003CFC2275F008758200EF2FFFEE33FECD1B
:1026F80033CDCC33CCC58233C5829BED9AEC99E5BA
:102708008298400CF582EE9BFEED9AFDEC99FC0F49
:10271800D5F0D6E4CEFBE4CDFAE4CCF9A88222B811
:1027280000C1B90059BA002DEC8BF084CFCECDFC96
:10273800E5F0CBF97818EF2FFFEE33FEED33FDEC23
:1027480033FCEB33FB10D703994004EB99FB0FD80C
:10275800E5E4F9FA227818EF2FFFEE33FEED33FDAA
:10276800EC33FCC933C910D7059BE99A4007EC9BA9
:10277800FCE99AF90FD8E0E4C9FAE4CCFB2275F039
:1027880010EF2FFFEE33FEED33FDCC33CCC833C84A
:1027980010D7079BEC9AE899400AED9BFDEC9AFC50
:1027A800E899F80FD5F0DAE4CDFBE4CCFAE4C8F9FF
:1027B80022EB9FF5F0EA9E42F0E99D42F0EC64803E
:1027C800C864809845F022EB9FF5F0EA9E42F0E954
:1027D8009D42F0E89C45F022E86010ECA2E713FC6B
:1027E800ED13FDEE13FEEF13FFD8F022E0FCA3E09B
:1027F800FDA3E0FEA3E0FF22E0F8A3E0F9A3E0FADE
:10280800A3E0FB22ECF0A3EDF0A3EEF0A3EFF0229F
:10281800A8828583F0D083D08212282F12282F1205
:10282800282F12282FE473E493A3C583C5F0C5832A
:10283800C8C582C8F0A3C583C5F0C583C8C582C80A
:1028480022A42582F582E5F03583F58322E0FBA3F7
:10285800E0FAA3E0F922F8E0FBA3A3E0F925F0F001
:10286800E582158270021583E0FA38F022EBF0A3B6
:10287800EAF0A3E9F022D083D082F8E493701274CE
:102888000193700DA3A393F8740193F5828883E4F0
:10289800737402936860EFA3A3A380DFD083D08210
:1028A800F8E4937012740193700DA3A393F8740164
:1028B80093F5828883E473740293B5F006740393E6
:1028C8006860E9A3A3A3A380D8E3F5F009E208B5FB
:1028D800F06BDFF58067E3F5F009E608B5F05EDF39
:1028E800F5805A87F009E608B5F052DFF6804E8782
:1028F800F009E208B5F046DFF6804288828C8387CB
:10290800F009E0A3B5F036DFF6803288828C838741
:10291800F009E493A3B5F025DFF5802188828C8344
:10292800E3F5F009E0A3B5F014DFF5801088828C98
:1029380083E3F5F009E493A3B5F002DFF4022A007B
:10294800808780E9809080D4803E8015806E807E6C
:10295800809D80B7808D80A380518074803C022A3E
:102968000C89828A83ECFAE493F5F0A3C8C582C87F
:10297800CCC583CCE493A3C8C582C8CCC583CCB5E9
:10298800F076DFE3DEE1807089828A83E493F5F0F4
:10299800A3E208B5F062DFF4805E89828A83E0F5FD
:1029A800F0A3E608B5F051DFF5804D89828A83E00F
:1029B800F5F0A3E208B5F040DFF5803C89828A8310
:1029C800E493F5F0A3E608B5F02EDFF4802A800240
:1029D800805789828A83ECFAE493F5F0A3C8C5820C
:1029E800C8CCC583CCE0A3C8C582C8CCC583CCB548
:1029F800F006DFE4DEE280007FFFB5F0020F224040
:102A0800027F012289828A83ECFAE0F5F0A3C8C527
:102A180082C8CCC583CCE0A3C8C582C8CCC583CC4A
:102A2800B5F0D5DFE5DEE380CF89828A83ECFAE072
:102A3800F5F0A3C8C582C8CCC583CCE493A3C8C5A8
:102A480082C8CCC583CCB5F0AFDFE4DEE280A988CC
:102A5800F0EF60010E4E60ABED2402B40400509814
:102A6800F582EB2402B40400508E23234582239080
:102A7800294873EF4E6012EF60010EEDBB010B8920
:102A8800828A83F0A3DFFCDEFA2289F05007F70977
:102A9800DFFCA9F022BBFEFCF309DFFCA9F022F859
:102AA800BB010DE58229F582E5833AF583E8F0223A
:102AB8005006E92582C8F622BBFE05E92582C8F240
:102AC800227BFF7A72790178467C957D017E007FB2
:102AD8003E1224C67BFF7A72793F78857C957D010A
:102AE8007E007F241224C67B017A9579469097163A
:102AF800E4F0A3743EF07F207EAB124061E4909531
:102B080084F0909584E0C39410748094804003020C
:102B18002D6AE0FF7E007401A807088005C333CE44
:102B280033CED8F9FF90954CE0FCA3E0FDEE5CFEB7
:102B3800EF5D4E7003022D4E909584E0FF7E007489
:102B480001A807088005C333CE33CED8F9FF909586
:102B580050E0FCA3E0FDEE5CFEEF5D4E7003022C3E
:102B6800FB909584E0FF1313543F2407FFE4339050
:102B780095ABF0A3EFF09095ABE0FEA3E025E0FF66
:102B8800EE33FE74462FF58274953EF583E0FEA37E
:102B9800E0FF909584E0540325E025E0FDEFA805CB
:102BA800088005CEC313CE13D8F9540FFF9095A90A
:102BB800E4F0A3EFF09095A9E0FEA3E08EF01228D0
:102BC800A42BED00002C0500012C1D00022C350063
:102BD800042C4C00052C6300062C7A00082C91006C
:102BE8000900002CA8909584E025E02485F582E46E
:102BF8003495F583E4F0A37405F0022CBD90958418
:102C0800E025E02485F582E43495F583E4F0A374A7
:102C180006F0022CBD909584E025E02485F582E439
:102C28003495F583E4F0A37407F0022CBD909584E5
:102C3800E025E02485F582E43495F583E4F0A37477
:102C480008F08071909584E025E02485F582E434CD
:102C580095F583E4F0A37409F0805A909584E025F3
:102C6800E02485F582E43495F583E4F0A3740AF052
:102C78008043909584E025E02485F582E43495F539
:102C880083E4F0A37403F0802C909584E025E0247D
:102C980085F582E43495F583E4F0A37404F0801597
:102CA800909584E025E02485F582E43495F583E465
:102CB800F0A37405F0909584E0FF7E007401A807E6
:102CC800088005C333CE33CED8F9FF909548E0FC91
:102CD800A3E0FDEE5CFEEF5D4E607E909584E025FE
:102CE800E02485F582E43495F583E475F00812252F
:102CF800E18066909584E0FF7E007401A807088053
:102D080005C333CE33CED8F9FF909548E0FCA3E055
:102D1800FDEE5CFEEF5D4E6017909584E025E024A3
:102D280085F582E43495F583E4F0A37402F08029F4
:102D3800909584E025E02485F582E43495F583E4D4
:102D4800F0A304F08013909584E025E02485F582B3
:102D5800E43495F583E4F0A3F0909584E004F00260
:102D68002B0A9095847410F0909584E0C3941274A3
:102D78008094804003022FDBE024F0FF7E00740182
:102D8800A807088005C333CE33CED8F9FF90954EF7
:102D9800E0FCA3E0FDEE5CFEEF5D4E7003022FBF8A
:102DA800909584E024F0FF7E007401A80708800550
:102DB800C333CE33CED8F9FF909552E0FCA3E0FDA3
:102DC800EE5CFEEF5D4E7003022F6A909584E0FF83
:102DD8001313543F2407FFE4339095ABF0A3EFF0AF
:102DE8009095ABE0FEA3E025E0FFEE33FE74462F9E
:102DF800F58274953EF583E0FEA3E0FF909584E0AC
:102E0800540325E025E0FDEFA805088005CEC3138F
:102E1800CE13D8F9540FFF9095A9E4F0A3EFF090E2
:102E280095A9E0FEA3E08EF01228A42E5700002EEC
:102E38006F00012E8700022E9F00042EB600052E7B
:102E4800CD00062EE400082EFB000900002F12908A
:102E58009584E025E02485F582E43495F583E4F053
:102E6800A37405F0022F27909584E025E02485F5CA
:102E780082E43495F583E4F0A37406F0022F2790DA
:102E88009584E025E02485F582E43495F583E4F023
:102E9800A37407F0022F27909584E025E02485F598
:102EA80082E43495F583E4F0A37408F0807190957A
:102EB80084E025E02485F582E43495F583E4F0A3E5
:102EC8007409F0805A909584E025E02485F582E421
:102ED8003495F583E4F0A3740AF08043909584E078
:102EE80025E02485F582E43495F583E4F0A37403A2
:102EF800F0802C909584E025E02485F582E43495D3
:102F0800F583E4F0A37404F08015909584E025E03F
:102F18002485F582E43495F583E4F0A37405F090F4
:102F28009584E024F0FF7E007401A807088005C39B
:102F380033CE33CED8F9FF90954AE0FCA3E0FDEEFE
:102F48005CFEEF5D4E7003022FD2909584E025E081
:102F58002485F582E43495F583E475F0081225E1BB
:102F68008068909584E024F0FF7E007401A807082B
:102F78008005C333CE33CED8F9FF90954AE0FCA341
:102F8800E0FDEE5CFEEF5D4E6017909584E025E075
:102F98002485F582E43495F583E4F0A37402F08087
:102FA80029909584E025E02485F582E43495F5831D
:102FB800E4F0A304F08013909584E025E02485F5DF
:102FC80082E43495F583E4F0A3F0909584E004F06E
:102FD800022D707B017A957985909728E4F0A37487
:102FE80024F07FA07EAB1242CE22E51330E0167BA0
:102FF800017A9B791F909716E4F0A37402F07F146E
:103008007E00124061E51320E20302349D909B1F6D
:10301800E0FEA3E04E7026909B18E0C394067480EF
:1030280094805005E004F08014909B18E0640670CA
:103038000C7F39FE126B40909B18E004F0909B1FA8
:10304800E0FEA3E0640B4E7003122AC9909B1FE0B8
:10305800FEA3E064294E60030231357B017A95793D
:103068000E909716F0A3741CF07FB07EC9124061D1
:10307800E490950BF090950BE0C3940774809480CE
:10308800400302311FE025E025E0240EF582E434F8
:1030980095F583E0FEA3E0C4F8540FC868FDEEC4BC
:1030A80054F048FC90950BE025E025E02410F582CB
:1030B800E43495F583E0FEA3E0EEC4540F2DFFE45D
:1030C8003C90950CF0A3EFF090950CE0FEA3E0FF88
:1030D8007C007D1812255690950BE025E0242AF5F2
:1030E80082E43495F583EEF0A3EFF090950CE0FEC2
:1030F800A3E0FF7C007D1812255690950BE025E093
:103108002438F582E43495F583ECF0A3EDF090953E
:103118000BE004F002307D7B017A95792A9097289C
:10312800E4F0A3741CF07F207EC91242CE909B1F4E
:10313800E0FEA3E064264E60030232167B017A9516
:10314800791B909716F0A37406F07FA07EC61240F4
:103158006190951BE0FEA3E0FFEEC4F854F0C86848
:10316800FEEFC4540F4890950BEEF0A3E4F0909551
:103178000BE0FCA3E0FD90951BE0FEA3E07807CEF2
:10318800C313CE13D8F9541FFFECFEED4FFF9095F3
:103198000BEEF0A3EFF090951BE0A3E0547F909521
:1031A8000DF0A3E4F090950DE0FCA3E0FD90951FD1
:1031B800E0FEA3E0EEFFECFEED4FFF90950DEEF084
:1031C800A3EFF090951FE0A3E090950FF0A3E4F033
:1031D80090951DE0FEA3E0FF909511EEF0A3EFF0AF
:1031E800A37402F0A314F0A37407F0A3E4F0A3748B
:1031F80018F0A3E4F0A3F0A3F07B017A95790B9083
:103208009728F0A37410F07F207EC61242CE909BC0
:103218001FE0FEA3E0642F4E60030232F77B017AC1
:1032280095790B909716F0A37402F07F107ECF1259
:1032380040617B017A95790F909716E4F0A37402A8
:10324800F07F227ECF12406190950BE0FEA3E0FF55
:10325800909B19E0FCA3E06F7002EC6E60609095A3
:103268000BE0A3E0909B19EEF0A3EFF090950FE030
:10327800FEA3E0543FFF90950FEEF0A3EFF090957A
:103288000FE0FCA3E0FD90950BE0A3E07E00540363
:103298007806C333CE33CED8F9FFEC4EFEED4FFFA0
:1032A80090950FEEF0A3EFF07B017A95790F909748
:1032B80028E4F0A37402F07F227ECF1242CE9095CC
:1032C8000FE0FEA3E07806CEC313CE13D8F954035B
:1032D800FF909511E4F0A3EFF07B017A95791190B6
:1032E8009728E4F0A37402F07F117ECF1242CE90AB
:1032F8009B1FE0FEA3E064234E7056909B1BE0C327
:10330800940574809480504290950BE4F0A304F0E7
:10331800FB7A95790B909728E4F0A37402F07F2745
:103328007ED91242CE90950BE4F0A3745AF07B013B
:103338007A95790B909728E4F0A37402F07F877E42
:10334800D91242CE909B1BE004F0E4909B1CF080C5
:1033580072909B1CE0C39405748094805060E49044
:10336800950BF0A3F07B017A95790B909716F0A353
:103378007402F07F297EC712406190950BE0FEA38E
:10338800E04E70347B017A95790B909728F0A374FE
:1033980002F07F277ED91242CE90950BE4F0A374F9
:1033A8005AF07B017A95790B909728E4F0A3740280
:1033B800F07F877ED91242CE909B1CE004F0E49007
:1033C8009B1BF07B017A95790B909716E4F0A37418
:1033D80002F07F167E0012406190950BE0FEA3E09C
:1033E8004E6025E490950BF0A3F07B017A95790B5C
:1033F800909728F0A37402F07F167E001242CEE464
:10340800909B1DF0A3F08046909B1DE0FEA3E0C3B7
:103418009458EE9402500C909B1DE475F00112250F
:10342800E1802B909B1DE0FEA3E0B45821EEB4028E
:103438001D909B1DE475F0011225E1909B1FE0FE95
:10344800A3E064394E60077F397E00126B407B0130
:103458007A95790B909716E4F0A37402F07F007EBA
:10346800E012406190950BE0FEA3E0EE30E014908E
:103478009B1FE0FEA3E064414E601A7F417E00126C
:103488006B4022909B1FE0FEA3E064414E70067FD4
:1034980039FE126B4022909510122875909513EC06
:1034A800F0A3EDF0909513E0FEA3E0C39405EE942D
:1034B8000050030237F3E4A3F0A3F090951012280C
:1034C80055909515E0FEA3E0F5828E8312250564DC
:1034D8000260030237CD909510122855909515E09B
:1034E800A3E029F9EA3EFA90000112250512287E88
:1034F800350503365406371610000037CD90951061
:10350800122855909515E0FEA3E029F9EA3EFA90B5
:103518000002122505FF909519E4F0A3EFF09095AD
:1035280015E0A3E0FF909519E0FCA3E02FFFEC3E27
:10353800FEEF2405FFE43EFE909513E0FCA3E0FDBA
:10354800D3EF9DEE9C4011909513E0FEA3E0FFA3FE
:10355800EEF0A3EFF00237CD909510122855909514
:1035680015E0FEA3E029F9EA3EFA909519E0FEA3DA
:10357800E02403FDE43EFC126418909517EEF0A3D6
:10358800EFF0909510122855909515E0FEA3E029CC
:10359800F9EA3EFA909519E0FEA3E029F9EA3EFA25
:1035A800900003122505FD909517E0FEA3E0EE6D4F
:1035B8007001E460030237CD90951012285590955C
:1035C80015E0FEA3E029F9EA3EFA909519E0FEA37A
:1035D800E029F9EA3EFA900004122505FF909517B4
:1035E800E0A3E06F7001E460030237CD908FA2E0A2
:1035F800FEA3E0FF909510122855909515E0FCA3C6
:10360800E029F9EA3CFAE92403F9E43AFA90951931
:10361800E0FCA3E0FD909728ECF0A3EDF01242CE79
:103628007E007F0E7D007B017A8F799A122A7B902B
:103638009519E0FEA3E02405FFE43E909515F0A35C
:10364800EFF0908E69E04402F00237CD909515E0D6
:10365800FEA3E02408FFE43EFE909513E0FCA3E0FF
:10366800FDD3EF9DEE9C4011909513E0FEA3E0FF83
:10367800A3EEF0A3EFF00237CD90951012285590E5
:103688009515E0FEA3E029F9EA3EFA7D067C0012D2
:103698006418909517EEF0A3EFF090951012285546
:1036A800909515E0FEA3E029F9EA3EFA900006128B
:1036B8002505FD909517E0FEA3E0EE6D7001E4602E
:1036C800030237CD909510122855909515E0FEA36A
:1036D800E029F9EA3EFA900007122505FF909517B0
:1036E800E0A3E06F7001E460030237CD9095157593
:1036F800F0081225E17E007F0E7D007B017A8F792C
:103708009A122A7B908E69E04402F00237CD909598
:1037180015E0FEA3E02408FFE43EFE909513E0FCCC
:10372800A3E0FDD3EF9DEE9C4011909513E0FEA31E
:10373800E0FFA3EEF0A3EFF00237CD90951012282A
:1037480055909515E0FEA3E029F9EA3EFA7D067C3E
:1037580000126418909517EEF0A3EFF090951012F0
:103768002855909515E0FEA3E029F9EA3EFA900065
:1037780006122505FD909517E0FEA3E0EE6D700199
:10378800E47042909510122855909515E0FEA3E03C
:1037980029F9EA3EFA900007122505FF909517E0EF
:1037A800A3E0B50720E490951575F0081225E17E91
:1037B800007F0E7D007B017A8F799A122A7B908E8A
:1037C80069E04402F0909515E475F0011225E19046
:1037D8009513E0FEA3E024FBFFEE34FFFEA3E0FC1C
:1037E800A3E0C39FEC9E50030234C32290951012AD
:1037F800287590951012285512260DFF909513E5FF
:10380800F0F0A3EFF0909513E0FEA3E0C39459EE17
:1038180094004003023B14909513E0A3E0908FA816
:1038280075F00E122849EE75F00EA42583F583E095
:10383800645A6003023B07909513E0A3E0908FABB6
:1038480075F00E122849EE75F00EA42583F583E075
:103858007003023B07909513E0A3E0908FAD75F0DD
:103868000E122849EE75F00EA42583F583E0700347
:10387800023B14909513E0A3E0908FAD75F00E1203
:103888002849EE75F00EA42583F583E064017034B1
:10389800909513E0A3E0908FAE75F00E122849EED4
:1038A80075F00EA42583F583E0FEA3E0FF909B1F2F
:1038B800E0FCA3E06F7002EC6E6003023B07023B82
:1038C80014023B07909513E0FEA3E0908FAD75F0CE
:1038D8000E122849EE75F00EA42583F583E06402E4
:1038E80060030239D3909513E0A3E0908FAE75F092
:1038F8000E122849EE75F00EA42583F583E0FEA389
:10390800E0FF7B017A957915909716E4F0A374028D
:10391800F0124061909515E0A3E0645A6003023B01
:1039280007909513E0FEA3E0C39458EE940050610D
:10393800909513E0A3E0908FBB75F00E122849EE26
:1039480075F00EA42583F583E06402704490951306
:10395800E0A3E0908FBC75F00E122849EE75F00ECA
:10396800A42583F583E0FEA3E0FF909513E0FCA374
:10397800E0908FAE75F00E122849EC75F00EA42574
:1039880083F583E0FCA3E06F7002EC6E7003023BEA
:1039980014E4909515F0A3F0909513E0FEA3E09041
:1039A8008FAE75F00E122849EE75F00EA42583F53A
:1039B80083E0FEA3E0FF7B017A957915909728E4D0
:1039C800F0A37402F01242CE023B14909513E0FE6D
:1039D800A3E0908FAD75F00E122849EE75F00EA495
:1039E8002583F583E064036003023B07909513E0A9
:1039F800A3E0908FB475F00E122849EE75F00EA46E
:103A08002583F583E0FEA3E0FF909B1FE0FCA3E085
:103A1800FDEF6D7002EE6C6003023B07909513E0BA
:103A2800FEA3E0908FAE75F00E122849EE75F00EE9
:103A3800A42583F583E0FEA3E0FF7B017A95791541
:103A4800909716E4F0A37402F0124061909515E087
:103A5800A3E0645A6003023B07909513E0FEA3E0DD
:103A6800C39458EE9400505E909513E0A3E0908FB5
:103A7800BB75F00E122849EE75F00EA42583F58368
:103A8800E064037041909513E0A3E0908FBC75F05B
:103A98000E122849EE75F00EA42583F583E0FEA3E7
:103AA800E0FF909513E0FCA3E0908FAE75F00E1246
:103AB8002849EC75F00EA42583F583E0FCA3E06F9C
:103AC8007002EC6E6046E4909515F0A3F0909513A3
:103AD800E0FEA3E0908FAE75F00E122849EE75F067
:103AE8000EA42583F583E0FEA3E0FF7B017A957998
:103AF80015909728E4F0A37402F01242CE800D903E
:103B08009513E475F0011225E102380D909513E044
:103B1800FEA3E0FF909510122855EE8FF012267044
:103B28002290951B12287590951EECF0A3EDF07B62
:103B3800FF7A72799D78207C957D017E007F18122E
:103B480024C690951B12285590000A122638246C1A
:103B5800FFE5F0340790954CF0A3EFF090954CE01A
:103B6800FEA3E0FF7C007D641225ABED4C60139052
:103B7800954CE0FEA3E0FF7C007D041225ABED4CE4
:103B8800601390954CE0FEA3E0FF7C017D90122528
:103B9800ABED4C70067E007F0180047E007F0090B4
:103BA8009548EEF0A3EFF090951B12285590000A67
:103BB80012263824BAFFE5F034FFFE3395E0FDFC09
:103BC80090953812280C90951B12285590000812D1
:103BD8002638C39401E5F06480948050409095485D
:103BE800E0FEA3E064014E70349095381227F4EF9C
:103BF8002402FFE43EFEE43DFDE43CFCE47B04FAE1
:103C0800F9F8126B87EF24FFFFEE34FFFEED34FF67
:103C1800FDEC34FFFC90954012280C8022909538DA
:103C28001227F4EF2402FFE43EFEE43DFDE43CFCF1
:103C3800E47B04FAF9F8126B8790954012280C90EF
:103C4800953C12281800000000E490954AF0A3F073
:103C580090951B122855900008122638FF90954A17
:103C6800E0FCA3E0C39FE5F06480F8EC6480985022
:103C78004890953C1227F4C006C00790954AE0FE8C
:103C8800A3E025E0FFEE33FE74202FF58274953E05
:103C9800F583E0FEA3E0FFFBAA06EA3395E0F9F816
:103CA800D007D00612268F90953C12280C90954A82
:103CB800E475F0011225E1809790953C1227F4C035
:103CC80006C00790951B1228559000061226382426
:103CD800FFFFE5F034FFFEAB07FA3395E0F9F8D0C3
:103CE80007D00612268F90953C12280C90953C120E
:103CF80027F4C004C005C006C007E47F6D7E01FD3F
:103D0800FC90953812280012269C909540122800A5
:103D180012268FA804A905AA06AB07D007D006D09B
:103D280005D00412268F90953C12280C90951B12F2
:103D38002855900004122638FF90951EE0FCA3E059
:103D4800FDC3EF9DFFE5F09CFE3395E0FDFC9095EB
:103D58004412280CE47F107E0EFDFC909544122836
:103D68000012269CC004C005C006C0077F807E5193
:103D78007D017C0090953C12280012269CA804A97D
:103D880005AA06AB07D007D006D005D00412268FA7
:103D9800C004C005C006C00790951B1228559000A6
:103DA80002122638FFAEF07C007D3C122544AB079A
:103DB800AA06EA3395E0F9F8D007D006D005D00472
:103DC80012268FC006C00790951B12285512260D83
:103DD800FFAEF0FBAA06EA3395E0F9F8D007D00663
:103DE80012268F22E51330E10D909B21E475F00136
:103DF8001225E1125999909B21E0FEA3E0C394B8E3
:103E0800EE940B5003024060E4909B21F0A3F090E5
:103E18009B25E0FEA3E02400FFEE341090950BF004
:103E2800A3EFF07B017A95790D909716E4F0A374CF
:103E380002F07FA37ED912406190950DE475F0C819
:103E48001225E190950BE0FEA3E0FF7B017A9579BE
:103E58000D909728E4F0A37402F01242CE909B25AF
:103E6800E0FEA3E02400FFEE341890950BF0A3EFDA
:103E7800F07B017A95790D909716E4F0A37402F01F
:103E88007FA47ED912406190950BE0FEA3E0FF7BF2
:103E9800017A95790D909728E4F0A37402F0124204
:103EA800CE909B25E0FEA3E0FF909511EEF0A3EFE6
:103EB800F0909B25E475F0011225E1909B25E0FE2A
:103EC800A3E0C394FEEE94074007E4909B25F0A37B
:103ED800F07B017A9B7925909728E4F0A37402F08F
:103EE8007F007E031242CE7B017A9B79259097282A
:103EF800E4F0A37402F0FF7E031242CE90950F7493
:103F080007F0A374FEF07B017A95790F909728E467
:103F1800F0A37402F07F087E501242CE7B017A959E
:103F2800790F909728E4F0A37402F07F097E50126D
:103F380042CE90950F7402F0A3748AF07B017A95B3
:103F4800790F909728E4F0A37402F07F117E501245
:103F580042CE909AECE075F03CA4FFA3E07C002FE1
:103F6800FFEC35F0909B23F0A3EFF0909B23E0FE4D
:103F7800A3E0FF1251D3909B25E0A3E030E00302B9
:103F8800406090951174FFF5F01225E1909511E0CD
:103F9800FEA3E02400FFEE3410FE7B017A95790B36
:103FA800909716E4F0A37404F012406190950F7492
:103FB800A5F0A3745AF07B017A95790B909728E4C1
:103FC800F0A37406F07F007E501242CE909511E067
:103FD800FEA3E0FFE4FCFD90971412280C909718BC
:103FE800E4F0A37404F07D007C507FA512639390E5
:103FF8009511E0FEA3E02400FFEE3418FE7B017A61
:1040080095790B909716E4F0A37404F01240619030
:10401800950F74A5F0A3745AF07B017A95790B90EB
:104028009728E4F0A37406F07F007E501242CE90E9
:104038009511E0FEA3E02400FFEE3408FEE4FCFD49
:1040480090971412280C909718E4F0A37404F07D4C
:10405800007C507FA512639322909711EEF0A3EF96
:10406800F0A31228757B007A007900C003C002C053
:1040780001909713122855D082D083D0E06B700836
:10408800E965827003EA658370030242CD90971652
:10409800E0FEA3E04E70030242CD909716E0A3E045
:1040A800FFEEC313FEEF13FF909711E0FCA3E02F80
:1040B800FFEE3CFED3EF94FEEE94FF40030242CDA8
:1040C800C2AF909711E0A3E05401909718F0909731
:1040D80011E0FEA3E0FFEEC313FEEF13FF9097116C
:1040E800EEF0A3EFF0909711E0FEA3E07810CEC3B6
:1040F80013CE13D8F9F5F1909711E0FEA3E0EEF591
:10410800F2909711E0A3E0F5F3E4F5F875F401D225
:10411800FF30FCFDD2FD909718E064017072909713
:1041280016E0FEA3E064014E700AC2FBC2FAD2F99F
:10413800C2F88008C2FBC2FAD2F9D2F8D2FE20FE39
:10414800FD909716E0FEA3E064014E701A90971355
:1041580075F00112285EE5FC12253290971674FF5F
:10416800F5F01225E18029909713E475F0011228E3
:104178005EE5FC122532909713E475F00112285E73
:10418800E5FD12253290971674FF75F0FE1225E1B1
:10419800909716E0FEA3E04E70030242C89097166F
:1041A800E0A3E0C39404EE940040030242719097A8
:1041B80016E0A3E08EF01228A441E5000141DB00DF
:1041C8000241D10003000041EDD2FBD2FAD2F9C27C
:1041D800F88012D2FBD2FAC2F9C2F88008D2FBC228
:1041E800FAC2F9C2F8D2FE20FEFD909716E0FEA3AF
:1041F800E08EF01228A4425E0001423E0002420E08
:104208000003000042C8909713E475F00112285E7D
:10421800E5FA122532909713E475F00112285EE54D
:10422800FB122532909713E475F00112285EE5FC25
:104238001225320242C8909713E475F00112285EE5
:10424800E5FA122532909713E475F00112285EE51D
:10425800FB122532806A909713E475F00112285EEC
:10426800E5FA12253280598057D2FBD2FAD2F9D218
:10427800F8D2FE20FEFD909713E475F00112285E37
:10428800E5FA122532909713E475F00112285EE5DD
:10429800FB122532909713E475F00112285EE5FCB5
:1042A800122532909713E475F00112285EE5FD128D
:1042B800253290971674FF75F0FC1225E10241989B
:1042C800E4F5F8D2AF22909723EEF0A3EFF0A31213
:1042D80028757B007A007900C003C002C00190975E
:1042E80025122855D082D083D0E06B7008E965820A
:1042F8007003EA65837003024539909728E0FEA3AE
:10430800E04E7003024539909728E0A3E0FFEEC322
:1043180013FEEF13FF909723E0FCA3E02FFFEE3C82
:10432800FED3EF94FEEE94FF4003024539C2AF90EE
:104338009723E0A3E0540190972AF0909723E0FE9A
:10434800A3E0FFEEC313FEEF13FF909723EEF0A355
:10435800EFF0909723E0FEA3E07810CEC313CE13BE
:10436800D8F9F5F1909723E0FEA3E0EEF5F29097E7
:1043780023E0A3E0F5F3E4F5F875F401D2FF30FC8F
:10438800FDC2FD90972AE064017072909728E0FEC4
:10439800A3E064014E700AC2FBC2FAD2F9C2F880E7
:1043A80008C2FBC2FAD2F9D2F8909728E0FEA3E03F
:1043B80064014E701A90972575F00112285E122438
:1043C800ECF5FC90972874FFF5F01225E180299010
:1043D8009725E475F00112285E1224ECF5FC9097FD
:1043E80025E475F00112285E1224ECF5FD9097285B
:1043F80074FF75F0FE1225E1D2FE20FEFD9097288D
:10440800E0FEA3E04E7003024534909728E0A3E055
:10441800C39404EE940040030244DD909728E0A37F
:10442800E08EF01228A44452000144480002443EA1
:1044380000030000445AD2FBD2FAD2F9C2F8801223
:10444800D2FBD2FAC2F9C2F88008D2FBC2FAC2F98A
:10445800C2F8909728E0FEA3E08EF01228A444C585
:10446800000144A5000244760003000044D490975C
:1044780025E475F00112285E1224ECF5FA909725D0
:10448800E475F00112285E1224ECF5FB909725E400
:1044980075F00112285E1224ECF5FC802F90972508
:1044A800E475F00112285E1224ECF5FA909725E4E1
:1044B80075F00112285E1224ECF5FB800F90972509
:1044C800E475F00112285E1224ECF5FAD2FE30FEF3
:1044D8005B80FB8057D2FBD2FAD2F9D2F8909725AD
:1044E800E475F00112285E1224ECF5FA909725E4A1
:1044F80075F00112285E1224ECF5FB909725E475FF
:10450800F00112285E1224ECF5FC909725E475F072
:104518000112285E1224ECF5FDD2FE20FEFD9097D4
:104528002874FF75F0FC1225E1024405E4F5F8D281
:10453800AF227BFF7A71797D780B7C957D017E00B7
:104548007F201224C67B017A95790B90952D12282D
:1045580075909530122875E490952BF0A3F09095FE
:104568002BE0FEA3E0C3EE940240030246039095BD
:104578002BE0A3E07803C333CE33CED8F92400FF71
:10458800EE3420FEE4FCFD90971412280C90971846
:10459800E4F0A37408F07D007C307F5A1263937BAB
:1045A800017A95790B909716E4F0A37410F07F00C8
:1045B8007E3012406190952D12285512260D645AAE
:1045C8007004E5F064A560269095301228551226EF
:1045D8000DB4A527E5F0B45A2290953012285578E5
:1045E8005B7C9A7D017E007F081224C6800D909521
:1045F8002BE475F0011225E1024566E490952BF055
:10460800A3F090952BE0FEA3E0C3940AEE9400403B
:10461800030247957BFF7A71799D78337C957D01FC
:104628007E007F201224C67B017A9A790378337C36
:10463800957D017E007F1A1224C690952BE0FEA37B
:10464800E0FF7C007D1B122544EF2464FFE43E90CC
:104658009537F0A3EFF090953C7401F090952BE01E
:10466800FEA3E0909A7E75F006122849EE75F006D2
:10467800A42583F583E0FEA3E0FF7B017A957933D7
:10468800909728E4F0A37420F01242CE7B017A9A26
:10469800791D78337C957D017E007F1A1224C6909F
:1046A800952BE0FEA3E0FF7C007D1B122544EF2440
:1046B80064FFE43E909537F0A3EFF090953C7401C9
:1046C800F090952BE0FEA3E0909A8075F0061228F2
:1046D80049EE75F006A42583F583E0FEA3E0FF7B91
:1046E800017A957933909728E4F0A37420F0124268
:1046F800CE7B017A9A79BA78337C957D017E007FEA
:104708001A1224C690952BE0FEA3E0FF7C007D1BC7
:10471800122544EF2464FFE43E909537F0A3EFF0B0
:1047280090952BE0FEA3E0FF122544EF2464FFE4FC
:104738003E90953DF0A3EFF090952BE0FEA3E0FFAF
:10474800122544EF247DFFE43E909541F0A3EFF05D
:1047580090952BE0FEA3E0909A8275F00612284906
:10476800EE75F006A42583F583E0FEA3E0FF7B0148
:104778007A957933909728E4F0A37420F01242CE0A
:1047880090952BE475F0011225E102460A22126E7B
:104798007F7F64126A577F10126A57126EFB126E7F
:1047A8007F7F65126A579095147406F0909514E00F
:1047B800D3940074809480401D126A02909514E08E
:1047C800240CF582E43495F583EFF0126E9A9095F7
:1047D80014E014F080D6126A0290950CEFF0126E75
:1047E800B3126EFB7B017A95790C78F77C9A7D0180
:1047F8007E007F071224C6E4909514F0909514E08B
:10480800C3940374809480504BE0240CF582E43404
:1048180095F583E0FFC4540F909515F0909514E03A
:10482800240CF582E43495F583E0540F909516F046
:10483800909515E075F00AA4FFA3E02FFF9095145A
:10484800E0240CF582E43495F583EFF0909514E0BC
:1048580004F080A89095147404F0909514E0C39423
:104868000774809480504BE0240CF582E43495F56D
:1048780083E0FFC4540F909515F0909514E0240C34
:10488800F582E43495F583E0540F909516F09095F1
:1048980015E075F00AA4FFA3E02FFF909514E0241B
:1048A8000CF582E43495F583EFF0909514E004F06C
:1048B80080A890950CE0FFA3E0FDA3E0FB12549BB9
:1048C80090950FEFF07B017A95790C909728E4F09A
:1048D800A37408F07F107E001242CE7B017A95798E
:1048E8000C78E87C9A7D017E007F071224C67B0144
:1048F8007A9A79EC909728E4F0A37402F07F287EE6
:10490800CD1242CE909AE6E0FEA3E0C39448EE941E
:1049180003500A909AE6E475F0011225E19095118A
:10492800E06013A3E0600F909AE6E0FEA3E0C39472
:1049380047EE940350062000030249E590951712AC
:10494800281800000000909512E0FF909AD4E4F037
:10495800A3EFF0909511E0FF909AD6E4F0A3EFF062
:10496800909510E0FF909AD8E4F0A3EFF090950EA0
:10497800E0FF909ADAE4F0A3EFF090950DE024FFC1
:10498800FFE434FF909ADCF0A3EFF090950CE0245C
:1049980064FFE433909ADEF0A3EFF090950CE4F016
:1049A800A3745AF0A3E4F0A37412F07B017A9A7905
:1049B800D47D087C00123B2990951012280C7B01AD
:1049C8007A95790C909728E4F0A37408F07F157E07
:1049D800501242CEE4909AE6F0A3F0C20022E4908E
:1049E800950BF0A3F0E51320E003024C327B017A2B
:1049F80095790B909716E4F0A37402F07F147E501B
:104A080012406190950BE0FEA3E04E7003024C3219
:104A180090950BE0A3E08EF01228A44BADA4004BB8
:104A2800B2A4014BB7A4A04BB7A4A14BB7A4A24B07
:104A3800B7A4A34BB7A4A44BB7A4A54BB7A4A64B44
:104A4800B7A4A74BB7A4A84BB7A4A94BB7A4AA4B24
:104A5800B7A4AB4BB7A4AC4BB7A4AD4BB7A4AE4B04
:104A6800B7A4AF4BB7A4B04BB7A4B14BB7A4B24BE4
:104A7800B7A4B34BB7A4B44BB7A4B54BB7A4B64BC4
:104A8800B7A4B74BB7A4B84BB7A4B94BB7A4BA4BA4
:104A9800B7A4BB4BB7A4BC4BB7A4BD4BB7A4BE4B84
:104AA800B7A4BF4BB7A4C04BB7A4C14BB7A4C24B64
:104AB800B7A4C34BB7A4C44BB7A4C54BB7A4C64B44
:104AC800B7A4C74BB7A4C84BB7A4C94BB7A4CA4B24
:104AD800B7A4CB4BB7A4CC4BB7A4CD4BB7A4CE4B04
:104AE800B7A4CF4BB7A4D04BB7A4D14BB7A4D24BE4
:104AF800B7A4D34BB7A4D44BB7A4D54BB7A4D64BC4
:104B0800B7A4D74BB7A4D84BB7A4D94BB7A4DA4BA3
:104B1800B7A4DB4BB7A4DC4BB7A4DD4BB7A4DE4B83
:104B2800B7A4DF4BB7A4E04BB7A4E14BB7A4E24B63
:104B3800B7A4E34BB7A4E44BB7A4E54BC4A4F04B2C
:104B4800C4A4F14BC4A4F24BC4A4F34BD1A6004CAB
:104B580016A6014BD6AC004BDBAC014BE0B7004CC2
:104B680001B83C4C01B8694BE5C2004BEAC3004BA5
:104B7800EFC7014BF4C9014BF4C9064BF4C90C4B00
:104B8800F4C90E4BF4C9114C0ED6004BA3D9004BF7
:104B9800A8D9264C13E00000004C16126720806E3E
:104BA800126E6280691265E18064120016805F905F
:104BB800950BE0FEA3E0FF12689D805290950BE0F4
:104BC800FEA3E0FF1268F7804512618880401269F1
:104BD800AA803B126CFF8036126D358031126DD081
:104BE800802C1265748027126C87802290950BE0C8
:104BF800FEA3E0FF126AAA801590950BE0FEA3E0E1
:104C0800FF126AF58008126BCB8003126C0AE490DD
:104C1800950BF0A3F07B017A95790B909728F0A378
:104C28007402F07F147E501242CE227BFF7A6F7995
:104C38007D780B7C957D017E027F001224C69097BB
:104C480014122818000000009097187410F0A3E4BC
:104C5800F0FD7C107F5A12639390970B7410F0A3A9
:104C6800E4F090970BE0FEA3E0C394FEEE94175097
:104C78006990970BE0A3E0FF7B017A95790B9097F9
:104C8800167402F0A3E4F0124061E490970DF0A3CB
:104C9800F090970DE0FEA3E0C3EE9401502F90979B
:104CA8000DE0A3E025E0FFEE33FE740B2FF58274D0
:104CB800953EF583E0FEA3E0645A7003EE64A560B8
:104CC8001990970DE475F0011225E180C490970BB7
:104CD800740175F0001225E1808890970DE0FEA31D
:104CE800E0FF90970BE0FCA3E02FFFEC3E90970FBE
:104CF800F0A3EFF090970FE0FEA3E0C394FEEE94CC
:104D080017400990970F7410F0A3E4F090970F7470
:104D1800F075F0001225E190970FE0FEA3E0FF90F8
:104D28009B25EEF0A3EFF07B017A97790F909728F7
:104D3800E4F0A37402F07F007E031242CE7B017A76
:104D480097790F909728E4F0A37402F0FF7E03127E
:104D580042CE7B017A97790F909728E4F0A37402EA
:104D6800F07F087E501242CE7B017A97790F909798
:104D780028E4F0A37402F07F097E501242CE909589
:104D88000B7407F0A374FEF07B017A95790B90976A
:104D980028E4F0A37402F07F017E031242CE7B0167
:104DA8007A95790B909728E4F0A37402F004FFFE3B
:104DB8001242CE90950BE4F0A37406F0A3E4F0A39E
:104DC80004F0A3E4F0A3742EF0A37401F0A3744CD0
:104DD800F0A37401F0A37471F0A37401F0A37477C5
:104DE800F0A37401F0A3748AF0A37402F0A3748A88
:104DF800F0A37401F0A37471F0A374FFF0A3E4F0BE
:104E08007B017A95790B909728F0A37414F07F0AA8
:104E18007E501242CE909AECE075F03CA4FFA3E0DD
:104E28007C002FFFEC35F0909B23F0A3EFF0909BD4
:104E380023E0FEA3E0FF1251D3227B007A00790021
:104E480090950B122875908F99E064016003024ECB
:104E5800D9908F94E0FF909486E0D39F4011E09022
:104E68008F94F09095071228180000000080629037
:104E78008F94E0FF909486E06F7056FFFEFDFC90E3
:104E88009507122800D31227CF403890950712288B
:104E980000C3E50E9BFFE50D9AFEE50C99FDE50BB9
:104EA80098FCE47B14FAF9F8C31227CF50237B014E
:104EB8007A947987909486E0FD7C0012349E126D76
:104EC800FD800EAF0EAE0DAD0CAC0B909507122801
:104ED8000C908E69E030E046E020E129908F951231
:104EE8002800C3E50E9BFBE50D9AFAE50C99F9E558
:104EF8000B98F8908F9EE0FFE4FCFDFEC31227CFCD
:104F0800500302503D908E69E030E10AA3E475F049
:104F1800011225E1802F908E69E054FEF022908FD7
:104F280095122800C3E50E9BFFE50D9AFEE50C9946
:104F3800FDE50B98FCE47BF47A01F9F8D31227CF4E
:104F4800400302503D908E6AE0FEA3E04E700312CB
:104F580055E0908F9512281800000000E4F50EF532
:104F68000DF50CF50B908E69E054FDF0E054FEF061
:104F7800126DFD7B017A8E796A1237F4908E6AE0A1
:104F8800FEA3E0C39459EE94004003025036908E7D
:104F98006AE0A3E0FF7C007D0E12254474A82FF977
:104FA800748F3EFA7B01789A7C8F7D017E007F0E9C
:104FB8001224C6126DFD908F9CE0640370127B0171
:104FC8007A8F799A125BDB908E69E04401F0805405
:104FD800908F9CE064067034908FA2E0FEA3E0FFFF
:104FE8007B017A95790E909716E4F0A37402F0127B
:104FF80040617B017A8F799A90950EE0FCA3E0FDE1
:10500800125CF6908E69E04401F08018908F9CE065
:10501800641070107B017A8F799A12503E908E69D5
:10502800E04401F0E4F50EF50DF50CF50B22E490E3
:105038008E6AF0A3F022909510122875E4909515C9
:10504800F0909510122855900001122505FF9095B3
:1050580015E0FE04F074162EF582E43495F583EF1E
:10506800F0909515E0FF04F074162FF582E434955E
:10507800F5837410F090951012285590000A1226A6
:1050880038E5F0FF909515E0FE04F074162EF582D1
:10509800E43495F583EFF090951012285590000AA6
:1050A800122638FF909515E0FE04F074162EF5824E
:1050B800E43495F583EFF09095101228559000038D
:1050C800122505FFE4909515E0FE04F074162EF500
:1050D80082E43495F583E4F09095101228559000F9
:1050E80003122505FF909515E0FE04F074162EF5C1
:1050F80082E43495F583EFF09095101228559000CE
:105108000312250525E0FF909515E0FE04F07416BE
:105118002EF582E43495F583EFF0908FA2E0FEA39C
:10512800E0FFC006C007909515E02416F9E4349511
:10513800FA7B01C003C002C0019095101228559057
:10514800000312250575F002A4FF909716E5F0F00C
:10515800A3EFF0D001D002D003D007D006124061EF
:1051680090951012285590000312250525E0FF9010
:105178009515E02FF07B017A957916E0FD7C0012F9
:105188006418909513EEF0A3EFF0909513E0FEA34A
:10519800E0EEFFA3E0FE04F074162EF582E43495E9
:1051A800F583EFF0909513E0A3E0FFA3E0FE04F091
:1051B80074162EF582E43495F583EFF07B017A9529
:1051C8007916909515E0FD12684322909711EEF03C
:1051D800A3EFF0909711E0FEA3E0FFA3EEF0A3EF9A
:1051E800F0909713E0FEA3E0C39478EE6480948077
:1051F800500D909713740575F0A01225E180E29088
:105208009713E0FEA3E024D8FFEE34FFA3F0A3EF4A
:10521800F0909713E0A3E024B0FFEE34FF909717C7
:10522800F0A3EFF0909713E0A3E02488FFEE34FF9B
:10523800909719F0A3EFF0909713E0A3E0FF7C0597
:105248007DA01225AB909713ECF0A3EDF090971387
:10525800E0FEA3E0FF7C007D3C1225AB90971BEF9E
:10526800F0909713E0FEA3E0FF7C007D3C1225AB95
:1052780090971CEDF0909715E0FEA3E0FF7C057D6C
:10528800A01225AB909715ECF0A3EDF0909715E0E0
:10529800FEA3E0FF7C007D3C1225AB90971DEFF04C
:1052A800909715E0FEA3E0FF7C007D3C1225AB90B3
:1052B800971EEDF0909717E0FEA3E0FF7C057DA018
:1052C8001225AB909717ECF0A3EDF0909717E0FE3E
:1052D800A3E0FF7C007D3C1225AB90971FEFF09078
:1052E8009717E0FEA3E0FF7C007D3C1225AB90976A
:1052F80020EDF0909719E0FEA3E0FF7C057DA01259
:1053080025AB909719ECF0A3EDF0909719E0FEA368
:10531800E0FF7C007D3C1225AB909721EFF0909741
:1053280019E0FEA3E0FF7C007D3C1225AB9097229C
:10533800EDF07B017A97791B909728E4F0A3740825
:10534800F07F207ECD1242CE22C0E0C0F0C083C0E4
:1053580082C0D075D000C000C001C002C003C00424
:10536800C005C006C007C2AF758CBC758ACD909BBE
:1053780008E475F0011225E1909B08E0FEA3E0D354
:1053880094E8EE94034018909B08E4F0A3F0A3750A
:10539800F0011225E1909B06E475F0011225E14326
:1053A800C901909B141227F4E47B01FAF9F812263C
:1053B8008F909B1412280C909B0CE475F001122519
:1053C800E1909B0E1227F4E4F812268F909B0E12A0
:1053D800280C909B12E0FEA3E0FFE4FCFD7BDC7A46
:1053E800FFF8D31227B9400A909B12E475F0011216
:1053F80025E10509E50970020508AF12AE11AD10E7
:10540800AC0FE47B01FAF9F812268F8F128E118DFA
:10541800108C0FAF0EAE0DAD0CAC0BE412268F8FB7
:105428000E8E0D8D0C8C0BE47B64AF12AE11AD109B
:10543800AC0F122727AC00AD01AE02AF03E4FBFAB4
:10544800F9F8C31227CF7003430A02E47BF47A0108
:10545800F9F8AF12AE11AD10AC0F122727AC00ADA2
:1054680001AE02AF03E4FBFAF9F8C31227CF7003C9
:10547800430A04430A01D2AFD007D006D005D004AE
:10548800D003D002D001D000D0D0D082D083D0F0C9
:10549800D0E03290951BEFF0A3EDF0A3EBF0E49091
:1054A8009528F0A3F090951BE024D0FFE4340790F2
:1054B8009528F0A3EFF0909528E0FEA3E0FF7C008C
:1054C8007D6412255690951EECF0A3EDF09095287A
:1054D800E0FEA3E0FF7C007D64122556909520EE47
:1054E800F0A3EFF090951CE0FF909522E4F0A3EF75
:1054F800F090951DE0FF909524E4F0A3EFF09095CF
:1055080022E0FEA3E064014E600B909522E0A3E048
:1055180064024E701490951E74FFF5F01225E19008
:105528009522E475F00C1225E190951EE0FEA3E0AB
:105538007802CEC313CE13D8F9FF90951EE0FCA3D2
:10554800E02FFDEE3CFCA3E0FEA3E07802CEC313FF
:10555800CE13D8F92DFDEC3EFC909520E0FEA3E09B
:1055680025E0FFEE33FEC3ED9FFBEC9EFAA3E0FEC1
:10557800A3E02401FFE43EFE7C007D0D1225447D5E
:1055880005122556EF2BFFEE3AFEA3E0FCA3E02F11
:10559800FFEE3CFEEF24FFFFEE34FFA3F0A3EFF095
:1055A800909526E0FEA3E0C3EE9400500C9095265B
:1055B800E475F0071225E180E7909526E0FEA3E068
:1055C800FF7C007D07122556909526ECF0A3EDF0A0
:1055D800909526E0A3E0FF227BFF7A72796378102A
:1055E8007C957D017E007F281224C6E4909538F0D2
:1055F800A3F0909538E0FEA3E0C39425EE94004014
:1056080003025724909538E0A3E07803C333CE33E0
:10561800CED8F9246DF582748E3EF583E0FF909B19
:105628001FE0FCA3E0FDEF6D7001EC60030257176B
:10563800909538E0FEA3E07803C333CE33CED8F993
:10564800246EF582748E3EF583E0FEA3E0FF7B01B5
:105658007A957910909716E4F0A37402F0124061DD
:10566800909538E0FEA3E07803C333CE33CED8F963
:105678002470F582748E3EF583E0FEA3E0FF7B0183
:105688007A957912909716E4F0A37402F0124061AB
:10569800909512E0FEA3E0FF909510E0FCA3E06F68
:1056A8007002EC6E6069909538E0FEA3E07803C361
:1056B80033CE33CED8F92470F582748E3EF583E06C
:1056C800FEA3E0FF7B017A957910909728E4F0A378
:1056D8007402F01242CE909514E4F0A3745AF0903C
:1056E8009538E0FEA3E07803C333CE33CED8F9244F
:1056F80072F582748E3EF583E0FEA3E0FF7B017AAB
:10570800957914909728E4F0A37402F01242CE9091
:105718009538E475F0011225E10255FA2290955367
:10572800EFF07BFF7A7179DD78547C957D017E00FE
:105738007F201224C67B017A9A790378547C957D60
:10574800017E007F1A1224C6909553E075F01BA4C1
:105758002464FFE435F0909558F0A3EFF090955D40
:105768007401F0909553E075F006A4247EF582E468
:10577800349AF583E0FEA3E0FF7B017A9579549093
:105788009728E4F0A37420F01242CE7B017A9A792C
:105798001D78547C957D017E007F1A1224C6909551
:1057A80053E075F01BA42464FFE435F0909558F09D
:1057B800A3EFF090955D7401F0909553E075F006B5
:1057C800A42480F582E4349AF583E0FEA3E0FF7B0D
:1057D800017A957954909728E4F0A37420F0124246
:1057E800CE7B017A9A79BA78547C957D017E007FC8
:1057F8001A1224C6909553E075F01BA42464FFE4A4
:1058080035F0909558F0A3EFF0909553E075F01BA4
:10581800A42464FFE435F090955EF0A3EFF0909532
:1058280053E075F01BA4247DFFE435F0909562F0F9
:10583800A3EFF0909553E075F006A42482F582E476
:10584800349AF583E0FEA3E0FF7B017A95795490C2
:105858009728E4F0A37420F01242CE22909553EFDB
:10586800F0A3ECF0A3EDF0A3EBF07BFF7A7179BD28
:1058780078577C957D017E007F201224C67B017AB3
:105888009A790378577C957D017E007F1A1224C689
:10589800909553E075F01BA42464FFE435F09095CF
:1058A8005BF0A3EFF0E4909560F0909554E0FEA3D0
:1058B800E02401FFE43E909557F0A3EFF090955354
:1058C800E075F006A4247EF582E4349AF583E0FEC0
:1058D800A3E0FF7B017A957957909728E4F0A374A9
:1058E80020F01242CE7B017A9A791D78577C957DFB
:1058F800017E007F1A1224C6909553E075F01BA410
:105908002464FFE435F090955BF0A3EFF090955692
:10591800E0FFC3740E9F909560F0909554E0FEA34D
:10592800E02404FFE43E909557F0A3EFF0909553E0
:10593800E075F006A42480F582E4349AF583E0FE4D
:10594800A3E0FF7B017A957957909728E4F0A37438
:1059580020F01242CE909554E0FEA3E02408FFE424
:105968003E909557F0A3EFF0909553E075F006A49C
:105978002482F582E4349AF583E0FEA3E0FF7B01FC
:105988007A957957909728E4F0A37402F01242CEE2
:10599800227B017A957913909716E4F0A37404F0AA
:1059A8007F087E50124061909515E0FEA3E0FF90BD
:1059B8009513E0FCA3E06F7002EC6E7003025ABC12
:1059C8007B017A957913909728E4F0A37402F07F0D
:1059D800097E501242CE909513E0FEA3E02402FF08
:1059E800EE34F890951BF0A3EFF0909513E0A3E048
:1059F800FF909B25E0FCA3E02FFFEC3E909517F06D
:105A0800A3EFF0909517E0FEA3E0C394FEEE940791
:105A1800400B90951774F875F0021225E17B017A16
:105A2800957917909728E4F0A37402F07F007E031D
:105A38001242CE7B017A957917909728E4F0A374E7
:105A480002F0FF7E031242CE909513E0FEA3E078A9
:105A580002CEC313CE13D8F9FF909513EEF0A3EF3F
:105A6800F0909513E475F08F1225E17B017A957912
:105A780013909728E4F0A37402F07F117E5012422D
:105A8800CE90951BE0FEA3E0FF7C007D0512254427
:105A980090951BEEF0A3EFF0909B23E0FEA3E0FFB0
:105AA80090951BEE8FF01225E190951BE0FEA3E088
:105AB800FF1251D322E4909518F07B017A9A79FE6F
:105AC800909716F0A37408F07F9C7E0012406190B6
