:1000000002634B020006C2AFD2AF320254D9C2AF74
:10001000D2AF3202000E909967E0FEA3E0FF126BB0
:02002000992223
:070023000267DF126E7C2270
:10002B00026FD390974C12285000003000909750DD
:10003B00E4F0A3740CF07D007C307F5A1263EC7BF0
:10004B00017A9A791F90974EE4F0A37418F07F0011
:10005B007E3012409AE4909543F0909543E0C39420
:10006B000774809480506EE025E025E0241FF58214
:10007B00E4349AF58312282CE4FBFAF9F8C312281E
:10008B00076022909543E025E025E0241FF582E4EC
:10009B00349AF58312282C7B3F7A42790F7800C370
:1000AB001228075028909543E025E025E024F9F528
:1000BB0082E43499F58312282C909543E025E025B2
:1000CB00E0241FF582E4349AF5831228449095437B
:1000DB00E004F080857B017A9A791F909760E4F0B9
:0C00EB00A37414F07FA07EA6124307222D
:1000F800FFFF4457494E5435429B570000419B50DF
:1001080000429B510000419B5300419B5400429B7D
:10011800550000429B5D0000429B5B0000429B59DA
:1001280000005A9A3B3FC900690064000086000A33
:100138002D2D203A3A000000000000000000005A6F
:100148009A553FCC01270064000086000A2D2D2F08
:100158003A3A000000000000000000005A9AF23FFE
:10016800D001E50064000001E5006402AD007D00F7
:10017800100017181802000000603C9AB6400040B2
:10018800A04140401040B04150402040C041604034
:100198003040D04170404040E04180405040F04104
:1001A800904060410041A04070411041B040804102
:1001B8002041C04090413041D0549AA241E041F8DA
:1001C80042104228424042584270428842A042B8F7
:1001D800489A930000000000000000429A9B00002B
:1001E800429AA00000429A9D0000419A9F00429ABC
:1001F800810000429A6F0005498000B2E2CAD4BA71
:10020800BAD7D6006E60800949443030BBD8B7E70A
:10021800B8DFCEC2000000000000000000000000AF
:10022800000000000000000049443031BBD8B7E7A7
:10023800B5CDCEC2000000000000000000000000A4
:10024800000000000000000049443032BBD8B7E786
:10025800B8DFCAAA0000000000000000000000008B
:10026800000000000000000049443033BBD8B7E765
:10027800B5CDCAAA00000000000000000000000080
:10028800000000000000000049443034CBCDB7E73F
:10029800B8DFCEC20000000000000000000000002F
:1002A800000000000000000049443035CBCDB7E71E
:1002B800B5CDCEC200000000000000000000000024
:1002C800000000000000000049443036CBCDB7E7FD
:1002D800B8DFCAAA0000000000000000000000000B
:1002E800000000000000000049443037CBCDB7E7DC
:1002F800B5CDCAAA00000000000000000000000000
:10030800000000000000000049443038B1A3C1F4E7
:1003180000000000000000000000000000000000D5
:10032800000000000000000049443039CEC2CAAACB
:10033800B6C8B4ABB8D0C6F7000000000000000093
:100348000000000000000000494431304E5443D200
:10035800ECB3A30000000000000000000000000053
:10036800000000000000000049443131B7E7BBFA43
:1003780031B9CAD5CF00000000000000000000001D
:10038800000000000000000049443132B1A3C1F46C
:100398000000000000000000000000000000000055
:1003A800000000000000000049443133B1A3C1F44B
:1003B8000000000000000000000000000000000035
:1003C800000000000000000049443134B1A3C1F42A
:1003D8000000000000000000000000000000000015
:1003E800000000000000000049443135B1A3C1F409
:1003F80000000000000000000000000000000000F5
:10040800000000000000000049443136CDE2B7E7A3
:10041800BBFAB9CAD5CF00000000000000000000F8
:10042800000000000000000049443137B7E7BBFA7C
:1004380031B3ACCAB10000000000000000000000A9
:10044800000000000000000049443138B1A3C1F4A5
:100458000000000000000000000000000000000094
:10046800000000000000000049443139B1A3C1F484
:100478000000000000000000000000000000000074
:10048800000000000000000049443230B1A3C1F46C
:100498000000000000000000000000000000000054
:1004A800000000000000000049443231B1A3C1F44B
:1004B8000000000000000000000000000000000034
:1004C800000000000000000049443232CDE2B7E7E6
:1004D800BBFAB3ACCAB10000000000000000000085
:1004E800000000000000000049443233B8DFD1B9F1
:1004F80031BFAAB9D80000000000000000000000C9
:10050800000000000000000049443234B8DFD1B9CF
:1005180031CBF8CBC0000000000000000000000054
:10052800000000000000000049443235B5CDD1B9C3
:1005380031B8E6BEAF000000000000000000000077
:10054800000000000000000049443236B5CDD1B9A2
:1005580031CBF8CBC0000000000000000000000014
:10056800000000000000000049443237C5C5C6F845
:10057800CEC2B6C831B8E6BEAF0000000000000029
:10058800000000000000000049443238C5C5C6F824
:10059800CEC2B6C831CBF8CBC000000000000000C6
:1005A800000000000000000049443239B6CCD6DC17
:1005B800C6DA31B8E6BEAF00000000000000000057
:1005C800000000000000000049443330D1B9BBFAF4
:1005D80031D4CBD0D0B3ACCAB100000000000000C9
:1005E800000000000000000049443331B7E7BBFABF
:1005F80031B9CAD5CF00000000000000000000009B
:10060800000000000000000049443332B7E7BBFA9D
:1006180032B9CAD5CF000000000000000000000079
:10062800000000000000000049443333B7E7BBFA7C
:1006380033B9CAD5CF000000000000000000000058
:10064800000000000000000049443334B7E7BBFA5B
:1006580034B9CAD5CF000000000000000000000037
:10066800000000000000000049443335C5C5C6F845
:10067800CEC2B6C832B8E6BEAF0000000000000027
:10068800000000000000000049443336C5C5C6F824
:10069800CEC2B6C832CBF8CBC000000000000000C4
:1006A800000000000000000049443337B6CCD6DC17
:1006B800C6DA32B8E6BEAF00000000000000000055
:1006C800000000000000000049443338D1B9BBFAEB
:1006D80032D4CBD0D0B3ACCAB100000000000000C7
:1006E800000000000000000049443339BCD3CAAA06
:1006F800C6F7B5E7C1F7B9FDB4F300000000000084
:10070800000000000000000049443430CBCDB7E7BA
:10071800B4ABB8D0C6F7000000000000000000002D
:10072800000000000000000049443431BDF8BFDA81
:10073800B4ABB8D0C6F7000000000000000000000D
:10074800000000000000000049443432B3F6BFDA6C
:10075800B4ABB8D0C6F700000000000000000000ED
:10076800000000000000000049443433BCD3C8C86E
:10077800C6F7B8E6BEAF00000000000000000000A9
:10078800000000000000000049443434BCD3C8C84D
:10079800C6F731B3ACCAB100000000000000000089
:1007A800000000000000000049443435BCD3C8C82C
:1007B800C6F732B3ACCAB100000000000000000068
:1007C800000000000000000049443436B6CFB5E709
:1007D800D6D8C6F4000000000000000000000000A9
:1007E800000000000000000049443437B5E7D4B4E5
:1007F800CFE0D0F2B4EDCEF300000000000000001E
:10080800000000000000000049443438B5E7D4B4C3
:10081800C6B5C2CAC6ABB8DF0000000000000000C1
:10082800000000000000000049443439B5E7D4B4A2
:10083800C6B5C2CAC6ABB5CD0000000000000000B6
:1008480000000000000000004944353041CFE0B905
:10085800FDD1B90000000000000000000000000009
:1008680000000000000000004944353142CFE0B9E3
:10087800FDD1B900000000000000000000000000E9
:1008880000000000000000004944353243CFE0B9C1
:10089800FDD1B900000000000000000000000000C9
:1008A80000000000000000004944353341CFE0C794
:1008B800B7D1B900000000000000000000000000EF
:1008C80000000000000000004944353442CFE0C772
:1008D800B7D1B900000000000000000000000000CF
:1008E80000000000000000004944353543CFE0C750
:1008F800B7D1B900000000000000000000000000AF
:1009080000000000000000004944353641CFE0C82F
:10091800B1CFE0000000000000000000000000006F
:1009280000000000000000004944353742CFE0C80D
:10093800B1CFE0000000000000000000000000004F
:1009480000000000000000004944353843CFE0C8EB
:10095800B1CFE0000000000000000000000000002F
:10096800000000000000000049443539C6F8C1F70E
:10097800B6AACAA7B8E6BEAF000000000000000093
:10098800000000000000000049443630B9FDC2CB29
:10099800CDF8D4CBD0D0B3ACCAB100000000000071
:1009A800000000000000000049443631BFD5C6F8F9
:1009B800C2CBCDF8B6C2C8FB0000000000000000A2
:1009C800000000000000000049443632D4B6B3CC21
:1009D800B9D8BBFAB8E6BEAF0000000000000000BE
:1009E800000000000000000049443633C2A9CBAE25
:1009F800B8E6BEAF000000000000000000000000E4
:100A0800000000000000000049443634C8BABFD8CE
:100A1800CDA8D0C5D2ECB3A30000000000000000B0
:100A2800000000000000000049443635B1A3C1F4BD
:100A380000000000000000000000000000000000AE
:100A4800000000000000000049443636B5CDB9FD6D
:100A5800C8C8B6C831B8E6BEAF0000000000000044
:100A6800000000000000000049443637B5CDB9FD4C
:100A7800C8C8B6C832B8E6BEAF0000000000000023
:100A8800000000000000000049443638D1CCCEED0B
:100A9800B8E6BEAF00000000000000000000000043
:100AA800000000000000000049443639D3C3BBA74A
:100AB800D7D4B6A8D2E5B8E6BEAF00000000000063
:100AC800000000000000000049443730B5E7D4B406
:100AD800D2ECB3A3000000000000000000000000FA
:100AE800000000000000000049443731B1A3C1F400
:100AF80000000000000000000000000000000000EE
:100B0800000000000000000049443732B1A3C1F4DE
:100B180000000000000000000000000000000000CD
:100B2800000000000000000049443733B1A3C1F4BD
:100B380000000000000000000000000000000000AD
:100B4800000000000000000049443734B1A3C1F49C
:100B5800000000000000000000000000000000008D
:100B6800000000000000000049443735B1A3C1F47B
:100B7800000000000000000000000000000000006D
:100B8800000000000000000049443736B1A3C1F45A
:100B9800000000000000000000000000000000004D
:100BA800000000000000000049443737B1A3C1F439
:100BB800000000000000000000000000000000002D
:100BC800000000000000000049443738B1A3C1F418
:100BD800000000000000000000000000000000000D
:100BE800000000000000000049443739B1A3C1F4F7
:100BF80000000000000000000000000000000000ED
:100C0800000000000000000049443830C5C5CBAEE4
:100C1800B8DFCBAECEBB0000000000000000000033
:100C2800000000000000000049443831BCD3CAAAC3
:100C3800C6F7D2ECB3A300000000000000000000DB
:100C4800000000000000000049443832B7E7D1B97D
:100C5800B9FDB5CD00000000000000000000000054
:100C6800000000000000000049443833B1A3C1F47B
:100C7800000000000000000000000000000000006C
:100C8800000000000000000049443834B8DFD1B942
:100C980031D1B9C1A600000000000000000000002A
:100CA800000000000000000049443835C0E4C4FDDD
:100CB800CBAEC5CCC2FACBAE0000000000000000ED
:100CC8000000000000000000494438364D4F503104
:100CD800B8E6BEAF00000000000000000000000001
:100CE8000000000000000000494438374D4F5032E2
:100CF800B8E6BEAF000000000000000000000000E1
:100D08000000000000000000494438384C4F5031C2
:100D1800B8E6BEAF000000000000000000000000C0
:100D28000000000000000000494438394C4F5032A0
:100D3800B8E6BEAF000000000000000000000000A0
:100D4800000000000000000049443930C9E8B1B88B
:100D5800CAB9D3C3B3ACCAB1000000000000000098
:100D6800000000000000000049443931B1A3C1F47B
:100D7800000000000000000000000000000000006B
:100D8800000000000000000049443932B1A3C1F45A
:100D9800000000000000000000000000000000004B
:100DA800000000000000000049443933B1A3C1F439
:100DB800000000000000000000000000000000002B
:100DC800000000000000000049443934B1A3C1F418
:100DD800000000000000000000000000000000000B
:100DE800000000000000000049443935B1A3C1F4F7
:100DF80000000000000000000000000000000000EB
:100E0800000000000000000049443936B1A3C1F4D5
:100E180000000000000000000000000000000000CA
:100E2800000000000000000049443937B1A3C1F4B4
:100E380000000000000000000000000000000000AA
:100E4800000000000000000049443938B1A3C1F493
:100E5800000000000000000000000000000000008A
:100E6800000000000000000049443939B1A3C1F472
:100E7800000000000000000000000000000000006A
:100E880000000000000000004944313030B1A3C127
:100E9800F400000000000000000000000000000056
:100EA80000000000000000004944313031B1A3C106
:100EB800F400000000000000000000000000000036
:100EC80000000000000000004944313032B1A3C1E5
:100ED800F400000000000000000000000000000016
:100EE80000000000000000004944313033B1A3C1C4
:100EF800F4000000000000000000000000000000F6
:100F080000000000000000004944313034B1A3C1A2
:100F1800F4000000000000000000000000000000D5
:100F280000000000000000004944313035B1A3C181
:100F3800F4000000000000000000000000000000B5
:100F480000000000000000004944313036B1A3C160
:100F5800F400000000000000000000000000000095
:100F680000000000000000004944313037B1A3C13F
:100F7800F400000000000000000000000000000075
:100F880000000000000000004944313038B1A3C11E
:100F9800F400000000000000000000000000000055
:100FA80000000000000000004944313039B1A3C1FD
:100FB800F400000000000000000000000000000035
:100FC80000000000000000004944313130B1A3C1E5
:100FD800F400000000000000000000000000000015
:100FE80000000000000000004944313131B1A3C1C4
:100FF800F4000000000000000000000000000000F5
:1010080000000000000000004944313132B1A3C1A2
:10101800F4000000000000000000000000000000D4
:1010280000000000000000004944313133B1A3C181
:10103800F4000000000000000000000000000000B4
:1010480000000000000000004944313134B1A3C160
:10105800F400000000000000000000000000000094
:101068000000000000000000419B5F00479B2F002C
:10107800000000000000479B200000000000000066
:10108800489B360000000000000000489B27000035
:10109800000000000000C100429B1E0000529B0C93
:1010A8000000000000000000000000000000000038
:1010B8000000429B400000429B420000429B3E00D1
:1010C80000449B4C00000000429B440000449B46A7
:1010D8000000000002080000040B00000000040FDC
:1010E80000000000429B4A0000010A00610097646A
:1010F80000C1814001C0804101C0804100C18140E0
:1011080001C0804100C1814000C1814001C08041CF
:1011180001C0804100C1814000C1814001C08041BF
:1011280000C1814001C0804101C0804100C18140AF
:1011380001C0804100C1814000C1814001C080419F
:1011480000C1814001C0804101C0804100C181408F
:1011580000C1814001C0804101C0804100C181407F
:1011680001C0804100C1814000C1814001C080416F
:1011780001C0804100C1814000C1814001C080415F
:1011880000C1814001C0804101C0804100C181404F
:1011980000C1814001C0804101C0804100C181403F
:1011A80001C0804100C1814000C1814001C080412F
:1011B80000C1814001C0804101C0804100C181401F
:1011C80001C0804100C1814000C1814001C080410F
:1011D80001C0804100C1814000C1814001C08041FF
:1011E80000C1814001C0804101C0804100C18140EF
:1011F8006100986400C0C101C30302C2C60607C7E4
:1012080005C5C404CC0C0DCD0FCFCE0E0ACACB0B2E
:10121800C90908C8D81819D91BDBDA1A1EDEDF1F5E
:10122800DD1D1CDC14D4D515D71716D6D21213D34E
:1012380011D1D010F03031F133F3F23236F6F737FE
:10124800F53534F43CFCFD3DFF3F3EFEFA3A3BFBEE
:1012580039F9F83828E8E929EB2B2AEAEE2E2FEF9E
:101268002DEDEC2CE42425E527E7E62622E2E3230E
:10127800E12120E0A06061A163A3A26266A6A7673E
:10128800A56564A46CACAD6DAF6F6EAEAA6A6BABAE
:1012980069A9A86878B8B979BB7B7ABABE7E7FBFDE
:1012A8007DBDBC7CB47475B577B7B67672B2B373CE
:1012B800B17170B05090915193535292965657977E
:1012C800559594549C5C5D9D5F9F9E5E5A9A9B5B6E
:1012D80099595898884849894B8B8A4A4E8E8F4F1E
:1012E8008D4D4C8C4484854587474686824243838E
:1012F800418180404194BE00418F990044953F0050
:10130800000000418F9400448F950000000065168E
:101318008FA85A021003C80250155016000000FF8B
:101328005A020303C8000000D920031C00FF5A0218
:101338000301C8010039D923031900FF5A02060125
:10134800C803D984D924010000395A020301C8010D
:101358000039D925010400FF5A020601C802D987BD
:10136800D927010400FF5A020303C8010039D9A094
:10137800011A00FF5A020302C8000000D9A3031093
:1013880000FF5A020302C801000AAA20032600FF30
:101398005A020301C801000AAA22036900FF5A027F
:1013A8000302C801000AAA23036B00FF5A020301C3
:1013B800C801000AAA25037700FF5A020301C801E1
:1013C800000AAA26036F00FF5A020301C801000A97
:1013D800AA2703D700FF5A02031FC801000BAB203E
:1013E800037500FF5A020601C803AC80AC20023A1C
:1013F800000C5A020306C800000DAEA0032000FF2F
:101408005A020601C803AF80AF20023B000F5A0200
:101418000301C803B300B320011A00135A020301E1
:10142800C803B300B321013B00135A020601C803E5
:10143800B380B320011A00135A020601C803B3810E
:10144800B321013B00135A020305C803B400B420BA
:10145800015B00145A020305C803B400B425013D1A
:1014680000145A020601C803B480B420015B0014BA
:101478005A020601C803B481B421015C00145A025F
:101488000601C803B483B423015E00145A0206019E
:10149800C803B484B424015F00145A020601C803C7
:1014A800B485B425013D00145A020301C803B600EF
:1014B800B62002E400165A020301C803B600B6219A
:1014C80002EA00165A020301C803B600B622013C1C
:1014D80000165A020601C803B680B62002E40016B8
:1014E8005A020601C803B681B62102EA00165A025A
:1014F8000601C803B682B622013C00165A0203014F
:10150800C803B800B820010D00185A020301C80327
:10151800B800B821010F00185A020301C803B80027
:10152800B822015A00185A020601C803B880B82028
:10153800010D00185A020601C803B881B821010F2D
:1015480000185A020601C803B882B822015A0018C6
:101558005A020601C803B88AB82A023B00185A0280
:101568000301C803B900B920010800195A0203028F
:10157800C803B900B921010A00195A020301C803B6
:10158800B900B92301A700195A020601C803B98096
:10159800B920010800195A020601C803B981B92106
:1015A800010A00195A020601C803B982B922010BBF
:1015B80000195A020601C803B983B92301A7001903
:1015C8005A020301C803BB00BB200210001B5A02C9
:1015D8000301C803BB00BB210213001B5A0203010D
:1015E800C803BB00BB220216001B5A020302C80331
:1015F800BB00BB230219001B5A020303C803BB002C
:10160800BB24027D001B5A020302C803BB00BB2592
:101618000246001B5A020301C803BB00BB2702771E
:10162800001B5A020601C803BB80BB200210001B26
:101638005A020601C803BB81BB210213001B5A02D0
:101648000601C803BB82BB220216001B5A02060110
:10165800C803BB83BB230219001B5A020601C80337
:10166800BB84BB24027D001B5A020601C803BB854C
:10167800BB250246001B5A020601C803BB86BB26CF
:101688000247001B5A020601C803BB87BB27027723
:10169800001B5A020302C803BF00BF200102001F3B
:1016A8005A020301C803BF00BF220107001F5A02E4
:1016B8000301C803BF00BF2301A5001F5A0206018A
:1016C800C803BF80BF200102001F5A020601C803D9
:1016D800BF81BF210103001F5A020601C803BF8250
:1016E800BF220107001F5A020601C803BF83BF2398
:1016F80001A5001F5A020301C803C300C32002EB5F
:1017080000235A020301C803C300C32101A900230F
:101718005A020301C8010023D925010400FF5A0217
:101728000601C803C380C32002EB00235A02060146
:10173800C803C381C32101A900235A020601C803B3
:10174800C382C32201A800235A020301C80100234F
:10175800C323037500FF5A020301C8010023C324F1
:10176800037700FF5A020302C803C400C420012DF6
:1017780000245A020301C803C400C422012900241A
:101788005A020302C803C400C423012B00245A02CE
:101798000601C803C480C420012D00245A02060192
:1017A800C803C481C421012E00245A020601C803BB
:1017B800C482C422012900245A020601C803C48332
:1017C800C423012B00245A020601C803C484C4247C
:1017D800012C00245A020303C803C600C6A0030252
:1017E80000265A020301C803D500D520011A003586
:1017F8005A020302C803D500D521013B00355A021D
:101808000601C803D580D520011A00355A02060101
:10181800C803D581D521013B00355A020601C8030A
:10182800D582D522013C00354E8F9A000000000079
:10183800000000000000000000428E6A00006128DD
:101848008E6C5A13B320B350B3805A13B321B351DB
:10185800B3815A14B420B450B4805A14B421B4518A
:10186800B4815A14B423B453B4835A14B424B4546A
:10187800B4845A14B425B455B4855A16B620B65053
:10188800B6805A16B621B651B6815A16B622B65245
:10189800B6825A18B820B850B8805A18B821B8512A
:1018A800B8815A18B822B852B8825A19B920B95012
:1018B800B9805A19B921B951B9815A19B922B952FD
:1018C800B9825A19B923B953B9835A1BBB20BB50E3
:1018D800BB805A1BBB21BB51BB815A1BBB22BB52CD
:1018E800BB825A1BBB23BB53BB835A1BBB24BB54B1
:1018F800BB845A1BBB25BB55BB855A1BBB26BB5695
:10190800BB865A1BBB27BB57BB875A1FBF20BF507C
:10191800BF805A1FBF21BF51BF815A1FBF22BF526C
:10192800BF825A1FBF23BF53BF835A24C420C45049
:10193800C4805A24C421C451C4815A24C422C45224
:10194800C4825A24C423C453C4835A24C424C45408
:10195800C4845A35D520D550D5805A35D521D5518E
:10196800D5815A35D522D552D582418E69005C9AE7
:101978001F00000000000000000000000000000040
:10198800000000000000000000000000005C99F961
:101998000000000000000001000000020002736067
:1019A800000A2D08000310CC0007ED654199F5FFEA
:1019B800608C996900000100020003000400050022
:1019C80006000700080009000A000B000C000D00C3
:1019D8000E000F0110001100120213001400150070
:1019E80016001700180319001A001B021C001D001E
:1019F8001E001F00200021002202230024002500D1
:101A080026002700280029002A002B002C002D0082
:101A18002E002F0030003100320033003400350032
:101A280036003700380039003A003B003C003D00E2
:101A38003E003F004005410042004300440045008D
:101A48004A9A15000101030203030604024299F7AA
:101A580000004299670000429964000041996600BD
:101A680000AF13EF1313543F5401640160030224C1
:101A78002D7B017A95794390974EF0A3740CF07FF3
:101A8800217ED912409A909545E0FEA3E0FF9095FB
:101A980043E0FCA3E02FFFEC3EFE909A81E0FCA31C
:101AA800E06F7002EE6C6058909545E0FEA3E0FF91
:101AB800909543E0FCA3E02FFFEC3EFE909A81E076
:101AC800FCA3E0C39FEC9E501D90954DE4F0A30449
:101AD800F0FB7A95794D909760E4F0A37402F07F5B
:101AE800267ED9124307909545E0FEA3E0FF909526
:101AF80043E0FCA3E02FFFEC3E909A81F0A3EFF0C7
:101B0800909543E0FEA3E0D39400EE9400500CA31C
:101B1800E0FEA3E09400EE9400402090954DE0FE96
:101B2800A3E04E60167B017A9A796F909760E4F093
:101B3800A37402F07FA07E00124307909B57E0FE3B
:101B4800A3E0640D4E6003021EEA909B57E0A3E0F9
:101B5800FF909A9BE0FCA3E06F7002EC6E601EE4BD
:101B6800909AA0F0A3F07B017A9A79A0909760F000
:101B7800A37402F07F017EAE12430780167B017AC0
:101B88009A79A090974EE4F0A37402F07F017EAE9C
:101B980012409A7B017A95794390974EE4F0A374AA
:101BA80010F07FA07EAE12409AE4909551F0A3E029
:101BB8005407F07B017A9A797178437C957D017E90
:101BC800007F10122A8FEF702F909A9DE0FEA3E0FD
:101BD800FF909AA0E0FCA3E0B5071DECB5061990AC
:101BE8009B57E0FEA3E0FF909A9BE0FCA3E06F7098
:101BF80002EC6E70030221DF7B017A9579437871DC
:101C08007C9A7D017E007F101224FEE4909A9FF05A
:101C1800909576F0909576E0C3940874809480400F
:101C280003021E92E4909575F0909575E0C39410A8
:101C3800748094804003021E89A3E0C454F0FF908E
:101C48009575E02F90957AF0E075F018A42400FFC0
:101C5800E5F03435FE7B017A95794390974EE4F0B0
:101C6800A37430F012409A7B017A95794390957766
:101C78001228AD909575E0FF7E007401A8070880D2
:101C880005C333CE33CED8F9FF909576E025E0240E
:101C980071F582E4349AF583E0FCA3E0FDEE5CFE86
:101CA800EF5D4E7003021DE090957712288D122685
:101CB80045645A7004E5F064A57003021D7D909593
:101CC8007712288D74A575F05A1226A87B017A958B
:101CD800795790974EE4F0A37408F07F107E0012B5
:101CE800409A7B017A95795778457C957D017E00ED
:101CF8007F031224FE7B017A95795B78487C957D79
:101D0800017E007F031224FE7E007F087D007B0198
:101D18007A95794B122AB390957AE0FF909551E421
:101D2800F0A3EFF07B017A957953C002C00190953A
:101D38007A75F020A42409F9748035F0FA90958E0C
:101D48001228AD909591E4F0A37420F0D001D00250
:101D580012671190957AE075F018A42400FFE5F059
:101D68003435FE7B017A957943909760E4F0A3744B
:101D780030F0124307909AA0E0FEA3E0FF7C007DBC
:101D88000A12257C909A9FE0C39FEC9E4041A3E0F5
:101D9800FEA3E0FF12257CEF240AFFE43EFE909AA2
:101DA8009FE0C39FEC9E502790957AE075F018A4A9
:101DB8002400FDE5F03435FC909AA0E0A3E075F02E
:101DC8000AA4FF909A9FE0C39FFF7B0D12562390B1
:101DD8009A9FE004F0021E8090957712288D1226B3
:101DE80045645A7004E5F064A56003021E807B0117
:101DF8007A95795790974EF0A37408F07F107E007B
:101E080012409A7B017A957957784B7C957D017EB3
:101E1800007F031224FE7B017A95795B784E7C95CE
:101E28007D017E007F031224FE90957AE0FF909555
:101E380051E4F0A3EFF07B017A957943909760E441
:101E4800F0A37410F07F007E30124307125F65E440
:101E5800909543F0A3F090957AE075F018A42400CB
:101E6800FFE5F03435FE7B017A957943909760E47D
:101E7800F0A37402F0124307909575E004F0021C79
:101E880031909576E004F0021C1C909A9FE09095A2
:101E980075F0909AA0E0FEA3E0FF7C007D0A122571
:101EA8007CEF240AFFE43EFE909575E0C39FEC9E0C
:101EB800501D909AA0E0A3E075F00AA4FF909575D4
:101EC800E0C39FFF12538A909575E004F080C39099
:101ED8009AA0E0FEA3E0FF909A9DEEF0A3EFF00237
:101EE80021DF7B017A95794390974EE4F0A3741033
:101EF800F07FA07EAE12409AE4909551F0A3E05492
:101F080007F07B017A9A797178437C957D017E0090
:101F18007F10122A8FEF70030221DF7B017A9579F7
:101F28004378777C957D017E007F101224FEE49033
:101F38009576F0909576E0C394067480948040037B
:101F48000221CCE4909575F0909575E0C3941074D7
:101F580080948040030221C3E0FF7E007401A8073B
:101F6800088005C333CE33CED8F9FF909576E025A7
:101F7800E02477F582E43495F583E0FCA3E0FDEEF8
:101F88005CFCEF5DFD909575E0FF7E007401A8078D
:101F9800088005C333CE33CED8F9FF909576E02577
:101FA800E02471F582E4349AF583E0FAA3E0FBEECD
:101FB8005AFEEF5B6D7002EE6C70030221BA9095C9
:101FC80076E0C454F0FF909575E02F90958AF0E084
:101FD80075F018A42400FFE5F03435FE7B017A95EE
:101FE800794390974EE4F0A37430F012409A7B0145
:101FF8007A9579439095871228AD909575E0FF7E84
:10200800007401A807088005C333CE33CED8F9FF82
:10201800909576E025E02477F582E43495F583E021
:10202800FCA3E0FDEE5CFEEF5D4E7003022107901D
:10203800958712288D122645645A7004E5F064A528
:1020480070030221BA90958712288D74A575F05AED
:102058001226A87B017A95795790974EE4F0A374DD
:1020680008F07F107E0012409A7B017A95795778A4
:10207800457C957D017E007F031224FE7B017A95C5
:10208800795B78487C957D017E007F031224FE7E73
:10209800007F087D007B017A95794B122AB39095D1
:1020A8008AE0FF909551E4F0A3EFF07B017A9579EF
:1020B80053C002C00190958A75F020A42409F974D0
:1020C8008035F0FA90958E1228AD909591E4F0A3A2
:1020D8007420F0D001D00212671190958AE075F053
:1020E80018A42400FFE5F03435FE7B017A95794386
:1020F800909760E4F0A37430F01243070221BA907D
:10210800958712288D122645645A7004E5F064A557
:1021180060030221BA7B017A95795790974EF0A314
:102128007408F07F107E0012409A7B017A957957E7
:10213800784B7C957D017E007F031224FE7B017A1B
:1021480095795B784E7C957D017E007F031224FE95
:1021580090958AE0FF909551E4F0A3EFF07B017A27
:10216800957943909760E4F0A37410F07F007E3077
:10217800124307125F65E4909543F0A3F090958AA7
:10218800E075F018A42400FFE5F03435FE7B017AF1
:10219800957943909760E4F0A37402F01243079096
:1021A8009AA0E0FEA3E02401FFE43E909A9DF0A3EC
:1021B800EFF0909575E004F0021F50909576E004DA
:1021C800F0021F3B7B017A95797778717C9A7D01C3
:1021D8007E007F101224FE909B57E0FEA3E0640E61
:1021E8004E600302241D909B57E0A3E0FF909A9B4A
:1021F800E0FCA3E06F7002EC6E601EE4909AA0F021
:10220800A3F07B017A9A79A0909760F0A37402F00A
:102218007F017EAE12430780347B017A9A79A090C1
:10222800974EE4F0A37402F07F017EAE12409A90BC
:102238009A9DE0FEA3E0FF909AA0E0FCA3E06F70F7
:1022480002EC6E700302241D800302241D909AA0E4
:10225800E0FEA3E0FF909A9DEEF0A3EFF0E4A3F078
:10226800909A9FE0C3940A748094804003022403E8
:10227800A3E0FEA3E0FF7C007D0A12257C909A9FD4
:10228800E02FFFEC3EFE909A99E0FCA3E0FDC3EF3F
:102298009DEE9C4003022403909AA0E0FEA3E0FF79
:1022A8007C007D0A12257C909A9FE02FFFEC3EFE71
:1022B800909A95E0FCA3E0D39FEC9E4032909AA0C0
:1022C800E0FEA3E0FF7C0012257C909A9FE02FFFA0
:1022D800EC3EFEEF2401FFE43EFE909A95E0FCA35D
:1022E800E0C39FFFEC9E909577F0A3EFF0803A90C3
:1022F8009AA0E0FEA3E0FF7C007D0A12257C909A5C
:102308009FE02FFFEC3EFEEF2401FFE43EFE909A93
:1023180095E0FCA3E02400FDEC3402FCC3ED9FFF34
:10232800EC9E909577F0A3EFF0909577E0FEA3E010
:102338007803C333CE33CED8F92400FFEE3420FE21
:10234800E4FCFD90974C122844909750E4F0A37455
:1023580008F07D007C307F5A1263EC7B017A957916
:102368004390974EE4F0A37410F07F007E30124043
:102378009A7B017A957953C003C002C001909551A8
:10238800E0FEA3E07805C333CE33CED8F92409F9AB
:1023980074803EFA7B0190958E1228AD909591E459
:1023A800F0A37420F0D001D002D003126711909AE4
:1023B8009FE025E024A2F582E4349AF583E0FEA3A9
:1023C800E0FF7B017A957943909760E4F0A374303D
:1023D800F0124307909A9FE025E024A2F582E434A6
:1023E8009AF583E0FCA3E0FD909A9FE0FF7B0E1234
:1023F8005623909A9FE004F0022268909A9FE0C3C7
:10240800940A74809480500DE0FF12538A909A9F2A
:10241800E004F080E6909B57E0FEA3E0FF909A9BD3
:10242800EEF0A3EFF022E709F608DFFA8046E709A5
:10243800F208DFFA803E88828C83E709F0A3DFFA8E
:102448008032E309F608DFFA8078E309F208DFFA58
:10245800807088828C83E309F0A3DFFA8064898224
:102468008A83E0A3F608DFFA805889828A83E0A38A
:10247800F208DFFA804C80D280FA80C680D4806966
:1024880080F28033801080A680EA809A80A880DA63
:1024980080E280CA803389828A83ECFAE493A3C8F5
:1024A800C582C8CCC583CCF0A3C8C582C8CCC583B7
:1024B800CCDFE9DEE7800D89828A83E493A3F608FE
:1024C800DFF9ECFAA9F0EDFB2289828A83ECFAE0C5
:1024D800A3C8C582C8CCC583CCF0A3C8C582C8CC64
:1024E800C583CCDFEADEE880DB89828A83E493A3B4
:1024F800F208DFF980CC88F0EF60010E4E60C388E7
:10250800F0ED2402B4040050B9F582EB2402B404BF
:102518000050AF232345822390247E73BB01068994
:10252800828A83E0225002E722BBFE02E3228982EC
:102538008A83E49322BB010CE58229F582E5833A7C
:10254800F583E0225006E92582F8E622BBFE06E97B
:102558002582F8E222E58229F582E5833AF583E4CB
:102568009322BB010689828A83F0225002F722BB9C
:10257800FE01F322EF8DF0A4A8F0CF8CF0A428CEB2
:102588008DF0A42EFE22BC000BBE0029EF8DF08436
:10259800FFADF022E4CCF875F008EF2FFFEE33FE24
:1025A800EC33FCEE9DEC984005FCEE9DFE0FD5F05B
:1025B800E9E4CEFD22EDF8F5F0EE8420D21CFEAD64
:1025C800F075F008EF2FFFED33FD4007985006D562
:1025D800F0F222C398FD0FD5F0EA22C2D5EC30E71D
:1025E80009B2D5E4C39DFDE49CFCEE30E715B2D5F5
:1025F800E4C39FFFE49EFE12258EC3E49DFDE49C88
:10260800FC800312258E30D507C3E49FFFE49EFEAD
:1026180022C5F0F8A3E028F0C5F0F8E5821582702D
:10262800021583E038F022A3F8E0C5F025F0F0E5C4
:1026380082158270021583E0C838F0E822BB010ACF
:1026480089828A83E0F5F0A3E022500687F009E743
:102658001922BBFE07E3F5F009E3192289828A8370
:10266800E493F5F074019322BB0110E58229F58209
:10267800E5833AF583E0F5F0A3E0225009E92582E5
:10268800F886F008E622BBFE0AE92582F8E2F5F0B2
:1026980008E222E5832AF583E993F5F0A3E993227A
:1026A800BB010A89828A83F0E5F0A3F0225006F77D
:1026B80009A7F01922BBFE06F3E5F009F31922EF8A
:1026C8002BFFEE3AFEED39FDEC38FC22E88FF0A442
:1026D800CC8BF0A42CFCE98EF0A42CFC8AF0EDA4A1
:1026E8002CFCEA8EF0A4CDA8F08BF0A42DCC3825D4
:1026F800F0FDE98FF0A42CCD35F0FCEB8EF0A4FEB4
:10270800A9F0EB8FF0A4CFC5F02ECD39FEE43CFC48
:10271800EAA42DCE35F0FDE43CFC2275F008758264
:1027280000EF2FFFEE33FECD33CDCC33CCC5823353
:10273800C5829BED9AEC99E58298400CF582EE9B58
:10274800FEED9AFDEC99FC0FD5F0D6E4CEFBE4CD76
:10275800FAE4CCF9A88222B800C1B90059BA002D10
:10276800EC8BF084CFCECDFCE5F0CBF97818EF2FC9
:10277800FFEE33FEED33FDEC33FCEB33FB10D703F8
:10278800994004EB99FB0FD8E5E4F9FA227818EFA1
:102798002FFFEE33FEED33FDEC33FCC933C910D700
:1027A800059BE99A4007EC9BFCE99AF90FD8E0E40D
:1027B800C9FAE4CCFB2275F010EF2FFFEE33FEEDE3
:1027C80033FDCC33CCC833C810D7079BEC9AE899B3
:1027D800400AED9BFDEC9AFCE899F80FD5F0DAE495
:1027E800CDFBE4CCFAE4C8F922EB9FF5F0EA9E426F
:1027F800F0E99D42F0EC6480C864809845F022EBD3
:102808009FF5F0EA9E42F0E99D42F0E89C45F022EF
:10281800E86010ECA2E713FCED13FDEE13FEEF13D6
:10282800FFD8F022E0FCA3E0FDA3E0FEA3E0FF2236
:10283800E0F8A3E0F9A3E0FAA3E0FB22ECF0A3EDB3
:10284800F0A3EEF0A3EFF022A8828583F0D083D026
:1028580082122867122867122867122867E473E42F
:1028680093A3C583C5F0C583C8C582C8F0A3C58333
:10287800C5F0C583C8C582C822A42582F582E5F0C3
:102888003583F58322E0FBA3E0FAA3E0F922F8E020
:10289800FBA3A3E0F925F0F0E58215827002158309
:1028A800E0FA38F022EBF0A3EAF0A3E9F022D083B3
:1028B800D082F8E4937012740193700DA3A393F877
:1028C800740193F5828883E4737402936860EFA3BC
:1028D800A3A380DFD083D082F8E4937012740193AD
:1028E800700DA3A393F8740193F5828883E473743D
:1028F8000293B5F0067403936860E9A3A3A3A380C9
:10290800D8E3F5F009E208B5F06BDFF58067E3F589
:10291800F009E608B5F05EDFF5805A87F009E608A9
:10292800B5F052DFF6804E87F009E208B5F046DFD1
:10293800F6804288828C8387F009E0A3B5F036DF01
:10294800F6803288828C8387F009E493A3B5F0255A
:10295800DFF5802188828C83E3F5F009E0A3B5F0E8
:1029680014DFF5801088828C83E3F5F009E493A3E3
:10297800B5F002DFF4022A38808780E9809080D49D
:10298800803E8015806E807E809D80B7808D80A37C
:1029980080518074803C022A4489828A83ECFAE45C
:1029A80093F5F0A3C8C582C8CCC583CCE493A3C86B
:1029B800C582C8CCC583CCB5F076DFE3DEE1807094
:1029C80089828A83E493F5F0A3E208B5F062DFF424
:1029D800805E89828A83E0F5F0A3E608B5F051DFCE
:1029E800F5804D89828A83E0F5F0A3E208B5F040CE
:1029F800DFF5803C89828A83E493F5F0A3E608B585
:102A0800F02EDFF4802A8002805789828A83ECFACC
:102A1800E493F5F0A3C8C582C8CCC583CCE0A3C8AD
:102A2800C582C8CCC583CCB5F006DFE4DEE2800001
:102A38007FFFB5F0020F2240027F012289828A833C
:102A4800ECFAE0F5F0A3C8C582C8CCC583CCE0A3F6
:102A5800C8C582C8CCC583CCB5F0D5DFE5DEE38038
:102A6800CF89828A83ECFAE0F5F0A3C8C582C8CC86
:102A7800C583CCE493A3C8C582C8CCC583CCB5F0C4
:102A8800AFDFE4DEE280A988F0EF60010E4E60ABB4
:102A9800ED2402B404005098F582EB2402B404003B
:102AA800508E232345822390298073EF4E6012EFC6
:102AB80060010EEDBB010B89828A83F0A3DFFCDE87
:102AC800FA2289F05007F709DFFCA9F022BBFEFCC7
:102AD800F309DFFCA9F022F8BB010DE58229F58294
:102AE800E5833AF583E8F0225006E92582C8F62204
:102AF800BBFE05E92582C8F2227BFF7A72795A78F3
:102B08007E7C957D017E007F3E1224FE7BFF7A72DB
:102B1800799878BD7C957D017E007F241224FE7B08
:102B2800017A95797E90974EE4F0A3743EF07F2069
:102B38007EAB12409AE49095BCF09095BCE0C394AB
:102B480010748094804003022DA2E0FF7E0074017F
:102B5800A807088005C333CE33CED8F9FF909584F3
:102B6800E0FCA3E0FDEE5CFEEF5D4E7003022D86F7
:102B78009095BCE0FF7E007401A807088005C33368
:102B8800CE33CED8F9FF909588E0FCA3E0FDEE5C4B
:102B9800FEEF5D4E7003022D339095BCE0FF1313DA
:102BA800543F2407FFE4339095E3F0A3EFF09095AA
:102BB800E3E0FEA3E025E0FFEE33FE747E2FF5820E
:102BC80074953EF583E0FEA3E0FF9095BCE05403C6
:102BD80025E025E0FDEFA805088005CEC313CE1338
:102BE800D8F9540FFF9095E1E4F0A3EFF09095E148
:102BF800E0FEA3E08EF01228DC2C2500002C3D001E
:102C0800012C5500022C6D00042C8400052C9B001F
:102C1800062CB200082CC9000900002CE09095BCD5
:102C2800E025E024BDF582E43495F583E4F0A3744F
:102C380005F0022CF59095BCE025E024BDF582E472
:102C48003495F583E4F0A37406F0022CF59095BC56
:102C5800E025E024BDF582E43495F583E4F0A3741F
:102C680007F0022CF59095BCE025E024BDF582E440
:102C78003495F583E4F0A37408F080719095BCE076
:102C880025E024BDF582E43495F583E4F0A37409C6
:102C9800F0805A9095BCE025E024BDF582E4349597
:102CA800F583E4F0A3740AF080439095BCE025E036
:102CB80024BDF582E43495F583E4F0A37403F08031
:102CC8002C9095BCE025E024BDF582E43495F5838D
:102CD800E4F0A37404F080159095BCE025E024BDD1
:102CE800F582E43495F583E4F0A37405F09095BC7F
:102CF800E0FF7E007401A807088005C333CE33CEF9
:102D0800D8F9FF909580E0FCA3E0FDEE5CFEEF5D56
:102D18004E607E9095BCE025E024BDF582E43495B4
:102D2800F583E475F00812261980669095BCE0FFDB
:102D38007E007401A807088005C333CE33CED8F9C6
:102D4800FF909580E0FCA3E0FDEE5CFEEF5D4E6039
:102D5800179095BCE025E024BDF582E43495F58311
:102D6800E4F0A37402F080299095BCE025E024BD2E
:102D7800F582E43495F583E4F0A304F0801390958C
:102D8800BCE025E024BDF582E43495F583E4F0A3A6
:102D9800F09095BCE004F0022B429095BC7410F0C2
:102DA8009095BCE0C3941274809480400302301361
:102DB800E024F0FF7E007401A807088005C333CE25
:102DC80033CED8F9FF909586E0FCA3E0FDEE5CFEDB
:102DD800EF5D4E7003022FF79095BCE024F0FF7E64
:102DE800007401A807088005C333CE33CED8F9FF95
:102DF80090958AE0FCA3E0FDEE5CFEEF5D4E70036B
:102E0800022FA29095BCE0FF1313543F2407FFE460
:102E1800339095E3F0A3EFF09095E3E0FEA3E0256F
:102E2800E0FFEE33FE747E2FF58274953EF583E065
:102E3800FEA3E0FF9095BCE0540325E025E0FDEFFC
:102E4800A805088005CEC313CE13D8F9540FFF90F8
:102E580095E1E4F0A3EFF09095E1E0FEA3E08EF0B9
:102E68001228DC2E8F00002EA700012EBF00022E94
:102E7800D700042EEE00052F0500062F1C00082F92
:102E880033000900002F4A9095BCE025E024BDF5E9
:102E980082E43495F583E4F0A37405F0022F5F9083
:102EA80095BCE025E024BDF582E43495F583E4F093
:102EB800A37406F0022F5F9095BCE025E024BDF5D1
:102EC80082E43495F583E4F0A37407F0022F5F9051
:102ED80095BCE025E024BDF582E43495F583E4F063
:102EE800A37408F080719095BCE025E024BDF582BC
:102EF800E43495F583E4F0A37409F0805A9095BC06
:102F0800E025E024BDF582E43495F583E4F0A3746C
:102F18000AF080439095BCE025E024BDF582E434B6
:102F280095F583E4F0A37403F0802C9095BCE0251C
:102F3800E024BDF582E43495F583E4F0A37404F04D
:102F480080159095BCE025E024BDF582E43495F524
:102F580083E4F0A37405F09095BCE024F0FF7E00B4
:102F68007401A807088005C333CE33CED8F9FF9083
:102F78009582E0FCA3E0FDEE5CFEEF5D4E7003027F
:102F8800300A9095BCE025E024BDF582E43495F53F
:102F980083E475F00812261980689095BCE024F047
:102FA800FF7E007401A807088005C333CE33CED84E
:102FB800F9FF909582E0FCA3E0FDEE5CFEEF5D4E2C
:102FC80060179095BCE025E024BDF582E43495F5C2
:102FD80083E4F0A37402F080299095BCE025E024F6
:102FE800BDF582E43495F583E4F0A304F0801390F2
:102FF80095BCE025E024BDF582E43495F583E4F042
:10300800A3F09095BCE004F0022DA87B017A957995
:10301800BD909760E4F0A37424F07FA07EAB1243C8
:103028000722E51330E0167B017A9B795790974E7B
:10303800E4F0A37402F07F147E0012409AE5132096
:10304800E2030234D6909B57E0FEA3E04E70269030
:103058009B50E0C39406748094805005E004F0808F
:1030680014909B50E06406700C7F39FE126B9990A7
:103078009B50E004F0909B57E0FEA3E0640B4E7079
:1030880003122B01909B57E0FEA3E064294E6003D6
:1030980002316D7B017A95794690974EF0A3741CA6
:1030A800F07FB07EC912409AE4909543F090954322
:1030B800E0C39407748094804003023157E025E010
:1030C80025E02446F582E43495F583E0FEA3E0C4C8
:1030D800F8540FC868FDEEC454F048FC909543E0DE
:1030E80025E025E02448F582E43495F583E0FEA345
:1030F800E0EEC4540F2DFFE43C909544F0A3EFF0AC
:10310800909544E0FEA3E0FF7C007D1812258E9088
:103118009543E025E02462F582E43495F583EEF0EA
:10312800A3EFF0909544E0FEA3E0FF7C007D181229
:10313800258E909543E025E02470F582E43495F5DA
:1031480083ECF0A3EDF0909543E004F00230B57BFA
:10315800017A957962909760E4F0A3741CF07F205F
:103168007EC9124307909B57E0FEA3E064264E6099
:103178000302324F7B017A95795390974EF0A374EE
:1031880006F07FA07EC612409A909553E0FEA3E019
:10319800FFEEC4F854F0C868FEEFC4540F48909589
:1031A80043EEF0A3E4F0909543E0FCA3E0FD909596
:1031B80053E0FEA3E07807CEC313CE13D8F9541F0B
:1031C800FFECFEED4FFF909543EEF0A3EFF09095E6
:1031D80053E0A3E0547F909545F0A3E4F090954523
:1031E800E0FCA3E0FD909557E0FEA3E0EEFFECFEC7
:1031F800ED4FFF909545EEF0A3EFF0909557E0A3C3
:10320800E0909547F0A3E4F0909555E0FEA3E0FF29
:10321800909549EEF0A3EFF0A37403F0A37408F0BF
:10322800A37415F0A3E4F0A37402F0A3E4F0A3F0F0
:10323800A3F07B017A957943909760F0A37410F01E
:103248007F207EC6124307909B57E0FEA3E0642FC1
:103258004E60030233307B017A95794390974EF0A4
:10326800A37402F07F107ECF12409A7B017A957981
:103278004790974EE4F0A37402F07F227ECF12406D
:103288009A909543E0FEA3E0FF909B51E0FCA3E0F9
:103298006F7002EC6E6060909543E0A3E0909B51E4
:1032A800EEF0A3EFF0909547E0FEA3E0543FFF90C7
:1032B8009547EEF0A3EFF0909547E0FCA3E0FD9072
:1032C8009543E0A3E07E0054037806C333CE33CEA3
:1032D800D8F9FFEC4EFEED4FFF909547EEF0A3EFC7
:1032E800F07B017A957947909760E4F0A37402F037
:1032F8007F227ECF124307909547E0FEA3E0780631
:10330800CEC313CE13D8F95403FF909549E4F0A324
:10331800EFF07B017A957949909760E4F0A3740205
:10332800F07F117ECF124307909B57E0FEA3E06425
:10333800234E7056909B53E0C3940574809480503C
:1033480042909543E4F0A304F0FB7A957943909773
:1033580060E4F0A37402F07F277ED91243079095AA
:1033680043E4F0A3745AF07B017A9579439097600F
:10337800E4F0A37402F07F877ED9124307909B5331
:10338800E004F0E4909B54F08072909B54E0C39466
:1033980005748094805060E4909543F0A3F07B011D
:1033A8007A95794390974EF0A37402F07F297EC7EF
:1033B80012409A909543E0FEA3E04E70347B017A68
:1033C800957943909760F0A37402F07F277ED91215
:1033D8004307909543E4F0A3745AF07B017A9579FA
:1033E80043909760E4F0A37402F07F877ED912437C
:1033F80007909B54E004F0E4909B53F07B017A958E
:10340800794390974EE4F0A37402F07F167E001281
:10341800409A909543E0FEA3E04E6025E4909543E2
:10342800F0A3F07B017A957943909760F0A374023A
:10343800F07F167E00124307E4909B55F0A3F080BE
:1034480046909B55E0FEA3E0C39458EE9402500CBE
:10345800909B55E475F001122619802B909B55E03E
:10346800FEA3E0B45821EEB4021D909B55E475F01C
:1034780001122619909B57E0FEA3E064394E6007BD
:103488007F397E00126B997B017A95794390974E2C
:10349800E4F0A37402F07F007EE012409A90954316
:1034A800E0FEA3E0EE30E014909B57E0FEA3E0645A
:1034B800414E601A7F417E00126B9922909B57E023
:1034C800FEA3E064414E70067F39FE126B9922908C
:1034D80095481228AD90954BECF0A3EDF090954BE4
:1034E800E0FEA3E0C39405EE9400500302382CE4F8
:1034F800A3F0A3F090954812288D90954DE0FEA377
:10350800E0F5828E8312253D64026003023806903E
:10351800954812288D90954DE0A3E029F9EA3EFAE6
:1035280090000112253D1228B6353E03368D063728
:103538004F100000380690954812288D90954DE060
:10354800FEA3E029F9EA3EFA90000212253DFF9019
:103558009551E4F0A3EFF090954DE0A3E0FF90952E
:1035680051E0FCA3E02FFFEC3EFEEF2405FFE43E14
:10357800FE90954BE0FCA3E0FDD3EF9DEE9C40113F
:1035880090954BE0FEA3E0FFA3EEF0A3EFF0023826
:103598000690954812288D90954DE0FEA3E029F9F4
:1035A800EA3EFA909551E0FEA3E02403FDE43EFCD8
:1035B80012647190954FEEF0A3EFF09095481228A1
:1035C8008D90954DE0FEA3E029F9EA3EFA909551D9
:1035D800E0FEA3E029F9EA3EFA90000312253DFD3A
:1035E80090954FE0FEA3E0EE6D7001E460030238B1
:1035F8000690954812288D90954DE0FEA3E029F994
:10360800EA3EFA909551E0FEA3E029F9EA3EFA90E5
:10361800000412253DFF90954FE0A3E06F7001E490
:103628006003023806908FA2E0FEA3E0FF90954861
:1036380012288D90954DE0FCA3E029F9EA3CFAE9BF
:103648002403F9E43AFA909551E0FCA3E0FD909741
:1036580060ECF0A3EDF01243077E007F0E7D007B47
:10366800017A8F799A122AB3909551E0FEA3E0244B
:1036780005FFE43E90954DF0A3EFF0908E69E0448D
:1036880002F002380690954DE0FEA3E02408FFE41E
:103698003EFE90954BE0FCA3E0FDD3EF9DEE9C40F1
:1036A8001190954BE0FEA3E0FFA3EEF0A3EFF0022C
:1036B800380690954812288D90954DE0FEA3E02994
:1036C800F9EA3EFA7D067C0012647190954FEEF09F
:1036D800A3EFF090954812288D90954DE0FEA3E059
:1036E80029F9EA3EFA90000612253DFD90954FE033
:1036F800FEA3E0EE6D7001E4600302380690954881
:1037080012288D90954DE0FEA3E029F9EA3EFA9043
:10371800000712253DFF90954FE0A3E06F7001E48C
:10372800600302380690954D75F0081226197E0040
:103738007F0E7D007B017A8F799A122AB3908E6969
:10374800E04402F002380690954DE0FEA3E024081C
:10375800FFE43EFE90954BE0FCA3E0FDD3EF9DEE29
:103768009C401190954BE0FEA3E0FFA3EEF0A3EF81
:10377800F002380690954812288D90954DE0FEA3EA
:10378800E029F9EA3EFA7D067C0012647190954FB3
:10379800EEF0A3EFF090954812288D90954DE0FE3D
:1037A800A3E029F9EA3EFA90000612253DFD90951E
:1037B8004FE0FEA3E0EE6D7001E470429095481270
:1037C800288D90954DE0FEA3E029F9EA3EFA900095
:1037D8000712253DFF90954FE0A3E0B50720E49040
:1037E800954D75F0081226197E007F0E7D007B012D
:1037F8007A8F799A122AB3908E69E04402F09095F4
:103808004DE475F00112261990954BE0FEA3E024D3
:10381800FBFFEE34FFFEA3E0FCA3E0C39FEC9E5049
:10382800030234FC229095481228AD90954812283E
:103838008D122645FF90954BE5F0F0A3EFF090959B
:103848004BE0FEA3E0C3945DEE94004003023B4DC1
:1038580090954BE0A3E0908FA875F00E122881EEAA
:1038680075F00EA42583F583E0645A6003023B409B
:1038780090954BE0A3E0908FAB75F00E122881EE87
:1038880075F00EA42583F583E07003023B40909504
:103898004BE0A3E0908FAD75F00E122881EE75F025
:1038A8000EA42583F583E07003023B4D90954BE011
:1038B800A3E0908FAD75F00E122881EE75F00EA47E
:1038C8002583F583E06401703490954BE0A3E09084
:1038D8008FAE75F00E122881EE75F00EA42583F5D3
:1038E80083E0FEA3E0FF909B57E0FCA3E06F70022B
:1038F800EC6E6003023B40023B4D023B4090954B0F
:10390800E0FEA3E0908FAD75F00E122881EE75F001
:103918000EA42583F583E064026003023A0C9095B7
:103928004BE0A3E0908FAE75F00E122881EE75F093
:103938000EA42583F583E0FEA3E0FF7B017A957949
:103948004D90974EE4F0A37402F012409A90954D72
:10395800E0A3E0645A6003023B4090954BE0FEA36D
:10396800E0C3945CEE9400506190954BE0A3E09026
:103978008FBB75F00E122881EE75F00EA42583F525
:1039880083E06402704490954BE0A3E0908FBC758F
:10399800F00E122881EE75F00EA42583F583E0FE63
:1039A800A3E0FF90954BE0FCA3E0908FAE75F00E7E
:1039B800122881EC75F00EA42583F583E0FCA3E0C2
:1039C8006F7002EC6E7003023B4DE490954DF0A3CE
:1039D800F090954BE0FEA3E0908FAE75F00E1228A4
:1039E80081EE75F00EA42583F583E0FEA3E0FF7B4E
:1039F800017A95794D909760E4F0A37402F0124330
:103A080007023B4D90954BE0FEA3E0908FAD75F01B
:103A18000E122881EE75F00EA42583F583E0640369
:103A28006003023B4090954BE0A3E0908FB475F0A3
:103A38000E122881EE75F00EA42583F583E0FEA30F
:103A4800E0FF909B57E0FCA3E0FDEF6D7002EE6C89
:103A58006003023B4090954BE0FEA3E0908FAE756B
:103A6800F00E122881EE75F00EA42583F583E0FE92
:103A7800A3E0FF7B017A95794D90974EE4F0A3740B
:103A880002F012409A90954DE0A3E0645A60030258
:103A98003B4090954BE0FEA3E0C3945CEE9400504D
:103AA8005E90954BE0A3E0908FBB75F00E122881D5
:103AB800EE75F00EA42583F583E0640370419095BC
:103AC8004BE0A3E0908FBC75F00E122881EE75F0E4
:103AD8000EA42583F583E0FEA3E0FF90954BE0FC60
:103AE800A3E0908FAE75F00E122881EC75F00EA44D
:103AF8002583F583E0FCA3E06F7002EC6E6046E47A
:103B080090954DF0A3F090954BE0FEA3E0908FAE1A
:103B180075F00E122881EE75F00EA42583F583E06A
:103B2800FEA3E0FF7B017A95794D909760E4F0A3BE
:103B38007402F0124307800D90954BE475F0011262
:103B4800261902384690954BE0FEA3E0FF90954871
:103B580012288DEE8FF01226A8229095531228ADC8
:103B6800909556ECF0A3EDF07BFF7A7279F67858D1
:103B78007C957D017E007F181224FE9095531228B3
:103B88008D90000A122670246CFFE5F0340790959A
:103B980084F0A3EFF0909584E0FEA3E0FF7C007D25
:103BA800641225E3ED4C6013909584E0FEA3E0FFDA
:103BB8007C007D041225E3ED4C6013909584E0FEB3
:103BC800A3E0FF7C017D901225E3ED4C70067E009A
:103BD8007F0180047E007F00909580EEF0A3EFF0D7
:103BE80090955312288D90000A12267024BAFFE58A
:103BF800F034FFFE3395E0FDFC9095701228449058
:103C0800955312288D900008122670C39401E5F090
:103C1800648094805040909580E0FEA3E064014E5B
:103C2800703490957012282CEF2402FFE43EFEE4D5
:103C38003DFDE43CFCE47B04FAF9F8126BE0EF2468
:103C4800FFFFEE34FFFEED34FFFDEC34FFFC9095F2
:103C580078122844802290957012282CEF2402FFB5
:103C6800E43EFEE43DFDE43CFCE47B04FAF9F81292
:103C78006BE09095781228449095741228500000B3
:103C88000000E4909582F0A3F090955312288D904F
:103C98000008122670FF909582E0FCA3E0C39FE520
:103CA800F06480F8EC648098504890957412282C41
:103CB800C006C007909582E0FEA3E025E0FFEE3342
:103CC800FE74582FF58274953EF583E0FEA3E0FF5D
:103CD800FBAA06EA3395E0F9F8D007D0061226C702
:103CE800909574122844909582E475F00112261973
:103CF800809790957412282CC006C007909553128F
:103D0800288D90000612267024FFFFE5F034FFFE90
:103D1800AB07FA3395E0F9F8D007D0061226C7901A
:103D2800957412284490957412282CC004C005C0BC
:103D380006C007E47F6D7E01FDFC9095701228385F
:103D48001226D49095781228381226C7A804A905F7
:103D5800AA06AB07D007D006D005D0041226C79014
:103D6800957412284490955312288D9000041226B9
:103D780070FF909556E0FCA3E0FDC3EF9DFFE5F0D2
:103D88009CFE3395E0FDFC90957C122844E47F105E
:103D98007E0EFDFC90957C1228381226D4C004C0F3
:103DA80005C006C0077F807E517D017C0090957418
:103DB8001228381226D4A804A905AA06AB07D007EA
:103DC800D006D005D0041226C7C004C005C006C05E
:103DD8000790955312288D900002122670FFAEF0BE
:103DE8007C007D3C12257CAB07AA06EA3395E0F9F6
:103DF800F8D007D006D005D0041226C7C006C007E1
:103E080090955312288D122645FFAEF0FBAA06EABC
:103E18003395E0F9F8D007D0061226C722E513300B
:103E2800E10D909B59E475F0011226191259F29090
:103E38009B59E0FEA3E0C394B8EE940B50030240F4
:103E480099E4909B59F0A3F0909B5DE0FEA3E024D9
:103E580000FFEE3410909543F0A3EFF07B017A95C4
:103E6800794590974EE4F0A37402F07FA37ED912AF
:103E7800409A909545E475F0C8122619909543E04C
:103E8800FEA3E0FF7B017A957945909760E4F0A363
:103E98007402F0124307909B5DE0FEA3E02400FF4C
:103EA800EE3418909543F0A3EFF07B017A957945AD
:103EB80090974EE4F0A37402F07FA47ED912409A42
:103EC800909543E0FEA3E0FF7B017A9579459097B2
:103ED80060E4F0A37402F0124307909B5DE0FEA338
:103EE800E0FF909549EEF0A3EFF0909B5DE475F04C
:103EF80001122619909B5DE0FEA3E0C394FEEE94A8
:103F0800074007E4909B5DF0A3F07B017A9B795D05
:103F1800909760E4F0A37402F07F007E03124307D9
:103F28007B017A9B795D909760E4F0A37402F0FFBF
:103F38007E031243079095477407F0A374FEF07B45
:103F4800017A957947909760E4F0A37402F07F08AE
:103F58007E501243077B017A957947909760E4F089
:103F6800A37402F07F097E501243079095477402AC
:103F7800F0A3748AF07B017A957947909760E4F012
:103F8800A37402F07F117E50124307909B24E075C2
:103F9800F03CA4FFA3E07C002FFFEC35F0909B5B86
:103FA800F0A3EFF0909B5BE0FEA3E0FF12520C90B1
:103FB8009B5DE0A3E030E00302409990954974FFCF
:103FC800F5F0122619909549E0FEA3E02400FFEED3
:103FD8003410FE7B017A95794390974EE4F0A374F0
:103FE80004F012409A90954774A5F0A3745AF07B98
:103FF800017A957943909760E4F0A37406F07F0006
:104008007E50124307909549E0FEA3E0FFE4FCFDD3
:1040180090974C122844909750E4F0A37404F07DD4
:10402800007C507FA51263EC909549E0FEA3E02444
:1040380000FFEE3418FE7B017A95794390974EE4A1
:10404800F0A37404F012409A90954774A5F0A374F5
:104058005AF07B017A957943909760E4F0A374064F
:10406800F07F007E50124307909549E0FEA3E024BC
:1040780000FFEE3408FEE4FCFD90974C12284490B3
:104088009750E4F0A37404F07D007C507FA5126380
:10409800EC22909749EEF0A3EFF0A31228AD7B0035
:1040A8007A007900C003C002C00190974B12288D96
:1040B800D082D083D0E06B7008E965827003EA652E
:1040C80083700302430690974EE0FEA3E04E700310
:1040D80002430690974EE0A3E0FFEEC313FEEF13F2
:1040E800FF909749E0FCA3E02FFFEE3CFED3EF944E
:1040F800FEEE94FF4003024306C2AF909749E0A347
:10410800E05401909750F0909749E0FEA3E0FFEE4D
:10411800C313FEEF13FF909749EEF0A3EFF09097CB
:1041280049E0FEA3E07810CEC313CE13D8F9F5F119
:10413800909749E0FEA3E0EEF5F2909749E0A3E0FE
:10414800F5F3E4F5F875F401D2FF30FCFDD2FD90EB
:104158009750E06401707290974EE0FEA3E064010E
:104168004E700AC2FBC2FAD2F9C2F88008C2FBC27A
:10417800FAD2F9D2F8D2FE20FEFD90974EE0FEA3C7
:10418800E064014E701A90974B75F001122896E57D
:10419800FC12256A90974E74FFF5F01226198029B3
:1041A80090974BE475F001122896E5FC12256A9069
:1041B800974BE475F001122896E5FD12256A909751
:1041C8004E74FF75F0FE12261990974EE0FEA3E09C
:1041D8004E700302430190974EE0A3E0C39404EEAF
:1041E800940040030242AA90974EE0A3E08EF0129A
:1041F80028DC421E000142140002420A00030000AB
:104208004226D2FBD2FAD2F9C2F88012D2FBD2FAF5
:10421800C2F9C2F88008D2FBC2FAC2F9C2F8D2FECB
:1042280020FEFD90974EE0FEA3E08EF01228DC42BF
:1042380097000142770002424700030000430190C3
:10424800974BE475F001122896E5FA12256A9097C3
:104258004BE475F001122896E5FB12256A90974BFE
:10426800E475F001122896E5FC12256A02430190D4
:10427800974BE475F001122896E5FA12256A909793
:104288004BE475F001122896E5FB12256A806A90C6
:10429800974BE475F001122896E5FA12256A8059C1
:1042A8008057D2FBD2FAD2F9D2F8D2FE20FEFD9086
:1042B800974BE475F001122896E5FA12256A909753
:1042C8004BE475F001122896E5FB12256A90974B8E
:1042D800E475F001122896E5FC12256A90974BE4E4
:1042E80075F001122896E5FD12256A90974E74FF25
:1042F80075F0FC1226190241D1E4F5F8D2AF2290EC
:10430800975BEEF0A3EFF0A31228AD7B007A00795B
:1043180000C003C002C00190975D12288DD082D0E2
:1043280083D0E06B7008E965827003EA65837003E7
:10433800024572909760E0FEA3E04E70030245725A
:10434800909760E0A3E0FFEEC313FEEF13FF909792
:104358005BE0FCA3E02FFFEE3CFED3EF94FEEE946F
:10436800FF4003024572C2AF90975BE0A3E054019F
:10437800909762F090975BE0FEA3E0FFEEC313FE18
:10438800EF13FF90975BEEF0A3EFF090975BE0FEE2
:10439800A3E07810CEC313CE13D8F9F5F190975B4C
:1043A800E0FEA3E0EEF5F290975BE0A3E0F5F3E41E
:1043B800F5F875F401D2FF30FCFDC2FD909762E07C
:1043C80064017072909760E0FEA3E064014E700A89
:1043D800C2FBC2FAD2F9C2F88008C2FBC2FAD2F90B
:1043E800D2F8909760E0FEA3E064014E701A9097AF
:1043F8005D75F001122896122524F5FC90976074DB
:10440800FFF5F0122619802990975DE475F00112E6
:104418002896122524F5FC90975DE475F001122882
:1044280096122524F5FD90976074FF75F0FE12260C
:1044380019D2FE20FEFD909760E0FEA3E04E7003C7
:1044480002456D909760E0A3E0C39404EE940040A9
:1044580003024516909760E0A3E08EF01228DC4432
:104468008B0001448100024477000300004493D28A
:10447800FBD2FAD2F9C2F88012D2FBD2FAC2F9C240
:10448800F88008D2FBC2FAC2F9C2F8909760E0FE41
:10449800A3E08EF01228DC44FE000144DE00024452
:1044A800AF00030000450D90975DE475F0011228F8
:1044B80096122524F5FA90975DE475F00112289676
:1044C800122524F5FB90975DE475F00112289612E9
:1044D8002524F5FC802F90975DE475F0011228964D
:1044E800122524F5FA90975DE475F00112289612CA
:1044F8002524F5FB800F90975DE475F0011228964E
:10450800122524F5FAD2FE30FE5B80FB8057D2FBE1
:10451800D2FAD2F9D2F890975DE475F00112289694
:10452800122524F5FA90975DE475F0011228961289
:104538002524F5FB90975DE475F001122896122565
:1045480024F5FC90975DE475F00112289612252455
:10455800F5FDD2FE20FEFD90976074FF75F0FC1209
:10456800261902443EE4F5F8D2AF227BFF7A71792E
:10457800D678437C957D017E007F201224FE7B0146
:104588007A9579439095651228AD9095681228AD73
:10459800E4909563F0A3F0909563E0FEA3E0C3EE8A
:1045A8009402400302463C909563E0A3E07803C37D
:1045B80033CE33CED8F92400FFEE3420FEE4FCFDE0
:1045C80090974C122844909750E4F0A37408F07D1B
:1045D800007C307F5A1263EC7B017A95794390977F
:1045E8004EE4F0A37410F07F007E3012409A90954C
:1045F8006512288D122645645A7004E5F064A5609A
:104608002690956812288D122645B4A527E5F0B4A2
:104618005A2290956812288D78937C9A7D017E00A5
:104628007F081224FE800D909563E475F001122630
:104638001902459FE4909563F0A3F0909563E0FE1E
:10464800A3E0C3940AEE940040030247CE7BFF7AAE
:104658007179F6786B7C957D017E007F201224FEAF
:104668007B017A9A793B786B7C957D017E007F1A75
:104678001224FE909563E0FEA3E0FF7C007D1B12F0
:10468800257CEF2464FFE43E90956FF0A3EFF09053
:1046980095747401F0909563E0FEA3E0909AB67566
:1046A800F006122881EE75F006A42583F583E0FE56
:1046B800A3E0FF7B017A95796B909760E4F0A3748F
:1046C80020F01243077B017A9A7955786B7C957DA7
:1046D800017E007F1A1224FE909563E0FEA3E0FF9E
:1046E8007C007D1B12257CEF2464FFE43E90956FCF
:1046F800F0A3EFF09095747401F0909563E0FEA339
:10470800E0909AB875F006122881EE75F006A42597
:1047180083F583E0FEA3E0FF7B017A95796B9097A0
:1047280060E4F0A37420F01243077B017A9A79F2CF
:10473800786B7C957D017E007F1A1224FE9095632C
:10474800E0FEA3E0FF7C007D1B12257CEF2464FFC4
:10475800E43E90956FF0A3EFF0909563E0FEA3E040
:10476800FF12257CEF2464FFE43E909575F0A3EFDB
:10477800F0909563E0FEA3E0FF12257CEF247DFF17
:10478800E43E909579F0A3EFF0909563E0FEA3E006
:10479800909ABA75F006122881EE75F006A4258362
:1047A800F583E0FEA3E0FF7B017A95796B90976033
:1047B800E4F0A37420F0124307909563E475F001C8
:1047C80012261902464322126ED87F64126AB07FFD
:1047D80010126AB0126F54126ED87F65126AB090C8
:1047E800954C7406F090954CE0D3940074809480B6
:1047F800401D126A5B90954CE02444F582E43495A0
:10480800F583EFF0126EF390954CE014F080D61219
:104818006A5B909544EFF0126F0C126F547B017A2B
:10482800957944782F7C9B7D017E007F071224FEBA
:10483800E490954CF090954CE0C394037480948078
:10484800504BE02444F582E43495F583E0FFC454EA
:104858000F90954DF090954CE02444F582E4349502
:10486800F583E0540F90954EF090954DE075F00A61
:10487800A4FFA3E02FFF90954CE02444F582E43494
:1048880095F583EFF090954CE004F080A890954C56
:104898007404F090954CE0C3940774809480504B56
:1048A800E02444F582E43495F583E0FFC4540F9086
:1048B800954DF090954CE02444F582E43495F583C9
:1048C800E0540F90954EF090954DE075F00AA4FFD6
:1048D800A3E02FFF90954CE02444F582E43495F54D
:1048E80083EFF090954CE004F080A8909544E0FFA9
:1048F800A3E0FDA3E0FB125768909547EFF07B011A
:104908007A957944909760E4F0A37408F07F107E5C
:10491800001243077B017A95794478207C9B7D01BE
:104928007E007F071224FE7B017A9B792490976092
:10493800E4F0A37402F07F287ECD124307909B1EFB
:10494800E0FEA3E0C39448EE9403500A909B1EE453
:1049580075F001122619909549E06013A3E0600FE5
:10496800909B1EE0FEA3E0C39447EE9403500620FC
:104978000003024A1E90954F122850000000009034
:10498800954AE0FF909B0CE4F0A3EFF0909549E086
:10499800FF909B0EE4F0A3EFF0909548E0FF909B0A
:1049A80010E4F0A3EFF0909546E0FF909B12E4F03E
:1049B800A3EFF0909545E024FFFFE434FF909B14AB
:1049C800F0A3EFF0909544E02464FFE433909B1645
:1049D800F0A3EFF0909544E4F0A3745AF0A3E4F048
:1049E800A37412F07B017A9B790C7D087C00123B42
:1049F800629095481228447B017A95794490976093
:104A0800E4F0A37408F07F157E50124307E4909BEE
:104A18001EF0A3F0C20022E4909543F0A3F0E51342
:104A280020E003024C6B7B017A95794390974EE422
:104A3800F0A37402F07F147E5012409A909543E0E0
:104A4800FEA3E04E7003024C6B909543E0A3E08E0A
:104A5800F01228DC4BE6A4004BEBA4014BF0A4A019
:104A68004BF0A4A14BF0A4A24BF0A4A34BF0A4A438
:104A78004BF0A4A54BF0A4A64BF0A4A74BF0A4A818
:104A88004BF0A4A94BF0A4AA4BF0A4AB4BF0A4ACF8
:104A98004BF0A4AD4BF0A4AE4BF0A4AF4BF0A4B0D8
:104AA8004BF0A4B14BF0A4B24BF0A4B34BF0A4B4B8
:104AB8004BF0A4B54BF0A4B64BF0A4B74BF0A4B898
:104AC8004BF0A4B94BF0A4BA4BF0A4BB4BF0A4BC78
:104AD8004BF0A4BD4BF0A4BE4BF0A4BF4BF0A4C058
:104AE8004BF0A4C14BF0A4C24BF0A4C34BF0A4C438
:104AF8004BF0A4C54BF0A4C64BF0A4C74BF0A4C818
:104B08004BF0A4C94BF0A4CA4BF0A4CB4BF0A4CCF7
:104B18004BF0A4CD4BF0A4CE4BF0A4CF4BF0A4D0D7
:104B28004BF0A4D14BF0A4D24BF0A4D34BF0A4D4B7
:104B38004BF0A4D54BF0A4D64BF0A4D74BF0A4D897
:104B48004BF0A4D94BF0A4DA4BF0A4DB4BF0A4DC77
:104B58004BF0A4DD4BF0A4DE4BF0A4DF4BF0A4E057
:104B68004BF0A4E14BF0A4E24BF0A4E34BF0A4E437
:104B78004BF0A4E54BFDA4F04BFDA4F14BFDA4F2D2
:104B88004BFDA4F34C0AA6004C4FA6014C0FAC00F9
:104B98004C14AC014C19B7004C3AB83C4C3AB869C3
:104BA8004C1EC2004C23C3004C28C7014C2DC90120
:104BB8004C2DC9064C2DC90C4C2DC90E4C2DC911B4
:104BC8004C47D6004BDCD9004BE1D9264C4CE000D1
:104BD80000004C4F126779806E126EBB80691266B6
:104BE8003A8064120016805F909543E0FEA3E0FFD0
:104BF8001268F68052909543E0FEA3E0FF126950D8
:104C080080451261E18040126A03803B126D588032
:104C180036126D8E8031126E29802C1265CD802758
:104C2800126CE08022909543E0FEA3E0FF126B0334
:104C38008015909543E0FEA3E0FF126B4E800812AA
:104C48006C248003126C63E4909543F0A3F07B011D
:104C58007A957943909760F0A37402F07F147E50A0
:104C6800124307227BFF7A6F79D678437C957D01C2
:104C78007E027F001224FE90974C122850000000FC
:104C8800009097507410F0A3E4F0FD7C107F5A1246
:104C980063EC9097437410F0A3E4F0909743E0FE20
:104CA800A3E0C394FEEE94175069909743E0A3E005
:104CB800FF7B017A95794390974E7402F0A3E4F054
:104CC80012409AE4909745F0A3F0909745E0FEA330
:104CD800E0C3EE9401502F909745E0A3E025E0FF54
:104CE800EE33FE74432FF58274953EF583E0FEA300
:104CF800E0645A7003EE64A56019909745E475F076
:104D08000112261980C4909743740175F000122689
:104D1800198088909745E0FEA3E0FF909743E0FC58
:104D2800A3E02FFFEC3E909747F0A3EFF090974752
:104D3800E0FEA3E0C394FEEE9417400990974774F1
:104D480010F0A3E4F090974774F075F0001226195C
:104D5800909747E0FEA3E0FF909B5DEEF0A3EFF095
:104D68007B017A977947909760E4F0A37402F07F0B
:104D7800007E031243077B017A977947909760E496
:104D8800F0A37402F0FF7E031243077B017A977940
:104D980047909760E4F0A37402F07F087E501243B6
:104DA800077B017A977947909760E4F0A37402F043
:104DB8007F097E501243079095437407F0A374FE51
:104DC800F07B017A957943909760E4F0A37402F040
:104DD8007F017E031243077B017A957943909760A0
:104DE800E4F0A37402F004FFFE124307909543E435
:104DF800F0A37406F0A3E4F0A304F0A3E4F0A37412
:104E08002EF0A37401F0A3744CF0A37401F0A37402
:104E180071F0A37401F0A37477F0A37401F0A37484
:104E28008AF0A37402F0A3748AF0A37401F0A37447
:104E380071F0A374FFF0A3E4F07B017A95794390B5
:104E48009760F0A37414F07F0A7E50124307909B7A
:104E580024E075F03CA4FFA3E07C002FFFEC35F0C4
:104E6800909B5BF0A3EFF0909B5BE0FEA3E0FF124A
:104E7800520C227B007A0079009095431228AD905D
:104E88008F99E064016003024F12908F94E0FF90C5
:104E980094BEE0D39F4011E0908F94F090953F121C
:104EA8002850000000008062908F94E0FF9094BE2C
:104EB800E06F7056FFFEFDFC90953F122838D31224
:104EC8002807403890953F122838C3E50E9BFFE528
:104ED8000D9AFEE50C99FDE50B98FCE47B14FAF9B4
:104EE800F8C312280750237B017A9479BF9094BEA7
:104EF800E0FD7C001234D7126E56800EAF0EAE0D58
:104F0800AD0CAC0B90953F122844908E69E030E0D0
:104F180046E020E129908F95122838C3E50E9BFBC7
:104F2800E50D9AFAE50C99F9E50B98F8908F9EE053
:104F3800FFE4FCFDFEC31228075003025076908E52
:104F480069E030E10AA3E475F001122619802F9078
:104F58008E69E054FEF022908F95122838C3E50E32
:104F68009BFFE50D9AFEE50C99FDE50B98FCE47BAB
:104F7800F47A01F9F8D31228074003025076908E8C
:104F88006AE0FEA3E04E70031258AD908F95122888
:104F98005000000000E4F50EF50DF50CF50B908EB1
:104FA80069E054FDF0E054FEF0126E567B017A8EF3
:104FB800796A12382D908E6AE0FEA3E0C3945DEE04
:104FC8009400400302506F908E6AE0A3E0FF7C00DB
:104FD8007D0E12257C74A82FF9748F3EFA7B017818
:104FE8009A7C8F7D017E007F0E1224FE126E5690F1
:104FF8008F9CE0640370127B017A8F799A125C347B
:10500800908E69E04401F08054908F9CE0640670B3
:1050180034908FA2E0FEA3E0FF7B017A9579469059
:10502800974EE4F0A37402F012409A7B017A8F79CC
:105038009A909546E0FCA3E0FD125D4F908E69E0E2
:105048004401F08018908F9CE0641070107B017A06
:105058008F799A125077908E69E04401F0E4F50E4A
:10506800F50DF50CF50B22E4908E6AF0A3F0229072
:1050780095481228ADE490954DF090954812288DEA
:1050880090000112253DFF90954DE0FE04F0744E0E
:105098002EF582E43495F583EFF090954DE0FF040A
:1050A800F0744E2FF582E43495F5837410F09095E2
:1050B8004812288D90000A122670E5F0FF90954D51
:1050C800E0FE04F0744E2EF582E43495F583EFF09B
:1050D80090954812288D90000A122670FF90954DE1
:1050E800E0FE04F0744E2EF582E43495F583EFF07B
:1050F80090954812288D90000312253DFFE4909565
:105108004DE0FE04F0744E2EF582E43495F583E408
:10511800F090954812288D90000312253DFF909538
:105128004DE0FE04F0744E2EF582E43495F583EFDD
:10513800F090954812288D90000312253D25E0FF38
:1051480090954DE0FE04F0744E2EF582E43495F50A
:1051580083EFF0908FA2E0FEA3E0FFC006C00790A7
:10516800954DE0244EF9E43495FA7B01C003C00262
:10517800C00190954812288D90000312253D75F0C6
:1051880002A4FF90974EE5F0F0A3EFF0D001D00213
:10519800D003D007D00612409A90954812288D90D7
:1051A800000312253D25E0FF90954DE02FF07B018F
:1051B8007A95794EE0FD7C0012647190954BEEF083
:1051C800A3EFF090954BE0FEA3E0EEFFA3E0FE0412
:1051D800F0744E2EF582E43495F583EFF090954BFC
:1051E800E0A3E0FFA3E0FE04F0744E2EF582E43461
:1051F80095F583EFF07B017A95794E90954DE0FD1A
:1052080012689C22909749EEF0A3EFF0909749E03E
:10521800FEA3E0FFA3EEF0A3EFF090974BE0FEA310
:10522800E0C39478EE64809480500D90974B740599
:1052380075F0A012261980E290974BE0FEA3E024B7
:10524800D8FFEE34FFA3F0A3EFF090974BE0A3E074
:1052580024B0FFEE34FF90974FF0A3EFF090974BF8
:10526800E0A3E02488FFEE34FF909751F0A3EFF01D
:1052780090974BE0A3E0FF7C057DA01225E3909773
:105288004BECF0A3EDF090974BE0FEA3E0FF7C0021
:105298007D3C1225E3909753EFF090974BE0FEA3E7
:1052A800E0FF7C007D3C1225E3909754EDF0909749
:1052B8004DE0FEA3E0FF7C057DA01225E390974D0D
:1052C800ECF0A3EDF090974DE0FEA3E0FF7C007DAD
:1052D8003C1225E3909755EFF090974DE0FEA3E040
:1052E800FF7C007D3C1225E3909756EDF090974F98
:1052F800E0FEA3E0FF7C057DA01225E390974FEC2C
:10530800F0A3EDF090974FE0FEA3E0FF7C007D3C1A
:105318001225E3909757EFF090974FE0FEA3E0FF38
:105328007C007D3C1225E3909758EDF0909751E072
:10533800FEA3E0FF7C057DA01225E3909751ECF0D9
:10534800A3EDF0909751E0FEA3E0FF7C007D3C12B6
:1053580025E3909759EFF0909751E0FEA3E0FF7C8A
:10536800007D3C1225E390975AEDF07B017A9779FE
:1053780053909760E4F0A37408F07F207ECD124329
:10538800072290958BEFF07BFF7A727936788C7CC8
:10539800957D017E007F201224FE90958BE0C394BA
:1053A8000A7480948040030254D87B017A9A793B2E
:1053B800788C7C957D017E007F1A1224FE90958B57
:1053C800E075F01BA42464FFE435F0909590F0A3F9
:1053D800EFF09095957401F090958BE075F006A428
:1053E80024B6F582E4349AF583E0FEA3E0FF7B015E
:1053F8007A95798C909760E4F0A37420F0124307B3
:105408007B017A9A7955788C7C957D017E007F1A8C
:105418001224FE90958BE075F01BA42464FFE435FC
:10542800F0909590F0A3EFF09095957401F0909519
:105438008BE075F006A424B8F582E4349AF583E08D
:10544800FEA3E0FF7B017A95798C909760E4F0A346
:105458007420F01243077B017A9A79F2788C7C9554
:105468007D017E007F1A1224FE90958BE075F01B5B
:10547800A42464FFE435F0909590F0A3EFF09095A4
:105488008BE075F01BA42464FFE435F0909596F04A
:10549800A3EFF090958BE075F01BA4247DFFE43515
:1054A800F090959AF0A3EFF090958BE075F006A434
:1054B80024BAF582E4349AF583E0FEA3E0FF7B0189
:1054C8007A95798C909760E4F0A37420F0124307E2
:1054D80022C0E0C0F0C083C082C0D075D000C00038
:1054E800C001C002C003C004C005C006C007C2AFE7
:1054F800758CBC758ACD909B40E475F00112261915
:10550800909B40E0FEA3E0D394E8EE94034018900B
:105518009B40E4F0A3F0A375F001122619909B3E7E
:10552800E475F00112261943C901909B4C12282CEE
:10553800E47B01FAF9F81226C7909B4C1228449094
:105548009B44E475F001122619909B4612282CE41E
:10555800F81226C7909B46122844909B4AE0FEA367
:10556800E0FFE4FCFD7BDC7AFFF8D31227F1400A68
:10557800909B4AE475F0011226190509E5097002A5
:105588000508AF12AE11AD10AC0FE47B01FAF9F8C3
:105598001226C78F128E118D108C0FAF0EAE0DAD67
:1055A8000CAC0BE41226C78F0E8E0D8D0C8C0BE401
:1055B8007B64AF12AE11AD10AC0F12275FAC00AD1B
:1055C80001AE02AF03E4FBFAF9F8C312280770032F
:1055D800430A02E47BF47A01F9F8AF12AE11AD1078
:1055E800AC0F12275FAC00AD01AE02AF03E4FBFACB
:1055F800F9F8C31228077003430A04430A01D2AF1B
:10560800D007D006D005D004D003D002D001D000F6
:10561800D0D0D082D083D0F0D0E03290958BEFF00C
:10562800A3ECF0A3EDF0A3EBF07BFF7A7279167888
:105638008F7C957D017E007F201224FE90958BE063
:10564800C3940A7480948040030257677B017A9A56
:10565800793B788F7C957D017E007F1A1224FE901D
:10566800958BE075F01BA42464FFE435F0909593C6
:10567800F0A3EFF0E4909598F090958CE0FEA3E00D
:105688002401FFE43E90958FF0A3EFF090958BE016
:1056980075F006A424B6F582E4349AF583E0FEA3F7
:1056A800E0FF7B017A95798F909760E4F0A37420EE
:1056B800F01243077B017A9A7955788F7C957D01A2
:1056C8007E007F1A1224FE90958BE075F01BA424AF
:1056D80064FFE435F0909593F0A3EFF090958EE099
:1056E800FFC3740E9F909598F090958CE0FEA3E010
:1056F8002404FFE43E90958FF0A3EFF090958BE0A3
:1057080075F006A424B8F582E4349AF583E0FEA384
:10571800E0FF7B017A95798F909760E4F0A374207D
:10572800F012430790958CE0FEA3E02408FFE43EC6
:1057380090958FF0A3EFF090958BE075F006A42478
:10574800BAF582E4349AF583E0FEA3E0FF7B017AA0
:1057580095798F909760E4F0A37402F012430722C2
:10576800909553EFF0A3EDF0A3EBF0E4909560F083
:10577800A3F0909553E024D0FFE43407909560F0AF
:10578800A3EFF0909560E0FEA3E0FF7C007D64123B
:10579800258E909556ECF0A3EDF0909560E0FEA371
:1057A800E0FF7C007D6412258E909558EEF0A3EF03
:1057B800F0909554E0FF90955AE4F0A3EFF090959F
:1057C80055E0FF90955CE4F0A3EFF090955AE0FE69
:1057D800A3E064014E600B90955AE0A3E064024E8A
:1057E800701490955674FFF5F012261990955AE4A6
:1057F80075F00C122619909556E0FEA3E07802CEBB
:10580800C313CE13D8F9FF909556E0FCA3E02FFD03
:10581800EE3CFCA3E0FEA3E07802CEC313CE13D87F
:10582800F92DFDEC3EFC909558E0FEA3E025E0FF45
:10583800EE33FEC3ED9FFBEC9EFAA3E0FEA3E0244B
:1058480001FFE43EFE7C007D0D12257C7D051225BE
:105858008EEF2BFFEE3AFEA3E0FCA3E02FFFEE3C19
:10586800FEEF24FFFFEE34FFA3F0A3EFF090955E68
:10587800E0FEA3E0C3EE9400500C90955EE475F052
:105888000712261980E790955EE0FEA3E0FF7C00F2
:105898007D0712258E90955EECF0A3EDF090955E55
:1058A800E0A3E0FF227BFF7A7279BC78487C957D83
:1058B800017E007F281224FEE4909570F0A3F090FA
:1058C8009570E0FEA3E0C39425EE940040030259CE
:1058D800F1909570E0A3E07803C333CE33CED8F9C6
:1058E800246DF582748E3EF583E0FF909B57E0FCB3
:1058F800A3E0FDEF6D7001EC60030259E490957030
:10590800E0FEA3E07803C333CE33CED8F9246EF596
:1059180082748E3EF583E0FEA3E0FF7B017A9579E1
:105928004890974EE4F0A37402F012409A90957054
:10593800E0FEA3E07803C333CE33CED8F92470F564
:1059480082748E3EF583E0FEA3E0FF7B017A9579B1
:105958004A90974EE4F0A37402F012409A90954A48
:10596800E0FEA3E0FF909548E0FCA3E06F7002EC36
:105978006E6069909570E0FEA3E07803C333CE3380
:10598800CED8F92470F582748E3EF583E0FEA3E04C
:10599800FF7B017A957948909760E4F0A37402F050
:1059A80012430790954CE4F0A3745AF0909570E078
:1059B800FEA3E07803C333CE33CED8F92472F58240
:1059C800748E3EF583E0FEA3E0FF7B017A95794C67
:1059D800909760E4F0A37402F0124307909570E486
:1059E80075F0011226190258C7227B017A95794B66
:1059F80090974EE4F0A37404F07F087E5012409A0A
:105A080090954DE0FEA3E0FF90954BE0FCA3E06F7E
:105A18007002EC6E7003025B157B017A95794B90EE
:105A28009760E4F0A37402F07F097E501243079058
:105A3800954BE0FEA3E02402FFEE34F8909553F076
:105A4800A3EFF090954BE0A3E0FF909B5DE0FCA3F3
:105A5800E02FFFEC3E90954FF0A3EFF090954FE0CC
:105A6800FEA3E0C394FEEE9407400B90954F74F8A4
:105A780075F0021226197B017A95794F909760E4A8
:105A8800F0A37402F07F007E031243077B017A952E
:105A9800794F909760E4F0A37402F0FF7E031243FD
:105AA8000790954BE0FEA3E07802CEC313CE13D83F
:105AB800F9FF90954BEEF0A3EFF090954BE475F05D
:105AC8008F1226197B017A95794B909760E4F0A3A1
