:10000000026332020006C2AFD2AF32025391C2AFD6
:10001000D2AF3202000E90996FE0FEA3E0FF126BA8
:0200200080223C
:070023000267C6126E6322A2
:10002B00026FBA90975412285800003000909758DE
:10003B00E4F0A3740CF07D007C307F5A1263D37B09
:10004B00017A9A7927909756E4F0A37418F07F0001
:10005B007E301240A1E490954BF090954BE0C39409
:10006B000774809480506EE025E025E02427F5820C
:10007B00E4349AF583122834E4FBFAF9F8C3122816
:10008B000F602290954BE025E025E02427F582E4D4
:10009B00349AF5831228347B3F7A42790F7800C368
:1000AB0012280F502890954BE025E025E02401F510
:1000BB0082E4349AF58312283490954BE025E025A1
:1000CB00E02427F582E4349AF58312284C90954B63
:1000DB00E004F080857B017A9A7927909768E4F0A9
:0C00EB00A37414F07FA07EA612430E2226
:1000F800FFFF4457494E5435429B5F0000419B58CF
:1001080000429B590000419B5B00419B5C00429B65
:100118005D0000429B650000429B630000429B61BA
:1001280000005A9A433FC900690064000086000A2B
:100138002D2D203A3A000000000000000000005A6F
:100148009A5D3FCC01270064000086000A2D2D2F00
:100158003A3A000000000000000000005A9AFA3FF6
:10016800D001E50064000001E5006402AD007D00F7
:10017800100017181802000000603C9ABE400040AA
:10018800A04140401040B04150402040C041604034
:100198003040D04170404040E04180405040F04104
:1001A800904060410041A04070411041B040804102
:1001B8002041C04090413041D0549AAA41E041F8D2
:1001C80042104228424042584270428842A042B8F7
:1001D800489A9B0000000000000000429AA300001B
:1001E800429AA80000429AA50000419AA700429AA4
:1001F800890000429A770005498000B2E2CAD4BA61
:10020800BAD7D6006E60800949443030BBD8B7E70A
:10021800B8DFCEC2000000000000000000000000AF
:10022800000000000000000049443031BBD8B7E7A7
:10023800B5CDCEC2000000000000000000000000A4
:10024800000000000000000049443032BBD8B7E786
:10025800B8DFCAAA0000000000000000000000008B
:10026800000000000000000049443033BBD8B7E765
:10027800B5CDCAAA00000000000000000000000080
:10028800000000000000000049443034CBCDB7E73F
:10029800B8DFCEC20000000000000000000000002F
:1002A800000000000000000049443035CBCDB7E71E
:1002B800B5CDCEC200000000000000000000000024
:1002C800000000000000000049443036CBCDB7E7FD
:1002D800B8DFCAAA0000000000000000000000000B
:1002E800000000000000000049443037CBCDB7E7DC
:1002F800B5CDCAAA00000000000000000000000000
:10030800000000000000000049443038B1A3C1F4E7
:1003180000000000000000000000000000000000D5
:10032800000000000000000049443039CEC2CAAACB
:10033800B6C8B4ABB8D0C6F7B9CAD5CF000000006C
:100348000000000000000000494431304E5443D200
:10035800ECB3A30000000000000000000000000053
:10036800000000000000000049443131B7E7BBFA43
:1003780031B9CAD5CF00000000000000000000001D
:10038800000000000000000049443132B1A3C1F46C
:100398000000000000000000000000000000000055
:1003A800000000000000000049443133B1A3C1F44B
:1003B8000000000000000000000000000000000035
:1003C800000000000000000049443134B1A3C1F42A
:1003D8000000000000000000000000000000000015
:1003E800000000000000000049443135B1A3C1F409
:1003F80000000000000000000000000000000000F5
:10040800000000000000000049443136CDE2B7E7A3
:10041800BBFAB9CAD5CF00000000000000000000F8
:10042800000000000000000049443137B7E7BBFA7C
:1004380031D4CBD0D0B3ACCAB1000000000000006A
:10044800000000000000000049443138B1A3C1F4A5
:100458000000000000000000000000000000000094
:10046800000000000000000049443139B1A3C1F484
:100478000000000000000000000000000000000074
:10048800000000000000000049443230B1A3C1F46C
:100498000000000000000000000000000000000054
:1004A800000000000000000049443231B1A3C1F44B
:1004B8000000000000000000000000000000000034
:1004C800000000000000000049443232CDE2B7E7E6
:1004D800BBFAD4CBD0D0B3ACCAB100000000000046
:1004E800000000000000000049443233B8DFD1B9F1
:1004F80031BFAAB9D80000000000000000000000C9
:10050800000000000000000049443234B8DFD1B9CF
:1005180031CBF8CBC0000000000000000000000054
:10052800000000000000000049443235B5CDD1B9C3
:1005380031B8E6BEAF000000000000000000000077
:10054800000000000000000049443236B5CDD1B9A2
:1005580031CBF8CBC0000000000000000000000014
:10056800000000000000000049443237C5C5C6F845
:10057800CEC2B6C831B8E6BEAF0000000000000029
:10058800000000000000000049443238C5C5C6F824
:10059800CEC2B6C831CBF8CBC000000000000000C6
:1005A800000000000000000049443239B6CCD6DC17
:1005B800C6DA31B8E6BEAF00000000000000000057
:1005C800000000000000000049443330D1B9BBFAF4
:1005D80031D4CBD0D0B3ACCAB100000000000000C9
:1005E800000000000000000049443331B7E7BBFABF
:1005F80031B9CAD5CF00000000000000000000009B
:10060800000000000000000049443332B7E7BBFA9D
:1006180032B9CAD5CF000000000000000000000079
:10062800000000000000000049443333B7E7BBFA7C
:1006380033B9CAD5CF000000000000000000000058
:10064800000000000000000049443334B7E7BBFA5B
:1006580034B9CAD5CF000000000000000000000037
:10066800000000000000000049443335C5C5C6F845
:10067800CEC2B6C832B8E6BEAF0000000000000027
:10068800000000000000000049443336C5C5C6F824
:10069800CEC2B6C832CBF8CBC000000000000000C4
:1006A800000000000000000049443337B6CCD6DC17
:1006B800C6DA32B8E6BEAF00000000000000000055
:1006C800000000000000000049443338D1B9BBFAEB
:1006D80032D4CBD0D0B3ACCAB100000000000000C7
:1006E800000000000000000049443339BCD3CAAA06
:1006F800C6F7B5E7C1F7B9FDB4F300000000000084
:10070800000000000000000049443430CBCDB7E7BA
:10071800B4ABB8D0C6F7B9CAD5CF00000000000006
:10072800000000000000000049443431BDF8BFDA81
:10073800B4ABB8D0C6F7B9CAD5CF000000000000E6
:10074800000000000000000049443432B3F6BFDA6C
:10075800B4ABB8D0C6F7B9CAD5CF000000000000C6
:10076800000000000000000049443433BCD3C8C86E
:10077800C6F7B8E6BEAF00000000000000000000A9
:10078800000000000000000049443434BCD3C8C84D
:10079800C6F731B3ACCAB100000000000000000089
:1007A800000000000000000049443435BCD3C8C82C
:1007B800C6F732B3ACCAB100000000000000000068
:1007C800000000000000000049443436B6CFB5E709
:1007D800D6D8C6F4000000000000000000000000A9
:1007E800000000000000000049443437B5E7D4B4E5
:1007F800CFE0D0F2B4EDCEF300000000000000001E
:10080800000000000000000049443438B5E7D4B4C3
:10081800C6B5C2CAC6ABB8DF0000000000000000C1
:10082800000000000000000049443439B5E7D4B4A2
:10083800C6B5C2CAC6ABB5CD0000000000000000B6
:1008480000000000000000004944353041CFE0B905
:10085800FDD1B90000000000000000000000000009
:1008680000000000000000004944353142CFE0B9E3
:10087800FDD1B900000000000000000000000000E9
:1008880000000000000000004944353243CFE0B9C1
:10089800FDD1B900000000000000000000000000C9
:1008A80000000000000000004944353341CFE0C794
:1008B800B7D1B900000000000000000000000000EF
:1008C80000000000000000004944353442CFE0C772
:1008D800B7D1B900000000000000000000000000CF
:1008E80000000000000000004944353543CFE0C750
:1008F800B7D1B900000000000000000000000000AF
:1009080000000000000000004944353641CFE0C82F
:10091800B1CFE0000000000000000000000000006F
:1009280000000000000000004944353742CFE0C80D
:10093800B1CFE0000000000000000000000000004F
:1009480000000000000000004944353843CFE0C8EB
:10095800B1CFE0000000000000000000000000002F
:10096800000000000000000049443539C6F8C1F70E
:10097800B6AACAA7B8E6BEAF000000000000000093
:10098800000000000000000049443630B9FDC2CB29
:10099800CDF8D4CBD0D0B3ACCAB100000000000071
:1009A800000000000000000049443631BFD5C6F8F9
:1009B800C2CBCDF8B6C2C8FB0000000000000000A2
:1009C800000000000000000049443632D4B6B3CC21
:1009D800B9D8BBFAB8E6BEAF0000000000000000BE
:1009E800000000000000000049443633C2A9CBAE25
:1009F800B8E6BEAF000000000000000000000000E4
:100A0800000000000000000049443634C8BABFD8CE
:100A1800CDA8D0C5D2ECB3A30000000000000000B0
:100A2800000000000000000049443635B1A3C1F4BD
:100A380000000000000000000000000000000000AE
:100A4800000000000000000049443636B5CDB9FD6D
:100A5800C8C8B6C831B8E6BEAF0000000000000044
:100A6800000000000000000049443637B5CDB9FD4C
:100A7800C8C8B6C832B8E6BEAF0000000000000023
:100A8800000000000000000049443638D1CCCEED0B
:100A9800B8E6BEAF00000000000000000000000043
:100AA800000000000000000049443639D3C3BBA74A
:100AB800D7D4B6A8D2E5B8E6BEAF00000000000063
:100AC800000000000000000049443730B5E7D4B406
:100AD800D2ECB3A3000000000000000000000000FA
:100AE800000000000000000049443731B1A3C1F400
:100AF80000000000000000000000000000000000EE
:100B0800000000000000000049443732B1A3C1F4DE
:100B180000000000000000000000000000000000CD
:100B2800000000000000000049443733B1A3C1F4BD
:100B380000000000000000000000000000000000AD
:100B4800000000000000000049443734B1A3C1F49C
:100B5800000000000000000000000000000000008D
:100B6800000000000000000049443735B1A3C1F47B
:100B7800000000000000000000000000000000006D
:100B8800000000000000000049443736B1A3C1F45A
:100B9800000000000000000000000000000000004D
:100BA800000000000000000049443737B1A3C1F439
:100BB800000000000000000000000000000000002D
:100BC800000000000000000049443738B1A3C1F418
:100BD800000000000000000000000000000000000D
:100BE800000000000000000049443739B1A3C1F4F7
:100BF80000000000000000000000000000000000ED
:100C0800000000000000000049443830C5C5CBAEE4
:100C1800B8DFCBAECEBB0000000000000000000033
:100C2800000000000000000049443831BCD3CAAAC3
:100C3800C6F7D2ECB3A300000000000000000000DB
:100C4800000000000000000049443832B7E7D1B97D
:100C5800B9FDB5CD00000000000000000000000054
:100C6800000000000000000049443833B1A3C1F47B
:100C7800000000000000000000000000000000006C
:100C8800000000000000000049443834B8DFD1B942
:100C980031D1B9C1A600000000000000000000002A
:100CA800000000000000000049443835C0E4C4FDDD
:100CB800CBAEC5CCC2FACBAE0000000000000000ED
:100CC8000000000000000000494438364D4F503104
:100CD800B8E6BEAF00000000000000000000000001
:100CE8000000000000000000494438374D4F5032E2
:100CF800B8E6BEAF000000000000000000000000E1
:100D08000000000000000000494438384C4F5031C2
:100D1800B8E6BEAF000000000000000000000000C0
:100D28000000000000000000494438394C4F5032A0
:100D3800B8E6BEAF000000000000000000000000A0
:100D4800000000000000000049443930C9E8B1B88B
:100D5800CAB9D3C3B3ACCAB1000000000000000098
:100D6800000000000000000049443931B1A3C1F47B
:100D7800000000000000000000000000000000006B
:100D8800000000000000000049443932B1A3C1F45A
:100D9800000000000000000000000000000000004B
:100DA800000000000000000049443933B1A3C1F439
:100DB800000000000000000000000000000000002B
:100DC800000000000000000049443934B1A3C1F418
:100DD800000000000000000000000000000000000B
:100DE800000000000000000049443935B1A3C1F4F7
:100DF80000000000000000000000000000000000EB
:100E0800000000000000000049443936B1A3C1F4D5
:100E180000000000000000000000000000000000CA
:100E2800000000000000000049443937B1A3C1F4B4
:100E380000000000000000000000000000000000AA
:100E4800000000000000000049443938B1A3C1F493
:100E5800000000000000000000000000000000008A
:100E6800000000000000000049443939B1A3C1F472
:100E7800000000000000000000000000000000006A
:100E880000000000000000004944313030B1A3C127
:100E9800F400000000000000000000000000000056
:100EA80000000000000000004944313031B1A3C106
:100EB800F400000000000000000000000000000036
:100EC80000000000000000004944313032B1A3C1E5
:100ED800F400000000000000000000000000000016
:100EE80000000000000000004944313033B1A3C1C4
:100EF800F4000000000000000000000000000000F6
:100F080000000000000000004944313034B1A3C1A2
:100F1800F4000000000000000000000000000000D5
:100F280000000000000000004944313035B1A3C181
:100F3800F4000000000000000000000000000000B5
:100F480000000000000000004944313036B1A3C160
:100F5800F400000000000000000000000000000095
:100F680000000000000000004944313037B1A3C13F
:100F7800F400000000000000000000000000000075
:100F880000000000000000004944313038B1A3C11E
:100F9800F400000000000000000000000000000055
:100FA80000000000000000004944313039B1A3C1FD
:100FB800F400000000000000000000000000000035
:100FC80000000000000000004944313130B1A3C1E5
:100FD800F400000000000000000000000000000015
:100FE80000000000000000004944313131B1A3C1C4
:100FF800F4000000000000000000000000000000F5
:1010080000000000000000004944313132B1A3C1A2
:10101800F4000000000000000000000000000000D4
:1010280000000000000000004944313133B1A3C181
:10103800F4000000000000000000000000000000B4
:1010480000000000000000004944313134B1A3C160
:10105800F400000000000000000000000000000094
:101068000000000000000000419B6700479B37001C
:10107800000000000000479B28000000000000005E
:10108800489B3E0000000000000000489B2F000025
:10109800000000000000C100429B260000529B1483
:1010A8000000000000000000000000000000000038
:1010B8000000429B480000429B4A0000429B4600B9
:1010C80000449B5400000000429B4C0000449B4E8F
:1010D8000000000002080000040B00000000040FDC
:1010E80000000000429B520000010A006100976C5A
:1010F80000C1814001C0804101C0804100C18140E0
:1011080001C0804100C1814000C1814001C08041CF
:1011180001C0804100C1814000C1814001C08041BF
:1011280000C1814001C0804101C0804100C18140AF
:1011380001C0804100C1814000C1814001C080419F
:1011480000C1814001C0804101C0804100C181408F
:1011580000C1814001C0804101C0804100C181407F
:1011680001C0804100C1814000C1814001C080416F
:1011780001C0804100C1814000C1814001C080415F
:1011880000C1814001C0804101C0804100C181404F
:1011980000C1814001C0804101C0804100C181403F
:1011A80001C0804100C1814000C1814001C080412F
:1011B80000C1814001C0804101C0804100C181401F
:1011C80001C0804100C1814000C1814001C080410F
:1011D80001C0804100C1814000C1814001C08041FF
:1011E80000C1814001C0804101C0804100C18140EF
:1011F8006100986C00C0C101C30302C2C60607C7DC
:1012080005C5C404CC0C0DCD0FCFCE0E0ACACB0B2E
:10121800C90908C8D81819D91BDBDA1A1EDEDF1F5E
:10122800DD1D1CDC14D4D515D71716D6D21213D34E
:1012380011D1D010F03031F133F3F23236F6F737FE
:10124800F53534F43CFCFD3DFF3F3EFEFA3A3BFBEE
:1012580039F9F83828E8E929EB2B2AEAEE2E2FEF9E
:101268002DEDEC2CE42425E527E7E62622E2E3230E
:10127800E12120E0A06061A163A3A26266A6A7673E
:10128800A56564A46CACAD6DAF6F6EAEAA6A6BABAE
:1012980069A9A86878B8B979BB7B7ABABE7E7FBFDE
:1012A8007DBDBC7CB47475B577B7B67672B2B373CE
:1012B800B17170B05090915193535292965657977E
:1012C800559594549C5C5D9D5F9F9E5E5A9A9B5B6E
:1012D80099595898884849894B8B8A4A4E8E8F4F1E
:1012E8008D4D4C8C4484854587474686824243838E
:1012F800418180404194C600418FA1004495470038
:10130800000000418F9C00448F9D0000000065167E
:101318008FB05A021003C80250155016000000FF83
:101328005A020303C8000000D920031C00FF5A0218
:101338000301C8010039D923031900FF5A02060125
:10134800C803D984D924010000395A020301C8010D
:101358000039D925010400FF5A020601C802D987BD
:10136800D927010400FF5A020303C8010039D9A094
:10137800011A00FF5A020302C8000000D9A3031093
:1013880000FF5A020302C801000AAA20032600FF30
:101398005A020301C801000AAA22036900FF5A027F
:1013A8000302C801000AAA23036B00FF5A020301C3
:1013B800C801000AAA25037700FF5A020301C801E1
:1013C800000AAA26036F00FF5A020301C801000A97
:1013D800AA2703D700FF5A02031FC801000BAB203E
:1013E800037500FF5A020601C803AC80AC20023A1C
:1013F800000C5A020306C800000DAEA0032000FF2F
:101408005A020601C803AF80AF20023B000F5A0200
:101418000301C803B300B320011A00135A020302E0
:10142800C803B300B321013B00135A020601C803E5
:10143800B380B320011A00135A020601C803B3810E
:10144800B321013B00135A020601C803B382B32239
:10145800013C00135A020305C803B400B420015B21
:1014680000145A020305C803B400B425013D001452
:101478005A020601C803B480B420015B00145A0262
:101488000601C803B481B421015C00145A020601A4
:10149800C803B482B422015D00145A020601C803CD
:1014A800B483B423015E00145A020601C803B4844D
:1014B800B424015F00145A020601C803B485B42598
:1014C800013D00145A020301C803B600B62002E425
:1014D80000165A020301C803B600B62102EA001634
:1014E8005A020601C803B680B62002E400165A0262
:1014F8000601C803B681B62102EA00165A020301A2
:10150800C803B800B820010D00185A020301C80327
:10151800B800B821010F00185A020301C803B80027
:10152800B822015A00185A020601C803B880B82028
:10153800010D00185A020601C803B881B821010F2D
:1015480000185A020601C803B882B822015A0018C6
:101558005A020601C803B88AB82A023B00185A0280
:101568000301C803B900B920010800195A0203028F
:10157800C803B900B921010A00195A020301C803B6
:10158800B900B92301A700195A020601C803B98096
:10159800B920010800195A020601C803B981B92106
:1015A800010A00195A020601C803B982B922010BBF
:1015B80000195A020601C803B983B92301A7001903
:1015C8005A020301C803BB00BB200210001B5A02C9
:1015D8000301C803BB00BB210213001B5A0203010D
:1015E800C803BB00BB220216001B5A020302C80331
:1015F800BB00BB230219001B5A020303C803BB002C
:10160800BB24027D001B5A020302C803BB00BB2592
:101618000246001B5A020301C803BB00BB2702771E
:10162800001B5A020601C803BB80BB200210001B26
:101638005A020601C803BB81BB210213001B5A02D0
:101648000601C803BB82BB220216001B5A02060110
:10165800C803BB83BB230219001B5A020601C80337
:10166800BB84BB24027D001B5A020601C803BB854C
:10167800BB250246001B5A020601C803BB86BB26CF
:101688000247001B5A020601C803BB87BB27027723
:10169800001B5A020302C803BF00BF200102001F3B
:1016A8005A020301C803BF00BF220107001F5A02E4
:1016B8000301C803BF00BF2301A5001F5A0206018A
:1016C800C803BF80BF200102001F5A020601C803D9
:1016D800BF81BF210103001F5A020601C803BF8250
:1016E800BF220107001F5A020601C803BF83BF2398
:1016F80001A5001F5A020301C803C300C32002EB5F
:1017080000235A020301C803C300C32101A900230F
:101718005A020301C8010023D925010400FF5A0217
:101728000601C803C380C32002EB00235A02060146
:10173800C803C381C32101A900235A020601C803B3
:10174800C382C32201A800235A020301C80100234F
:10175800C323037500FF5A020301C8010023C324F1
:10176800037700FF5A020302C803C400C420012DF6
:1017780000245A020301C803C400C422012900241A
:101788005A020302C803C400C423012B00245A02CE
:101798000601C803C480C420012D00245A02060192
:1017A800C803C481C421012E00245A020601C803BB
:1017B800C482C422012900245A020601C803C48332
:1017C800C423012B00245A020601C803C484C4247C
:1017D800012C00245A020303C803C600C6A0030252
:1017E80000265A020301C803D500D520011A003586
:1017F8005A020302C803D500D521013B00355A021D
:101808000601C803D580D520011A00355A02060101
:10181800C803D581D521013B00355A020601C8030A
:10182800D582D522013C00354E8FA2000000000071
:10183800000000000000000000428E6A00006130D5
:101848008E6C5A13B320B350B3805A13B321B351DB
:10185800B3815A13B322B352B3825A14B420B4508A
:10186800B4805A14B421B451B4815A14B422B45275
:10187800B4825A14B423B453B4835A14B424B45459
:10188800B4845A14B425B455B4855A16B620B65043
:10189800B6805A16B621B651B6815A18B820B85033
:1018A800B8805A18B821B851B8815A18B822B85215
:1018B800B8825A19B920B950B9805A19B921B95101
:1018C800B9815A19B922B952B9825A19B923B953E7
:1018D800B9835A1BBB20BB50BB805A1BBB21BB51D1
:1018E800BB815A1BBB22BB52BB825A1BBB23BB53B7
:1018F800BB835A1BBB24BB54BB845A1BBB25BB559B
:10190800BB855A1BBB26BB56BB865A1BBB27BB577E
:10191800BB875A1FBF20BF50BF805A1FBF21BF516E
:10192800BF815A1FBF22BF52BF825A1FBF23BF5356
:10193800BF835A24C420C450C4805A24C421C4512B
:10194800C4815A24C422C452C4825A24C423C4530E
:10195800C4835A24C424C454C4845A35D520D550C9
:10196800D5805A35D521D551D5815A35D522D5526C
:10197800D582418E69005C9A2700000000000000B3
:10198800000000000000000000000000000000004F
:1019980000000000005C9A01000000000000000147
:1019A8000000000200027360000A2D08000310CC3A
:1019B8000007ED654199FDFF608C997100000100F9
:1019C80002000300040005000600070008000900E3
:1019D8000A000B000C000D000E000F011000110092
:1019E800120213001400150016001700180319003E
:1019F8001A001B021C001D001E001F0020002100F1
:101A080022022300240025002600270028002900A0
:101A18002A002B002C002D002E002F003000310052
:101A28003200330034003500360037003800390002
:101A38003A003B003C003D003E003F0040054100AD
:101A480042004300440045004A9A1D000101030278
:101A580003030604024299FF000042996F00004206
:101A6800996C000041996E0000AF13EF1313543FB7
:101A78005401640160030224357B017A95794B9007
:101A88009756F0A3740CF07F217ED91240A190954F
:101A98004DE0FEA3E0FF90954BE0FCA3E02FFFECA8
:101AA8003EFE909A89E0FCA3E06F7002EE6C6058ED
:101AB80090954DE0FEA3E0FF90954BE0FCA3E02F4E
:101AC800FFEC3EFE909A89E0FCA3E0C39FEC9E5099
:101AD8001D909555E4F0A304F0FB7A9579559097FD
:101AE80068E4F0A37402F07F267ED912430E909525
:101AF8004DE0FEA3E0FF90954BE0FCA3E02FFFEC48
:101B08003E909A89F0A3EFF090954BE0FEA3E0D3C6
:101B18009400EE9400500CA3E0FEA3E09400EE9431
:101B2800004020909555E0FEA3E04E60167B017AB8
:101B38009A7977909768E4F0A37402F07FA07E000A
:101B480012430E909B5FE0FEA3E0640D4E6003021B
:101B58001EF2909B5FE0A3E0FF909AA3E0FCA3E055
:101B68006F7002EC6E601EE4909AA8F0A3F07B01FF
:101B78007A9A79A8909768F0A37402F07F017EAEF4
:101B880012430E80167B017A9A79A8909756E4F052
:101B9800A37402F07F017EAE1240A17B017A957991
:101BA8004B909756E4F0A37410F07FA07EAE1240DD
:101BB800A1E4909559F0A3E05407F07B017A9A7953
:101BC80079784B7C957D017E007F10122A97EF7003
:101BD8002F909AA5E0FEA3E0FF909AA8E0FCA3E06E
:101BE800B5071DECB50619909B5FE0FEA3E0FF90DA
:101BF8009AA3E0FCA3E06F7002EC6E70030221E789
:101C08007B017A95794B78797C9A7D017E007F10EB
:101C1800122506E4909AA7F090957EF090957EE0C4
:101C2800C39408748094804003021E9AE490957DC2
:101C3800F090957DE0C39410748094804003021E58
:101C480091A3E0C454F0FF90957DE02F909582F029
:101C5800E075F018A42400FFE5F03435FE7B017A26
:101C680095794B909756E4F0A37430F01240A17B1D
:101C7800017A95794B90957F1228B590957DE0FF74
:101C88007E007401A807088005C333CE33CED8F987
:101C9800FF90957EE025E02479F582E4349AF58377
:101CA800E0FCA3E0FDEE5CFEEF5D4E7003021DE874
:101CB80090957F12289512264D645A7004E5F064B9
:101CC800A57003021D8590957F12289574A575F05F
:101CD8005A1226B07B017A95795F909756E4F0A363
:101CE8007408F07F107E001240A17B017A95795F1D
:101CF800784D7C957D017E007F031225067B017A55
:101D080095796378507C957D017E007F03122506C6
:101D18007E007F087D007B017A957953122ABB905B
:101D28009582E0FF909559E4F0A3EFF07B017A9556
:101D3800795BC002C00190958275F020A42409F94E
:101D4800748035F0FA9095961228B5909599E4F03C
:101D5800A37420F0D001D0021266F8909582E07545
:101D6800F018A42400FFE5F03435FE7B017A95795C
:101D78004B909768E4F0A37430F012430E909AA841
:101D8800E0FEA3E0FF7C007D0A122584909AA7E07C
:101D9800C39FEC9E4041A3E0FEA3E0FF122584EF21
:101DA800240AFFE43EFE909AA7E0C39FEC9E5027CA
:101DB800909582E075F018A42400FDE5F03435FC18
:101DC800909AA8E0A3E075F00AA4FF909AA7E0C350
:101DD8009FFF7B0D1258A4909AA7E004F0021E887A
:101DE80090957F12289512264D645A7004E5F06488
:101DF800A56003021E887B017A95795F909756F05B
:101E0800A37408F07F107E001240A17B017A9579B7
:101E18005F78537C957D017E007F031225067B0148
:101E28007A95796378567C957D017E007F0312252B
:101E380006909582E0FF909559E4F0A3EFF07B01BE
:101E48007A95794B909768E4F0A37410F07F007E40
:101E58003012430E125F4CE490954BF0A3F090952E
:101E680082E075F018A42400FFE5F03435FE7B010C
:101E78007A95794B909768E4F0A37402F012430EB8
:101E880090957DE004F0021C3990957EE004F00204
:101E98001C24909AA7E090957DF0909AA8E0FEA364
:101EA800E0FF7C007D0A122584EF240AFFE43EFE51
:101EB80090957DE0C39FEC9E501D909AA8E0A3E00A
:101EC80075F00AA4FF90957DE0C39FFF12576590B7
:101ED800957DE004F080C3909AA8E0FEA3E0FF900F
:101EE8009AA5EEF0A3EFF00221E77B017A95794BF2
:101EF800909756E4F0A37410F07FA07EAE1240A134
:101F0800E4909559F0A3E05407F07B017A9A797927
:101F1800784B7C957D017E007F10122A97EF700325
:101F28000221E77B017A95794B787F7C957D017E4C
:101F3800007F10122506E490957EF090957EE0C310
:101F480094067480948040030221D4E490957DF037
:101F580090957DE0C394107480948040030221CB57
:101F6800E0FF7E007401A807088005C333CE33CE96
:101F7800D8F9FF90957EE025E0247FF582E434953A
:101F8800F583E0FCA3E0FDEE5CFCEF5DFD90957D44
:101F9800E0FF7E007401A807088005C333CE33CE66
:101FA800D8F9FF90957EE025E02479F582E4349A0B
:101FB800F583E0FAA3E0FBEE5AFEEF5B6D7002EEEC
:101FC8006C70030221C290957EE0C454F0FF909596
:101FD8007DE02F909592F0E075F018A42400FFE5BD
:101FE800F03435FE7B017A95794B909756E4F0A34F
:101FF8007430F01240A17B017A95794B90958F123D
:1020080028B590957DE0FF7E007401A8070880053B
:10201800C333CE33CED8F9FF90957EE025E0247FF8
:10202800F582E43495F583E0FCA3E0FDEE5CFEEF79
:102038005D4E700302210F90958F12289512264D40
:10204800645A7004E5F064A570030221C290958F6C
:1020580012289574A575F05A1226B07B017A9579E5
:102068005F909756E4F0A37408F07F107E0012404A
:10207800A17B017A95795F784D7C957D017E007F03
:10208800031225067B017A95796378507C957D014A
:102098007E007F031225067E007F087D007B017A83
:1020A800957953122ABB909592E0FF909559E4F0E8
:1020B800A3EFF07B017A95795BC002C001909592FD
:1020C80075F020A42409F9748035F0FA90959612D9
:1020D80028B5909599E4F0A37420F0D001D00212AD
:1020E80066F8909592E075F018A42400FFE5F034A6
:1020F80035FE7B017A95794B909768E4F0A37430AC
:10210800F012430E0221C290958F12289512264D87
:10211800645A7004E5F064A560030221C27B017A69
:1021280095795F909756F0A37408F07F107E00129F
:1021380040A17B017A95795F78537C957D017E007B
:102148007F031225067B017A95796378567C957D05
:10215800017E007F03122506909592E0FF90955925
:10216800E4F0A3EFF07B017A95794B909768E4F05F
:10217800A37410F07F007E3012430E125F4CE4907F
:10218800954BF0A3F0909592E075F018A42400FF09
:10219800E5F03435FE7B017A95794B909768E4F049
:1021A800A37402F012430E909AA8E0FEA3E0240163
:1021B800FFE43E909AA5F0A3EFF090957DE004F03F
:1021C800021F5890957EE004F0021F437B017A9528
:1021D800797F78797C9A7D017E007F1012250690A0
:1021E8009B5FE0FEA3E0640E4E6003022425909BF3
:1021F8005FE0A3E0FF909AA3E0FCA3E06F7002EC1D
:102208006E601EE4909AA8F0A3F07B017A9A79A8F0
:10221800909768F0A37402F07F017EAE12430E809F
:10222800347B017A9A79A8909756E4F0A37402F067
:102238007F017EAE1240A1909AA5E0FEA3E0FF9038
:102248009AA8E0FCA3E06F7002EC6E7003022425EC
:102258008003022425909AA8E0FEA3E0FF909AA5A7
:10226800EEF0A3EFF0E4A3F0909AA7E0C3940A7409
:10227800809480400302240BA3E0FEA3E0FF7C00CF
:102288007D0A122584909AA7E02FFFEC3EFE909AD3
:10229800A1E0FCA3E0FDC3EF9DEE9C400302240BEC
:1022A800909AA8E0FEA3E0FF7C007D0A12258490A6
:1022B8009AA7E02FFFEC3EFE909A9DE0FCA3E0D3A6
:1022C8009FEC9E4032909AA8E0FEA3E0FF7C0012AB
:1022D8002584909AA7E02FFFEC3EFEEF2401FFE44F
:1022E8003EFE909A9DE0FCA3E0C39FFFEC9E909574
:1022F8007FF0A3EFF0803A909AA8E0FEA3E0FF7C7D
:10230800007D0A122584909AA7E02FFFEC3EFEEF8D
:102318002401FFE43EFE909A9DE0FCA3E02400FD2A
:10232800EC3402FCC3ED9FFFEC9E90957FF0A3EF89
:10233800F090957FE0FEA3E07803C333CE33CED888
:10234800F92400FFEE3420FEE4FCFD909754122897
:102358004C909758E4F0A37408F07D007C307F5AC5
:102368001263D37B017A95794B909756E4F0A37466
:1023780010F07F007E301240A17B017A95795BC016
:1023880003C002C001909559E0FEA3E07805C3336D
:10239800CE33CED8F92409F974803EFA7B019095A2
:1023A800961228B5909599E4F0A37420F0D001D046
:1023B80002D0031266F8909AA7E025E024AAF582D5
:1023C800E4349AF583E0FEA3E0FF7B017A95794B2C
:1023D800909768E4F0A37430F012430E909AA7E047
:1023E80025E024AAF582E4349AF583E0FCA3E0FD15
:1023F800909AA7E0FF7B0E1258A4909AA7E004F0E9
:10240800022270909AA7E0C3940A74809480500DB9
:10241800E0FF125765909AA7E004F080E6909B5F72
:10242800E0FEA3E0FF909AA3EEF0A3EFF022E70905
:10243800F608DFFA8046E709F208DFFA803E88826C
:102448008C83E709F0A3DFFA8032E309F608DFFAA4
:102458008078E309F208DFFA807088828C83E309C8
:10246800F0A3DFFA806489828A83E0A3F608DFFAA2
:10247800805889828A83E0A3F208DFFA804C80D2F0
:1024880080FA80C680D4806980F28033801080A66C
:1024980080EA809A80A880DA80E280CA80338982C4
:1024A8008A83ECFAE493A3C8C582C8CCC583CCF070
:1024B800A3C8C582C8CCC583CCDFE9DEE7800D8917
:1024C800828A83E493A3F608DFF9ECFAA9F0EDFB1E
:1024D8002289828A83ECFAE0A3C8C582C8CCC58366
:1024E800CCF0A3C8C582C8CCC583CCDFEADEE880BF
:1024F800DB89828A83E493A3F208DFF980CC88F031
:10250800EF60010E4E60C388F0ED2402B404005061
:10251800B9F582EB2402B4040050AF23234582238B
:1025280090248673BB010689828A83E0225002E7E1
:1025380022BBFE02E32289828A83E49322BB010C38
:10254800E58229F582E5833AF583E0225006E925FC
:1025580082F8E622BBFE06E92582F8E222E5822916
:10256800F582E5833AF583E49322BB010689828AE2
:1025780083F0225002F722BBFE01F322EF8DF0A474
:10258800A8F0CF8CF0A428CE8DF0A42EFE22BC009B
:102598000BBE0029EF8DF084FFADF022E4CCF87576
:1025A800F008EF2FFFEE33FEEC33FCEE9DEC984085
:1025B80005FCEE9DFE0FD5F0E9E4CEFD22EDF8F521
:1025C800F0EE8420D21CFEADF075F008EF2FFFED81
:1025D80033FD4007985006D5F0F222C398FD0FD579
:1025E800F0EA22C2D5EC30E709B2D5E4C39DFDE498
:1025F8009CFCEE30E715B2D5E4C39FFFE49EFE12C3
:102608002596C3E49DFDE49CFC800312259630D5F5
:1026180007C3E49FFFE49EFE22C5F0F8A3E028F07C
:10262800C5F0F8E582158270021583E038F022A320
:10263800F8E0C5F025F0F0E582158270021583E018
:10264800C838F0E822BB010A89828A83E0F5F0A342
:10265800E022500687F009E71922BBFE07E3F5F0F0
:1026680009E3192289828A83E493F5F0740193229D
:10267800BB0110E58229F582E5833AF583E0F5F0A0
:10268800A3E0225009E92582F886F008E622BBFE7D
:102698000AE92582F8E2F5F008E222E5832AF583C3
:1026A800E993F5F0A3E99322BB010A89828A83F0B2
:1026B800E5F0A3F0225006F709A7F01922BBFE06A1
:1026C800F3E5F009F31922EF2BFFEE3AFEED39FDA1
:1026D800EC38FC22E88FF0A4CC8BF0A42CFCE98E1B
:1026E800F0A42CFC8AF0EDA42CFCEA8EF0A4CDA872
:1026F800F08BF0A42DCC3825F0FDE98FF0A42CCD7B
:1027080035F0FCEB8EF0A4FEA9F0EB8FF0A4CFC55A
:10271800F02ECD39FEE43CFCEAA42DCE35F0FDE4E4
:102728003CFC2275F008758200EF2FFFEE33FECDDA
:1027380033CDCC33CCC58233C5829BED9AEC99E579
:102748008298400CF582EE9BFEED9AFDEC99FC0F09
:10275800D5F0D6E4CEFBE4CDFAE4CCF9A88222B8D1
:1027680000C1B90059BA002DEC8BF084CFCECDFC56
:10277800E5F0CBF97818EF2FFFEE33FEED33FDECE3
:1027880033FCEB33FB10D703994004EB99FB0FD8CC
:10279800E5E4F9FA227818EF2FFFEE33FEED33FD6A
:1027A800EC33FCC933C910D7059BE99A4007EC9B69
:1027B800FCE99AF90FD8E0E4C9FAE4CCFB2275F0F9
:1027C80010EF2FFFEE33FEED33FDCC33CCC833C80A
:1027D80010D7079BEC9AE899400AED9BFDEC9AFC10
:1027E800E899F80FD5F0DAE4CDFBE4CCFAE4C8F9BF
:1027F80022EB9FF5F0EA9E42F0E99D42F0EC6480FE
:10280800C864809845F022EB9FF5F0EA9E42F0E913
:102818009D42F0E89C45F022E86010ECA2E713FC2A
:10282800ED13FDEE13FEEF13FFD8F022E0FCA3E05A
:10283800FDA3E0FEA3E0FF22E0F8A3E0F9A3E0FA9D
:10284800A3E0FB22ECF0A3EDF0A3EEF0A3EFF0225F
:10285800A8828583F0D083D08212286F12286F1245
:10286800286F12286FE473E493A3C583C5F0C5836A
:10287800C8C582C8F0A3C583C5F0C583C8C582C8CA
:1028880022A42582F582E5F03583F58322E0FBA3B7
:10289800E0FAA3E0F922F8E0FBA3A3E0F925F0F0C1
:1028A800E582158270021583E0FA38F022EBF0A376
:1028B800EAF0A3E9F022D083D082F8E4937012748E
:1028C8000193700DA3A393F8740193F5828883E4B0
:1028D800737402936860EFA3A3A380DFD083D082D0
:1028E800F8E4937012740193700DA3A393F8740124
:1028F80093F5828883E473740293B5F006740393A6
:102908006860E9A3A3A3A380D8E3F5F009E208B5BA
:10291800F06BDFF58067E3F5F009E608B5F05EDFF8
:10292800F5805A87F009E608B5F052DFF6804E8741
:10293800F009E208B5F046DFF6804288828C83878A
:10294800F009E0A3B5F036DFF6803288828C838701
:10295800F009E493A3B5F025DFF5802188828C8304
:10296800E3F5F009E0A3B5F014DFF5801088828C58
:1029780083E3F5F009E493A3B5F002DFF4022A40FB
:10298800808780E9809080D4803E8015806E807E2C
:10299800809D80B7808D80A380518074803C022AFE
:1029A8004C89828A83ECFAE493F5F0A3C8C582C8FF
:1029B800CCC583CCE493A3C8C582C8CCC583CCB5A9
:1029C800F076DFE3DEE1807089828A83E493F5F0B4
:1029D800A3E208B5F062DFF4805E89828A83E0F5BD
:1029E800F0A3E608B5F051DFF5804D89828A83E0CF
:1029F800F5F0A3E208B5F040DFF5803C89828A83D0
:102A0800E493F5F0A3E608B5F02EDFF4802A8002FF
:102A1800805789828A83ECFAE493F5F0A3C8C582CB
:102A2800C8CCC583CCE0A3C8C582C8CCC583CCB507
:102A3800F006DFE4DEE280007FFFB5F0020F2240FF
:102A4800027F012289828A83ECFAE0F5F0A3C8C5E7
:102A580082C8CCC583CCE0A3C8C582C8CCC583CC0A
:102A6800B5F0D5DFE5DEE380CF89828A83ECFAE032
:102A7800F5F0A3C8C582C8CCC583CCE493A3C8C568
:102A880082C8CCC583CCB5F0AFDFE4DEE280A9888C
:102A9800F0EF60010E4E60ABED2402B404005098D4
:102AA800F582EB2402B40400508E23234582239040
:102AB800298873EF4E6012EF60010EEDBB010B89A0
:102AC800828A83F0A3DFFCDEFA2289F05007F70937
:102AD800DFFCA9F022BBFEFCF309DFFCA9F022F819
:102AE800BB010DE58229F582E5833AF583E8F022FA
:102AF8005006E92582C8F622BBFE05E92582C8F200
:102B0800227BFF7A72794178867C957D017E007FF1
:102B18003E1225067BFF7A72797F78C57C957D0108
:102B28007E007F241225067B017A95798690975638
:102B3800E4F0A3743EF07F207EAB1240A1E49095B0
:102B4800C4F09095C4E0C39410748094804003024C
:102B58002DAAE0FF7E007401A807088005C333CEC4
:102B680033CED8F9FF90958CE0FCA3E0FDEE5CFE37
:102B7800EF5D4E7003022D8E9095C4E0FF7E0074C9
:102B880001A807088005C333CE33CED8F9FF909546
:102B980090E0FCA3E0FDEE5CFEEF5D4E7003022DBD
:102BA8003B9095C4E0FF1313543F2407FFE4339090
:102BB80095EBF0A3EFF09095EBE0FEA3E025E0FFA6
:102BC800EE33FE74862FF58274953EF583E0FEA3FE
:102BD800E0FF9095C4E0540325E025E0FDEFA8054B
:102BE800088005CEC313CE13D8F9540FFF9095E98A
:102BF800E4F0A3EFF09095E9E0FEA3E08EF0122850
:102C0800E42C2D00002C4500012C5D00022C7500E1
:102C1800042C8C00052CA300062CBA00082CD1002B
:102C28000900002CE89095C4E025E024C5F582E46D
:102C38003495F583E4F0A37405F0022CFD9095C457
:102C4800E025E024C5F582E43495F583E4F0A37427
:102C580006F0022CFD9095C4E025E024C5F582E439
:102C68003495F583E4F0A37407F0022CFD9095C425
:102C7800E025E024C5F582E43495F583E4F0A374F7
:102C880008F080719095C4E025E024C5F582E4340D
:102C980095F583E4F0A37409F0805A9095C4E02573
:102CA800E024C5F582E43495F583E4F0A3740AF0D2
:102CB80080439095C4E025E024C5F582E43495F579
:102CC80083E4F0A37403F0802C9095C4E025E024FD
:102CD800C5F582E43495F583E4F0A37404F0801517
:102CE8009095C4E025E024C5F582E43495F583E4A5
:102CF800F0A37405F09095C4E0FF7E007401A80766
:102D0800088005C333CE33CED8F9FF909588E0FC10
:102D1800A3E0FDEE5CFEEF5D4E607E9095C4E0257D
:102D2800E024C5F582E43495F583E475F0081226AD
:102D38002180669095C4E0FF7E007401A807088092
:102D480005C333CE33CED8F9FF909588E0FCA3E0D5
:102D5800FDEE5CFEEF5D4E60179095C4E025E02423
:102D6800C5F582E43495F583E4F0A37402F0802974
:102D78009095C4E025E024C5F582E43495F583E414
:102D8800F0A304F080139095C4E025E024C5F582F3
:102D9800E43495F583E4F0A3F09095C4E004F002E0
:102DA8002B4A9095C47410F09095C4E0C3941274A3
:102DB800809480400302301BE024F0FF7E00740101
:102DC800A807088005C333CE33CED8F9FF90958E77
:102DD800E0FCA3E0FDEE5CFEEF5D4E7003022FFF0A
:102DE8009095C4E024F0FF7E007401A807088005D0
:102DF800C333CE33CED8F9FF909592E0FCA3E0FD23
:102E0800EE5CFEEF5D4E7003022FAA9095C4E0FFC2
:102E18001313543F2407FFE4339095EBF0A3EFF02E
:102E28009095EBE0FEA3E025E0FFEE33FE74862FDD
:102E3800F58274953EF583E0FEA3E0FF9095C4E02B
:102E4800540325E025E0FDEFA805088005CEC3134F
:102E5800CE13D8F9540FFF9095E9E4F0A3EFF09062
:102E680095E9E0FEA3E08EF01228E42E9700002EEC
:102E7800AF00012EC700022EDF00042EF600052F3A
:102E88000D00062F2400082F3B000900002F529048
:102E980095C4E025E024C5F582E43495F583E4F093
:102EA800A37405F0022F679095C4E025E024C5F5CA
:102EB80082E43495F583E4F0A37406F0022F67905A
:102EC80095C4E025E024C5F582E43495F583E4F063
:102ED800A37407F0022F679095C4E025E024C5F598
:102EE80082E43495F583E4F0A37408F0807190953A
:102EF800C4E025E024C5F582E43495F583E4F0A325
:102F08007409F0805A9095C4E025E024C5F582E460
:102F18003495F583E4F0A3740AF080439095C4E0F7
:102F280025E024C5F582E43495F583E4F0A3740321
:102F3800F0802C9095C4E025E024C5F582E4349512
:102F4800F583E4F0A37404F080159095C4E025E0BF
:102F580024C5F582E43495F583E4F0A37405F09074
:102F680095C4E024F0FF7E007401A807088005C31B
:102F780033CE33CED8F9FF90958AE0FCA3E0FDEE7E
:102F88005CFEEF5D4E70030230129095C4E025E0C0
:102F980024C5F582E43495F583E475F008122621FA
:102FA80080689095C4E024F0FF7E007401A80708AB
:102FB8008005C333CE33CED8F9FF90958AE0FCA3C1
:102FC800E0FDEE5CFEEF5D4E60179095C4E025E0F5
:102FD80024C5F582E43495F583E4F0A37402F08007
:102FE800299095C4E025E024C5F582E43495F5835D
:102FF800E4F0A304F080139095C4E025E024C5F51F
:1030080082E43495F583E4F0A3F09095C4E004F0ED
:10301800022DB07B017A9579C5909768E4F0A37486
:1030280024F07FA07EAB12430E22E51330E0167B1E
:10303800017A9B795F909756E4F0A37402F07F14AD
:103048007E001240A1E51320E2030234DD909B5F6D
:10305800E0FEA3E04E7026909B58E0C3940674806F
:1030680094805005E004F08014909B58E06406704A
:103078000C7F39FE126B80909B58E004F0909B5FA8
:10308800E0FEA3E0640B4E7003122B09909B5FE0F7
:10309800FEA3E064294E60030231757B017A9579BD
:1030A8004E909756F0A3741CF07FB07EC91240A1D1
:1030B800E490954BF090954BE0C39407748094800E
:1030C800400302315FE025E025E0244EF582E43438
:1030D80095F583E0FEA3E0C4F8540FC868FDEEC47C
:1030E80054F048FC90954BE025E025E02450F5820B
:1030F800E43495F583E0FEA3E0EEC4540F2DFFE41D
:103108003C90954CF0A3EFF090954CE0FEA3E0FFC7
:103118007C007D1812259690954BE025E0246AF5F1
:1031280082E43495F583EEF0A3EFF090954CE0FE41
:10313800A3E0FF7C007D1812259690954BE025E0D2
:103148002478F582E43495F583ECF0A3EDF09095BE
:103158004BE004F00230BD7B017A95796A9097685C
:10316800E4F0A3741CF07F207EC912430E909B5F8D
:10317800E0FEA3E064264E60030232567B017A9596
:10318800795B909756F0A37406F07FA07EC6124034
:10319800A190955BE0FEA3E0FFEEC4F854F0C86888
:1031A800FEEFC4540F4890954BEEF0A3E4F09095D1
:1031B8004BE0FCA3E0FD90955BE0FEA3E07807CE32
:1031C800C313CE13D8F9541FFFECFEED4FFF9095B3
:1031D8004BEEF0A3EFF090955BE0A3E0547F909561
:1031E8004DF0A3E4F090954DE0FCA3E0FD90955FD1
:1031F800E0FEA3E0EEFFECFEED4FFF90954DEEF004
:10320800A3EFF090955FE0A3E090954FF0A3E4F072
:1032180090955DE0FEA3E0FF909551EEF0A3EFF0EE
:10322800A37402F0A314F0A37407F0A3E4F0A3744A
:1032380018F0A3E4F0A3F0A3F07B017A95794B9002
:103248009768F0A37410F07F207EC612430E909BFF
:103258005FE0FEA3E0642F4E60030233377B017A00
:1032680095794B909756F0A37402F07F107ECF1299
:1032780040A17B017A95794F909756E4F0A37402A8
:10328800F07F227ECF1240A190954BE0FEA3E0FF95
:10329800909B59E0FCA3E06F7002EC6E6060909523
:1032A8004BE0A3E0909B59EEF0A3EFF090954FE030
:1032B800FEA3E0543FFF90954FEEF0A3EFF09095FA
:1032C8004FE0FCA3E0FD90954BE0A3E07E005403A3
:1032D8007806C333CE33CED8F9FFEC4EFEED4FFF60
:1032E80090954FEEF0A3EFF07B017A95794F909788
:1032F80068E4F0A37402F07F227ECF12430E90950B
:103308004FE0FEA3E07806CEC313CE13D8F95403DA
:10331800FF909551E4F0A3EFF07B017A95795190F5
:103328009768E4F0A37402F07F117ECF12430E90E9
:103338009B5FE0FEA3E064234E7056909B5BE0C366
:10334800940574809480504290954BE4F0A304F067
:10335800FB7A95794B909768E4F0A37402F07F2785
:103368007ED912430E90954BE4F0A3745AF07B017A
:103378007A95794B909768E4F0A37402F07F877E82
:10338800D912430E909B5BE004F0E4909B5CF080C4
:1033980072909B5CE0C39405748094805060E490C4
:1033A800954BF0A3F07B017A95794B909756F0A353
:1033B8007402F07F297EC71240A190954BE0FEA3CE
:1033C800E04E70347B017A95794B909768F0A3743E
:1033D80002F07F277ED912430E90954BE4F0A37438
:1033E8005AF07B017A95794B909768E4F0A37402C0
:1033F800F07F877ED912430E909B5CE004F0E49046
:103408009B5BF07B017A95794B909756E4F0A37417
:1034180002F07F167E001240A190954BE0FEA3E0DB
:103428004E6025E490954BF0A3F07B017A95794B9B
:10343800909768F0A37402F07F167E0012430EE4A2
:10344800909B5DF0A3F08046909B5DE0FEA3E0C3F7
:103458009458EE9402500C909B5DE475F00112268E
:1034680021802B909B5DE0FEA3E0B45821EEB402CE
:103478001D909B5DE475F001122621909B5FE0FE94
:10348800A3E064394E60077F397E00126B807B01B0
:103498007A95794B909756E4F0A37402F07F007EFA
:1034A800E01240A190954BE0FEA3E0EE30E01490CE
:1034B8009B5FE0FEA3E064414E601A7F417E0012EC
:1034C8006B8022909B5FE0FEA3E064414E70067F14
:1034D80039FE126B80229095501228B5909553ECC6
:1034E800F0A3EDF0909553E0FEA3E0C39405EE94AD
:1034F800005003023833E4A3F0A3F090955012284B
:1035080095909555E0FEA3E0F5828E8312254564DB
:1035180002600302380D909550122895909555E059
:10352800A3E029F9EA3EFA9000011225451228BEC7
:103538003545033694063756100000380D909550DF
:10354800122895909555E0FEA3E029F9EA3EFA90F5
:103558000002122545FF909559E4F0A3EFF09095ED
:1035680055E0A3E0FF909559E0FCA3E02FFFEC3E67
:10357800FEEF2405FFE43EFE909553E0FCA3E0FD3A
:10358800D3EF9DEE9C4011909553E0FEA3E0FFA37E
:10359800EEF0A3EFF002380D909550122895909513
:1035A80055E0FEA3E029F9EA3EFA909559E0FEA31A
:1035B800E02403FDE43EFC126458909557EEF0A316
:1035C800EFF0909550122895909555E0FEA3E029CC
:1035D800F9EA3EFA909559E0FEA3E029F9EA3EFAA5
:1035E800900003122545FD909557E0FEA3E0EE6D8F
:1035F8007001E4600302380D90955012289590955B
:1036080055E0FEA3E029F9EA3EFA909559E0FEA3B9
:10361800E029F9EA3EFA900004122545FF909557F3
:10362800E0A3E06F7001E4600302380D908FAAE018
:10363800FEA3E0FF909550122895909555E0FCA3C5
:10364800E029F9EA3CFAE92403F9E43AFA909559B1
:10365800E0FCA3E0FD909768ECF0A3EDF012430EB8
:103668007E007F0E7D007B017A8F79A2122ABB90A3
:103678009559E0FEA3E02405FFE43E909555F0A39C
:10368800EFF0908E69E04402F002380D909555E015
:10369800FEA3E02408FFE43EFE909553E0FCA3E07F
:1036A800FDD3EF9DEE9C4011909553E0FEA3E0FF03
:1036B800A3EEF0A3EFF002380D90955012289590E4
:1036C8009555E0FEA3E029F9EA3EFA7D067C001252
:1036D8006458909557EEF0A3EFF090955012289506
:1036E800909555E0FEA3E029F9EA3EFA900006120B
:1036F8002545FD909557E0FEA3E0EE6D7001E4606E
:103708000302380D909550122895909555E0FEA328
:10371800E029F9EA3EFA900007122545FF909557EF
:10372800E0A3E06F7001E4600302380D90955575D1
:10373800F0081226217E007F0E7D007B017A8F79AA
:10374800A2122ABB908E69E04402F002380D9095CF
:1037580055E0FEA3E02408FFE43EFE909553E0FC0C
:10376800A3E0FDD3EF9DEE9C4011909553E0FEA39E
:10377800E0FFA3EEF0A3EFF002380D909550122869
:1037880095909555E0FEA3E029F9EA3EFA7D067C7E
:1037980000126458909557EEF0A3EFF090955012F0
:1037A8002895909555E0FEA3E029F9EA3EFA9000A5
:1037B80006122545FD909557E0FEA3E0EE6D7001D9
:1037C800E47042909550122895909555E0FEA3E03C
:1037D80029F9EA3EFA900007122545FF909557E02F
:1037E800A3E0B50720E490955575F0081226217ED0
:1037F800007F0E7D007B017A8F79A2122ABB908E02
:1038080069E04402F0909555E475F0011226219084
:103818009553E0FEA3E024FBFFEE34FFFEA3E0FC9B
:10382800A3E0C39FEC9E50030235032290955012EB
:1038380028B590955012289512264DFF909553E57E
:10384800F0F0A3EFF0909553E0FEA3E0C3945DEE93
:1038580094004003023B54909553E0A3E0908FB04E
:1038680075F00E122889EE75F00EA42583F583E015
:10387800645A6003023B47909553E0A3E0908FB3EE
:1038880075F00E122889EE75F00EA42583F583E0F5
:103898007003023B47909553E0A3E0908FB575F015
:1038A8000E122889EE75F00EA42583F583E07003C7
:1038B800023B54909553E0A3E0908FB575F00E123B
:1038C8002889EE75F00EA42583F583E06401703431
:1038D800909553E0A3E0908FB675F00E122889EE0C
:1038E80075F00EA42583F583E0FEA3E0FF909B5FAF
:1038F800E0FCA3E06F7002EC6E6003023B47023B02
:1039080054023B47909553E0FEA3E0908FB575F0C5
:103918000E122889EE75F00EA42583F583E0640263
:103928006003023A13909553E0A3E0908FB675F0C8
:103938000E122889EE75F00EA42583F583E0FEA308
:10394800E0FF7B017A957955909756E4F0A37402CD
:10395800F01240A1909555E0A3E0645A6003023B41
:1039680047909553E0FEA3E0C3945CEE9400506149
:10397800909553E0A3E0908FC375F00E122889EE5E
:1039880075F00EA42583F583E06402704490955386
:10399800E0A3E0908FC475F00E122889EE75F00E42
:1039A800A42583F583E0FEA3E0FF909553E0FCA3F4
:1039B800E0908FB675F00E122889EC75F00EA425EC
:1039C80083F583E0FCA3E06F7002EC6E7003023BAA
:1039D80054E4909555F0A3F0909553E0FEA3E09041
:1039E8008FB675F00E122889EE75F00EA42583F5B2
:1039F80083E0FEA3E0FF7B017A957955909768E410
:103A0800F0A37402F012430E023B54909553E0FE6B
:103A1800A3E0908FB575F00E122889EE75F00EA40C
:103A28002583F583E064036003023B47909553E0E8
:103A3800A3E0908FBC75F00E122889EE75F00EA4E5
:103A48002583F583E0FEA3E0FF909B5FE0FCA3E005
:103A5800FDEF6D7002EE6C6003023B47909553E0FA
:103A6800FEA3E0908FB675F00E122889EE75F00E61
:103A7800A42583F583E0FEA3E0FF7B017A957955C1
:103A8800909756E4F0A37402F01240A1909555E087
:103A9800A3E0645A6003023B47909553E0FEA3E01D
:103AA800C3945CEE9400505E909553E0A3E0908F31
:103AB800C375F00E122889EE75F00EA42583F583E0
:103AC800E064037041909553E0A3E0908FC475F0D3
:103AD8000E122889EE75F00EA42583F583E0FEA367
:103AE800E0FF909553E0FCA3E0908FB675F00E12BE
:103AF8002889EC75F00EA42583F583E0FCA3E06F1C
:103B08007002EC6E6046E4909555F0A3F0909553E2
:103B1800E0FEA3E0908FB675F00E122889EE75F0DE
:103B28000EA42583F583E0FEA3E0FF7B017A957957
:103B380055909768E4F0A37402F012430E800D903C
:103B48009553E475F00112262102384D909553E003
:103B5800FEA3E0FF909550122895EE8FF01226B044
:103B68002290955B1228B590955EECF0A3EDF07B62
:103B7800FF7A7279DD78607C957D017E007F18126E
:103B8800250690955B12289590000A122678246CD9
:103B9800FFE5F0340790958CF0A3EFF090958CE05A
:103BA800FEA3E0FF7C007D641225EBED4C601390D2
:103BB800958CE0FEA3E0FF7C007D041225EBED4C24
:103BC800601390958CE0FEA3E0FF7C017D901225A8
:103BD800EBED4C70067E007F0180047E007F009034
:103BE8009588EEF0A3EFF090955B12289590000A67
:103BF80012267824BAFFE5F034FFFE3395E0FDFC89
:103C080090957812284C90955B1228959000081290
:103C18002678C39401E5F06480948050409095889C
:103C2800E0FEA3E064014E7034909578122834EFDA
:103C38002402FFE43EFEE43DFDE43CFCE47B04FAA0
:103C4800F9F8126BC7EF24FFFFEE34FFFEED34FFE7
:103C5800FDEC34FFFC90958012284C8022909578DA
:103C6800122834EF2402FFE43EFEE43DFDE43CFC70
:103C7800E47B04FAF9F8126BC790958012284C90EF
:103C8800957C12285800000000E490958AF0A3F073
:103C980090955B122895900008122678FF90958AD7
:103CA800E0FCA3E0C39FE5F06480F8EC64809850E2
:103CB8004890957C122834C006C00790958AE0FE8B
:103CC800A3E025E0FFEE33FE74602FF58274953E85
:103CD800F583E0FEA3E0FFFBAA06EA3395E0F9F8D6
:103CE800D007D0061226CF90957C12284C90958A42
:103CF800E475F001122621809790957C122834C033
:103D080006C00790955B1228959000061226782425
:103D1800FFFFE5F034FFFEAB07FA3395E0F9F8D082
:103D280007D0061226CF90957C12284C90957C12CD
:103D38002834C004C005C006C007E47F6D7E01FDBD
:103D4800FC9095781228401226DC90958012284025
:103D58001226CFA804A905AA06AB07D007D006D01B
:103D680005D0041226CF90957C12284C90955B12B2
:103D78002895900004122678FF90955EE0FCA3E059
:103D8800FDC3EF9DFFE5F09CFE3395E0FDFC9095AB
:103D98008412284CE47F107E0EFDFC909584122836
:103DA800401226DCC004C005C006C0077F807E51D3
:103DB8007D017C0090957C1228401226DCA804A97D
:103DC80005AA06AB07D007D006D005D0041226CF27
:103DD800C004C005C006C00790955B1228959000E6
:103DE80002122678FFAEF07C007D3C122584AB07DA
:103DF800AA06EA3395E0F9F8D007D006D005D00432
:103E08001226CFC006C00790955B12289512264D42
:103E1800FFAEF0FBAA06EA3395E0F9F8D007D00622
:103E28001226CF22E51330E10D909B61E475F00175
:103E38001226211259D9909B61E0FEA3E0C394B8E1
:103E4800EE940B50030240A0E4909B61F0A3F09025
:103E58009B65E0FEA3E02400FFEE341090954BF044
:103E6800A3EFF07B017A95794D909756E4F0A3740F
:103E780002F07FA37ED91240A190954DE475F0C859
:103E880012262190954BE0FEA3E0FF7B017A9579FD
:103E98004D909768E4F0A37402F012430E909B656E
:103EA800E0FEA3E02400FFEE341890954BF0A3EF5A
:103EB800F07B017A95794D909756E4F0A37402F05F
:103EC8007FA47ED91240A190954BE0FEA3E0FF7B32
:103ED800017A95794D909768E4F0A37402F0124343
:103EE8000E909B65E0FEA3E0FF909551EEF0A3EFE6
:103EF800F0909B65E475F001122621909B65E0FE29
:103F0800A3E0C394FEEE94074007E4909B65F0A3FA
:103F1800F07B017A9B7965909768E4F0A37402F0CE
:103F28007F007E0312430E7B017A9B796590976828
:103F3800E4F0A37402F0FF7E0312430E90954F74D1
:103F480007F0A374FEF07B017A95794F909768E4A7
:103F5800F0A37402F07F087E5012430E7B017A951D
:103F6800794F909768E4F0A37402F07F097E5012AD
:103F7800430E90954F7402F0A3748AF07B017A95F2
:103F8800794F909768E4F0A37402F07F117E501285
:103F9800430E909B2CE075F03CA4FFA3E07C002F1F
:103FA800FFEC35F0909B63F0A3EFF0909B63E0FE8D
:103FB800A3E0FF125213909B65E0A3E030E00302F8
:103FC80040A090955174FFF5F0122621909551E08C
:103FD800FEA3E02400FFEE3410FE7B017A95794BB6
:103FE800909756E4F0A37404F01240A190954F7492
:103FF800A5F0A3745AF07B017A95794B909768E401
:10400800F0A37406F07F007E5012430E909551E0A5
:10401800FEA3E0FFE4FCFD90975412284C909758BB
:10402800E4F0A37404F07D007C507FA51263D39064
:104038009551E0FEA3E02400FFEE3418FE7B017AE0
:1040480095794B909756E4F0A37404F01240A19030
:10405800954F74A5F0A3745AF07B017A95794B902B
:104068009768E4F0A37406F07F007E5012430E9028
:104078009551E0FEA3E02400FFEE3408FEE4FCFDC9
:1040880090975412284C909758E4F0A37404F07D4C
:10409800007C507FA51263D322909751EEF0A3EFD6
:1040A800F0A31228B57B007A007900C003C002C0D3
:1040B80001909753122895D082D083D0E06B700876
:1040C800E965827003EA6583700302430D90975691
:1040D800E0FEA3E04E700302430D909756E0A3E084
:1040E800FFEEC313FEEF13FF909751E0FCA3E02F00
:1040F800FFEE3CFED3EF94FEEE94FF400302430D27
:10410800C2AF909751E0A3E05401909758F0909770
:1041180051E0FEA3E0FFEEC313FEEF13FF909751AB
:10412800EEF0A3EFF0909751E0FEA3E07810CEC335
:1041380013CE13D8F9F5F1909751E0FEA3E0EEF510
:10414800F2909751E0A3E0F5F3E4F5F875F401D2A5
:10415800FF30FCFDD2FD909758E064017072909793
:1041680056E0FEA3E064014E700AC2FBC2FAD2F91F
:10417800C2F88008C2FBC2FAD2F9D2F8D2FE20FEF9
:10418800FD909756E0FEA3E064014E701A90975395
:1041980075F00112289EE5FC12257290975674FF5F
:1041A800F5F01226218029909753E475F001122822
:1041B8009EE5FC122572909753E475F00112289E33
:1041C800E5FD12257290975674FF75F0FE122621B0
:1041D800909756E0FEA3E04E70030243089097566E
:1041E800E0A3E0C39404EE940040030242B1909728
:1041F80056E0A3E08EF01228E442250001421B009D
:1042080002421100030000422DD2FBD2FAD2F9C2B9
:10421800F88012D2FBD2FAC2F9C2F88008D2FBC2E7
:10422800FAC2F9C2F8D2FE20FEFD909756E0FEA32E
:10423800E08EF01228E4429E0001427E0002424EC7
:10424800000300004308909753E475F00112289E7C
:10425800E5FA122572909753E475F00112289EE54D
:10426800FB122572909753E475F00112289EE5FC25
:10427800122572024308909753E475F00112289EA4
:10428800E5FA122572909753E475F00112289EE51D
:10429800FB122572806A909753E475F00112289EEC
:1042A800E5FA12257280598057D2FBD2FAD2F9D298
:1042B800F8D2FE20FEFD909753E475F00112289E77
:1042C800E5FA122572909753E475F00112289EE5DD
:1042D800FB122572909753E475F00112289EE5FCB5
:1042E800122572909753E475F00112289EE5FD128D
:1042F800257290975674FF75F0FC1226210241D85A
:10430800E4F5F8D2AF22909763EEF0A3EFF0A31292
:1043180028B57B007A007900C003C002C0019097DD
:1043280065122895D082D083D0E06B7008E9658249
:104338007003EA65837003024579909768E0FEA3ED
:10434800E04E7003024579909768E0A3E0FFEEC362
:1043580013FEEF13FF909763E0FCA3E02FFFEE3C02
:10436800FED3EF94FEEE94FF4003024579C2AF906E
:104378009763E0A3E0540190976AF0909763E0FE9A
:10438800A3E0FFEEC313FEEF13FF909763EEF0A3D5
:10439800EFF0909763E0FEA3E07810CEC313CE133E
:1043A800D8F9F5F1909763E0FEA3E0EEF5F2909767
:1043B80063E0A3E0F5F3E4F5F875F401D2FF30FC0F
:1043C800FDC2FD90976AE064017072909768E0FE04
:1043D800A3E064014E700AC2FBC2FAD2F9C2F880A7
:1043E80008C2FBC2FAD2F9D2F8909768E0FEA3E0BF
:1043F80064014E701A90976575F00112289E122577
:104408002CF5FC90976874FFF5F01226218029900E
:104418009765E475F00112289E12252CF5FC9097FB
:1044280065E475F00112289E12252CF5FD90976819
:1044380074FF75F0FE122621D2FE20FEFD909768CB
:10444800E0FEA3E04E7003024574909768E0A3E095
:10445800C39404EE9400400302451D909768E0A3BE
:10446800E08EF01228E44492000144880002447E61
:1044780000030000449AD2FBD2FAD2F9C2F88012A3
:10448800D2FBD2FAC2F9C2F88008D2FBC2FAC2F94A
:10449800C2F8909768E0FEA3E08EF01228E4450584
:1044A800000144E5000244B600030000451490975B
:1044B80065E475F00112289E12252CF5FA9097658F
:1044C800E475F00112289E12252CF5FB909765E4FF
:1044D80075F00112289E12252CF5FC802F90976507
:1044E800E475F00112289E12252CF5FA909765E4E0
:1044F80075F00112289E12252CF5FB800F90976508
:10450800E475F00112289E12252CF5FAD2FE30FE31
:104518005B80FB8057D2FBD2FAD2F9D2F89097652C
:10452800E475F00112289E12252CF5FA909765E49F
:1045380075F00112289E12252CF5FB909765E475FD
:10454800F00112289E12252CF5FC909765E475F071
:104558000112289E12252CF5FDD2FE20FEFD909713
:104568006874FF75F0FC122621024445E4F5F8D280
:10457800AF227BFF7A7179BD784B7C957D017E00F7
:104588007F201225067B017A95794B90956D12282C
:10459800B59095701228B5E490956BF0A3F09095BE
:1045A8006BE0FEA3E0C3EE940240030246439095FD
:1045B8006BE0A3E07803C333CE33CED8F92400FFF1
:1045C800EE3420FEE4FCFD90975412284C90975846
:1045D800E4F0A37408F07D007C307F5A1263D37B2B
:1045E800017A95794B909756E4F0A37410F07F0008
:1045F8007E301240A190956D12289512264D645A6E
:104608007004E5F064A5602690957012289512262E
:104618004DB4A527E5F0B45A2290957012289578E4
:104628009B7C9A7D017E007F08122506800D90955F
:104638006BE475F0011226210245A6E490956BF013
:10464800A3F090956BE0FEA3E0C3940AEE940040BB
:10465800030247D57BFF7A7179DD78737C957D01FC
:104668007E007F201225067B017A9A794378737C35
:10467800957D017E007F1A12250690956BE0FEA3BA
:10468800E0FF7C007D1B122584EF2464FFE43E904C
:104698009577F0A3EFF090957C7401F090956BE01E
:1046A800FEA3E0909ABE75F006122889EE75F00612
:1046B800A42583F583E0FEA3E0FF7B017A95797357
:1046C800909768E4F0A37420F012430E7B017A9A65
:1046D800795D78737C957D017E007F1A122506909E
:1046E800956BE0FEA3E0FF7C007D1B122584EF2480
:1046F80064FFE43E909577F0A3EFF090957C740109
:10470800F090956BE0FEA3E0909AC075F006122831
:1047180089EE75F006A42583F583E0FEA3E0FF7B10
:10472800017A957973909768E4F0A37420F01243A6
:104738000E7B017A9A79FA78737C957D017E007FE9
:104748001A12250690956BE0FEA3E0FF7C007D1B06
:10475800122584EF2464FFE43E909577F0A3EFF0F0
:1047680090956BE0FEA3E0FF122584EF2464FFE43C
:104778003E90957DF0A3EFF090956BE0FEA3E0FFEF
:10478800122584EF247DFFE43E909581F0A3EFF09D
:1047980090956BE0FEA3E0909AC275F00612288906
:1047A800EE75F006A42583F583E0FEA3E0FF7B0108
:1047B8007A957973909768E4F0A37420F012430E09
:1047C80090956BE475F00112262102464A22126E7A
:1047D800BF7F64126A977F10126A97126F3B126E3E
:1047E800BF7F65126A979095547406F0909554E0CF
:1047F800D3940074809480401D126A42909554E0CE
:10480800244CF582E43495F583EFF0126EDA909536
:1048180054E014F080D6126A4290954CEFF0126E74
:10482800F3126F3B7B017A95794C78377C9B7D013D
:104838007E007F07122506E4909554F0909554E089
:10484800C3940374809480504BE0244CF582E43484
:1048580095F583E0FFC4540F909555F0909554E07A
:10486800244CF582E43495F583E0540F909556F086
:10487800909555E075F00AA4FFA3E02FFF9095549A
:10488800E0244CF582E43495F583EFF0909554E0FC
:1048980004F080A89095547404F0909554E0C39463
:1048A8000774809480504BE0244CF582E43495F5ED
:1048B80083E0FFC4540F909555F0909554E0244C34
:1048C800F582E43495F583E0540F909556F0909571
:1048D80055E075F00AA4FFA3E02FFF909554E0245B
:1048E8004CF582E43495F583EFF0909554E004F0AC
:1048F80080A890954CE0FFA3E0FDA3E0FB1254DBF9
:1049080090954FEFF07B017A95794C909768E4F099
:10491800A37408F07F107E0012430E7B017A95790C
:104928004C78287C9B7D017E007F071225067B0141
:104938007A9B792C909768E4F0A37402F07F287E24
:10494800CD12430E909B26E0FEA3E0C39448EE945C
:1049580003500A909B26E475F00112262190955188
:10496800E06013A3E0600F909B26E0FEA3E0C394F1
:1049780047EE94035006200003024A2590955712EB
:10498800285800000000909552E0FF909B14E4F036
:10499800A3EFF0909551E0FF909B16E4F0A3EFF0A1
:1049A800909550E0FF909B18E4F0A3EFF090954E9F
:1049B800E0FF909B1AE4F0A3EFF090954DE024FF00
:1049C800FFE434FF909B1CF0A3EFF090954CE0249B
:1049D80064FFE433909B1EF0A3EFF090954CE4F055
:1049E800A3745AF0A3E4F0A37412F07B017A9B79C4
:1049F800147D087C00123B6990955012284C7B016D
:104A08007A95794C909768E4F0A37408F07F157E46
:104A18005012430EE4909B26F0A3F0C20022E490CB
:104A2800954BF0A3F0E51320E003024C727B017A6A
:104A380095794B909756E4F0A37402F07F147E505A
:104A48001240A190954BE0FEA3E04E7003024C7219
:104A580090954BE0A3E08EF01228E44BEDA4004BB8
:104A6800F2A4014BF7A4A04BF7A4A14BF7A4A24BC7
:104A7800F7A4A34BF7A4A44BF7A4A54BF7A4A64B04
:104A8800F7A4A74BF7A4A84BF7A4A94BF7A4AA4BE4
:104A9800F7A4AB4BF7A4AC4BF7A4AD4BF7A4AE4BC4
:104AA800F7A4AF4BF7A4B04BF7A4B14BF7A4B24BA4
:104AB800F7A4B34BF7A4B44BF7A4B54BF7A4B64B84
:104AC800F7A4B74BF7A4B84BF7A4B94BF7A4BA4B64
:104AD800F7A4BB4BF7A4BC4BF7A4BD4BF7A4BE4B44
:104AE800F7A4BF4BF7A4C04BF7A4C14BF7A4C24B24
:104AF800F7A4C34BF7A4C44BF7A4C54BF7A4C64B04
:104B0800F7A4C74BF7A4C84BF7A4C94BF7A4CA4BE3
:104B1800F7A4CB4BF7A4CC4BF7A4CD4BF7A4CE4BC3
:104B2800F7A4CF4BF7A4D04BF7A4D14BF7A4D24BA3
:104B3800F7A4D34BF7A4D44BF7A4D54BF7A4D64B83
:104B4800F7A4D74BF7A4D84BF7A4D94BF7A4DA4B63
:104B5800F7A4DB4BF7A4DC4BF7A4DD4BF7A4DE4B43
:104B6800F7A4DF4BF7A4E04BF7A4E14BF7A4E24B23
:104B7800F7A4E34BF7A4E44BF7A4E54C04A4F04CEA
:104B880004A4F14C04A4F24C04A4F34C11A6004C68
:104B980056A6014C16AC004C1BAC014C20B7004C7F
:104BA80041B83C4C41B8694C25C2004C2AC3004C62
:104BB8002FC7014C34C9014C34C9064C34C90C4CBC
:104BC80034C90E4C34C9114C4ED6004BE3D9004BB6
:104BD800E8D9264C53E00000004C56126760806EFE
:104BE800126EA280691266218064120016805F909E
:104BF800954BE0FEA3E0FF1268DD805290954BE0F4
:104C0800FEA3E0FF12693780451261C8804012692F
:104C1800EA803B126D3F8036126D758031126E103E
:104C2800802C1265B48027126CC7802290954BE0C7
:104C3800FEA3E0FF126AEA801590954BE0FEA3E020
:104C4800FF126B358008126C0B8003126C4AE490DB
:104C5800954BF0A3F07B017A95794B909768F0A378
:104C68007402F07F147E5012430E227BFF7A6F7914
:104C7800BD784B7C957D017E027F001225069097BA
:104C880054122858000000009097587410F0A3E4BC
:104C9800F0FD7C107F5A1263D390974B7410F0A3E9
:104CA800E4F090974BE0FEA3E0C394FEEE94175017
:104CB8006990974BE0A3E0FF7B017A95794B909739
:104CC800567402F0A3E4F01240A1E490974DF0A3CB
:104CD800F090974DE0FEA3E0C3EE9401502F90971B
:104CE8004DE0A3E025E0FFEE33FE744B2FF5827410
:104CF800953EF583E0FEA3E0645A7003EE64A56078
:104D08001990974DE475F00112262180C490974BB5
:104D1800740175F000122621808890974DE0FEA35B
:104D2800E0FF90974BE0FCA3E02FFFEC3E90974FFD
:104D3800F0A3EFF090974FE0FEA3E0C394FEEE944B
:104D480017400990974F7410F0A3E4F090974F74B0
:104D5800F075F00012262190974FE0FEA3E0FF9037
:104D68009B65EEF0A3EFF07B017A97794F909768F7
:104D7800E4F0A37402F07F007E0312430E7B017AF5
:104D880097794F909768E4F0A37402F0FF7E0312BE
:104D9800430E7B017A97794F909768E4F0A37402E9
:104DA800F07F087E5012430E7B017A97794F9097D7
:104DB80068E4F0A37402F07F097E5012430E9095C8
:104DC8004B7407F0A374FEF07B017A95794B9097AA
:104DD80068E4F0A37402F07F017E0312430E7B01A6
:104DE8007A95794B909768E4F0A37402F004FFFE7B
:104DF80012430E90954BE4F0A37406F0A3E4F0A3DD
:104E080004F0A3E4F0A3742EF0A37401F0A3744C8F
:104E1800F0A37401F0A37471F0A37401F0A3747784
:104E2800F0A37401F0A3748AF0A37402F0A3748A47
:104E3800F0A37401F0A37471F0A374FFF0A3E4F07D
:104E48007B017A95794B909768F0A37414F07F0AE8
:104E58007E5012430E909B2CE075F03CA4FFA3E01B
:104E68007C002FFFEC35F0909B63F0A3EFF0909B54
:104E780063E0FEA3E0FF125213227B007A00790060
:104E880090954B1228B5908FA1E064016003024F02
:104E980019908F9CE0FF9094C6E0D39F4011E0905A
:104EA8008F9CF0909547122858000000008062906F
:104EB8008F9CE0FF9094C6E06F7056FFFEFDFC905B
:104EC8009547122840D312280F403890954712284A
:104ED80040C3E50E9BFFE50D9AFEE50C99FDE50B39
:104EE80098FCE47B14FAF9F8C312280F50237B01CD
:104EF8007A9479C79094C6E0FD7C001234DE126E75
:104F08003D800EAF0EAE0DAD0CAC0B909547122840
:104F18004C908E69E030E046E020E129908F9D12A8
:104F28002840C3E50E9BFBE50D9AFAE50C99F9E5D7
:104F38000B98F8908FA6E0FFE4FCFDFEC312280F43
:104F4800500302507D908E69E030E10AA3E475F0C9
:104F580001122621802F908E69E054FEF022908F56
:104F68009D122840C3E50E9BFFE50D9AFEE50C99BE
:104F7800FDE50B98FCE47BF47A01F9F8D312280FCD
:104F8800400302507D908E6AE0FEA3E04E7003124B
:104F98005620908F9D12285800000000E4F50EF569
:104FA8000DF50CF50B908E69E054FDF0E054FEF021
:104FB800126E3D7B017A8E796A123834908E6AE0DF
:104FC800FEA3E0C3945DEE94004003025076908EF9
:104FD8006AE0A3E0FF7C007D0E12258474B02FF9EF
:104FE800748F3EFA7B0178A27C8F7D017E007F0E54
:104FF800122506126E3D908FA4E0640370127B01A7
:105008007A8F79A2125C1B908E69E04401F080547B
:10501800908FA4E064067034908FAAE0FEA3E0FFAE
:105028007B017A95794E909756E4F0A37402F012BA
:1050380040A17B017A8F79A290954EE0FCA3E0FD18
:10504800125D36908E69E04401F08018908FA4E0DC
:10505800641070107B017A8F79A212507E908E694D
:10506800E04401F0E4F50EF50DF50CF50B22E490A3
:105078008E6AF0A3F0229095501228B5E4909555C9
:10508800F0909550122895900001122545FF9095B3
:1050980055E0FE04F074562EF582E43495F583EF5E
:1050A800F0909555E0FF04F074562FF582E434959E
:1050B800F5837410F090955012289590000A1226E6
:1050C80078E5F0FF909555E0FE04F074562EF582D1
:1050D800E43495F583EFF090955012289590000AE6
:1050E800122678FF909555E0FE04F074562EF5824E
:1050F800E43495F583EFF0909550122895900003CD
:10510800122545FFE4909555E0FE04F074562EF5FF
:1051180082E43495F583E4F0909550122895900038
:1051280003122545FF909555E0FE04F074562EF5C0
:1051380082E43495F583EFF090955012289590000D
:105148000312254525E0FF909555E0FE04F07456BE
:105158002EF582E43495F583EFF0908FAAE0FEA354
:10516800E0FFC006C007909555E02456F9E4349551
:10517800FA7B01C003C002C0019095501228959097
:10518800000312254575F002A4FF909756E5F0F04C
:10519800A3EFF0D001D002D003D007D0061240A16F
:1051A80090955012289590000312254525E0FF9010
:1051B8009555E02FF07B017A957956E0FD7C001239
:1051C8006458909553EEF0A3EFF0909553E0FEA34A
:1051D800E0EEFFA3E0FE04F074562EF582E4349569
:1051E800F583EFF0909553E0A3E0FFA3E0FE04F011
:1051F80074562EF582E43495F583EFF07B017A95A9
:105208007956909555E0FD12688322909751EEF0FB
:10521800A3EFF0909751E0FEA3E0FFA3EEF0A3EF19
:10522800F0909753E0FEA3E0C39478EE64809480F6
:10523800500D909753740575F0A012262180E290C6
:105248009753E0FEA3E024D8FFEE34FFA3F0A3EFCA
:10525800F0909753E0A3E024B0FFEE34FF90975707
:10526800F0A3EFF0909753E0A3E02488FFEE34FF1B
:10527800909759F0A3EFF0909753E0A3E0FF7C05D7
:105288007DA01225EB909753ECF0A3EDF090975387
:10529800E0FEA3E0FF7C007D3C1225EB90975BEFDE
:1052A800F0909753E0FEA3E0FF7C007D3C1225EBD5
:1052B80090975CEDF0909755E0FEA3E0FF7C057DAC
:1052C800A01225EB909755ECF0A3EDF0909755E0E0
:1052D800FEA3E0FF7C007D3C1225EB90975DEFF08C
:1052E800909755E0FEA3E0FF7C007D3C1225EB90F3
:1052F800975EEDF0909757E0FEA3E0FF7C057DA058
:105308001225EB909757ECF0A3EDF0909757E0FE3D
:10531800A3E0FF7C007D3C1225EB90975FEFF090B7
:105328009757E0FEA3E0FF7C007D3C1225EB9097A9
:1053380060EDF0909759E0FEA3E0FF7C057DA01298
:1053480025EB909759ECF0A3EDF0909759E0FEA368
:10535800E0FF7C007D3C1225EB909761EFF0909781
:1053680059E0FEA3E0FF7C007D3C1225EB9097629C
:10537800EDF07B017A97795B909768E4F0A3740865
:10538800F07F207ECD12430E22C0E0C0F0C083C063
:1053980082C0D075D000C000C001C002C003C004E4
:1053A800C005C006C007C2AF758CBC758ACD909B7E
:1053B80048E475F001122621909B48E0FEA3E0D353
:1053C80094E8EE94034018909B48E4F0A3F0A3758A
:1053D800F001122621909B46E475F0011226214324
:1053E800C901909B54122834E47B01FAF9F812267B
:1053F800CF909B5412284C909B4CE475F0011226D8
:1054080021909B4E122834E4F81226CF909B4E121E
:10541800284C909B52E0FEA3E0FFE4FCFD7BDC7A85
:10542800FFF8D31227F9400A909B52E475F0011255
:1054380026210509E50970020508AF12AE11AD1065
:10544800AC0FE47B01FAF9F81226CF8F128E118D7A
:10545800108C0FAF0EAE0DAD0CAC0BE41226CF8F37
:105468000E8E0D8D0C8C0BE47B64AF12AE11AD105B
:10547800AC0F122767AC00AD01AE02AF03E4FBFA34
:10548800F9F8C312280F7003430A02E47BF47A0187
:10549800F9F8AF12AE11AD10AC0F122767AC00AD22
:1054A80001AE02AF03E4FBFAF9F8C312280F700348
:1054B800430A04430A01D2AFD007D006D005D0046E
:1054C800D003D002D001D000D0D0D082D083D0F089
:1054D800D0E03290955BEFF0A3EDF0A3EBF0E49011
:1054E8009568F0A3F090955BE024D0FFE434079032
:1054F8009568F0A3EFF0909568E0FEA3E0FF7C00CC
:105508007D6412259690955EECF0A3EDF090956879
:10551800E0FEA3E0FF7C007D64122596909560EE86
:10552800F0A3EFF090955CE0FF909562E4F0A3EFB4
:10553800F090955DE0FF909564E4F0A3EFF090950E
:1055480062E0FEA3E064014E600B909562E0A3E088
:1055580064024E701490955E74FFF5F01226219047
:105568009562E475F00C12262190955EE0FEA3E0AA
:105578007802CEC313CE13D8F9FF90955EE0FCA352
:10558800E02FFDEE3CFCA3E0FEA3E07802CEC313BF
:10559800CE13D8F92DFDEC3EFC909560E0FEA3E01B
:1055A80025E0FFEE33FEC3ED9FFBEC9EFAA3E0FE81
:1055B800A3E02401FFE43EFE7C007D0D1225847DDE
:1055C80005122596EF2BFFEE3AFEA3E0FCA3E02F91
:1055D800FFEE3CFEEF24FFFFEE34FFA3F0A3EFF055
:1055E800909566E0FEA3E0C3EE9400500C9095669B
:1055F800E475F00712262180E7909566E0FEA3E0A7
:10560800FF7C007D07122596909566ECF0A3EDF0DF
:10561800909566E0A3E0FF227BFF7A7279A3785029
:105628007C957D017E007F28122506E4909578F010
:10563800A3F0909578E0FEA3E0C39426EE94004092
:1056480003025764909578E0A3E07803C333CE3320
:10565800CED8F9246DF582748E3EF583E0FF909BD9
:105668005FE0FCA3E0FDEF6D7001EC6003025757AB
:10567800909578E0FEA3E07803C333CE33CED8F913
:10568800246EF582748E3EF583E0FEA3E0FF7B0175
:105698007A957950909756E4F0A37402F01240A1DD
:1056A800909578E0FEA3E07803C333CE33CED8F9E3
:1056B8002470F582748E3EF583E0FEA3E0FF7B0143
:1056C8007A957952909756E4F0A37402F01240A1AB
:1056D800909552E0FEA3E0FF909550E0FCA3E06FA8
:1056E8007002EC6E6069909578E0FEA3E07803C3E1
:1056F80033CE33CED8F92470F582748E3EF583E02C
:10570800FEA3E0FF7B017A957950909768E4F0A3B7
:105718007402F012430E909554E4F0A3745AF0907A
:105728009578E0FEA3E07803C333CE33CED8F924CE
:1057380072F582748E3EF583E0FEA3E0FF7B017A6A
:10574800957954909768E4F0A37402F012430E9090
:105758009578E475F00112262102563A2290959325
:10576800EFF07BFF7A72791D78947C957D017E003D
:105778007F201225067B017A9A794378947C957D5F
:10578800017E007F1A122506909593E075F01BA400
:105798002464FFE435F0909598F0A3EFF090959D80
:1057A8007401F0909593E075F006A424BEF582E4A8
:1057B800349AF583E0FEA3E0FF7B017A9579949013
:1057C8009768E4F0A37420F012430E7B017A9A796B
:1057D8005D78947C957D017E007F1A122506909550
:1057E80093E075F01BA42464FFE435F0909598F0DD
:1057F800A3EFF090959D7401F0909593E075F006F5
:10580800A424C0F582E4349AF583E0FEA3E0FF7B8C
:10581800017A957994909768E4F0A37420F0124384
:105828000E7B017A9A79FA78947C957D017E007FC7
:105838001A122506909593E075F01BA42464FFE4E2
:1058480035F0909598F0A3EFF0909593E075F01BE4
:10585800A42464FFE435F090959EF0A3EFF09095B2
:1058680093E075F01BA4247DFFE435F09095A2F039
:10587800A3EFF0909593E075F006A424C2F582E4B6
:10588800349AF583E0FEA3E0FF7B017A9579949042
:105898009768E4F0A37420F012430E22909593EFDA
:1058A800F0A3ECF0A3EDF0A3EBF07BFF7A7179FDA8
:1058B80078977C957D017E007F201225067B017AF2
:1058C8009A794378977C957D017E007F1A12250688
:1058D800909593E075F01BA42464FFE435F090954F
:1058E8009BF0A3EFF0E49095A0F0909594E0FEA3D0
:1058F800E02401FFE43E909597F0A3EFF090959394
:10590800E075F006A424BEF582E4349AF583E0FE3F
:10591800A3E0FF7B017A957997909768E4F0A374E8
:1059280020F012430E7B017A9A795D78977C957DF9
:10593800017E007F1A122506909593E075F01BA44E
:105948002464FFE435F090959BF0A3EFF0909596D2
:10595800E0FFC3740E9F9095A0F0909594E0FEA38D
:10596800E02404FFE43E909597F0A3EFF090959320
:10597800E075F006A424C0F582E4349AF583E0FECD
:10598800A3E0FF7B017A957997909768E4F0A37478
:1059980020F012430E909594E0FEA3E02408FFE463
:1059A8003E909597F0A3EFF0909593E075F006A4DC
:1059B80024C2F582E4349AF583E0FEA3E0FF7B017C
:1059C8007A957997909768E4F0A37402F012430EE1
:1059D800227B017A957953909756E4F0A37404F0EA
:1059E8007F087E501240A1909555E0FEA3E0FF90FD
:1059F8009553E0FCA3E06F7002EC6E7003025AFC52
:105A08007B017A957953909768E4F0A37402F07F4C
:105A1800097E5012430E909553E0FEA3E02402FF46
:105A2800EE34F890955BF0A3EFF0909553E0A3E087
:105A3800FF909B65E0FCA3E02FFFEC3E909557F0AC
:105A4800A3EFF0909557E0FEA3E0C394FEEE940711
:105A5800400B90955774F875F0021226217B017A55
:105A6800957957909768E4F0A37402F07F007E035D
:105A780012430E7B017A957957909768E4F0A374E6
:105A880002F0FF7E0312430E909553E0FEA3E078E8
:105A980002CEC313CE13D8F9FF909553EEF0A3EFBF
:105AA800F0909553E475F08F1226217B017A957951
:105AB80053909768E4F0A37402F07F117E5012436C
:105AC8000E90955BE0FEA3E0FF7C007D0512258427
