:10000000026353020006C2AFD2AF320254E1C2AF64
:10001000D2AF3202000E90996FE0FEA3E0FF126BA8
:02002000A1221B
:070023000267E7126E842260
:10002B00026FDB90975412285800003000909758BD
:10003B00E4F0A3740CF07D007C307F5A1263F47BE8
:10004B00017A9A7927909756E4F0A37418F07F0001
:10005B007E301240A2E490954BF090954BE0C39408
:10006B000774809480506EE025E025E02427F5820C
:10007B00E4349AF583122834E4FBFAF9F8C3122816
:10008B000F602290954BE025E025E02427F582E4D4
:10009B00349AF5831228347B3F7A42790F7800C368
:1000AB0012280F502890954BE025E025E02401F510
:1000BB0082E4349AF58312283490954BE025E025A1
:1000CB00E02427F582E4349AF58312284C90954B63
:1000DB00E004F080857B017A9A7927909768E4F0A9
:0C00EB00A37414F07FA07EA612430F2225
:1000F800FFFF4457494E5435429B5F0000419B58CF
:1001080000429B590000419B5B00419B5C00429B65
:100118005D0000429B650000429B630000429B61BA
:1001280000005A9A433FC900690064000086000A2B
:100138002D2D203A3A000000000000000000005A6F
:100148009A5D3FCC01270064000086000A2D2D2F00
:100158003A3A000000000000000000005A9AFA3FF6
:10016800D001E50064000001E5006402AD007D00F7
:10017800100017181802000000603C9ABE400040AA
:10018800A04140401040B04150402040C041604034
:100198003040D04170404040E04180405040F04104
:1001A800904060410041A04070411041B040804102
:1001B8002041C04090413041D0549AAA41E041F8D2
:1001C80042104228424042584270428842A042B8F7
:1001D800489A9B0000000000000000429AA300001B
:1001E800429AA80000429AA50000419AA700429AA4
:1001F800890000429A770005498000B2E2CAD4BA61
:10020800BAD7D6006E60800949443030BBD8B7E70A
:10021800B8DFCEC2000000000000000000000000AF
:10022800000000000000000049443031BBD8B7E7A7
:10023800B5CDCEC2000000000000000000000000A4
:10024800000000000000000049443032BBD8B7E786
:10025800B8DFCAAA0000000000000000000000008B
:10026800000000000000000049443033BBD8B7E765
:10027800B5CDCAAA00000000000000000000000080
:10028800000000000000000049443034CBCDB7E73F
:10029800B8DFCEC20000000000000000000000002F
:1002A800000000000000000049443035CBCDB7E71E
:1002B800B5CDCEC200000000000000000000000024
:1002C800000000000000000049443036CBCDB7E7FD
:1002D800B8DFCAAA0000000000000000000000000B
:1002E800000000000000000049443037CBCDB7E7DC
:1002F800B5CDCAAA00000000000000000000000000
:10030800000000000000000049443038B1A3C1F4E7
:1003180000000000000000000000000000000000D5
:10032800000000000000000049443039CEC2CAAACB
:10033800B6C8B4ABB8D0C6F7000000000000000093
:100348000000000000000000494431304E5443D200
:10035800ECB3A30000000000000000000000000053
:10036800000000000000000049443131B7E7BBFA43
:1003780031B9CAD5CF00000000000000000000001D
:10038800000000000000000049443132B1A3C1F46C
:100398000000000000000000000000000000000055
:1003A800000000000000000049443133B1A3C1F44B
:1003B8000000000000000000000000000000000035
:1003C800000000000000000049443134B1A3C1F42A
:1003D8000000000000000000000000000000000015
:1003E800000000000000000049443135B1A3C1F409
:1003F80000000000000000000000000000000000F5
:10040800000000000000000049443136CDE2B7E7A3
:10041800BBFAB9CAD5CF00000000000000000000F8
:10042800000000000000000049443137B7E7BBFA7C
:1004380031B3ACCAB10000000000000000000000A9
:10044800000000000000000049443138B1A3C1F4A5
:100458000000000000000000000000000000000094
:10046800000000000000000049443139B1A3C1F484
:100478000000000000000000000000000000000074
:10048800000000000000000049443230B1A3C1F46C
:100498000000000000000000000000000000000054
:1004A800000000000000000049443231B1A3C1F44B
:1004B8000000000000000000000000000000000034
:1004C800000000000000000049443232CDE2B7E7E6
:1004D800BBFAB3ACCAB10000000000000000000085
:1004E800000000000000000049443233B8DFD1B9F1
:1004F80031BFAAB9D80000000000000000000000C9
:10050800000000000000000049443234B8DFD1B9CF
:1005180031CBF8CBC0000000000000000000000054
:10052800000000000000000049443235B5CDD1B9C3
:1005380031B8E6BEAF000000000000000000000077
:10054800000000000000000049443236B5CDD1B9A2
:1005580031CBF8CBC0000000000000000000000014
:10056800000000000000000049443237C5C5C6F845
:10057800CEC2B6C831B8E6BEAF0000000000000029
:10058800000000000000000049443238C5C5C6F824
:10059800CEC2B6C831CBF8CBC000000000000000C6
:1005A800000000000000000049443239B6CCD6DC17
:1005B800C6DA31B8E6BEAF00000000000000000057
:1005C800000000000000000049443330D1B9BBFAF4
:1005D80031D4CBD0D0B3ACCAB100000000000000C9
:1005E800000000000000000049443331B7E7BBFABF
:1005F80031B9CAD5CF00000000000000000000009B
:10060800000000000000000049443332B7E7BBFA9D
:1006180032B9CAD5CF000000000000000000000079
:10062800000000000000000049443333B7E7BBFA7C
:1006380033B9CAD5CF000000000000000000000058
:10064800000000000000000049443334B7E7BBFA5B
:1006580034B9CAD5CF000000000000000000000037
:10066800000000000000000049443335C5C5C6F845
:10067800CEC2B6C832B8E6BEAF0000000000000027
:10068800000000000000000049443336C5C5C6F824
:10069800CEC2B6C832CBF8CBC000000000000000C4
:1006A800000000000000000049443337B6CCD6DC17
:1006B800C6DA32B8E6BEAF00000000000000000055
:1006C800000000000000000049443338D1B9BBFAEB
:1006D80032D4CBD0D0B3ACCAB100000000000000C7
:1006E800000000000000000049443339BCD3CAAA06
:1006F800C6F7B5E7C1F7B9FDB4F300000000000084
:10070800000000000000000049443430CBCDB7E7BA
:10071800B4ABB8D0C6F7000000000000000000002D
:10072800000000000000000049443431BDF8BFDA81
:10073800B4ABB8D0C6F7000000000000000000000D
:10074800000000000000000049443432B3F6BFDA6C
:10075800B4ABB8D0C6F700000000000000000000ED
:10076800000000000000000049443433BCD3C8C86E
:10077800C6F7B8E6BEAF00000000000000000000A9
:10078800000000000000000049443434BCD3C8C84D
:10079800C6F731B3ACCAB100000000000000000089
:1007A800000000000000000049443435BCD3C8C82C
:1007B800C6F732B3ACCAB100000000000000000068
:1007C800000000000000000049443436B6CFB5E709
:1007D800D6D8C6F4000000000000000000000000A9
:1007E800000000000000000049443437B5E7D4B4E5
:1007F800CFE0D0F2B4EDCEF300000000000000001E
:10080800000000000000000049443438B5E7D4B4C3
:10081800C6B5C2CAC6ABB8DF0000000000000000C1
:10082800000000000000000049443439B5E7D4B4A2
:10083800C6B5C2CAC6ABB5CD0000000000000000B6
:1008480000000000000000004944353041CFE0B905
:10085800FDD1B90000000000000000000000000009
:1008680000000000000000004944353142CFE0B9E3
:10087800FDD1B900000000000000000000000000E9
:1008880000000000000000004944353243CFE0B9C1
:10089800FDD1B900000000000000000000000000C9
:1008A80000000000000000004944353341CFE0C794
:1008B800B7D1B900000000000000000000000000EF
:1008C80000000000000000004944353442CFE0C772
:1008D800B7D1B900000000000000000000000000CF
:1008E80000000000000000004944353543CFE0C750
:1008F800B7D1B900000000000000000000000000AF
:1009080000000000000000004944353641CFE0C82F
:10091800B1CFE0000000000000000000000000006F
:1009280000000000000000004944353742CFE0C80D
:10093800B1CFE0000000000000000000000000004F
:1009480000000000000000004944353843CFE0C8EB
:10095800B1CFE0000000000000000000000000002F
:10096800000000000000000049443539C6F8C1F70E
:10097800B6AACAA7B8E6BEAF000000000000000093
:10098800000000000000000049443630B9FDC2CB29
:10099800CDF8D4CBD0D0B3ACCAB100000000000071
:1009A800000000000000000049443631BFD5C6F8F9
:1009B800C2CBCDF8B6C2C8FB0000000000000000A2
:1009C800000000000000000049443632D4B6B3CC21
:1009D800B9D8BBFAB8E6BEAF0000000000000000BE
:1009E800000000000000000049443633C2A9CBAE25
:1009F800B8E6BEAF000000000000000000000000E4
:100A0800000000000000000049443634C8BABFD8CE
:100A1800CDA8D0C5D2ECB3A30000000000000000B0
:100A2800000000000000000049443635B1A3C1F4BD
:100A380000000000000000000000000000000000AE
:100A4800000000000000000049443636B5CDB9FD6D
:100A5800C8C8B6C831B8E6BEAF0000000000000044
:100A6800000000000000000049443637B5CDB9FD4C
:100A7800C8C8B6C832B8E6BEAF0000000000000023
:100A8800000000000000000049443638D1CCCEED0B
:100A9800B8E6BEAF00000000000000000000000043
:100AA800000000000000000049443639D3C3BBA74A
:100AB800D7D4B6A8D2E5B8E6BEAF00000000000063
:100AC800000000000000000049443730B5E7D4B406
:100AD800D2ECB3A3000000000000000000000000FA
:100AE800000000000000000049443731B1A3C1F400
:100AF80000000000000000000000000000000000EE
:100B0800000000000000000049443732B1A3C1F4DE
:100B180000000000000000000000000000000000CD
:100B2800000000000000000049443733B1A3C1F4BD
:100B380000000000000000000000000000000000AD
:100B4800000000000000000049443734B1A3C1F49C
:100B5800000000000000000000000000000000008D
:100B6800000000000000000049443735B1A3C1F47B
:100B7800000000000000000000000000000000006D
:100B8800000000000000000049443736B1A3C1F45A
:100B9800000000000000000000000000000000004D
:100BA800000000000000000049443737B1A3C1F439
:100BB800000000000000000000000000000000002D
:100BC800000000000000000049443738B1A3C1F418
:100BD800000000000000000000000000000000000D
:100BE800000000000000000049443739B1A3C1F4F7
:100BF80000000000000000000000000000000000ED
:100C0800000000000000000049443830C5C5CBAEE4
:100C1800B8DFCBAECEBB0000000000000000000033
:100C2800000000000000000049443831BCD3CAAAC3
:100C3800C6F7D2ECB3A300000000000000000000DB
:100C4800000000000000000049443832B7E7D1B97D
:100C5800B9FDB5CD00000000000000000000000054
:100C6800000000000000000049443833B1A3C1F47B
:100C7800000000000000000000000000000000006C
:100C8800000000000000000049443834B8DFD1B942
:100C980031D1B9C1A600000000000000000000002A
:100CA800000000000000000049443835C0E4C4FDDD
:100CB800CBAEC5CCC2FACBAE0000000000000000ED
:100CC8000000000000000000494438364D4F503104
:100CD800B8E6BEAF00000000000000000000000001
:100CE8000000000000000000494438374D4F5032E2
:100CF800B8E6BEAF000000000000000000000000E1
:100D08000000000000000000494438384C4F5031C2
:100D1800B8E6BEAF000000000000000000000000C0
:100D28000000000000000000494438394C4F5032A0
:100D3800B8E6BEAF000000000000000000000000A0
:100D4800000000000000000049443930C9E8B1B88B
:100D5800CAB9D3C3B3ACCAB1000000000000000098
:100D6800000000000000000049443931B1A3C1F47B
:100D7800000000000000000000000000000000006B
:100D8800000000000000000049443932B1A3C1F45A
:100D9800000000000000000000000000000000004B
:100DA800000000000000000049443933B1A3C1F439
:100DB800000000000000000000000000000000002B
:100DC800000000000000000049443934B1A3C1F418
:100DD800000000000000000000000000000000000B
:100DE800000000000000000049443935B1A3C1F4F7
:100DF80000000000000000000000000000000000EB
:100E0800000000000000000049443936B1A3C1F4D5
:100E180000000000000000000000000000000000CA
:100E2800000000000000000049443937B1A3C1F4B4
:100E380000000000000000000000000000000000AA
:100E4800000000000000000049443938B1A3C1F493
:100E5800000000000000000000000000000000008A
:100E6800000000000000000049443939B1A3C1F472
:100E7800000000000000000000000000000000006A
:100E880000000000000000004944313030B1A3C127
:100E9800F400000000000000000000000000000056
:100EA80000000000000000004944313031B1A3C106
:100EB800F400000000000000000000000000000036
:100EC80000000000000000004944313032B1A3C1E5
:100ED800F400000000000000000000000000000016
:100EE80000000000000000004944313033B1A3C1C4
:100EF800F4000000000000000000000000000000F6
:100F080000000000000000004944313034B1A3C1A2
:100F1800F4000000000000000000000000000000D5
:100F280000000000000000004944313035B1A3C181
:100F3800F4000000000000000000000000000000B5
:100F480000000000000000004944313036B1A3C160
:100F5800F400000000000000000000000000000095
:100F680000000000000000004944313037B1A3C13F
:100F7800F400000000000000000000000000000075
:100F880000000000000000004944313038B1A3C11E
:100F9800F400000000000000000000000000000055
:100FA80000000000000000004944313039B1A3C1FD
:100FB800F400000000000000000000000000000035
:100FC80000000000000000004944313130B1A3C1E5
:100FD800F400000000000000000000000000000015
:100FE80000000000000000004944313131B1A3C1C4
:100FF800F4000000000000000000000000000000F5
:1010080000000000000000004944313132B1A3C1A2
:10101800F4000000000000000000000000000000D4
:1010280000000000000000004944313133B1A3C181
:10103800F4000000000000000000000000000000B4
:1010480000000000000000004944313134B1A3C160
:10105800F400000000000000000000000000000094
:101068000000000000000000419B6700479B37001C
:10107800000000000000479B28000000000000005E
:10108800489B3E0000000000000000489B2F000025
:10109800000000000000C100429B260000529B1483
:1010A8000000000000000000000000000000000038
:1010B8000000429B480000429B4A0000429B4600B9
:1010C80000449B5400000000429B4C0000449B4E8F
:1010D8000000000002080000040B00000000040FDC
:1010E80000000000429B520000010A006100976C5A
:1010F80000C1814001C0804101C0804100C18140E0
:1011080001C0804100C1814000C1814001C08041CF
:1011180001C0804100C1814000C1814001C08041BF
:1011280000C1814001C0804101C0804100C18140AF
:1011380001C0804100C1814000C1814001C080419F
:1011480000C1814001C0804101C0804100C181408F
:1011580000C1814001C0804101C0804100C181407F
:1011680001C0804100C1814000C1814001C080416F
:1011780001C0804100C1814000C1814001C080415F
:1011880000C1814001C0804101C0804100C181404F
:1011980000C1814001C0804101C0804100C181403F
:1011A80001C0804100C1814000C1814001C080412F
:1011B80000C1814001C0804101C0804100C181401F
:1011C80001C0804100C1814000C1814001C080410F
:1011D80001C0804100C1814000C1814001C08041FF
:1011E80000C1814001C0804101C0804100C18140EF
:1011F8006100986C00C0C101C30302C2C60607C7DC
:1012080005C5C404CC0C0DCD0FCFCE0E0ACACB0B2E
:10121800C90908C8D81819D91BDBDA1A1EDEDF1F5E
:10122800DD1D1CDC14D4D515D71716D6D21213D34E
:1012380011D1D010F03031F133F3F23236F6F737FE
:10124800F53534F43CFCFD3DFF3F3EFEFA3A3BFBEE
:1012580039F9F83828E8E929EB2B2AEAEE2E2FEF9E
:101268002DEDEC2CE42425E527E7E62622E2E3230E
:10127800E12120E0A06061A163A3A26266A6A7673E
:10128800A56564A46CACAD6DAF6F6EAEAA6A6BABAE
:1012980069A9A86878B8B979BB7B7ABABE7E7FBFDE
:1012A8007DBDBC7CB47475B577B7B67672B2B373CE
:1012B800B17170B05090915193535292965657977E
:1012C800559594549C5C5D9D5F9F9E5E5A9A9B5B6E
:1012D80099595898884849894B8B8A4A4E8E8F4F1E
:1012E8008D4D4C8C4484854587474686824243838E
:1012F800418180404194C600418FA1004495470038
:10130800000000418F9C00448F9D0000000065167E
:101318008FB05A021003C80250155016000000FF83
:101328005A020303C8000000D920031C00FF5A0218
:101338000301C8010039D923031900FF5A02060125
:10134800C803D984D924010000395A020301C8010D
:101358000039D925010400FF5A020601C802D987BD
:10136800D927010400FF5A020303C8010039D9A094
:10137800011A00FF5A020302C8000000D9A3031093
:1013880000FF5A020302C801000AAA20032600FF30
:101398005A020301C801000AAA22036900FF5A027F
:1013A8000302C801000AAA23036B00FF5A020301C3
:1013B800C801000AAA25037700FF5A020301C801E1
:1013C800000AAA26036F00FF5A020301C801000A97
:1013D800AA2703D700FF5A02031FC801000BAB203E
:1013E800037500FF5A020601C803AC80AC20023A1C
:1013F800000C5A020306C800000DAEA0032000FF2F
:101408005A020601C803AF80AF20023B000F5A0200
:101418000301C803B300B320011A00135A020302E0
:10142800C803B300B321013B00135A020601C803E5
:10143800B380B320011A00135A020601C803B3810E
:10144800B321013B00135A020601C803B382B32239
:10145800013C00135A020305C803B400B420015B21
:1014680000145A020305C803B400B425013D001452
:101478005A020601C803B480B420015B00145A0262
:101488000601C803B481B421015C00145A020601A4
:10149800C803B482B422015D00145A020601C803CD
:1014A800B483B423015E00145A020601C803B4844D
:1014B800B424015F00145A020601C803B485B42598
:1014C800013D00145A020301C803B600B62002E425
:1014D80000165A020301C803B600B62102EA001634
:1014E8005A020601C803B680B62002E400165A0262
:1014F8000601C803B681B62102EA00165A020301A2
:10150800C803B800B820010D00185A020301C80327
:10151800B800B821010F00185A020301C803B80027
:10152800B822015A00185A020601C803B880B82028
:10153800010D00185A020601C803B881B821010F2D
:1015480000185A020601C803B882B822015A0018C6
:101558005A020601C803B88AB82A023B00185A0280
:101568000301C803B900B920010800195A0203028F
:10157800C803B900B921010A00195A020301C803B6
:10158800B900B92301A700195A020601C803B98096
:10159800B920010800195A020601C803B981B92106
:1015A800010A00195A020601C803B982B922010BBF
:1015B80000195A020601C803B983B92301A7001903
:1015C8005A020301C803BB00BB200210001B5A02C9
:1015D8000301C803BB00BB210213001B5A0203010D
:1015E800C803BB00BB220216001B5A020302C80331
:1015F800BB00BB230219001B5A020303C803BB002C
:10160800BB24027D001B5A020302C803BB00BB2592
:101618000246001B5A020301C803BB00BB2702771E
:10162800001B5A020601C803BB80BB200210001B26
:101638005A020601C803BB81BB210213001B5A02D0
:101648000601C803BB82BB220216001B5A02060110
:10165800C803BB83BB230219001B5A020601C80337
:10166800BB84BB24027D001B5A020601C803BB854C
:10167800BB250246001B5A020601C803BB86BB26CF
:101688000247001B5A020601C803BB87BB27027723
:10169800001B5A020302C803BF00BF200102001F3B
:1016A8005A020301C803BF00BF220107001F5A02E4
:1016B8000301C803BF00BF2301A5001F5A0206018A
:1016C800C803BF80BF200102001F5A020601C803D9
:1016D800BF81BF210103001F5A020601C803BF8250
:1016E800BF220107001F5A020601C803BF83BF2398
:1016F80001A5001F5A020301C803C300C32002EB5F
:1017080000235A020301C803C300C32101A900230F
:101718005A020301C8010023D925010400FF5A0217
:101728000601C803C380C32002EB00235A02060146
:10173800C803C381C32101A900235A020601C803B3
:10174800C382C32201A800235A020301C80100234F
:10175800C323037500FF5A020301C8010023C324F1
:10176800037700FF5A020302C803C400C420012DF6
:1017780000245A020301C803C400C422012900241A
:101788005A020302C803C400C423012B00245A02CE
:101798000601C803C480C420012D00245A02060192
:1017A800C803C481C421012E00245A020601C803BB
:1017B800C482C422012900245A020601C803C48332
:1017C800C423012B00245A020601C803C484C4247C
:1017D800012C00245A020303C803C600C6A0030252
:1017E80000265A020301C803D500D520011A003586
:1017F8005A020302C803D500D521013B00355A021D
:101808000601C803D580D520011A00355A02060101
:10181800C803D581D521013B00355A020601C8030A
:10182800D582D522013C00354E8FA2000000000071
:10183800000000000000000000428E6A00006130D5
:101848008E6C5A13B320B350B3805A13B321B351DB
:10185800B3815A13B322B352B3825A14B420B4508A
:10186800B4805A14B421B451B4815A14B422B45275
:10187800B4825A14B423B453B4835A14B424B45459
:10188800B4845A14B425B455B4855A16B620B65043
:10189800B6805A16B621B651B6815A18B820B85033
:1018A800B8805A18B821B851B8815A18B822B85215
:1018B800B8825A19B920B950B9805A19B921B95101
:1018C800B9815A19B922B952B9825A19B923B953E7
:1018D800B9835A1BBB20BB50BB805A1BBB21BB51D1
:1018E800BB815A1BBB22BB52BB825A1BBB23BB53B7
:1018F800BB835A1BBB24BB54BB845A1BBB25BB559B
:10190800BB855A1BBB26BB56BB865A1BBB27BB577E
:10191800BB875A1FBF20BF50BF805A1FBF21BF516E
:10192800BF815A1FBF22BF52BF825A1FBF23BF5356
:10193800BF835A24C420C450C4805A24C421C4512B
:10194800C4815A24C422C452C4825A24C423C4530E
:10195800C4835A24C424C454C4845A35D520D550C9
:10196800D5805A35D521D551D5815A35D522D5526C
:10197800D582418E69005C9A2700000000000000B3
:10198800000000000000000000000000000000004F
:1019980000000000005C9A01000000000000000147
:1019A8000000000200027360000A2D08000310CC3A
:1019B8000007ED654199FDFF608C997100000100F9
:1019C80002000300040005000600070008000900E3
:1019D8000A000B000C000D000E000F011000110092
:1019E800120213001400150016001700180319003E
:1019F8001A001B021C001D001E001F0020002100F1
:101A080022022300240025002600270028002900A0
:101A18002A002B002C002D002E002F003000310052
:101A28003200330034003500360037003800390002
:101A38003A003B003C003D003E003F0040054100AD
:101A480042004300440045004A9A1D000101030278
:101A580003030604024299FF000042996F00004206
:101A6800996C000041996E0000AF13EF1313543FB7
:101A78005401640160030224357B017A95794B9007
:101A88009756F0A3740CF07F217ED91240A290954E
:101A98004DE0FEA3E0FF90954BE0FCA3E02FFFECA8
:101AA8003EFE909A89E0FCA3E06F7002EE6C6058ED
:101AB80090954DE0FEA3E0FF90954BE0FCA3E02F4E
:101AC800FFEC3EFE909A89E0FCA3E0C39FEC9E5099
:101AD8001D909555E4F0A304F0FB7A9579559097FD
:101AE80068E4F0A37402F07F267ED912430F909524
:101AF8004DE0FEA3E0FF90954BE0FCA3E02FFFEC48
:101B08003E909A89F0A3EFF090954BE0FEA3E0D3C6
:101B18009400EE9400500CA3E0FEA3E09400EE9431
:101B2800004020909555E0FEA3E04E60167B017AB8
:101B38009A7977909768E4F0A37402F07FA07E000A
:101B480012430F909B5FE0FEA3E0640D4E6003021A
:101B58001EF2909B5FE0A3E0FF909AA3E0FCA3E055
:101B68006F7002EC6E601EE4909AA8F0A3F07B01FF
:101B78007A9A79A8909768F0A37402F07F017EAEF4
:101B880012430F80167B017A9A79A8909756E4F051
:101B9800A37402F07F017EAE1240A27B017A957990
:101BA8004B909756E4F0A37410F07FA07EAE1240DD
:101BB800A2E4909559F0A3E05407F07B017A9A7952
:101BC80079784B7C957D017E007F10122A97EF7003
:101BD8002F909AA5E0FEA3E0FF909AA8E0FCA3E06E
:101BE800B5071DECB50619909B5FE0FEA3E0FF90DA
:101BF8009AA3E0FCA3E06F7002EC6E70030221E789
:101C08007B017A95794B78797C9A7D017E007F10EB
:101C1800122506E4909AA7F090957EF090957EE0C4
:101C2800C39408748094804003021E9AE490957DC2
:101C3800F090957DE0C39410748094804003021E58
:101C480091A3E0C454F0FF90957DE02F909582F029
:101C5800E075F018A42400FFE5F03435FE7B017A26
:101C680095794B909756E4F0A37430F01240A27B1C
:101C7800017A95794B90957F1228B590957DE0FF74
:101C88007E007401A807088005C333CE33CED8F987
:101C9800FF90957EE025E02479F582E4349AF58377
:101CA800E0FCA3E0FDEE5CFEEF5D4E7003021DE874
:101CB80090957F12289512264D645A7004E5F064B9
:101CC800A57003021D8590957F12289574A575F05F
:101CD8005A1226B07B017A95795F909756E4F0A363
:101CE8007408F07F107E001240A27B017A95795F1C
:101CF800784D7C957D017E007F031225067B017A55
:101D080095796378507C957D017E007F03122506C6
:101D18007E007F087D007B017A957953122ABB905B
:101D28009582E0FF909559E4F0A3EFF07B017A9556
:101D3800795BC002C00190958275F020A42409F94E
:101D4800748035F0FA9095961228B5909599E4F03C
:101D5800A37420F0D001D002126719909582E07523
:101D6800F018A42400FFE5F03435FE7B017A95795C
:101D78004B909768E4F0A37430F012430F909AA840
:101D8800E0FEA3E0FF7C007D0A122584909AA7E07C
:101D9800C39FEC9E4041A3E0FEA3E0FF122584EF21
:101DA800240AFFE43EFE909AA7E0C39FEC9E5027CA
:101DB800909582E075F018A42400FDE5F03435FC18
:101DC800909AA8E0A3E075F00AA4FF909AA7E0C350
:101DD8009FFF7B0D12562B909AA7E004F0021E88F5
:101DE80090957F12289512264D645A7004E5F06488
:101DF800A56003021E887B017A95795F909756F05B
:101E0800A37408F07F107E001240A27B017A9579B6
:101E18005F78537C957D017E007F031225067B0148
:101E28007A95796378567C957D017E007F0312252B
:101E380006909582E0FF909559E4F0A3EFF07B01BE
:101E48007A95794B909768E4F0A37410F07F007E40
:101E58003012430F125F6DE490954BF0A3F090950C
:101E680082E075F018A42400FFE5F03435FE7B010C
:101E78007A95794B909768E4F0A37402F012430FB7
:101E880090957DE004F0021C3990957EE004F00204
:101E98001C24909AA7E090957DF0909AA8E0FEA364
:101EA800E0FF7C007D0A122584EF240AFFE43EFE51
:101EB80090957DE0C39FEC9E501D909AA8E0A3E00A
:101EC80075F00AA4FF90957DE0C39FFF125392908E
:101ED800957DE004F080C3909AA8E0FEA3E0FF900F
:101EE8009AA5EEF0A3EFF00221E77B017A95794BF2
:101EF800909756E4F0A37410F07FA07EAE1240A233
:101F0800E4909559F0A3E05407F07B017A9A797927
:101F1800784B7C957D017E007F10122A97EF700325
:101F28000221E77B017A95794B787F7C957D017E4C
:101F3800007F10122506E490957EF090957EE0C310
:101F480094067480948040030221D4E490957DF037
:101F580090957DE0C394107480948040030221CB57
:101F6800E0FF7E007401A807088005C333CE33CE96
:101F7800D8F9FF90957EE025E0247FF582E434953A
:101F8800F583E0FCA3E0FDEE5CFCEF5DFD90957D44
:101F9800E0FF7E007401A807088005C333CE33CE66
:101FA800D8F9FF90957EE025E02479F582E4349A0B
:101FB800F583E0FAA3E0FBEE5AFEEF5B6D7002EEEC
:101FC8006C70030221C290957EE0C454F0FF909596
:101FD8007DE02F909592F0E075F018A42400FFE5BD
:101FE800F03435FE7B017A95794B909756E4F0A34F
:101FF8007430F01240A27B017A95794B90958F123C
:1020080028B590957DE0FF7E007401A8070880053B
:10201800C333CE33CED8F9FF90957EE025E0247FF8
:10202800F582E43495F583E0FCA3E0FDEE5CFEEF79
:102038005D4E700302210F90958F12289512264D40
:10204800645A7004E5F064A570030221C290958F6C
:1020580012289574A575F05A1226B07B017A9579E5
:102068005F909756E4F0A37408F07F107E0012404A
:10207800A27B017A95795F784D7C957D017E007F02
:10208800031225067B017A95796378507C957D014A
:102098007E007F031225067E007F087D007B017A83
:1020A800957953122ABB909592E0FF909559E4F0E8
:1020B800A3EFF07B017A95795BC002C001909592FD
:1020C80075F020A42409F9748035F0FA90959612D9
:1020D80028B5909599E4F0A37420F0D001D00212AD
:1020E8006719909592E075F018A42400FFE5F03484
:1020F80035FE7B017A95794B909768E4F0A37430AC
:10210800F012430F0221C290958F12289512264D86
:10211800645A7004E5F064A560030221C27B017A69
:1021280095795F909756F0A37408F07F107E00129F
:1021380040A27B017A95795F78537C957D017E007A
:102148007F031225067B017A95796378567C957D05
:10215800017E007F03122506909592E0FF90955925
:10216800E4F0A3EFF07B017A95794B909768E4F05F
:10217800A37410F07F007E3012430F125F6DE4905D
:10218800954BF0A3F0909592E075F018A42400FF09
:10219800E5F03435FE7B017A95794B909768E4F049
:1021A800A37402F012430F909AA8E0FEA3E0240162
:1021B800FFE43E909AA5F0A3EFF090957DE004F03F
:1021C800021F5890957EE004F0021F437B017A9528
:1021D800797F78797C9A7D017E007F1012250690A0
:1021E8009B5FE0FEA3E0640E4E6003022425909BF3
:1021F8005FE0A3E0FF909AA3E0FCA3E06F7002EC1D
:102208006E601EE4909AA8F0A3F07B017A9A79A8F0
:10221800909768F0A37402F07F017EAE12430F809E
:10222800347B017A9A79A8909756E4F0A37402F067
:102238007F017EAE1240A2909AA5E0FEA3E0FF9037
:102248009AA8E0FCA3E06F7002EC6E7003022425EC
:102258008003022425909AA8E0FEA3E0FF909AA5A7
:10226800EEF0A3EFF0E4A3F0909AA7E0C3940A7409
:10227800809480400302240BA3E0FEA3E0FF7C00CF
:102288007D0A122584909AA7E02FFFEC3EFE909AD3
:10229800A1E0FCA3E0FDC3EF9DEE9C400302240BEC
:1022A800909AA8E0FEA3E0FF7C007D0A12258490A6
:1022B8009AA7E02FFFEC3EFE909A9DE0FCA3E0D3A6
:1022C8009FEC9E4032909AA8E0FEA3E0FF7C0012AB
:1022D8002584909AA7E02FFFEC3EFEEF2401FFE44F
:1022E8003EFE909A9DE0FCA3E0C39FFFEC9E909574
:1022F8007FF0A3EFF0803A909AA8E0FEA3E0FF7C7D
:10230800007D0A122584909AA7E02FFFEC3EFEEF8D
:102318002401FFE43EFE909A9DE0FCA3E02400FD2A
:10232800EC3402FCC3ED9FFFEC9E90957FF0A3EF89
:10233800F090957FE0FEA3E07803C333CE33CED888
:10234800F92400FFEE3420FEE4FCFD909754122897
:102358004C909758E4F0A37408F07D007C307F5AC5
:102368001263F47B017A95794B909756E4F0A37445
:1023780010F07F007E301240A27B017A95795BC015
:1023880003C002C001909559E0FEA3E07805C3336D
:10239800CE33CED8F92409F974803EFA7B019095A2
:1023A800961228B5909599E4F0A37420F0D001D046
:1023B80002D003126719909AA7E025E024AAF582B3
:1023C800E4349AF583E0FEA3E0FF7B017A95794B2C
:1023D800909768E4F0A37430F012430F909AA7E046
:1023E80025E024AAF582E4349AF583E0FCA3E0FD15
:1023F800909AA7E0FF7B0E12562B909AA7E004F064
:10240800022270909AA7E0C3940A74809480500DB9
:10241800E0FF125392909AA7E004F080E6909B5F49
:10242800E0FEA3E0FF909AA3EEF0A3EFF022E70905
:10243800F608DFFA8046E709F208DFFA803E88826C
:102448008C83E709F0A3DFFA8032E309F608DFFAA4
:102458008078E309F208DFFA807088828C83E309C8
:10246800F0A3DFFA806489828A83E0A3F608DFFAA2
:10247800805889828A83E0A3F208DFFA804C80D2F0
:1024880080FA80C680D4806980F28033801080A66C
:1024980080EA809A80A880DA80E280CA80338982C4
:1024A8008A83ECFAE493A3C8C582C8CCC583CCF070
:1024B800A3C8C582C8CCC583CCDFE9DEE7800D8917
:1024C800828A83E493A3F608DFF9ECFAA9F0EDFB1E
:1024D8002289828A83ECFAE0A3C8C582C8CCC58366
:1024E800CCF0A3C8C582C8CCC583CCDFEADEE880BF
:1024F800DB89828A83E493A3F208DFF980CC88F031
:10250800EF60010E4E60C388F0ED2402B404005061
:10251800B9F582EB2402B4040050AF23234582238B
:1025280090248673BB010689828A83E0225002E7E1
:1025380022BBFE02E32289828A83E49322BB010C38
:10254800E58229F582E5833AF583E0225006E925FC
:1025580082F8E622BBFE06E92582F8E222E5822916
:10256800F582E5833AF583E49322BB010689828AE2
:1025780083F0225002F722BBFE01F322EF8DF0A474
:10258800A8F0CF8CF0A428CE8DF0A42EFE22BC009B
:102598000BBE0029EF8DF084FFADF022E4CCF87576
:1025A800F008EF2FFFEE33FEEC33FCEE9DEC984085
:1025B80005FCEE9DFE0FD5F0E9E4CEFD22EDF8F521
:1025C800F0EE8420D21CFEADF075F008EF2FFFED81
:1025D80033FD4007985006D5F0F222C398FD0FD579
:1025E800F0EA22C2D5EC30E709B2D5E4C39DFDE498
:1025F8009CFCEE30E715B2D5E4C39FFFE49EFE12C3
:102608002596C3E49DFDE49CFC800312259630D5F5
:1026180007C3E49FFFE49EFE22C5F0F8A3E028F07C
:10262800C5F0F8E582158270021583E038F022A320
:10263800F8E0C5F025F0F0E582158270021583E018
:10264800C838F0E822BB010A89828A83E0F5F0A342
:10265800E022500687F009E71922BBFE07E3F5F0F0
:1026680009E3192289828A83E493F5F0740193229D
:10267800BB0110E58229F582E5833AF583E0F5F0A0
:10268800A3E0225009E92582F886F008E622BBFE7D
:102698000AE92582F8E2F5F008E222E5832AF583C3
:1026A800E993F5F0A3E99322BB010A89828A83F0B2
:1026B800E5F0A3F0225006F709A7F01922BBFE06A1
:1026C800F3E5F009F31922EF2BFFEE3AFEED39FDA1
:1026D800EC38FC22E88FF0A4CC8BF0A42CFCE98E1B
:1026E800F0A42CFC8AF0EDA42CFCEA8EF0A4CDA872
:1026F800F08BF0A42DCC3825F0FDE98FF0A42CCD7B
:1027080035F0FCEB8EF0A4FEA9F0EB8FF0A4CFC55A
:10271800F02ECD39FEE43CFCEAA42DCE35F0FDE4E4
:102728003CFC2275F008758200EF2FFFEE33FECDDA
:1027380033CDCC33CCC58233C5829BED9AEC99E579
:102748008298400CF582EE9BFEED9AFDEC99FC0F09
:10275800D5F0D6E4CEFBE4CDFAE4CCF9A88222B8D1
:1027680000C1B90059BA002DEC8BF084CFCECDFC56
:10277800E5F0CBF97818EF2FFFEE33FEED33FDECE3
:1027880033FCEB33FB10D703994004EB99FB0FD8CC
:10279800E5E4F9FA227818EF2FFFEE33FEED33FD6A
:1027A800EC33FCC933C910D7059BE99A4007EC9B69
:1027B800FCE99AF90FD8E0E4C9FAE4CCFB2275F0F9
:1027C80010EF2FFFEE33FEED33FDCC33CCC833C80A
:1027D80010D7079BEC9AE899400AED9BFDEC9AFC10
:1027E800E899F80FD5F0DAE4CDFBE4CCFAE4C8F9BF
:1027F80022EB9FF5F0EA9E42F0E99D42F0EC6480FE
:10280800C864809845F022EB9FF5F0EA9E42F0E913
:102818009D42F0E89C45F022E86010ECA2E713FC2A
:10282800ED13FDEE13FEEF13FFD8F022E0FCA3E05A
:10283800FDA3E0FEA3E0FF22E0F8A3E0F9A3E0FA9D
:10284800A3E0FB22ECF0A3EDF0A3EEF0A3EFF0225F
:10285800A8828583F0D083D08212286F12286F1245
:10286800286F12286FE473E493A3C583C5F0C5836A
:10287800C8C582C8F0A3C583C5F0C583C8C582C8CA
:1028880022A42582F582E5F03583F58322E0FBA3B7
:10289800E0FAA3E0F922F8E0FBA3A3E0F925F0F0C1
:1028A800E582158270021583E0FA38F022EBF0A376
:1028B800EAF0A3E9F022D083D082F8E4937012748E
:1028C8000193700DA3A393F8740193F5828883E4B0
:1028D800737402936860EFA3A3A380DFD083D082D0
:1028E800F8E4937012740193700DA3A393F8740124
:1028F80093F5828883E473740293B5F006740393A6
:102908006860E9A3A3A3A380D8E3F5F009E208B5BA
:10291800F06BDFF58067E3F5F009E608B5F05EDFF8
:10292800F5805A87F009E608B5F052DFF6804E8741
:10293800F009E208B5F046DFF6804288828C83878A
:10294800F009E0A3B5F036DFF6803288828C838701
:10295800F009E493A3B5F025DFF5802188828C8304
:10296800E3F5F009E0A3B5F014DFF5801088828C58
:1029780083E3F5F009E493A3B5F002DFF4022A40FB
:10298800808780E9809080D4803E8015806E807E2C
:10299800809D80B7808D80A380518074803C022AFE
:1029A8004C89828A83ECFAE493F5F0A3C8C582C8FF
:1029B800CCC583CCE493A3C8C582C8CCC583CCB5A9
:1029C800F076DFE3DEE1807089828A83E493F5F0B4
:1029D800A3E208B5F062DFF4805E89828A83E0F5BD
:1029E800F0A3E608B5F051DFF5804D89828A83E0CF
:1029F800F5F0A3E208B5F040DFF5803C89828A83D0
:102A0800E493F5F0A3E608B5F02EDFF4802A8002FF
:102A1800805789828A83ECFAE493F5F0A3C8C582CB
:102A2800C8CCC583CCE0A3C8C582C8CCC583CCB507
:102A3800F006DFE4DEE280007FFFB5F0020F2240FF
:102A4800027F012289828A83ECFAE0F5F0A3C8C5E7
:102A580082C8CCC583CCE0A3C8C582C8CCC583CC0A
:102A6800B5F0D5DFE5DEE380CF89828A83ECFAE032
:102A7800F5F0A3C8C582C8CCC583CCE493A3C8C568
:102A880082C8CCC583CCB5F0AFDFE4DEE280A9888C
:102A9800F0EF60010E4E60ABED2402B404005098D4
:102AA800F582EB2402B40400508E23234582239040
:102AB800298873EF4E6012EF60010EEDBB010B89A0
:102AC800828A83F0A3DFFCDEFA2289F05007F70937
:102AD800DFFCA9F022BBFEFCF309DFFCA9F022F819
:102AE800BB010DE58229F582E5833AF583E8F022FA
:102AF8005006E92582C8F622BBFE05E92582C8F200
:102B0800227BFF7A72796278867C957D017E007FD0
:102B18003E1225067BFF7A7279A078C57C957D01E7
:102B28007E007F241225067B017A95798690975638
:102B3800E4F0A3743EF07F207EAB1240A2E49095AF
:102B4800C4F09095C4E0C39410748094804003024C
:102B58002DAAE0FF7E007401A807088005C333CEC4
:102B680033CED8F9FF90958CE0FCA3E0FDEE5CFE37
:102B7800EF5D4E7003022D8E9095C4E0FF7E0074C9
:102B880001A807088005C333CE33CED8F9FF909546
:102B980090E0FCA3E0FDEE5CFEEF5D4E7003022DBD
:102BA8003B9095C4E0FF1313543F2407FFE4339090
:102BB80095EBF0A3EFF09095EBE0FEA3E025E0FFA6
:102BC800EE33FE74862FF58274953EF583E0FEA3FE
:102BD800E0FF9095C4E0540325E025E0FDEFA8054B
:102BE800088005CEC313CE13D8F9540FFF9095E98A
:102BF800E4F0A3EFF09095E9E0FEA3E08EF0122850
:102C0800E42C2D00002C4500012C5D00022C7500E1
:102C1800042C8C00052CA300062CBA00082CD1002B
:102C28000900002CE89095C4E025E024C5F582E46D
:102C38003495F583E4F0A37405F0022CFD9095C457
:102C4800E025E024C5F582E43495F583E4F0A37427
:102C580006F0022CFD9095C4E025E024C5F582E439
:102C68003495F583E4F0A37407F0022CFD9095C425
:102C7800E025E024C5F582E43495F583E4F0A374F7
:102C880008F080719095C4E025E024C5F582E4340D
:102C980095F583E4F0A37409F0805A9095C4E02573
:102CA800E024C5F582E43495F583E4F0A3740AF0D2
:102CB80080439095C4E025E024C5F582E43495F579
:102CC80083E4F0A37403F0802C9095C4E025E024FD
:102CD800C5F582E43495F583E4F0A37404F0801517
:102CE8009095C4E025E024C5F582E43495F583E4A5
:102CF800F0A37405F09095C4E0FF7E007401A80766
:102D0800088005C333CE33CED8F9FF909588E0FC10
:102D1800A3E0FDEE5CFEEF5D4E607E9095C4E0257D
:102D2800E024C5F582E43495F583E475F0081226AD
:102D38002180669095C4E0FF7E007401A807088092
:102D480005C333CE33CED8F9FF909588E0FCA3E0D5
:102D5800FDEE5CFEEF5D4E60179095C4E025E02423
:102D6800C5F582E43495F583E4F0A37402F0802974
:102D78009095C4E025E024C5F582E43495F583E414
:102D8800F0A304F080139095C4E025E024C5F582F3
:102D9800E43495F583E4F0A3F09095C4E004F002E0
:102DA8002B4A9095C47410F09095C4E0C3941274A3
:102DB800809480400302301BE024F0FF7E00740101
:102DC800A807088005C333CE33CED8F9FF90958E77
:102DD800E0FCA3E0FDEE5CFEEF5D4E7003022FFF0A
:102DE8009095C4E024F0FF7E007401A807088005D0
:102DF800C333CE33CED8F9FF909592E0FCA3E0FD23
:102E0800EE5CFEEF5D4E7003022FAA9095C4E0FFC2
:102E18001313543F2407FFE4339095EBF0A3EFF02E
:102E28009095EBE0FEA3E025E0FFEE33FE74862FDD
:102E3800F58274953EF583E0FEA3E0FF9095C4E02B
:102E4800540325E025E0FDEFA805088005CEC3134F
:102E5800CE13D8F9540FFF9095E9E4F0A3EFF09062
:102E680095E9E0FEA3E08EF01228E42E9700002EEC
:102E7800AF00012EC700022EDF00042EF600052F3A
:102E88000D00062F2400082F3B000900002F529048
:102E980095C4E025E024C5F582E43495F583E4F093
:102EA800A37405F0022F679095C4E025E024C5F5CA
:102EB80082E43495F583E4F0A37406F0022F67905A
:102EC80095C4E025E024C5F582E43495F583E4F063
:102ED800A37407F0022F679095C4E025E024C5F598
:102EE80082E43495F583E4F0A37408F0807190953A
:102EF800C4E025E024C5F582E43495F583E4F0A325
:102F08007409F0805A9095C4E025E024C5F582E460
:102F18003495F583E4F0A3740AF080439095C4E0F7
:102F280025E024C5F582E43495F583E4F0A3740321
:102F3800F0802C9095C4E025E024C5F582E4349512
:102F4800F583E4F0A37404F080159095C4E025E0BF
:102F580024C5F582E43495F583E4F0A37405F09074
:102F680095C4E024F0FF7E007401A807088005C31B
:102F780033CE33CED8F9FF90958AE0FCA3E0FDEE7E
:102F88005CFEEF5D4E70030230129095C4E025E0C0
:102F980024C5F582E43495F583E475F008122621FA
:102FA80080689095C4E024F0FF7E007401A80708AB
:102FB8008005C333CE33CED8F9FF90958AE0FCA3C1
:102FC800E0FDEE5CFEEF5D4E60179095C4E025E0F5
:102FD80024C5F582E43495F583E4F0A37402F08007
:102FE800299095C4E025E024C5F582E43495F5835D
:102FF800E4F0A304F080139095C4E025E024C5F51F
:1030080082E43495F583E4F0A3F09095C4E004F0ED
:10301800022DB07B017A9579C5909768E4F0A37486
:1030280024F07FA07EAB12430F22E51330E0167B1D
:10303800017A9B795F909756E4F0A37402F07F14AD
:103048007E001240A2E51320E2030234DE909B5F6B
:10305800E0FEA3E04E7026909B58E0C3940674806F
:1030680094805005E004F08014909B58E06406704A
:103078000C7F39FE126BA1909B58E004F0909B5F87
:10308800E0FEA3E0640B4E7003122B09909B5FE0F7
:10309800FEA3E064294E60030231757B017A9579BD
:1030A8004E909756F0A3741CF07FB07EC91240A2D0
:1030B800E490954BF090954BE0C39407748094800E
:1030C800400302315FE025E025E0244EF582E43438
:1030D80095F583E0FEA3E0C4F8540FC868FDEEC47C
:1030E80054F048FC90954BE025E025E02450F5820B
:1030F800E43495F583E0FEA3E0EEC4540F2DFFE41D
:103108003C90954CF0A3EFF090954CE0FEA3E0FFC7
:103118007C007D1812259690954BE025E0246AF5F1
:1031280082E43495F583EEF0A3EFF090954CE0FE41
:10313800A3E0FF7C007D1812259690954BE025E0D2
:103148002478F582E43495F583ECF0A3EDF09095BE
:103158004BE004F00230BD7B017A95796A9097685C
:10316800E4F0A3741CF07F207EC912430F909B5F8C
:10317800E0FEA3E064264E60030232577B017A9595
:10318800795B909756F0A37406F07FA07EC6124034
:10319800A290955BE0FEA3E0FFEEC4F854F0C86887
:1031A800FEEFC4540F4890954BEEF0A3E4F09095D1
:1031B8004BE0FCA3E0FD90955BE0FEA3E07807CE32
:1031C800C313CE13D8F9541FFFECFEED4FFF9095B3
:1031D8004BEEF0A3EFF090955BE0A3E0547F909561
:1031E8004DF0A3E4F090954DE0FCA3E0FD90955FD1
:1031F800E0FEA3E0EEFFECFEED4FFF90954DEEF004
:10320800A3EFF090955FE0A3E090954FF0A3E4F072
:1032180090955DE0FEA3E0FF909551EEF0A3EFF0EE
:10322800A37403F0A37408F0A37415F0A3E4F0A347
:103238007402F0A3E4F0A3F0A3F07B017A95794B34
:10324800909768F0A37410F07F207EC612430F9009
:103258009B5FE0FEA3E0642F4E60030233387B01DE
:103268007A95794B909756F0A37402F07F107ECF31
:103278001240A27B017A95794F909756E4F0A37497
:1032880002F07F227ECF1240A290954BE0FEA3E091
:10329800FF909B59E0FCA3E06F7002EC6E606090B9
:1032A800954BE0A3E0909B59EEF0A3EFF090954F7B
:1032B800E0FEA3E0543FFF90954FEEF0A3EFF090AF
:1032C800954FE0FCA3E0FD90954BE0A3E07E005411
:1032D800037806C333CE33CED8F9FFEC4EFEED4F5C
:1032E800FF90954FEEF0A3EFF07B017A95794F9020
:1032F8009768E4F0A37402F07F227ECF12430F9008
:10330800954FE0FEA3E07806CEC313CE13D8F95448
:1033180003FF909551E4F0A3EFF07B017A95795182
:10332800909768E4F0A37402F07F117ECF12430FE8
:10333800909B5FE0FEA3E064234E7056909B5BE099
:10334800C3940574809480504290954BE4F0A30494
:10335800F0FB7A95794B909768E4F0A37402F07FBC
:10336800277ED912430F90954BE4F0A3745AF07B53
:10337800017A95794B909768E4F0A37402F07F87FF
:103388007ED912430F909B5BE004F0E4909B5CF0C5
:103398008072909B5CE0C39405748094805060E4D4
:1033A80090954BF0A3F07B017A95794B909756F066
:1033B800A37402F07F297EC71240A290954BE0FECD
:1033C800A3E04E70347B017A95794B909768F0A30F
:1033D8007402F07F277ED912430F90954BE4F0A337
:1033E800745AF07B017A95794B909768E4F0A3744E
:1033F80002F07F877ED912430F909B5CE004F0E4D3
:10340800909B5BF07B017A95794B909756E4F0A3FB
:103418007402F07F167E001240A290954BE0FEA346
:10342800E04E6025E490954BF0A3F07B017A957906
:103438004B909768F0A37402F07F167E0012430F3A
:10344800E4909B5DF0A3F08046909B5DE0FEA3E0D6
:10345800C39458EE9402500C909B5DE475F00112F1
:103468002621802B909B5DE0FEA3E0B45821EEB4AA
:10347800021D909B5DE475F001122621909B5FE090
:10348800FEA3E064394E60077F397E00126BA17B92
:10349800017A95794B909756E4F0A37402F07F0077
:1034A8007EE01240A290954BE0FEA3E0EE30E014DF
:1034B800909B5FE0FEA3E064414E601A7F417E006E
:1034C800126BA122909B5FE0FEA3E064414E700660
:1034D8007F39FE126BA1229095501228B590955312
:1034E800ECF0A3EDF0909553E0FEA3E0C39405EE55
:1034F80094005003023834E4A3F0A3F090955012DE
:103508002895909555E0FEA3E0F5828E8312254517
:103518006402600302380E909550122895909555D4
:10352800E0A3E029F9EA3EFA9000011225451228A5
:10353800BE3546033695063757100000380E90956D
:1035480050122895909555E0FEA3E029F9EA3EFA35
:10355800900002122545FF909559E4F0A3EFF090F2
:103568009555E0A3E0FF909559E0FCA3E02FFFEC10
:103578003EFEEF2405FFE43EFE909553E0FCA3E0F9
:10358800FDD3EF9DEE9C4011909553E0FEA3E0FF24
:10359800A3EEF0A3EFF002380E9095501228959004
:1035A8009555E0FEA3E029F9EA3EFA909559E0FE28
:1035B800A3E02403FDE43EFC126479909557EEF0F5
:1035C800A3EFF0909550122895909555E0FEA3E052
:1035D80029F9EA3EFA909559E0FEA3E029F9EA3E76
:1035E800FA900003122545FD909557E0FEA3E0EE02
:1035F8006D7001E4600302380E9095501228959082
:103608009555E0FEA3E029F9EA3EFA909559E0FEC7
:10361800A3E029F9EA3EFA900004122545FF9095A7
:1036280057E0A3E06F7001E4600302380E908FAAA0
:10363800E0FEA3E0FF909550122895909555E0FC88
:10364800A3E029F9EA3CFAE92403F9E43AFA909567
:1036580059E0FCA3E0FD909768ECF0A3EDF012436D
:103668000F7E007F0E7D007B017A8F79A2122ABB24
:10367800909559E0FEA3E02405FFE43E909555F0AF
:10368800A3EFF0908E69E04402F002380E90955551
:10369800E0FEA3E02408FFE43EFE909553E0FCA37F
:1036A800E0FDD3EF9DEE9C4011909553E0FEA3E022
:1036B800FFA3EEF0A3EFF002380E90955012289574
:1036C800909555E0FEA3E029F9EA3EFA7D067C00D4
:1036D800126479909557EEF0A3EFF0909550122868
:1036E80095909555E0FEA3E029F9EA3EFA90000688
:1036F800122545FD909557E0FEA3E0EE6D7001E4BC
:10370800600302380E909550122895909555E0FE6A
:10371800A3E029F9EA3EFA900007122545FF9095A3
:1037280057E0A3E06F7001E4600302380E909555EE
:1037380075F0081226217E007F0E7D007B017A8FAE
:1037480079A2122ABB908E69E04402F002380E90EA
:103758009555E0FEA3E02408FFE43EFE909553E073
:10376800FCA3E0FDD3EF9DEE9C4011909553E0FE45
:10377800A3E0FFA3EEF0A3EFF002380E90955012ED
:103788002895909555E0FEA3E029F9EA3EFA7D06D2
:103798007C00126479909557EEF0A3EFF090955065
:1037A800122895909555E0FEA3E029F9EA3EFA9093
:1037B8000006122545FD909557E0FEA3E0EE6D70DA
:1037C80001E47042909550122895909555E0FEA31B
:1037D800E029F9EA3EFA900007122545FF9095572F
:1037E800E0A3E0B50720E490955575F0081226216E
:1037F8007E007F0E7D007B017A8F79A2122ABB9012
:103808008E69E04402F0909555E475F00112262186
:10381800909553E0FEA3E024FBFFEE34FFFEA3E007
:10382800FCA3E0C39FEC9E50030235042290955000
:103838001228B590955012289512264DFF90955351
:10384800E5F0F0A3EFF0909553E0FEA3E0C3945D9C
:10385800EE94004003023B55909553E0A3E0908F0F
:10386800B075F00E122889EE75F00EA42583F58345
:10387800E0645A6003023B48909553E0A3E0908FC0
:10388800B375F00E122889EE75F00EA42583F58322
:10389800E07003023B48909553E0A3E0908FB57524
:1038A800F00E122889EE75F00EA42583F583E070DA
:1038B80003023B55909553E0A3E0908FB575F00E49
:1038C800122889EE75F00EA42583F583E064017053
:1038D80034909553E0A3E0908FB675F00E122889C6
:1038E800EE75F00EA42583F583E0FEA3E0FF909B20
:1038F8005FE0FCA3E06F7002EC6E6003023B4802DD
:103908003B55023B48909553E0FEA3E0908FB57578
:10391800F00E122889EE75F00EA42583F583E06475
:10392800026003023A14909553E0A3E0908FB675B5
:10393800F00E122889EE75F00EA42583F583E0FEBB
:10394800A3E0FF7B017A957955909756E4F0A3742C
:1039580002F01240A2909555E0A3E0645A60030279
:103968003B48909553E0FEA3E0C3945CEE9400506E
:1039780061909553E0A3E0908FC375F00E122889EB
:10398800EE75F00EA42583F583E0640270449095EB
:1039980053E0A3E0908FC475F00E122889EE75F0FD
:1039A8000EA42583F583E0FEA3E0FF909553E0FC89
:1039B800A3E0908FB675F00E122889EC75F00EA46E
:1039C8002583F583E0FCA3E06F7002EC6E700302C0
:1039D8003B55E4909555F0A3F0909553E0FEA3E095
:1039E800908FB675F00E122889EE75F00EA4258317
:1039F800F583E0FEA3E0FF7B017A957955909768FF
:103A0800E4F0A37402F012430F023B55909553E083
:103A1800FEA3E0908FB575F00E122889EE75F00EB2
:103A2800A42583F583E064036003023B4890955323
:103A3800E0A3E0908FBC75F00E122889EE75F00EA9
:103A4800A42583F583E0FEA3E0FF909B5FE0FCA341
:103A5800E0FDEF6D7002EE6C6003023B48909553F9
:103A6800E0FEA3E0908FB675F00E122889EE75F08F
:103A78000EA42583F583E0FEA3E0FF7B017A957908
:103A880055909756E4F0A37402F01240A290955511
:103A9800E0A3E0645A6003023B48909553E0FEA31C
:103AA800E0C3945CEE9400505E909553E0A3E090E0
:103AB8008FC375F00E122889EE75F00EA42583F5D4
:103AC80083E064037041909553E0A3E0908FC47540
:103AD800F00E122889EE75F00EA42583F583E0FE1A
:103AE800A3E0FF909553E0FCA3E0908FB675F00E2D
:103AF800122889EC75F00EA42583F583E0FCA3E079
:103B08006F7002EC6E6046E4909555F0A3F09095C6
:103B180053E0FEA3E0908FB675F00E122889EE757B
:103B2800F00EA42583F583E0FEA3E0FF7B017A95E0
:103B38007955909768E4F0A37402F012430F800D52
:103B4800909553E475F00112262102384E90955352
:103B5800E0FEA3E0FF909550122895EE8FF0122614
:103B6800B02290955B1228B590955EECF0A3EDF02D
:103B78007BFF7A7279FE78607C957D017E007F18E4
:103B880012250690955B12289590000A1226782433
:103B98006CFFE5F0340790958CF0A3EFF090958CCE
:103BA800E0FEA3E0FF7C007D641225EBED4C601382
:103BB80090958CE0FEA3E0FF7C007D041225EBEDE0
:103BC8004C601390958CE0FEA3E0FF7C017D901281
:103BD80025EBED4C70067E007F0180047E007F009F
:103BE800909588EEF0A3EFF090955B1228959000E1
:103BF8000A12267824BAFFE5F034FFFE3395E0FD7B
:103C0800FC90957812284C90955B122895900008A6
:103C1800122678C39401E5F0648094805040909512
:103C280088E0FEA3E064014E703490957812283441
:103C3800EF2402FFE43EFEE43DFDE43CFCE47B04AB
:103C4800FAF9F8126BE8EF24FFFFEE34FFFEED34CB
:103C5800FFFDEC34FFFC90958012284C8022909553
:103C680078122834EF2402FFE43EFEE43DFDE43CF4
:103C7800FCE47B04FAF9F8126BE890958012284C62
:103C880090957C12285800000000E490958AF0A3D3
:103C9800F090955B122895900008122678FF909571
:103CA8008AE0FCA3E0C39FE5F06480F8EC648098A8
:103CB800504890957C122834C006C00790958AE039
:103CC800FEA3E025E0FFEE33FE74602FF5827495C5
:103CD8003EF583E0FEA3E0FFFBAA06EA3395E0F990
:103CE800F8D007D0061226CF90957C12284C9095D4
:103CF8008AE475F001122621809790957C12283469
:103D0800C006C00790955B12289590000612267889
:103D180024FFFFE5F034FFFEAB07FA3395E0F9F82E
:103D2800D007D0061226CF90957C12284C90957C0F
:103D3800122834C004C005C006C007E47F6D7E01A8
:103D4800FDFC9095781228401226DC909580122868
:103D5800401226CFA804A905AA06AB07D007D006AB
:103D6800D005D0041226CF90957C12284C90955BF4
:103D7800122895900004122678FF90955EE0FCA327
:103D8800E0FDC3EF9DFFE5F09CFE3395E0FDFC9060
:103D9800958412284CE47F107E0EFDFC90958412C9
:103DA80028401226DCC004C005C006C0077F807EFC
:103DB800517D017C0090957C1228401226DCA804D5
:103DC800A905AA06AB07D007D006D005D00412264D
:103DD800CFC004C005C006C00790955B1228959017
:103DE8000002122678FFAEF07C007D3C122584ABE1
:103DF80007AA06EA3395E0F9F8D007D006D005D02F
:103E0800041226CFC006C00790955B12289512268B
:103E18004DFFAEF0FBAA06EA3395E0F9F8D007D0DB
:103E2800061226CF22E51330E10D909B61E475F070
:103E3800011226211259FA909B61E0FEA3E0C39477
:103E4800B8EE940B50030240A1E4909B61F0A3F0FC
:103E5800909B65E0FEA3E02400FFEE341090954BA4
:103E6800F0A3EFF07B017A95794D909756E4F0A393
:103E78007402F07FA37ED91240A290954DE475F0AC
:103E8800C812262190954BE0FEA3E0FF7B017A95AE
:103E9800794D909768E4F0A37402F012430F909B59
:103EA80065E0FEA3E02400FFEE341890954BF0A3E4
:103EB800EFF07B017A95794D909756E4F0A3740260
:103EC800F07FA47ED91240A290954BE0FEA3E0FFBC
:103ED8007B017A95794D909768E4F0A37402F0120B
:103EE800430F909B65E0FEA3E0FF909551EEF0A391
:103EF800EFF0909B65E475F001122621909B65E038
:103F0800FEA3E0C394FEEE94074007E4909B65F09F
:103F1800A3F07B017A9B7965909768E4F0A374021B
:103F2800F07F007E0312430F7B017A9B796590979F
:103F380068E4F0A37402F0FF7E0312430F90954FDC
:103F48007407F0A374FEF07B017A95794F90976817
:103F5800E4F0A37402F07F087E5012430F7B017ACD
:103F680095794F909768E4F0A37402F07F097E502A
:103F780012430F90954F7402F0A3748AF07B017A74
:103F880095794F909768E4F0A37402F07F117E5002
:103F980012430F909B2CE075F03CA4FFA3E07C003B
:103FA8002FFFEC35F0909B63F0A3EFF0909B63E05C
:103FB800FEA3E0FF125214909B65E0A3E030E003FB
:103FC8000240A190955174FFF5F012262190955169
:103FD800E0FEA3E02400FFEE3410FE7B017A957921
:103FE8004B909756E4F0A37404F01240A290954FBA
:103FF80074A5F0A3745AF07B017A95794B90976871
:10400800E4F0A37406F07F007E5012430F909551A0
:10401800E0FEA3E0FFE4FCFD90975412284C909733
:1040280058E4F0A37404F07D007C507FA51263F47B
:10403800909551E0FEA3E02400FFEE3418FE7B01CA
:104048007A95794B909756E4F0A37404F01240A245
:1040580090954F74A5F0A3745AF07B017A95794B2B
:10406800909768E4F0A37406F07F007E5012430F27
:10407800909551E0FEA3E02400FFEE3408FEE4FC36
:10408800FD90975412284C909758E4F0A37404F0CC
:104098007D007C507FA51263F422909751EEF0A327
:1040A800EFF0A31228B57B007A007900C003C002A4
:1040B800C001909753122895D082D083D0E06B70BE
:1040C80008E965827003EA6583700302430E9097DE
:1040D80056E0FEA3E04E700302430E909756E0A30D
:1040E800E0FFEEC313FEEF13FF909751E0FCA3E04F
:1040F8002FFFEE3CFED3EF94FEEE94FF4003024305
:104108000EC2AF909751E0A3E05401909758F090F9
:104118009751E0FEA3E0FFEEC313FEEF13FF909765
:1041280051EEF0A3EFF0909751E0FEA3E07810CEA7
:10413800C313CE13D8F9F5F1909751E0FEA3E0EE42
:10414800F5F2909751E0A3E0F5F3E4F5F875F40182
:10415800D2FF30FCFDD2FD909758E0640170729058
:104168009756E0FEA3E064014E700AC2FBC2FAD281
:10417800F9C2F88008C2FBC2FAD2F9D2F8D2FE20FE
:10418800FEFD909756E0FEA3E064014E701A9097EA
:104198005375F00112289EE5FC122572909756740B
:1041A800FFF5F01226218029909753E475F001124B
:1041B800289EE5FC122572909753E475F0011228A9
:1041C8009EE5FD12257290975674FF75F0FE122633
:1041D80021909756E0FEA3E04E70030243099097A2
:1041E80056E0A3E0C39404EE940040030242B29068
:1041F8009756E0A3E08EF01228E442260001421C04
:104208000002421200030000422ED2FBD2FAD2F979
:10421800C2F88012D2FBD2FAC2F9C2F88008D2FBE7
:10422800C2FAC2F9C2F8D2FE20FEFD909756E0FE0F
:10423800A3E08EF01228E4429F0001427F00024270
:104248004F000300004309909753E475F0011228CA
:104258009EE5FA122572909753E475F00112289E94
:10426800E5FB122572909753E475F00112289EE53C
:10427800FC122572024309909753E475F001122845
:104288009EE5FA122572909753E475F00112289E64
:10429800E5FB122572806A909753E475F0011228A5
:1042A8009EE5FA12257280598057D2FBD2FAD2F9CC
:1042B800D2F8D2FE20FEFD909753E475F001122843
:1042C8009EE5FA122572909753E475F00112289E24
:1042D800E5FB122572909753E475F00112289EE5CC
:1042E800FC122572909753E475F00112289EE5FDA3
:1042F80012257290975674FF75F0FC122621024120
:10430800D9E4F5F8D2AF22909763EEF0A3EFF0A3CB
:104318001228B57B007A007900C003C002C0019062
:104328009765122895D082D083D0E06B7008E96534
:10433800827003EA6583700302457A909768E0FE0D
:10434800A3E04E700302457A909768E0A3E0FFEE81
:10435800C313FEEF13FF909763E0FCA3E02FFFEE7B
:104368003CFED3EF94FEEE94FF400302457AC2AFC1
:10437800909763E0A3E0540190976AF0909763E008
:10438800FEA3E0FFEEC313FEEF13FF909763EEF07A
:10439800A3EFF0909763E0FEA3E07810CEC313CEAE
:1043A80013D8F9F5F1909763E0FEA3E0EEF5F290EB
:1043B8009763E0A3E0F5F3E4F5F875F401D2FF3074
:1043C800FCFDC2FD90976AE064017072909768E006
:1043D800FEA3E064014E700AC2FBC2FAD2F9C2F829
:1043E8008008C2FBC2FAD2F9D2F8909768E0FEA31F
:1043F800E064014E701A90976575F00112289E12BC
:10440800252CF5FC90976874FFF5F0122621802979
:10441800909765E475F00112289E12252CF5FC9002
:104428009765E475F00112289E12252CF5FD9097EA
:104438006874FF75F0FE122621D2FE20FEFD9097CB
:1044480068E0FEA3E04E7003024575909768E0A30C
:10445800E0C39404EE9400400302451E909768E080
:10446800A3E08EF01228E44493000144890002443A
:104478007F00030000449BD2FBD2FAD2F9C2F88035
:1044880012D2FBD2FAC2F9C2F88008D2FBC2FAC231
:10449800F9C2F8909768E0FEA3E08EF01228E44590
:1044A80006000144E6000244B700030000451590E9
:1044B8009765E475F00112289E12252CF5FA90975D
:1044C80065E475F00112289E12252CF5FB9097657E
:1044D800E475F00112289E12252CF5FC802F909788
:1044E80065E475F00112289E12252CF5FA9097655F
:1044F800E475F00112289E12252CF5FB800F909789
:1045080065E475F00112289E12252CF5FAD2FE30CA
:10451800FE5B80FB8057D2FBD2FAD2F9D2F8909793
:1045280065E475F00112289E12252CF5FA9097651E
:10453800E475F00112289E12252CF5FB909765E48E
:1045480075F00112289E12252CF5FC909765E475EC
:10455800F00112289E12252CF5FDD2FE20FEFD90BA
:10456800976874FF75F0FC122621024446E4F5F8BA
:10457800D2AF227BFF7A7179DE784B7C957D017E04
:10458800007F201225067B017A95794B90956D1254
:1045980028B59095701228B5E490956BF0A3F0902B
:1045A800956BE0FEA3E0C3EE9402400302464490FC
:1045B800956BE0A3E07803C333CE33CED8F924005B
:1045C800FFEE3420FEE4FCFD90975412284C90979F
:1045D80058E4F0A37408F07D007C307F5A1263F42D
:1045E8007B017A95794B909756E4F0A37410F07F8D
:1045F800007E301240A290956D12289512264D64C7
:104608005A7004E5F064A5602690957012289512FA
:10461800264DB4A527E5F0B45A2290957012289536
:10462800789B7C9A7D017E007F08122506800D907C
:10463800956BE475F0011226210245A7E490956B6D
:10464800F0A3F090956BE0FEA3E0C3940AEE94000B
:1046580040030247D67BFF7A7179FE78737C957D9B
:10466800017E007F201225067B017A9A79437873B0
:104678007C957D017E007F1A12250690956BE0FEE1
:10468800A3E0FF7C007D1B122584EF2464FFE43E39
:10469800909577F0A3EFF090957C7401F090956B6E
:1046A800E0FEA3E0909ABE75F006122889EE75F038
:1046B80006A42583F583E0FEA3E0FF7B017A9579C4
:1046C80073909768E4F0A37420F012430F7B017A8B
:1046D8009A795D78737C957D017E007F1A12250694
:1046E80090956BE0FEA3E0FF7C007D1B122584EF14
:1046F8002464FFE43E909577F0A3EFF090957C74E6
:1047080001F090956BE0FEA3E0909AC075F0061258
:104718002889EE75F006A42583F583E0FEA3E0FF63
:104728007B017A957973909768E4F0A37420F0126E
:10473800430F7B017A9A79FA78737C957D017E0024
:104748007F1A12250690956BE0FEA3E0FF7C007DA2
:104758001B122584EF2464FFE43E909577F0A3EFC5
:10476800F090956BE0FEA3E0FF122584EF2464FF30
:10477800E43E90957DF0A3EFF090956BE0FEA3E00A
:10478800FF122584EF247DFFE43E909581F0A3EF8E
:10479800F090956BE0FEA3E0909AC275F00612289F
:1047A80089EE75F006A42583F583E0FEA3E0FF7B80
:1047B800017A957973909768E4F0A37420F0124316
:1047C8000F90956BE475F00112262102464B2212D8
:1047D8006EE07F64126AB87F10126AB8126F5C12BA
:1047E8006EE07F65126AB89095547406F0909554FF
:1047F800E0D3940074809480401D126A63909554AD
:10480800E0244CF582E43495F583EFF0126EFB90CA
:104818009554E014F080D6126A6390954CEFF0122C
:104828006F14126F5C7B017A95794C78377C9B7D8D
:10483800017E007F07122506E4909554F090955468
:10484800E0C3940374809480504BE0244CF582E4D8
:104858003495F583E0FFC4540F909555F090955426
:10486800E0244CF582E43495F583E0540F90955696
:10487800F0909555E075F00AA4FFA3E02FFF9095FE
:1048880054E0244CF582E43495F583EFF090955488
:10489800E004F080A89095547404F0909554E0C317
:1048A800940774809480504BE0244CF582E434954E
:1048B800F583E0FFC4540F909555F0909554E0248B
:1048C8004CF582E43495F583E0540F909556F090BA
:1048D8009555E075F00AA4FFA3E02FFF909554E0EA
:1048E800244CF582E43495F583EFF0909554E00478
:1048F800F080A890954CE0FFA3E0FDA3E0FB1257E1
:104908007090954FEFF07B017A95794C909768E419
:10491800F0A37408F07F107E0012430F7B017A9594
:10492800794C78287C9B7D017E007F071225067BC9
:10493800017A9B792C909768E4F0A37402F07F28A1
:104948007ECD12430F909B26E0FEA3E0C39448EE71
:104958009403500A909B26E475F001122621909545
:1049680051E06013A3E0600F909B26E0FEA3E0C334
:104978009447EE94035006200003024A2690955768
:1049880012285800000000909552E0FF909B14E414
:10499800F0A3EFF0909551E0FF909B16E4F0A3EFA1
:1049A800F0909550E0FF909B18E4F0A3EFF09095FD
:1049B8004EE0FF909B1AE4F0A3EFF090954DE024B1
:1049C800FFFFE434FF909B1CF0A3EFF090954CE0C0
:1049D8002464FFE433909B1EF0A3EFF090954CE421
:1049E800F0A3745AF0A3E4F0A37412F07B017A9B4D
:1049F80079147D087C00123B6A90955012284C7BF4
:104A0800017A95794C909768E4F0A37408F07F15C3
:104A18007E5012430FE4909B26F0A3F0C20022E4DC
:104A280090954BF0A3F0E51320E003024C737B0153
:104A38007A95794B909756E4F0A37402F07F147E30
:104A4800501240A290954BE0FEA3E04E7003024C3A
:104A58007390954BE0A3E08EF01228E44BEEA4008F
:104A68004BF3A4014BF8A4A04BF8A4A14BF8A4A2C3
:104A78004BF8A4A34BF8A4A44BF8A4A54BF8A4A600
:104A88004BF8A4A74BF8A4A84BF8A4A94BF8A4AAE0
:104A98004BF8A4AB4BF8A4AC4BF8A4AD4BF8A4AEC0
:104AA8004BF8A4AF4BF8A4B04BF8A4B14BF8A4B2A0
:104AB8004BF8A4B34BF8A4B44BF8A4B54BF8A4B680
:104AC8004BF8A4B74BF8A4B84BF8A4B94BF8A4BA60
:104AD8004BF8A4BB4BF8A4BC4BF8A4BD4BF8A4BE40
:104AE8004BF8A4BF4BF8A4C04BF8A4C14BF8A4C220
:104AF8004BF8A4C34BF8A4C44BF8A4C54BF8A4C600
:104B08004BF8A4C74BF8A4C84BF8A4C94BF8A4CADF
:104B18004BF8A4CB4BF8A4CC4BF8A4CD4BF8A4CEBF
:104B28004BF8A4CF4BF8A4D04BF8A4D14BF8A4D29F
:104B38004BF8A4D34BF8A4D44BF8A4D54BF8A4D67F
:104B48004BF8A4D74BF8A4D84BF8A4D94BF8A4DA5F
:104B58004BF8A4DB4BF8A4DC4BF8A4DD4BF8A4DE3F
:104B68004BF8A4DF4BF8A4E04BF8A4E14BF8A4E21F
:104B78004BF8A4E34BF8A4E44BF8A4E54C05A4F0E7
:104B88004C05A4F14C05A4F24C05A4F34C12A60064
:104B98004C57A6014C17AC004C1CAC014C21B7007B
:104BA8004C42B83C4C42B8694C26C2004C2BC3005E
:104BB8004C30C7014C35C9014C35C9064C35C90CB8
:104BC8004C35C90E4C35C9114C4FD6004BE4D900B1
:104BD8004BE9D9264C54E00000004C5712678180FD
:104BE8006E126EC380691266428064120016805F7E
:104BF80090954BE0FEA3E0FF1268FE805290954B23
:104C0800E0FEA3E0FF12695880451261E980401276
:104C18006A0B803B126D608036126D968031126E81
:104C280031802C1265D58027126CE8802290954B34
:104C3800E0FEA3E0FF126B0B801590954BE0FEA3FE
:104C4800E0FF126B568008126C2C8003126C6BE428
:104C580090954BF0A3F07B017A95794B909768F08B
:104C6800A37402F07F147E5012430F227BFF7A6FE9
:104C780079DE784B7C957D017E027F0012250690B7
:104C88009754122858000000009097587410F0A309
:104C9800E4F0FD7C107F5A1263F490974B7410F087
:104CA800A3E4F090974BE0FEA3E0C394FEEE9417C4
:104CB800506990974BE0A3E0FF7B017A95794B9080
:104CC80097567402F0A3E4F01240A2E490974DF0D6
:104CD800A3F090974DE0FEA3E0C3EE9401502F900F
:104CE800974DE0A3E025E0FFEE33FE744B2FF582ED
:104CF80074953EF583E0FEA3E0645A7003EE64A564
:104D0800601990974DE475F00112262180C49097A0
:104D18004B740175F000122621808890974DE0FEB3
:104D2800A3E0FF90974BE0FCA3E02FFFEC3E9097A9
:104D38004FF0A3EFF090974FE0FEA3E0C394FEEE90
:104D48009417400990974F7410F0A3E4F090974F90
:104D580074F075F00012262190974FE0FEA3E0FF53
:104D6800909B65EEF0A3EFF07B017A97794F9097CF
:104D780068E4F0A37402F07F007E0312430F7B0106
:104D88007A97794F909768E4F0A37402F0FF7E0356
:104D980012430F7B017A97794F909768E4F0A374D8
:104DA80002F07F087E5012430F7B017A97794F906B
:104DB8009768E4F0A37402F07F097E5012430F90C5
:104DC800954B7407F0A374FEF07B017A95794B90AC
:104DD8009768E4F0A37402F07F017E0312430F7B0F
:104DE800017A95794B909768E4F0A37402F004FF78
:104DF800FE12430F90954BE4F0A37406F0A3E4F081
:104E0800A304F0A3E4F0A3742EF0A37401F0A37438
:104E18004CF0A37401F0A37471F0A37401F0A374AF
:104E280077F0A37401F0A3748AF0A37402F0A3745A
:104E38008AF0A37401F0A37471F0A374FFF0A3E4E3
:104E4800F07B017A95794B909768F0A37414F07F02
:104E58000A7E5012430F909B2CE075F03CA4FFA3F0
:104E6800E07C002FFFEC35F0909B63F0A3EFF0900F
:104E78009B63E0FEA3E0FF125214227B007A0079C4
:104E88000090954B1228B5908FA1E0640160030251
:104E98004F1A908F9CE0FF9094C6E0D39F4011E09A
:104EA800908F9CF09095471228580000000080626F
:104EB800908F9CE0FF9094C6E06F7056FFFEFDFC5B
:104EC800909547122840D312280F403890954712E2
:104ED8002840C3E50E9BFFE50D9AFEE50C99FDE51C
:104EE8000B98FCE47B14FAF9F8C312280F50237BC3
:104EF800017A9479C79094C6E0FD7C001234DF12E1
:104F08006E5E800EAF0EAE0DAD0CAC0B90954712D9
:104F1800284C908E69E030E046E020E129908F9D92
:104F2800122840C3E50E9BFBE50D9AFAE50C99F9AA
:104F3800E50B98F8908FA6E0FFE4FCFDFEC312286D
:104F48000F500302507E908E69E030E10AA3E475A9
:104F5800F001122621802F908E69E054FEF02290F5
:104F68008F9D122840C3E50E9BFFE50D9AFEE50CC8
:104F780099FDE50B98FCE47BF47A01F9F8D3122843
:104F88000F400302507E908E6AE0FEA3E04E70034D
:104F98001258B5908F9D12285800000000E4F50EB5
:104FA800F50DF50CF50B908E69E054FDF0E054FE1C
:104FB800F0126E5E7B017A8E796A123835908E6AAD
:104FC800E0FEA3E0C3945DEE9400400302507790A6
:104FD8008E6AE0A3E0FF7C007D0E12258474B02F5A
:104FE800F9748F3EFA7B0178A27C8F7D017E007F69
:104FF8000E122506126E5E908FA4E0640370127B79
:10500800017A8F79A2125C3C908E69E04401F080AD
:1050180054908FA4E064067034908FAAE0FEA3E059
:10502800FF7B017A95794E909756E4F0A37402F0CD
:105038001240A27B017A8F79A290954EE0FCA3E002
:10504800FD125D57908E69E04401F08018908FA49E
:10505800E0641070107B017A8F79A212507F908ED5
:1050680069E04401F0E4F50EF50DF50CF50B22E4CA
:10507800908E6AF0A3F0229095501228B5E490958E
:1050880055F0909550122895900001122545FF90F3
:105098009555E0FE04F074562EF582E43495F583B8
:1050A800EFF0909555E0FF04F074562FF582E43444
:1050B80095F5837410F090955012289590000A1277
:1050C8002678E5F0FF909555E0FE04F074562EF52D
:1050D80082E43495F583EFF090955012289590006E
:1050E8000A122678FF909555E0FE04F074562EF5C6
:1050F80082E43495F583EFF090955012289590004E
:1051080003122545FFE4909555E0FE04F074562EF1
:10511800F582E43495F583E4F09095501228959043
:105128000003122545FF909555E0FE04F074562EB5
:10513800F582E43495F583EFF09095501228959018
:10514800000312254525E0FF909555E0FE04F07414
:10515800562EF582E43495F583EFF0908FAAE0FEA1
:10516800A3E0FFC006C007909555E02456F9E43443
:1051780095FA7B01C003C002C00190955012289592
:1051880090000312254575F002A4FF909756E5F0AC
:10519800F0A3EFF0D001D002D003D007D006124020
:1051A800A290955012289590000312254525E0FFFE
:1051B800909555E02FF07B017A957956E0FD7C00BB
:1051C800126479909553EEF0A3EFF0909553E0FEBA
:1051D800A3E0EEFFA3E0FE04F074562EF582E4345B
:1051E80095F583EFF0909553E0A3E0FFA3E0FE046C
:1051F800F074562EF582E43495F583EFF07B017A4E
:10520800957956909555E0FD1268A422909751EE35
:10521800F0A3EFF0909751E0FEA3E0FFA3EEF0A318
:10522800EFF0909753E0FEA3E0C39478EE64809487
:1052380080500D909753740575F0A012262180E2D6
:10524800909753E0FEA3E024D8FFEE34FFA3F0A329
:10525800EFF0909753E0A3E024B0FFEE34FF90976F
:1052680057F0A3EFF0909753E0A3E02488FFEE34C3
:10527800FF909759F0A3EFF0909753E0A3E0FF7CDD
:10528800057DA01225EB909753ECF0A3EDF09097D5
:1052980053E0FEA3E0FF7C007D3C1225EB90975B7A
:1052A800EFF0909753E0FEA3E0FF7C007D3C1225D1
:1052B800EB90975CEDF0909755E0FEA3E0FF7C053E
:1052C8007DA01225EB909755ECF0A3EDF090975543
:1052D800E0FEA3E0FF7C007D3C1225EB90975DEF9C
:1052E800F0909755E0FEA3E0FF7C007D3C1225EB93
:1052F80090975EEDF0909757E0FEA3E0FF7C057D68
:10530800A01225EB909757ECF0A3EDF0909757E09B
:10531800FEA3E0FF7C007D3C1225EB90975FEFF049
:10532800909757E0FEA3E0FF7C007D3C1225EB90B0
:105338009760EDF0909759E0FEA3E0FF7C057DA013
:105348001225EB909759ECF0A3EDF0909759E0FEF9
:10535800A3E0FF7C007D3C1225EB909761EFF09075
:105368009759E0FEA3E0FF7C007D3C1225EB909767
:1053780062EDF07B017A97795B909768E4F0A3740B
:1053880008F07F207ECD12430F22909593EFF07B9B
:10539800FF7A72793E78947C957D017E007F201299
:1053A8002506909593E0C3940A7480948040030284
:1053B80054E07B017A9A794378947C957D017E004C
:1053C8007F1A122506909593E075F01BA42464FFBC
:1053D800E435F0909598F0A3EFF090959D7401F066
:1053E800909593E075F006A424BEF582E4349AF50E
:1053F80083E0FEA3E0FF7B017A957994909768E4B7
:10540800F0A37420F012430F7B017A9A795D7894A7
:105418007C957D017E007F1A122506909593E07594
:10542800F01BA42464FFE435F0909598F0A3EFF006
:1054380090959D7401F0909593E075F006A424C0B2
:10544800F582E4349AF583E0FEA3E0FF7B017A95C8
:105458007994909768E4F0A37420F012430F7B01CD
:105468007A9A79FA78947C957D017E007F1A1225C4
:1054780006909593E075F01BA42464FFE435F09042
:105488009598F0A3EFF0909593E075F01BA4246431
:10549800FFE435F090959EF0A3EFF0909593E075BA
:1054A800F01BA4247DFFE435F09095A2F0A3EFF063
:1054B800909593E075F006A424C2F582E4349AF539
:1054C80083E0FEA3E0FF7B017A957994909768E4E6
:1054D800F0A37420F012430F22C0E0C0F0C083C0D4
:1054E80082C0D075D000C000C001C002C003C00493
:1054F800C005C006C007C2AF758CBC758ACD909B2D
:1055080048E475F001122621909B48E0FEA3E0D301
:1055180094E8EE94034018909B48E4F0A3F0A37538
:10552800F001122621909B46E475F00112262143D2
:10553800C901909B54122834E47B01FAF9F8122629
:10554800CF909B5412284C909B4CE475F001122686
:1055580021909B4E122834E4F81226CF909B4E12CD
:10556800284C909B52E0FEA3E0FFE4FCFD7BDC7A34
:10557800FFF8D31227F9400A909B52E475F0011204
:1055880026210509E50970020508AF12AE11AD1014
:10559800AC0FE47B01FAF9F81226CF8F128E118D29
:1055A800108C0FAF0EAE0DAD0CAC0BE41226CF8FE6
:1055B8000E8E0D8D0C8C0BE47B64AF12AE11AD100A
:1055C800AC0F122767AC00AD01AE02AF03E4FBFAE3
:1055D800F9F8C312280F7003430A02E47BF47A0136
:1055E800F9F8AF12AE11AD10AC0F122767AC00ADD1
:1055F80001AE02AF03E4FBFAF9F8C312280F7003F7
:10560800430A04430A01D2AFD007D006D005D0041C
:10561800D003D002D001D000D0D0D082D083D0F037
:10562800D0E032909593EFF0A3ECF0A3EDF0A3EB6C
:10563800F07BFF7A72791E78977C957D017E007FDA
:1056480020122506909593E0C3940A7480948040B4
:105658000302576F7B017A9A794378977C957D018D
:105668007E007F1A122506909593E075F01BA424FE
:1056780064FFE435F090959BF0A3EFF0E49095A0DB
:10568800F0909594E0FEA3E02401FFE43E90959706
:10569800F0A3EFF0909593E075F006A424BEF58290
:1056A800E4349AF583E0FEA3E0FF7B017A957997CD
:1056B800909768E4F0A37420F012430F7B017A9A64
:1056C800795D78977C957D017E007F1A122506907A
:1056D8009593E075F01BA42464FFE435F090959B46
:1056E800F0A3EFF0909596E0FFC3740E9F9095A0FD
:1056F800F0909594E0FEA3E02404FFE43E90959793
:10570800F0A3EFF0909593E075F006A424C0F5821D
:10571800E4349AF583E0FEA3E0FF7B017A9579975C
:10572800909768E4F0A37420F012430F909594E0EA
:10573800FEA3E02408FFE43E909597F0A3EFF090D5
:105748009593E075F006A424C2F582E4349AF583B3
:10575800E0FEA3E0FF7B017A957997909768E4F0E3
:10576800A37402F012430F2290955BEFF0A3EDF0C3
:10577800A3EBF0E4909568F0A3F090955BE024D05B
:10578800FFE43407909568F0A3EFF0909568E0FE89
:10579800A3E0FF7C007D6412259690955EECF0A353
:1057A800EDF0909568E0FEA3E0FF7C007D64122593
:1057B80096909560EEF0A3EFF090955CE0FF9095E1
:1057C80062E4F0A3EFF090955DE0FF909564E4F05B
:1057D800A3EFF0909562E0FEA3E064014E600B90A9
:1057E8009562E0A3E064024E701490955E74FFF534
:1057F800F0122621909562E475F00C1226219095FE
:105808005EE0FEA3E07802CEC313CE13D8F9FF9072
:10581800955EE0FCA3E02FFDEE3CFCA3E0FEA3E0D8
:105828007802CEC313CE13D8F92DFDEC3EFC90952B
:1058380060E0FEA3E025E0FFEE33FEC3ED9FFBEC46
:105848009EFAA3E0FEA3E02401FFE43EFE7C007D77
:105858000D1225847D05122596EF2BFFEE3AFEA347
:10586800E0FCA3E02FFFEE3CFEEF24FFFFEE34FF49
:10587800A3F0A3EFF0909566E0FEA3E0C3EE9400DA
:10588800500C909566E475F00712262180E79095F4
:1058980066E0FEA3E0FF7C007D07122596909566E2
:1058A800ECF0A3EDF0909566E0A3E0FF227BFF7A91
:1058B8007279C478507C957D017E007F2812250678
:1058C800E4909578F0A3F0909578E0FEA3E0C39477
:1058D80026EE940040030259F9909578E0A3E07809
:1058E80003C333CE33CED8F9246DF582748E3EF5DA
:1058F80083E0FF909B5FE0FCA3E0FDEF6D7001EC9F
:1059080060030259EC909578E0FEA3E07803C33376
:10591800CE33CED8F9246EF582748E3EF583E0FE40
:10592800A3E0FF7B017A957950909756E4F0A37431
:1059380002F01240A2909578E0FEA3E07803C3330A
:10594800CE33CED8F92470F582748E3EF583E0FE0E
:10595800A3E0FF7B017A957952909756E4F0A374FF
:1059680002F01240A2909552E0FEA3E0FF909550FD
:10597800E0FCA3E06F7002EC6E6069909578E0FE41
:10598800A3E07803C333CE33CED8F92470F58274FC
:105998008E3EF583E0FEA3E0FF7B017A9579509077
:1059A8009768E4F0A37402F012430F909554E4F062
:1059B800A3745AF0909578E0FEA3E07803C333CE41
:1059C80033CED8F92472F582748E3EF583E0FEA3B7
:1059D800E0FF7B017A957954909768E4F0A374020C
:1059E800F012430F909578E475F0011226210258C1
:1059F800CF227B017A957953909756E4F0A37404EB
:105A0800F07F087E501240A2909555E0FEA3E0FF7B
:105A1800909553E0FCA3E06F7002EC6E7003025B9C
:105A28001D7B017A957953909768E4F0A37402F08E
:105A38007F097E5012430F909553E0FEA3E02402A5
:105A4800FFEE34F890955BF0A3EFF0909553E0A348
:105A5800E0FF909B65E0FCA3E02FFFEC3E9095579C
:105A6800F0A3EFF0909557E0FEA3E0C394FEEE9408
:105A780007400B90955774F875F0021226217B01A8
:105A88007A957957909768E4F0A37402F07F007EC6
:105A98000312430F7B017A957957909768E4F0A336
:105AA8007402F0FF7E0312430F909553E0FEA3E0CB
:105AB8007802CEC313CE13D8F9FF909553EEF0A316
:105AC800EFF0909553E475F08F1226217B017A95BB
