:100000000271CA020006C2AFD2AF32026219C2AF99
:10001000D2AF3202000E90A7F9E0FEA3E0FF127A01
:02002000572265
:070023000275F0127D482276
:10002B00027E9F90A5DE1236D10000300090A5E233
:10003B00E4F0A3740CF07D007C307F5A12726B7B62
:10004B00017AA879B190A5E0E4F0A37418F07F00D1
:10005B007E30124F25E490A3D5F090A3D5E0C39446
:10006B000774809480506EE025E025E024B1F58282
:10007B00E434A8F5831236ADE4FBFAF9F8C3123673
:10008B0088602290A3D5E025E025E024B1F582E439
:10009B0034A8F5831236AD7B3F7A42790F7800C3D3
:1000AB00123688502890A3D5E025E025E0248BF567
:1000BB0082E434A8F5831236AD90A3D5E025E02574
:1000CB00E024B1F582E434A8F5831236C590A3D5AC
:1000DB00E004F080857B017AA879B190A5F2E4F079
:0C00EB00A37414F07FA07EA61251922294
:1000F800FFFF4457494E543542A9E8000041A9E1A1
:100108000042A9E2000041A9E40041A9E50042A992
:10011800E6000042A9EE000042A9EC000042A9EA6C
:1001280000005AA8CD3FC900690064000086000A93
:100138002D2D203A3A000000000000000000005A6F
:10014800A8E73FCC01270064000086000A2D2D2F68
:100158003A3A000000000000000000005AA9833F5E
:10016800D001E50064000001E5006402AD007D00F7
:10017800100017181802000000603CA94740004012
:10018800A04140401040B04150402040C041604034
:100198003040D04170404040E04180405040F04104
:1001A800904060410041A04070411041B040804102
:1001B8002041C04090413041D054A93341E041F83A
:1001C80042104228424042584270428842A042B8F7
:1001D80048A924000000000000000042A92C0000EB
:1001E80042A931000042A92E000041A9300041A9CE
:1001F800130042A901000549956CB2E2CAD4BABA03
:10020800D7D6006E60957549443030BBD8B7E7B88B
:10021800DFCEC20000000000000000000000000067
:100228000000000000000049443031BBD8B7E7B5F2
:10023800CDCEC20000000000000000000000000059
:100248000000000000000049443032BBD8B7E7B8CE
:10025800DFCAAA0000000000000000000000000043
:100268000000000000000049443033BBD8B7E7B5B0
:10027800CDCAAA0000000000000000000000000035
:100288000000000000000049443034CBCDB7E7B887
:10029800DFCEC200000000000000000000000000E7
:1002A8000000000000000049443035CBCDB7E7B569
:1002B800CDCEC200000000000000000000000000D9
:1002C8000000000000000049443036CBCDB7E7B845
:1002D800DFCAAA00000000000000000000000000C3
:1002E8000000000000000049443037CBCDB7E7B527
:1002F800CDCAAA00000000000000000000000000B5
:100308000000000000000049443038B1A3C1F400E7
:1003180000000000000000000000000000000000D5
:100328000000000000000049443039C4DAB2BFCDF3
:10033800A8D0C50000000000000000000000000078
:1003480000000000000000494431304E5443D2EC14
:10035800B3A300000000000000000000000000003F
:100368000000000000000049443131B7E7BBFA3112
:10037800B9CAD5CF0000000000000000000000004E
:100388000000000000000049443132B1A3C1F4006C
:100398000000000000000000000000000000000055
:1003A8000000000000000049443133B1A3C1F4004B
:1003B8000000000000000000000000000000000035
:1003C8000000000000000049443134B1A3C1F4002A
:1003D8000000000000000000000000000000000015
:1003E8000000000000000049443135B1A3C1F40009
:1003F80000000000000000000000000000000000F5
:100408000000000000000049443136CDE2B7E7BBE8
:10041800FAB9CAD5CF0000000000000000000000B3
:100428000000000000000049443137B7E7BBFA314B
:10043800D4CBD0D0B3ACCAB100000000000000009B
:100448000000000000000049443138B1A3C1F400A5
:100458000000000000000000000000000000000094
:100468000000000000000049443139B1A3C1F40084
:100478000000000000000000000000000000000074
:100488000000000000000049443230B1A3C1F4006C
:100498000000000000000000000000000000000054
:1004A8000000000000000049443231B1A3C1F4004B
:1004B8000000000000000000000000000000000034
:1004C8000000000000000049443232CDE2B7E7BB2B
:1004D800FAD4CBD0D0B3ACCAB10000000000000001
:1004E8000000000000000049443233B8DFD1B931C0
:1004F800BFAAB9D8000000000000000000000000FA
:100508000000000000000049443234B8DFD1B9319E
:10051800CBF8CBC000000000000000000000000085
:100528000000000000000049443235B5CDD1B93192
:10053800B8E6BEAF000000000000000000000000A8
:100548000000000000000049443236B5CDD1B93171
:10055800CBF8CBC000000000000000000000000045
:100568000000000000000049443237C5C5C6F8CE77
:10057800C2B6C831B8E6BEAF0000000000000000F7
:100588000000000000000049443238C5C5C6F8CE56
:10059800C2B6C831CBF8CBC0000000000000000094
:1005A8000000000000000049443239B6CCD6DCC651
:1005B800DA31B8E6BEAF000000000000000000001D
:1005C8000000000000000049443330D1B9BBFA31C3
:1005D800D4CBD0D0B3ACCAB10000000000000000FA
:1005E8000000000000000049443331B8DFD1B932BF
:1005F800BFAAB9D8000000000000000000000000F9
:100608000000000000000049443332B8DFD1B9329D
:10061800CBF8CBC000000000000000000000000084
:100628000000000000000049443333B5CDD1B9D1F2
:10063800B9C1A6B8E6BEAF00000000000000000087
:100648000000000000000049443334B5CDD1B93270
:10065800CBF8CBC000000000000000000000000044
:100668000000000000000049443335C5C5C6F8CE77
:10067800C2B6C832B8E6BEAF0000000000000000F5
:100688000000000000000049443336C5C5C6F8CE56
:10069800C2B6C832CBF8CBC0000000000000000092
:1006A8000000000000000049443337B6CCD6DCC651
:1006B800DA32B8E6BEAF000000000000000000001B
:1006C8000000000000000049443338D1B9BBFA32B9
:1006D800D4CBD0D0B3ACCAB10000000000000000F9
:1006E8000000000000000049443339BCD3CAAAC640
:1006F800F7B5E7C1F7B9FDB4F3000000000000004A
:100708000000000000000049443430BCD3CAAAC627
:10071800F7B8DFCBAECEBB00000000000000000041
:100728000000000000000049443431BCD3CAAAC606
:10073800F7C8B1CBAE0000000000000000000000C8
:100748000000000000000049443432BCD3CAAAC6E5
:10075800F7D4CBD0D0B3ACCAB10000000000000081
:100768000000000000000049443433BCD3C8C8C6A8
:10077800F7B8E6BEAF00000000000000000000006F
:100788000000000000000049443434BCD3C8C8C687
:10079800F731B3ACCAB1000000000000000000004F
:1007A8000000000000000049443435BCD3C8C8C666
:1007B800F732B3ACCAB1000000000000000000002E
:1007C8000000000000000049443436B6CFB5E7D633
:1007D800D8C6F4000000000000000000000000007F
:1007E8000000000000000049443437B5E7D4B4CF16
:1007F800E0D0F2B4EDCEF3000000000000000000ED
:100808000000000000000049443438B5E7D4B4C6FD
:10081800B5C2CAC6ABB8DF00000000000000000087
:100828000000000000000049443439B5E7D4B4C6DC
:10083800B5C2CAC6ABB5CD0000000000000000007C
:10084800000000000000004944353041CFE0B9FD08
:10085800D1B9000000000000000000000000000006
:10086800000000000000004944353142CFE0B9FDE6
:10087800D1B90000000000000000000000000000E6
:10088800000000000000004944353243CFE0B9FDC4
:10089800D1B90000000000000000000000000000C6
:1008A800000000000000004944353341CFE0C7B7DD
:1008B800D1B90000000000000000000000000000A6
:1008C800000000000000004944353442CFE0C7B7BB
:1008D800D1B9000000000000000000000000000086
:1008E800000000000000004944353543CFE0C7B799
:1008F800D1B9000000000000000000000000000066
:10090800000000000000004944353641CFE0C8B17E
:10091800CFE0000000000000000000000000000020
:10092800000000000000004944353742CFE0C8B15C
:10093800CFE0000000000000000000000000000000
:10094800000000000000004944353843CFE0C8B13A
:10095800CFE00000000000000000000000000000E0
:100968000000000000000049443539C6F8C1F7B658
:10097800AACAA7B8E6BEAF00000000000000000049
:100988000000000000000049443630B9FDC2CBCD5C
:10099800F8D4CBD0D0B3ACCAB1000000000000003E
:1009A8000000000000000049443631B9FDC2CBCD3B
:1009B800F8B6C2B8E6BEAF000000000000000000B4
:1009C8000000000000000049443632D4B6B3CCB968
:1009D800D8BBFAB8E6BEAF00000000000000000077
:1009E8000000000000000049443633D2E7CBAEB81F
:1009F800E6BEAF000000000000000000000000009C
:100A08000000000000000049443634C8BABFD8CD01
:100A1800A8D0C5D2ECB3A30000000000000000007D
:100A28000000000000000049443635B1A3C1F400BD
:100A380000000000000000000000000000000000AE
:100A48000000000000000049443636B5CDB9FDC8A5
:100A5800C8B6C831B8E6BEAF00000000000000000C
:100A68000000000000000049443637B5CDB9FDC884
:100A7800C8B6C832B8E6BEAF0000000000000000EB
:100A88000000000000000049443638D1CCCEEDB853
:100A9800E6BEAF00000000000000000000000000FB
:100AA8000000000000000049443639D3C3BBA7D773
:100AB800D4B6A8D2E5B8E6BEAF000000000000003A
:100AC8000000000000000049443730B5E7D4B4D234
:100AD800ECB3A300000000000000000000000000CC
:100AE8000000000000000049443731B1A3C1F40000
:100AF80000000000000000000000000000000000EE
:100B08000000000000000049443732B1A3C1F400DE
:100B180000000000000000000000000000000000CD
:100B28000000000000000049443733B1A3C1F400BD
:100B380000000000000000000000000000000000AD
:100B48000000000000000049443734B1A3C1F4009C
:100B5800000000000000000000000000000000008D
:100B68000000000000000049443735B1A3C1F4007B
:100B7800000000000000000000000000000000006D
:100B88000000000000000049443736B1A3C1F4005A
:100B9800000000000000000000000000000000004D
:100BA8000000000000000049443737B1A3C1F40039
:100BB800000000000000000000000000000000002D
:100BC8000000000000000049443738B1A3C1F40018
:100BD800000000000000000000000000000000000D
:100BE8000000000000000049443739B1A3C1F400F7
:100BF80000000000000000000000000000000000ED
:100C08000000000000000049443830C5C5CBAEB82C
:100C1800DFCBAECEBB0000000000000000000000EB
:100C28000000000000000049443831BCD3CAAAC6FD
:100C3800F7D2ECB3A30000000000000000000000A1
:100C48000000000000000049443832B7E7D1B9B9C4
:100C5800FDB5CD000000000000000000000000000D
:100C68000000000000000049443833B1A3C1F4007B
:100C7800000000000000000000000000000000006C
:100C88000000000000000049443834B8DFD1B93111
:100C9800D1B9C1A60000000000000000000000005B
:100CA8000000000000000049443835B1A3C1F40039
:100CB800000000000000000000000000000000002C
:100CC80000000000000000494438364D4F5031B84C
:100CD800E6BEAF00000000000000000000000000B9
:100CE80000000000000000494438374D4F5032B82A
:100CF800E6BEAF0000000000000000000000000099
:100D080000000000000000494438384C4F5031B80A
:100D1800E6BEAF0000000000000000000000000078
:100D280000000000000000494438394C4F5032B8E8
:100D3800E6BEAF0000000000000000000000000058
:100D48000000000000000049443930C9E8B1B8CAC1
:100D5800B9D3C3B3ACCAB100000000000000000062
:100D68000000000000000049443931B1A3C1F4007B
:100D7800000000000000000000000000000000006B
:100D88000000000000000049443932B1A3C1F4005A
:100D9800000000000000000000000000000000004B
:100DA8000000000000000049443933B1A3C1F40039
:100DB800000000000000000000000000000000002B
:100DC8000000000000000049443934B1A3C1F40018
:100DD800000000000000000000000000000000000B
:100DE8000000000000000049443935B1A3C1F400F7
:100DF80000000000000000000000000000000000EB
:100E08000000000000000049443936B1A3C1F400D5
:100E180000000000000000000000000000000000CA
:100E28000000000000000049443937B1A3C1F400B4
:100E380000000000000000000000000000000000AA
:100E48000000000000000049443938B1A3C1F40093
:100E5800000000000000000000000000000000008A
:100E68000000000000000049443939B1A3C1F40072
:100E7800000000000000000000000000000000006A
:100E8800000000000000004944313030B1A3C1F433
:100E9800000000000000000000000000000000004A
:100EA800000000000000004944313031B1A3C1F412
:100EB800000000000000000000000000000000002A
:100EC800000000000000004944313032B1A3C1F4F1
:100ED800000000000000000000000000000000000A
:100EE800000000000000004944313033B1A3C1F4D0
:100EF80000000000000000000000000000000000EA
:100F0800000000000000004944313034B1A3C1F4AE
:100F180000000000000000000000000000000000C9
:100F2800000000000000004944313035B1A3C1F48D
:100F380000000000000000000000000000000000A9
:100F4800000000000000004944313036B1A3C1F46C
:100F58000000000000000000000000000000000089
:100F6800000000000000004944313037B1A3C1F44B
:100F78000000000000000000000000000000000069
:100F8800000000000000004944313038B1A3C1F42A
:100F98000000000000000000000000000000000049
:100FA800000000000000004944313039B1A3C1F409
:100FB8000000000000000000000000000000000029
:100FC800000000000000004944313130B1A3C1F4F1
:100FD8000000000000000000000000000000000009
:100FE800000000000000004944313131B1A3C1F4D0
:100FF80000000000000000000000000000000000E9
:10100800000000000000004944313132B1A3C1F4AE
:1010180000000000000000000000000000000000C8
:10102800000000000000004944313133B1A3C1F48D
:1010380000000000000000000000000000000000A8
:10104800000000000000004944313134B1A3C1F46C
:101058000000000000000000000000000000000088
:101068000000000000000041A9F00047A9C00000EE
:10107800000000000047A9B100000000000000487F
:10108800A9C7000000000000000048A9B80000003F
:101098000000000000C10042A9AF000052A99D0055
:1010A8000000000000000000000000000000000038
:1010B8000042A9D1000042A9D3000042A9CF0000F4
:1010C80044A9DD0000000042A9D5000044A9D700CA
:1010D80000000002080000040B00000000040F00DC
:1010E80000000042A9DB0000010A006100A5F6002B
:1010F800C1814001C0804101C0804100C1814001DF
:10110800C0804100C1814000C1814001C0804101CF
:10111800C0804100C1814000C1814001C0804100C0
:10112800C1814001C0804101C0804100C1814001AE
:10113800C0804100C1814000C1814001C0804100A0
:10114800C1814001C0804101C0804100C18140008F
:10115800C1814001C0804101C0804100C18140017E
:10116800C0804100C1814000C1814001C08041016F
:10117800C0804100C1814000C1814001C080410060
:10118800C1814001C0804101C0804100C18140004F
:10119800C1814001C0804101C0804100C18140013E
:1011A800C0804100C1814000C1814001C080410030
:1011B800C1814001C0804101C0804100C18140011E
:1011C800C0804100C1814000C1814001C08041010F
:1011D800C0804100C1814000C1814001C080410000
:1011E800C1814001C0804101C0804100C18140618E
:1011F80000A6F600C0C101C30302C2C60607C705A0
:10120800C5C404CC0C0DCD0FCFCE0E0ACACB0BC96A
:101218000908C8D81819D91BDBDA1A1EDEDF1FDD4A
:101228001D1CDC14D4D515D71716D6D21213D3111A
:10123800D1D010F03031F133F3F23236F6F737F51A
:101248003534F43CFCFD3DFF3F3EFEFA3A3BFB39AA
:10125800F9F83828E8E929EB2B2AEAEE2E2FEF2DAA
:10126800EDEC2CE42425E527E7E62622E2E323E15A
:101278002120E0A06061A163A3A26266A6A767A57A
:101288006564A46CACAD6DAF6F6EAEAA6A6BAB69EA
:10129800A9A86878B8B979BB7B7ABABE7E7FBF7DCA
:1012A800BDBC7CB47475B577B7B67672B2B373B19A
:1012B8007170B050909151935352929656579755DA
:1012C8009594549C5C5D9D5F9F9E5E5A9A9B5B992A
:1012D800595898884849894B8B8A4A4E8E8F4F8D2A
:1012E8004D4C8C44848545874746868242438341DA
:1012F8008180404194E700418518004495680000CA
:10130800000041851300448514000000006FC0856B
:101318002700021003C80250155016000000FF00F5
:10132800020303C8000000A020031C00FF00020302
:1013380001C8010039A023031900FF00020601C8F3
:1013480003A084A0240100003900020301C80100A1
:1013580039A025010400FF00020601C802A087A0E9
:1013680027010400FF00020303C8010039A0A001FF
:101378001A00FF00020302C8000000A0A303100027
:10138800FF5A020302C801000AAA20032600FF5AD6
:10139800020301C801000AAA22036900FF5A0203D6
:1013A80002C801000AAA23036B00FF5A020301C8FE
:1013B80001000AAA25037700FF5A02031FC801008B
:1013C8000BAB20037500FF00020601C803AC80AC1C
:1013D80020023A000C00020306C800000DAEA0036C
:1013E8002000FF00020301C801000FCF270197006A
:1013F800FF00020307C803B300B320011A0013005B
:10140800020601C803B380B320011A0013000206C4
:1014180001C803B382B322011C001300020601C8ED
:1014280003B383B323011D001300020601C803B3ED
:1014380084B324011E001300020601C803B385B358
:1014480025011F001300020601C803B386B3260155
:101458002000130002030BC803B400B42001580095
:101468001400020301C803B400B42B013B001400AC
:10147800020301C803B400B42C019E001400020644
:1014880001C803B480B4200158001400020601C842
:1014980003B481B4210159001400020601C803B441
:1014A80083B423015B001400020601C803B484B4AA
:1014B80024015C001400020601C803B485B42501A8
:1014C8005D001400020601C803B486B426015E005C
:1014D8001400020601C803B487B427015F00140092
:1014E800020601C803B488B428016000140002068B
:1014F80001C803B48AB42A0162001400020601C8B4
:1015080003B48BB42B013B001400020601C803B4DA
:101518008CB42C019E001400020306C803B700B760
:1015280020013B001700020305C803B700B72601D6
:1015380043001700020601C803B780B720013B002B
:101548001700020601C803B784B724013F0017003B
:10155800020601C803B785B7250140001700020637
:1015680001C803B786B7260143001700020601C861
:1015780003B787B7270144001700020601C803B75D
:1015880088B7280145001700020601C803B789B7C4
:10159800290146001700020601C803B78AB72A01C5
:1015A80047001700020301C803B800B820016A0009
:1015B8001800020303C803B800B821016D00180021
:1015C800020301C803B800B824017200180002031E
:1015D80001C803B800B8250174001800020301C847
:1015E80003B800B826017B001800020301C803B83D
:1015F80000B827022A001800020601C803B880B8FC
:1016080020016A001800020601C803B881B8210148
:101618006D001800020601C803B882B822016E00E6
:101628001800020601C803B883B823016F00180028
:10163800020601C803B884B8240172001800020623
:1016480001C803B885B8250174001800020601C84E
:1016580003B886B826017B001800020601C803B843
:1016680087B827022A001800020301C803BB00BB81
:101678002001B0001B00020302C803BB00BB21010C
:10168800B2001B00020302C803BB00BB2301B50064
:101698001B00020302C803BB00BB2501B8001B00E6
:1016A800020301C803BB00BB2701BB001B000203E8
:1016B80002C803BB00BB2801D1001B00020302C8FB
:1016C80003BB00BB2A01FB001B00020302C803BBCB
:1016D80000BB2C0276001B00020601C803BB80BBBE
:1016E8002001B0001B00020601C803BB81BB210119
:1016F800B2001B00020601C803BB82BB2201B30073
:101708001B00020601C803BB83BB2301B5001B00F5
:10171800020601C803BB84BB2401B6001B000206F5
:1017280001C803BB85BB2501B8001B00020601C820
:1017380003BB86BB2601B9001B00020601C803BB18
:1017480087BB2701BB001B00020601C803BB88BB7F
:101758002801D1001B00020601C803BB89BB29016F
:10176800D2001B00020601C803BB8ABB2A01FB008A
:101778001B00020601C803BB8BBB2B01FC001B002E
:10178800020601C803BB8CBB2C0276001B000206B4
:1017980001C803BB8DBB2D0277001B00020302C8E2
:1017A80003BC00BC200232001C00020301C803BCB9
:1017B80000BC220252001C00020301C803BC00BC8A
:1017C800230255001C00020301C803BC00BC24020C
:1017D80058001C00020301C803BC00BC25026100BC
:1017E8001C00020302C803BC00BC260271001C00D6
:1017F800020301C803BC00BC280286001C000206C4
:1018080001C803BC80BC200232001C00020601C8CB
:1018180003BC81BC210233001C00020601C803BCC2
:1018280082BC220252001C00020601C803BC83BC11
:10183800230255001C00020601C803BC84BC240214
:1018480058001C00020601C803BC85BC25026100C3
:101858001C00020601C803BC86BC260271001C00DD
:10186800020601C803BC87BC270272001C000206DE
:1018780001C803BC88BC280286001C00020302C8F9
:1018880003BF00BF200102001F00020301C803BFFD
:1018980000BF220107001F00020301C803BF00BFE9
:1018A8002301A5001F00020601C803BF80BF200155
:1018B80002001F00020601C803BF81BF2101030007
:1018C8001F00020601C803BF82BF220107001F00D4
:1018D800020601C803BF83BF2301A5001F0002033E
:1018E80008C803C200C2200182002200020301C806
:1018F80003C200C228018C002200020301C803C2EF
:1019080000C2290198002200020601C803C280C251
:10191800200182002200020601C803C281C22101FF
:1019280083002200020601C803C282C22201840089
:101938002200020601C803C284C2240186002200D4
:10194800020601C803C285C22501870022000206DB
:1019580001C803C286C2260188002200020601C807
:1019680003C287C2270189002200020601C803C2F8
:1019780088C228018C002200020601C803C289C25D
:10198800290198002200020601C803C580C520026B
:101998003B000F00020301C8010026CF2701970072
:1019A800FF00020301C803C700C72001A6002700E3
:1019B800020301C803C700C72101A90027000203C9
:1019C80001C803C700C72501AB002700020301C8EF
:1019D80003C700C72602D9002700020301C803C7AE
:1019E80000C72702D8002700020302C803C700C7A0
:1019F8002802CE002700020301C8010027A0250104
:101A08000400FF00020601C803C780C72001A60022
:101A18002700020601C803C781C72101A9002700C2
:101A2800020601C803C782C72201A80027000203D3
:101A380001C8010027C723037500FF00020301C87E
:101A4800010027C724037700FF00020601C803C767
:101A580085C72501AB002700020601C803C786C752
:101A68002602D9002700020601C803C787C7270234
:101A7800D8002700020601C803C788C72802CE007D
:101A88002700020601C803C789C72902CF0027001B
:101A9800020301C803C800C8200127002800020368
:101AA80001C803C800C8210129002800020304C88E
:101AB80003C800C822012D002800020301C803C87A
:101AC80000C8260190002800020301C803C800C806
:101AD800270194002800020601C803C880C8200115
:101AE80027002800020601C803C881C8210129006F
:101AF8002800020601C803C882C822012D00280058
:101B0800020601C803C883C823012E002800020664
:101B180001C803C884C824012F002800020601C890
:101B280003C885C8250130002800020601C803C87B
:101B380086C8260190002800020601C803C887C885
:101B480027019400280002030EC8010029C9B00328
:101B58007800FF00020601C803C990C930023C00A2
:101B68002900020303C803CC00CCA00302002C0008
:101B7800020304C803CF00CF20010D002F00020389
:101B880001C803CF00CF240141002F00020301C880
:101B980003CF00CF25015A002F00020301C803CF4D
:101BA80000CF2602D0002F00020301C803CF00CFC8
:101BB800270197002F00020601C803CF80CF20011C
:101BC8000D002F00020601C803CF81CF21010E00AE
:101BD8002F00020601C803CF82CF22010F002F0079
:101BE800020601C803CF83CF230110002F0002068D
:101BF80001C803CF84CF240141002F00020601C889
:101C080003CF85CF25015A002F00020601C803CF54
:101C180086CF2602D0002F00020601C803CF87CF47
:101C2800270197002F00020601C803CF8ACF2A0296
:101C38003B002F0002030AC8010034D420039C0093
:101C4800FF00020302C8010034D42A03A800FF00E1
:101C5800020307C803D500D520011A003500020683
:101C680001C803D580D520011A003500020601C835
:101C780003D582D522011C003500020601C803D510
:101C880083D523011D003500020601C803D584D57C
:101C980024011E003500020601C803D585D525019B
:101CA8001F003500020601C803D586D5260120008D
:101CB8003500020301C803D600D62001080036000B
:101CC800020302C803D600D621010A003600020327
:101CD80001C803D600D62301A7003600020601C8B2
:101CE80003D680D6200108003600020601C803D6B4
:101CF80081D621010A003600020601C803D682D621
:101D080022010B003600020601C803D683D6230140
:101D1800A7003600020301C803D800D82001F50047
:101D28003800020301C803D800D821020700380090
:101D380002030CC803D800D82201BC0038000203F3
:101D480001C803D800D82E027D003800020301C85C
:101D580003D800D82F027F003800020301C803D837
:101D680000D830020F003800020601C803D880D816
:101D78002001F5003800020601C803D881D82102E5
:101D880007003800020601C803D882D82201BC0027
:101D98003800020601C803D883D82301BD003800E3
:101DA800020601C803D884D82401BE003800020600
:101DB80001C803D885D82501BF003800020601C82C
:101DC80003D886D82601C0003800020601C803D807
:101DD80087D82701C1003800020601C803D888D86F
:101DE8002801C2003800020601C803D889D8290191
:101DF800C3003800020601C803D88AD82A01C400E3
:101E08003800020601C803D88BD82B01C50038005A
:101E1800020601C803D88CD82C01C6003800020677
:101E280001C803D88DD82D01C7003800020601C8A3
:101E380003D88ED82E027D003800020601C803D8C8
:101E48008FD82F027F003800020601C803D890D827
:101E580030020F003800020301C801003ADA2003FB
:101E6800CD00FF00020301C801003ADA2103CF00C8
:101E7800FF00020302C801003ADA2203D100FF0082
:101E8800020301C801003ADA2403D500FF00020367
:101E980001C801003ADA2503D700FF00020301C890
:101EA80001003ADA2603D900FF00020301C8010045
:101EB8003ADA2703DB00FF00020301C801003ADA1F
:101EC8002803DD00FF00020301C803DB00DB20015B
:101ED8009A003B00020301C803DB00DB2102D300A8
:101EE8003B00020302C803DB00DB2202D5003B00F3
:101EF800020302C803DB00DB2402D8003B00020314
:101F080005C803DB00DB2602DB003B00020301C837
:101F180003DB00DB2B0106003B00020301C803DBE7
:101F280000DB2C02E1003B00020302C803DB00DBFC
:101F38002D02E4003B00020302C803DB00DB2F0193
:101F480078003B00020601C803DB80DB20019A0011
:101F58003B00020601C803DB81DB2102D3003B0002
:101F6800020601C803DB82DB2202D5003B00020621
:101F780001C803DB83DB2302D6003B00020601C84D
:101F880003DB84DB2402D8003B00020601C803DB24
:101F980085DB2502D9003B00020601C803DB86DB8E
:101FA8002602DB003B00020601C803DB87DB2702B1
:101FB800DC003B00020601C803DB88DB2802DD00E9
:101FC8003B00020601C803DB89DB2902DE003B0077
:101FD800020601C803DB8ADB2A02DF003B00020697
:101FE80001C803DB8BDB2B0106003B00020601C89E
:101FF80003DB8CDB2C02E1003B00020601C803DB9B
:102008008DDB2D02E4003B00020601C803DB8EDBFA
:102018002E02E5003B00020601C803DB8FDB2F011F
:1020280078003B00020601C803DB90DB3001790031
:102038003B00020301C803DD00DD20019B003D00D9
:10204800020304C803DD00DD2101E7003D000203AF
:1020580002C803DD00DD2501ED003D00020601C8D0
:1020680003DD80DD20019B003D00020601C803DD81
:1020780081DD2101E7003D00020601C803DD82DDA4
:102088002201E8003D00020601C803DD83DD2301CB
:10209800E9003D00020601C803DD84DD2401EA00F1
:1020A8003D00020601C803DD85DD2501ED003D0088
:1020B800020601C803DD86DD2601EE003D000203AD
:1020C80001C801003EDE20037500FF00020303C8BB
:1020D80003DF00DF200237003F00020306C803DFEA
:1020E80000DF23029E003F00020303C803DF00DF76
:1020F800290201003F00020601C803DF80DF200239
:1021080037003F00020601C803DF81DF21023800E3
:102118003F00020601C803DF82DF220239003F00C8
:10212800020601C803DF83DF23029E003F00020688
:1021380001C803DF84DF24029F003F00020601C8B4
:1021480003DF85DF2502A0003F00020601C803DF88
:1021580086DF2602A1003F00020601C803DF87DFF1
:102168002702A2003F00020601C803DF88DF280219
:10217800A3003F00020601C803DF89DF290201002E
:102188003F00020601C803DF8ADF2A0202003F007F
:10219800020601C803DF8BDF2B0203003F000203A6
:1021A80001C8010040E02203BE00FF00020301C88D
:1021B800010040E02303C900FF00021002C803E049
:1021C80080E0200000004000020301C8000000E099
:1021D8000003CC00FF00021002C803E080E02000EA
:1021E80000004100020301C803C700C72001A60080
:1021F8004300020301C803C700C72101A900430027
:10220800020301C803C700C72501AB00430002034E
:1022180001C803C700C72602D9004300020301C84A
:1022280003C700C72702D8004300020302C803C738
:1022380000C72802CE004300020301C8010043A0E2
:1022480025010400FF00020601C803C780C720015A
:10225800A6004300020601C803C781C72101A900DF
:102268004300020601C803C782C72201A800430031
:10227800020301C8010043C723037500FF000203DE
:1022880001C8010043C724037700FF00020601C804
:1022980003C785C72501AB004300020601C803C771
:1022A80086C72602D9004300020601C803C787C7AC
:1022B8002702D8004300020601C803C788C72802BE
:1022C800CE004300020601C803C789C72902CF0010
:1022D800434E8519000000000000000000000000C7
:1022E80000004280010000651080030013B320B392
:1022F80050B3800013B322B352B3820013B323B395
:1023080053B3830013B324B354B3840013B325B376
:1023180055B3850013B326B356B3860014B420B45E
:1023280050B4800014B421B451B4810014B423B45F
:1023380053B4830014B424B454B4840014B425B43E
:1023480055B4850014B426B456B4860014B427B422
:1023580057B4870014B428B458B4880014B42AB405
:102368005AB48A0014B42BB45BB48B0014B42CB4E4
:102378005CB48C0017B720B750B7800017B724B7E4
:1023880054B7840017B725B755B7850017B726B7D0
:1023980056B7860017B727B757B7870017B728B7B4
:1023A80058B7880017B729B759B7890017B72AB798
:1023B8005AB78A0018B820B850B8800018B821B8A1
:1023C80051B8810018B822B852B8820018B823B89A
:1023D80053B8830018B824B854B8840018B825B87E
:1023E80055B8850018B826B856B8860018B827B862
:1023F80057B887001BBB20BB50BB80001BBB21BB51
:1024080051BB81001BBB22BB52BB82001BBB23BB41
:1024180053BB83001BBB24BB54BB84001BBB25BB25
:1024280055BB85001BBB26BB56BB86001BBB27BB09
:1024380057BB87001BBB28BB58BB88001BBB29BBED
:1024480059BB89001BBB2ABB5ABB8A001BBB2BBBD1
:102458005BBB8B001BBB2CBB5CBB8C001BBB2DBBB5
:102468005DBB8D001CBC20BC50BC80001CBC21BCCA
:1024780051BC81001CBC22BC52BC82001CBC23BCC9
:1024880053BC83001CBC24BC54BC84001CBC25BCAD
:1024980055BC85001CBC26BC56BC86001CBC27BC91
:1024A80057BC87001CBC28BC58BC88001FBF20BF75
:1024B80050BF80001FBF21BF51BF81001FBF22BF77
:1024C80052BF82001FBF23BF53BF830022C220C256
:1024D80050C2800022C221C251C2810022C222C23F
:1024E80052C2820022C224C254C2840022C225C21F
:1024F80055C2850022C226C256C2860022C227C201
:1025080057C2870022C228C258C2880022C229C2E4
:1025180059C2890027C720C750C7800027C721C7CD
:1025280051C7810027C725C755C7850027C726C7B4
:1025380056C7860027C727C757C7870027C728C792
:1025480058C7880027C729C759C7890028C820C87D
:1025580050C8800028C821C851C8810028C822C88E
:1025680052C8820028C823C853C8830028C824C872
:1025780054C8840028C825C855C8850028C826C856
:1025880056C8860028C827C857C887002FCF20CF2D
:1025980050CF80002FCF21CF51CF81002FCF22CF16
:1025A80052CF82002FCF23CF53CF83002FCF24CFFA
:1025B80054CF84002FCF25CF55CF85002FCF26CFDE
:1025C80056CF86002FCF27CF57CF870035D520D5B8
:1025D80050D5800035D522D552D5820035D523D5A2
:1025E80053D5830035D524D554D5840035D525D584
:1025F80055D5850035D526D556D5860036D620D66C
:1026080050D6800036D621D651D6810036D622D66D
:1026180052D6820036D623D653D6830038D820D84F
:1026280050D8800038D821D851D8810038D822D83D
:1026380052D8820038D823D853D8830038D824D821
:1026480054D8840038D825D855D8850038D826D805
:1026580056D8860038D827D857D8870038D828D8E9
:1026680058D8880038D829D859D8890038D82AD8CD
:102678005AD88A0038D82BD85BD88B0038D82CD8B1
:102688005CD88C0038D82DD85DD88D0038D82ED895
:102698005ED88E0038D82FD85FD88F0038D830D879
:1026A80060D890003BDB20DB50DB80003BDB21DB8C
:1026B80051DB81003BDB22DB52DB82003BDB23DB8F
:1026C80053DB83003BDB24DB54DB84003BDB25DB73
:1026D80055DB85003BDB26DB56DB86003BDB27DB57
:1026E80057DB87003BDB28DB58DB88003BDB29DB3B
:1026F80059DB89003BDB2ADB5ADB8A003BDB2BDB1F
:102708005BDB8B003BDB2CDB5CDB8C003BDB2DDB02
:102718005DDB8D003BDB2EDB5EDB8E003BDB2FDBE6
:102728005FDB8F003BDB30DB60DB90003DDD20DDD5
:1027380050DD80003DDD21DD51DD81003DDD22DD04
:1027480052DD82003DDD23DD53DD83003DDD24DDE8
:1027580054DD84003DDD25DD55DD85003DDD26DDCC
:1027680056DD86003FDF20DF50DF80003FDF21DFBE
:1027780051DF81003FDF22DF52DF82003FDF23DFAE
:1027880053DF83003FDF24DF54DF84003FDF25DF92
:1027980055DF85003FDF26DF56DF86003FDF27DF76
:1027A80057DF87003FDF28DF58DF88003FDF29DF5A
:1027B80059DF89003FDF2ADF5ADF8A003FDF2BDF3E
:1027C8005BDF8B0043C720C750C7800043C721C7C2
:1027D80051C7810043C725C755C7850043C726C7CA
:1027E80056C7860043C727C757C7870043C728C7A8
:1027F80058C7880043C729C759C789418000005C6A
:10280800A8B1000000000000000000000000000067
:1028180000000000000000000000000000005CA8AC
:102828008B0000000000000001000000020002739D
:1028380060000A2D08000310CC0007ED6541A88749
:10284800FF608CA7FB0000010002000300040005E4
:102858000006000700080009000A000B000C000D24
:10286800000E000F011000110012021300140015D1
:102878000016001700180019001A001B021C001D82
:10288800001E001F00200021002200230024002534
:102898000026022700280029002A002B002C002DE2
:1028A800002E002F03300031003200330034003591
:1028B8000036003700380039003A003B003C003D44
:1028C800003E003F004005410042004300440045EF
:1028D800004AA8A70001010302030306040242A854
:1028E80089000042A7F9000042A7F6000041A7F8B6
:1028F8000000AF13EF1313543F5401640160030247
:1029080032AE7B017AA379D590A5E0F0A3740CF0E0
:102918007F217EA0124F2590A3D7E0FEA3E0FF9071
:10292800A3D5E0FCA3E02FFFEC3EFE90A913E06FD7
:102938007001EE604C90A3D7E0FEA3E0FF90A3D512
:10294800E0A3E02FFFEC3EFE90A913E0C39FE49EB6
:10295800501D90A3DFE4F0A304F0FB7AA379DF9085
:10296800A5F2E4F0A37402F07F267EA012519290A3
:10297800A3D7E0A3E0FF90A3D5E0A3E02F90A9138D
:10298800F090A3D5E0FEA3E0D39400EE9400500CA1
:10299800A3E0FEA3E09400EE9400402090A3DFE0C3
:1029A800FEA3E04E60167B017AA9790190A5F2E4B6
:1029B800F0A37402F07FA07E0012519290A9E8E083
:1029C800FEA3E0640D4E6003022D6B90A9E8E0A31E
:1029D800E0FF90A92CE0FCA3E06F7002EC6E601E93
:1029E800E490A931F0A3F07B017AA9793190A5F29E
:1029F800F0A37402F07F017EAE12519280167B0123
:102A08007AA9793190A5E0E4F0A37402F07F017E01
:102A1800AE124F257B017AA379D590A5E0E4F0A307
:102A28007410F07FA07EAE124F25E490A3E3F0A3CC
:102A3800E05407F07B017AA9790378D57CA37D015E
:102A48007E007F10123910EF702F90A92EE0FEA3A0
:102A5800E0FF90A931E0FCA3E0B5071DECB506192D
:102A680090A9E8E0FEA3E0FF90A92CE0FCA3E06FAA
:102A78007002EC6E70030230607B017AA379D5781E
:102A8800037CA97D017E007F1012337FE490A9307A
:102A9800F090A408F090A408E0C39408748094808F
:102AA8004003022D13E490A407F090A407E0C39418
:102AB80010748094804003022D0AA3E0C454F0FFF0
:102AC80090A407E02F90A40CF0E075F018A424005F
:102AD800FFE5F03435FE7B017AA379D590A5E0E4D3
:102AE800F0A37430F0124F257B017AA379D590A416
:102AF8000912372E90A407E0FF7E007401A807088A
:102B08008005C333CE33CED8F9FF90A408E025E082
:102B18002403F582E434A9F583E0FCA3E0FDEE5C30
:102B2800FEEF5D4E7003022C6190A40912370E125D
:102B380034C6645A7004E5F064A57003022BFE9055
:102B4800A40912370E74A575F05A1235297B017A3B
:102B5800A379E990A5E0E4F0A37408F07F107E0063
:102B6800124F257B017AA379E978D77CA37D017E72
:102B7800007F0312337F7B017AA379ED78DA7CA397
:102B88007D017E007F0312337F7E007F087D007BFE
:102B9800017AA379DD12393490A40CE0FF90A3E305
:102BA800E4F0A3EFF07B017AA379E5C002C00190BD
:102BB800A40C75F020A42475F9749535F0FA90A446
:102BC8002012372E90A423E4F0A37420F0D001D073
:102BD8000212752290A40CE075F018A42400FFE5F9
:102BE800F03435FE7B017AA379D590A5F2E4F0A301
:102BF8007430F012519290A931E0FEA3E0FF7C00FE
:102C08007D0A1233FD90A930E0C39FEC9E4041A39A
:102C1800E0FEA3E0FF1233FDEF240AFFE43EFE903E
:102C2800A930E0C39FEC9E502790A40CE075F018E3
:102C3800A42400FDE5F03435FC90A931E0A3E0754B
:102C4800F00AA4FF90A930E0C39FFF7B0D12672C08
:102C580090A930E004F0022D0190A40912370E1259
:102C680034C6645A7004E5F064A56003022D017B44
:102C7800017AA379E990A5E0F0A37408F07F107EAB
:102C880000124F257B017AA379E978DD7CA37D01C9
:102C98007E007F0312337F7B017AA379ED78E07C95
:102CA800A37D017E007F0312337F90A40CE0FF9088
:102CB800A3E3E4F0A3EFF07B017AA379D590A5F222
:102CC800E4F0A37410F07F007E30125192126DD49C
:102CD800E490A3D5F0A3F090A40CE075F018A42418
:102CE80000FFE5F03435FE7B017AA379D590A5F293
:102CF800E4F0A37402F012519290A407E004F002E9
:102D08002AB290A408E004F0022A9D90A930E0902D
:102D1800A407F090A931E0FEA3E0FF7C007D0A1231
:102D280033FDEF240AFFE43EFE90A407E0C39FECC6
:102D38009E501D90A931E0A3E075F00AA4FF90A46D
:102D480007E0C39FFF1265ED90A407E004F080C37D
:102D580090A931E0FEA3E0FF90A92EEEF0A3EFF0DA
:102D68000230607B017AA379D590A5E0E4F0A374E2
:102D780010F07FA07EAE124F25E490A3E3F0A3E00D
:102D88005407F07B017AA9790378D57CA37D017E6D
:102D9800007F10123910EF70030230607B017AA3B4
:102DA80079D578097CA47D017E007F1012337FE4F9
:102DB80090A408F090A408E0C3940674809480401E
:102DC8000302304DE490A407F090A407E0C39410E8
:102DD800748094804003023044E0FF7E007401A8B0
:102DE80007088005C333CE33CED8F9FF90A408E096
:102DF80025E02409F582E434A4F583E0FCA3E0FD92
:102E0800EE5CFCEF5DFD90A407E0FF7E007401A876
:102E180007088005C333CE33CED8F9FF90A408E065
:102E280025E02403F582E434A9F583E0FAA3E0FB66
:102E3800EE5AFEEF5B6D7002EE6C700302303B9051
:102E4800A408E0C454F0FF90A407E02F90A41CF05D
:102E5800E075F018A42400FFE5F03435FE7B017A14
:102E6800A379D590A5E0E4F0A37430F0124F257B48
:102E7800017AA379D590A41912372E90A407E0FF00
:102E88007E007401A807088005C333CE33CED8F975
:102E9800FF90A408E025E02409F582E434A4F58332
:102EA800E0FCA3E0FDEE5CFEEF5D4E7003022F88B0
:102EB80090A41912370E1234C6645A7004E5F064EF
:102EC800A5700302303B90A41912370E74A575F053
:102ED8005A1235297B017AA379E990A5E0E4F0A399
:102EE8007408F07F107E00124F257B017AA379E9E0
:102EF80078D77CA37D017E007F0312337F7B017A24
:102F0800A379ED78DA7CA37D017E007F0312337FFD
:102F18007E007F087D007B017AA379DD1239349029
:102F2800A41CE0FF90A3E3E4F0A3EFF07B017AA3F5
:102F380079E5C002C00190A41C75F020A42475F99D
:102F4800749535F0FA90A42012372E90A423E4F05B
:102F5800A37420F0D001D00212752290A41CE07551
:102F6800F018A42400FFE5F03435FE7B017AA3793C
:102F7800D590A5F2E4F0A37430F012519202303BE0
:102F880090A41912370E1234C6645A7004E5F0641E
:102F9800A5600302303B7B017AA379E990A5E0F0B4
:102FA800A37408F07F107E00124F257B017AA37965
:102FB800E978DD7CA37D017E007F0312337F7B01EE
:102FC8007AA379ED78E07CA37D017E007F0312333C
:102FD8007F90A41CE0FF90A3E3E4F0A3EFF07B0153
:102FE8007AA379D590A5F2E4F0A37410F07F007E5F
:102FF80030125192126DD4E490A3D5F0A3F090A4AE
:103008001CE075F018A42400FFE5F03435FE7B01C0
:103018007AA379D590A5F2E4F0A37402F012519244
:1030280090A931E0FEA3E02401FFE43E90A92EF030
:10303800A3EFF090A407E004F0022DD190A408E0DB
:1030480004F0022DBC7B017AA4790978037CA97D60
:10305800017E007F1012337F90A9E8E0FEA3E064B0
:103068000E4E600302329E90A9E8E0A3E0FF90A90B
:103078002CE0FCA3E06F7002EC6E601EE490A931B6
:10308800F0A3F07B017AA9793190A5F2F0A374023C
:10309800F07F017EAE12519280347B017AA979319A
:1030A80090A5E0E4F0A37402F07F017EAE124F25F4
:1030B80090A92EE0FEA3E0FF90A931E0FCA3E06F09
:1030C8007002EC6E700302329E800302329E90A959
:1030D80031E0FEA3E0FF90A92EEEF0A3EFF0E4A309
:1030E800F090A930E0C3940A7480948040030232BF
:1030F80084A3E0FEA3E0FF7C007D0A1233FD90A9C3
:1031080030E02FFFEC3EFE90A92AE0FCA3E0FDC3CF
:10311800EF9DEE9C400302328490A931E0FEA3E0CB
:10312800FF7C007D0A1233FD90A930E02FFFEC3EB2
:10313800FE90A926E0FCA3E0D39FEC9E403290A924
:1031480031E0FEA3E0FF7C001233FD90A930E02FB0
:10315800FFEC3EFEEF2401FFE43EFE90A926E0FCD2
:10316800A3E0C39FFFEC9E90A409F0A3EFF0803A80
:1031780090A931E0FEA3E0FF7C007D0A1233FD90A8
:10318800A930E02FFFEC3EFEEF2401FFE43EFE9065
:10319800A926E0FCA3E02400FDEC3402FCC3ED9F6B
:1031A800FFEC9E90A409F0A3EFF090A409E0FEA321
:1031B800E07803C333CE33CED8F92400FFEE3420B1
:1031C800FEE4FCFD90A5DE1236C590A5E2E4F0A36E
:1031D8007408F07D007C307F5A12726B7B017AA3F1
:1031E80079D590A5E0E4F0A37410F07F007E30124A
:1031F8004F257B017AA379E5C003C002C00190A3E3
:10320800E3E0FEA3E07805C333CE33CED8F92475C6
:10321800F974953EFA7B0190A42012372E90A423CE
:10322800E4F0A37420F0D001D002D00312752290EC
:10323800A930E025E02433F582E434A9F583E0FEE3
:10324800A3E0FF7B017AA379D590A5F2E4F0A374FB
:1032580030F012519290A930E025E02433F582E451
:1032680034A9F583E0FCA3E0FD90A930E0FF7B0ED4
:1032780012672C90A930E004F00230E990A930E000
:10328800C3940A74809480500DE0FF1265ED90A9F4
:1032980030E004F080E690A9E8E0FEA3E0FF90A902
:1032A8002CEEF0A3EFF022E709F608DFFA8046E7F4
:1032B80009F208DFFA803E88828C83E709F0A3DFF1
:1032C800FA8032E309F608DFFA8078E309F208DFCA
:1032D800FA807088828C83E309F0A3DFFA8064891E
:1032E800828A83E0A3F608DFFA805889828A83E01D
:1032F800A3F208DFFA804C80D280FA80C680D4809E
:103308006980F28033801080A680EA809A80A88045
:10331800DA80E280CA803389828A83ECFAE493A354
:10332800C8C582C8CCC583CCF0A3C8C582C8CCC5E3
:1033380083CCDFE9DEE7800D89828A83E493A3F6F4
:1033480008DFF9ECFAA9F0EDFB2289828A83ECFA0E
:10335800E0A3C8C582C8CCC583CCF0A3C8C582C8C1
:10336800CCC583CCDFEADEE880DB89828A83E493FC
:10337800A3F208DFF980CC88F0EF60010E4E60C33D
:1033880088F0ED2402B4040050B9F582EB2402B4AD
:10339800040050AF23234582239032FF73BB0106FC
:1033A80089828A83E0225002E722BBFE02E3228957
:1033B800828A83E49322BB010CE58229F582E583A6
:1033C8003AF583E0225006E92582F8E622BBFE069C
:1033D800E92582F8E222E58229F582E5833AF58338
:1033E800E49322BB010689828A83F0225002F722E5
:1033F800BBFE01F322EF8DF0A4A8F0CF8CF0A42837
:10340800CE8DF0A42EFE22BC000BBE0029EF8DF05D
:1034180084FFADF022E4CCF875F008EF2FFFEE330F
:10342800FEEC33FCEE9DEC984005FCEE9DFE0FD5BE
:10343800F0E9E4CEFD22EDF8F5F0EE8420D21CFE92
:10344800ADF075F008EF2FFFED33FD4007985006FB
:10345800D5F0F222C398FD0FD5F0EA22C2D5EC30A0
:10346800E709B2D5E4C39DFDE49CFCEE30E715B254
:10347800D5E4C39FFFE49EFE12340FC3E49DFDE430
:103488009CFC800312340F30D507C3E49FFFE49EF1
:10349800FE22C5F0F8A3E028F0C5F0F8E582158211
:1034A80070021583E038F022A3F8E0C5F025F0F0AB
:1034B800E582158270021583E0C838F0E822BB0166
:1034C8000A89828A83E0F5F0A3E022500687F00992
:1034D800E71922BBFE07E3F5F009E3192289828A7E
:1034E80083E493F5F074019322BB0110E58229F57A
:1034F80082E5833AF583E0F5F0A3E0225009E92557
:1035080082F886F008E622BBFE0AE92582F8E2F591
:10351800F008E222E5832AF583E993F5F0A3E9931D
:1035280022BB010A89828A83F0E5F0A3F0225006C3
:10353800F709A7F01922BBFE06F3E5F009F31922F3
:10354800EF2BFFEE3AFEED39FDEC38FC22E88FF068
:10355800A4CC8BF0A42CFCE98EF0A42CFC8AF0ED12
:10356800A42CFCEA8EF0A4CDA8F08BF0A42DCC38C6
:1035780025F0FDE98FF0A42CCD35F0FCEB8EF0A4FE
:10358800FEA9F0EB8FF0A4CFC5F02ECD39FEE43CB8
:10359800FCEAA42DCE35F0FDE43CFC2275F008755C
:1035A8008200EF2FFFEE33FECD33CDCC33CCC58276
:1035B80033C5829BED9AEC99E58298400CF582EE32
:1035C8009BFEED9AFDEC99FC0FD5F0D6E4CEFBE41A
:1035D800CDFAE4CCF9A88222B800C1B90059BA00E2
:1035E8002DEC8BF084CFCECDFCE5F0CBF97818EF3D
:1035F8002FFFEE33FEED33FDEC33FCEB33FB10D73E
:1036080003994004EB99FB0FD8E5E4F9FA227818FE
:10361800EF2FFFEE33FEED33FDEC33FCC933C91059
:10362800D7059BE99A4007EC9BFCE99AF90FD8E08B
:10363800E4C9FAE4CCFB2275F010EF2FFFEE33FE5D
:10364800ED33FDCC33CCC833C810D7079BEC9AE8D0
:1036580099400AED9BFDEC9AFCE899F80FD5F0DA51
:10366800E4CDFBE4CCFAE4C8F922EB9FF5F0EA9E3E
:1036780042F0E99D42F0EC6480C864809845F022ED
:10368800EB9FF5F0EA9E42F0E99D42F0E89C45F098
:1036980022E86010ECA2E713FCED13FDEE13FEEF39
:1036A80013FFD8F022E0FCA3E0FDA3E0FEA3E0FFB7
:1036B80022E0F8A3E0F9A3E0FAA3E0FB22ECF0A3F0
:1036C800EDF0A3EEF0A3EFF022A8828583F0D0837B
:1036D800D0821236E81236E81236E81236E8E47379
:1036E800E493A3C583C5F0C583C8C582C8F0A3C544
:1036F80083C5F0C583C8C582C822A42582F582E5A2
:10370800F03583F58322E0FBA3E0FAA3E0F922F881
:10371800E0FBA3A3E0F925F0F0E58215827002151D
:1037280083E0FA38F022EBF0A3EAF0A3E9F022D024
:1037380083D082F8E4937012740193700DA3A3935D
:10374800F8740193F5828883E4737402936860EFD8
:10375800A3A3A380DFD083D082F8E493701274010E
:1037680093700DA3A393F8740193F5828883E4738F
:10377800740293B5F0067403936860E9A3A3A3A346
:1037880080D8E3F5F009E208B5F06BDFF58067E370
:10379800F5F009E608B5F05EDFF5805A87F009E62E
:1037A80008B5F052DFF6804E87F009E208B5F0461A
:1037B800DFF6804288828C8387F009E0A3B5F03673
:1037C800DFF6803288828C8387F009E493A3B5F012
:1037D80025DFF5802188828C83E3F5F009E0A3B525
:1037E800F014DFF5801088828C83E3F5F009E49308
:1037F800A3B5F002DFF40238B9808780E9809080B1
:10380800D4803E8015806E807E809D80B7808D80BC
:10381800A380518074803C0238C589828A83ECFA7F
:10382800E493F5F0A3C8C582C8CCC583CCE493A3C0
:10383800C8C582C8CCC583CCB5F076DFE3DEE180AD
:103848007089828A83E493F5F0A3E208B5F062DF19
:10385800F4805E89828A83E0F5F0A3E608B5F0512A
:10386800DFF5804D89828A83E0F5F0A3E208B5F0A0
:1038780040DFF5803C89828A83E493F5F0A3E6086B
:10388800B5F02EDFF4802A8002805789828A83EC83
:10389800FAE493F5F0A3C8C582C8CCC583CCE0A3ED
:1038A800C8C582C8CCC583CCB5F006DFE4DEE280AB
:1038B800007FFFB5F0020F2240027F012289828A31
:1038C80083ECFAE0F5F0A3C8C582C8CCC583CCE088
:1038D800A3C8C582C8CCC583CCB5F0D5DFE5DEE387
:1038E80080CF89828A83ECFAE0F5F0A3C8C582C844
:1038F800CCC583CCE493A3C8C582C8CCC583CCB55A
:10390800F0AFDFE4DEE280A988F0EF60010E4E60E0
:10391800ABED2402B404005098F582EB2402B40401
:1039280000508E232345822390380173EF4E601296
:10393800EF60010EEDBB010B89828A83F0A3DFFCE7
:10394800DEFA2289F05007F709DFFCA9F022BBFE56
:10395800FCF309DFFCA9F022F8BB010DE58229F58B
:1039680082E5833AF583E8F0225006E92582C8F615
:1039780022BBFE05E92582C8F2227BFF7A817926DF
:1039880078107CA47D017E007F3E12337F7BFF7A16
:10399800817964784F7CA47D017E007F2412337F77
:1039A8007B017AA4791090A5E0E4F0A3743EF07F3F
:1039B800207EAB124F25E490A44EF090A44EE0C3B5
:1039C8009410748094804003023C23E0FF7E0074CE
:1039D80001A807088005C333CE33CED8F9FF90A4D9
:1039E80016E0FCA3E0FDEE5CFEEF5D4E7003023CCA
:1039F8000790A44EE0FF7E007401A807088005C365
:103A080033CE33CED8F9FF90A41AE0FCA3E0FDEE44
:103A18005CFEEF5D4E7003023BB490A44EE0FF13D2
:103A280013543F2407FFE43390A475F0A3EFF090FC
:103A3800A475E0FEA3E025E0FFEE33FE74102FF539
:103A48008274A43EF583E0FEA3E0FF90A44EE05408
:103A58000325E025E0FDEFA805088005CEC313CEB9
:103A680013D8F9540FFF90A473E4F0A3EFF090A4D7
:103A780073E0FEA3E08EF012375D3AA600003ABE6E
:103A880000013AD600023AEE00043B0500053B1C53
:103A980000063B3300083B4A000900003B6190A444
:103AA8004EE025E0244FF582E434A4F583E4F0A346
:103AB8007405F0023B7690A44EE025E0244FF58291
:103AC800E434A4F583E4F0A37406F0023B7690A4F2
:103AD8004EE025E0244FF582E434A4F583E4F0A316
:103AE8007407F0023B7690A44EE025E0244FF5825F
:103AF800E434A4F583E4F0A37408F0807190A44E34
:103B0800E025E0244FF582E434A4F583E4F0A374BF
:103B180009F0805A90A44EE025E0244FF582E43461
:103B2800A4F583E4F0A3740AF0804390A44EE02542
:103B3800E0244FF582E434A4F583E4F0A37403F0A1
:103B4800802C90A44EE025E0244FF582E434A4F5BF
:103B580083E4F0A37404F0801590A44EE025E024DB
:103B68004FF582E434A4F583E4F0A37405F090A43F
:103B78004EE0FF7E007401A807088005C333CE33EA
:103B8800CED8F9FF90A412E0FCA3E0FDEE5CFEEFB6
:103B98005D4E607E90A44EE025E0244FF582E4342B
:103BA800A4F583E475F00812349A806690A44EE078
:103BB800FF7E007401A807088005C333CE33CED832
:103BC800F9FF90A412E0FCA3E0FDEE5CFEEF5D4E71
:103BD800601790A44EE025E0244FF582E434A4F564
:103BE80083E4F0A37402F0802990A44EE025E02439
:103BF8004FF582E434A4F583E4F0A304F080139035
:103C0800A44EE025E0244FF582E434A4F583E4F0E3
:103C1800A3F090A44EE004F00239C390A44E7410AF
:103C2800F090A44EE0C39412748094804003023E46
:103C380094E024F0FF7E007401A807088005C333D0
:103C4800CE33CED8F9FF90A418E0FCA3E0FDEE5CDB
:103C5800FEEF5D4E7003023E7890A44EE024F0FF24
:103C68007E007401A807088005C333CE33CED8F987
:103C7800FF90A41CE0FCA3E0FDEE5CFEEF5D4E703F
:103C880003023E2390A44EE0FF1313543F2407FF82
:103C9800E43390A475F0A3EFF090A475E0FEA3E0E0
:103CA80025E0FFEE33FE74102FF58274A43EF583F1
:103CB800E0FEA3E0FF90A44EE0540325E025E0FDDC
:103CC800EFA805088005CEC313CE13D8F9540FFF0B
:103CD80090A473E4F0A3EFF090A473E0FEA3E08E49
:103CE800F012375D3D1000003D2800013D40000204
:103CF8003D5800043D6F00053D8600063D9D0008C7
:103D08003DB4000900003DCB90A44EE025E0244FCF
:103D1800F582E434A4F583E4F0A37405F0023DE0F1
:103D280090A44EE025E0244FF582E434A4F583E422
:103D3800F0A37406F0023DE090A44EE025E0244F85
:103D4800F582E434A4F583E4F0A37407F0023DE0BF
:103D580090A44EE025E0244FF582E434A4F583E4F2
:103D6800F0A37408F0807190A44EE025E0244FF58C
:103D780082E434A4F583E4F0A37409F0805A90A493
:103D88004EE025E0244FF582E434A4F583E4F0A363
:103D9800740AF0804390A44EE025E0244FF582E4B5
:103DA80034A4F583E4F0A37403F0802C90A44EE0CF
:103DB80025E0244FF582E434A4F583E4F0A37404E9
:103DC800F0801590A44EE025E0244FF582E434A459
:103DD800F583E4F0A37405F090A44EE024F0FF7E90
:103DE800007401A807088005C333CE33CED8F9FF85
:103DF80090A414E0FCA3E0FDEE5CFEEF5D4E7003C2
:103E0800023E8B90A44EE025E0244FF582E434A4D2
:103E1800F583E475F00812349A806890A44EE02483
:103E2800F0FF7E007401A807088005C333CE33CEA7
:103E3800D8F9FF90A414E0FCA3E0FDEE5CFEEF5D72
:103E48004E601790A44EE025E0244FF582E434A498
:103E5800F583E4F0A37402F0802990A44EE025E0F5
:103E6800244FF582E434A4F583E4F0A304F080132E
:103E780090A44EE025E0244FF582E434A4F583E4D1
:103E8800F0A3F090A44EE004F0023C297B017AA450
:103E9800794F90A5F2E4F0A37424F07FA07EAB12D2
:103EA800519222E51330E0167B017AA979E890A5B2
:103EB800E0E4F0A37402F07F147E00124F25E513AE
:103EC80020E20302436190A9E8E0FEA3E04E7026D9
:103ED80090A9E1E0C39406748094805005E004F052
:103EE800801490A9E1E06406700C7F39FE127A57BD
:103EF80090A9E1E004F090A9E8E0FEA3E0640B4E8D
:103F0800700312398290A9E8E0FEA3E064294E60AC
:103F180003023FEE7B017AA379D890A5E0F0A37461
:103F28001CF07FB07EC9124F25E490A3D5F090A372
:103F3800D5E0C39407748094804003023FD8E025FD
:103F4800E025E024D8F582E434A3F583E0FEA3E07D
:103F5800C4F8540FC868FDEEC454F048FC90A3D5CB
:103F6800E025E025E024DAF582E434A3F583E0FED9
:103F7800A3E0EEC4540F2DFFE43C90A3D6F0A3EFCA
:103F8800F090A3D6E0FEA3E0FF7C007D1812340F6A
:103F980090A3D5E025E024F4F582E434A3F583EE7C
:103FA800F0A3EFF090A3D6E0FEA3E0FF7C007D181D
:103FB80012340F90A3D5E025E02402F582E434A45E
:103FC800F583ECF0A3EDF090A3D5E004F0023F36C2
:103FD8007B017AA379F490A5F2E4F0A3741CF07F36
:103FE800207EC912519290A9E8E0FEA3E0642C4E0D
:103FF80060030240CF7B017AA379E590A5E0F0A3A6
:104008007406F07FA07ECC124F2590A3E5E0FEA3B6
:10401800E0FFEEC4F854F0C868FEEFC4540F4890AF
:10402800A3D5EEF0A3E4F090A3D5E0FCA3E0FD90C7
:10403800A3E5E0FEA3E07807CEC313CE13D8F95466
:104048001FFFECFEED4FFF90A3D5EEF0A3EFF0902D
:10405800A3E5E0A3E0547F90A3D7F0A3E4F090A3F6
:10406800D7E0FCA3E0FD90A3E9E0FEA3E0EEFFECBF
:10407800FEED4FFF90A3D7EEF0A3EFF090A3E9E099
:10408800A3E090A3D9F0A3E4F090A3E7E0FEA3E0B7
:10409800FF90A3DBEEF0A3EFF0A37402F0A314F0FB
:1040A800A37407F0A3E4F0A37418F0A3E4F0A3F05A
:1040B800A3F07B017AA379D590A5F2F0A37410F050
:1040C8007F207ECC12519290A9E8E0FEA3E0642FF5
:1040D8004E60030241B07B017AA379D590A5E0F048
:1040E800A37402F07F107ECF124F257B017AA3794B
:1040F800D990A5E0E4F0A37402F07F227ECF124F9E
:104108002590A3D5E0FEA3E0FF90A9E2E0FCA3E0A0
:104118006F7002EC6E606090A3D5E0A3E090A9E216
:10412800EEF0A3EFF090A3D9E0FEA3E0543FFF9098
:10413800A3D9EEF0A3EFF090A3D9E0FCA3E0FD90A3
:10414800A3D5E0A3E07E0054037806C333CE33CE74
:10415800D8F9FFEC4EFEED4FFF90A3D9EEF0A3EF98
:10416800F07B017AA379D990A5F2E4F0A37402F068
:104178007F227ECF12519290A3D9E0FEA3E0780669
:10418800CEC313CE13D8F95403FF90A3DBE4F0A3F6
:10419800EFF07B017AA379DB90A5F2E4F0A3740237
:1041A800F07F117ECF12519290A9E8E0FEA3E0645F
:1041B800274E600B90A9E8E0A3E064434E70569048
:1041C800A9E4E0C3940574809480504290A3D5E498
:1041D800F0A304F0FB7AA379D590A5F2E4F0A374D8
:1041E80002F07F277EA012519290A3D5E4F0A37429
:1041F8005AF07B017AA379D590A5F2E4F0A3740272
:10420800F07F877EA012519290A9E4E004F0E49038
:10421800A9E5F0807290A9E5E0C3940574809480C4
:104228005060E490A3D5F0A3F07B017AA379D590F0
:10423800A5E0F0A37402F07F297EC7124F2590A352
:10424800D5E0FEA3E04E70347B017AA379D590A522
:10425800F2F0A37402F07F277EA012519290A3D5AA
:10426800E4F0A3745AF07B017AA379D590A5F2E41F
:10427800F0A37402F07F877EA012519290A9E5E026
:1042880004F0E490A9E4F07B017AA379D590A5E045
:10429800E4F0A37402F07F167E00124F2590A3D598
:1042A800E0FEA3E04E6025E490A3D5F0A3F07B01E7
:1042B8007AA379D590A5F2F0A37402F07F167E0058
:1042C800125192E490A9E6F0A3F0804690A9E6E0A6
:1042D800FEA3E0C39458EE9402500C90A9E6E4754E
:1042E800F00112349A802B90A9E6E0FEA3E0B458BE
:1042F80021EEB4021D90A9E6E475F00112349A90FB
:10430800A9E8E0FEA3E064394E60077F397E001219
:104318007A577B017AA379D590A5E0E4F0A37402DB
:10432800F07F007EE0124F2590A3D5E0FEA3E0EEDB
:1043380030E01490A9E8E0FEA3E064414E601A7FE3
:10434800417E00127A572290A9E8E0FEA3E064417A
:104358004E70067F39FE127A572290A3DA12372E52
:1043680090A3DDECF0A3EDF090A3DDE0FEA3E0C3A5
:104378009405EE940050030246B7E4A3F0A3F0902E
:10438800A3DA12370E90A3DFE0FEA3E0F5828E8356
:104398001233BE6402600302469190A3DA12370E0C
:1043A80090A3DFE0A3E029F9EA3EFA900001123376
:1043B800BE12373743C90345180645DA10000046D0
:1043C8009190A3DA12370E90A3DFE0FEA3E029F95B
:1043D800EA3EFA9000021233BEFF90A3E3E4F0A392
:1043E800EFF090A3DFE0A3E0FF90A3E3E0FCA3E0FD
:1043F8002FFFEC3EFEEF2405FFE43EFE90A3DDE038
:10440800FCA3E0FDD3EF9DEE9C401190A3DDE0FE00
:10441800A3E0FFA3EEF0A3EFF002469190A3DA1217
:10442800370E90A3DFE0FEA3E029F9EA3EFA90A355
:10443800E3E0FEA3E02403FDE43EFC1272F090A347
:10444800E1EEF0A3EFF090A3DA12370E90A3DFE0CD
:10445800FEA3E029F9EA3EFA90A3E3E0FEA3E029EF
:10446800F9EA3EFA9000031233BEFD90A3E1E0FEA4
:10447800A3E0EE6D7001E4600302469190A3DA12A6
:10448800370E90A3DFE0FEA3E029F9EA3EFA90A3F5
:10449800E3E0FEA3E029F9EA3EFA9000041233BEF5
:1044A800FF90A3E1E0A3E06F7001E460030246918E
:1044B800908521E0FEA3E0FF90A3DA12370E90A3C7
:1044C800DFE0FCA3E029F9EA3CFAE92403F9E43A3D
:1044D800FA90A3E3E0FCA3E0FD90A5F2ECF0A3EDD5
:1044E800F01251927E007F0E7D007B017A8579194A
:1044F80012393490A3E3E0FEA3E02405FFE43E90E4
:10450800A3DFF0A3EFF0908000E04402F0024691B0
:1045180090A3DFE0FEA3E02408FFE43EFE90A3DDC5
:10452800E0FCA3E0FDD3EF9DEE9C401190A3DDE0FD
:10453800FEA3E0FFA3EEF0A3EFF002469190A3DA0A
:1045480012370E90A3DFE0FEA3E029F9EA3EFA7DD8
:10455800067C001272F090A3E1EEF0A3EFF090A3B6
:10456800DA12370E90A3DFE0FEA3E029F9EA3EFA5B
:104578009000061233BEFD90A3E1E0FEA3E0EE6DCD
:104588007001E4600302469190A3DA12370E90A3FB
:10459800DFE0FEA3E029F9EA3EFA9000071233BEF5
:1045A800FF90A3E1E0A3E06F7001E460030246918D
:1045B80090A3DF75F00812349A7E007F0E7D007B91
:1045C800017A857919123934908000E04402F002AA
:1045D800469190A3DFE0FEA3E02408FFE43EFE90AE
:1045E800A3DDE0FCA3E0FDD3EF9DEE9C401190A37A
:1045F800DDE0FEA3E0FFA3EEF0A3EFF0024691900A
:10460800A3DA12370E90A3DFE0FEA3E029F9EA3E11
:10461800FA7D067C001272F090A3E1EEF0A3EFF0B1
:1046280090A3DA12370E90A3DFE0FEA3E029F9EA9F
:104638003EFA9000061233BEFD90A3E1E0FEA3E02F
:10464800EE6D7001E4704290A3DA12370E90A3DF8A
:10465800E0FEA3E029F9EA3EFA9000071233BEFF14
:1046680090A3E1E0A3E0B50720E490A3DF75F0088C
:1046780012349A7E007F0E7D007B017A85791912AB
:104688003934908000E04402F090A3DFE475F00133
:1046980012349A90A3DDE0FEA3E024FBFFEE34FF82
:1046A800FEA3E0FCA3E0C39FEC9E500302438722D5
:1046B80090A3DA12372E90A3DA12370E1234C6FFFF
:1046C80090A3DDE5F0F0A3EFF090A3DDE0FEA3E01A
:1046D800C39420EE940140030249D890A3DDE0A3DF
:1046E800E090852775F00E123702EE75F00EA425BE
:1046F80083F583E0645A60030249CB90A3DDE0A30D
:10470800E090852A75F00E123702EE75F00EA4259A
:1047180083F583E070030249CB90A3DDE0A3E0902A
:10472800852C75F00E123702EE75F00EA42583F570
:1047380083E070030249D890A3DDE0A3E090852CC4
:1047480075F00E123702EE75F00EA42583F583E09E
:104758006401703490A3DDE0A3E090852D75F00E20
:10476800123702EE75F00EA42583F583E0FEA3E070
:10477800FF90A9E8E0FCA3E06F7002EC6E60030212
:1047880049CB0249D80249CB90A3DDE0FEA3E090D3
:10479800852C75F00E123702EE75F00EA42583F500
:1047A80083E06402600302489790A3DDE0A3E090F1
:1047B800852D75F00E123702EE75F00EA42583F5DF
:1047C80083E0FEA3E0FF7B017AA379DF90A5E0E414
:1047D800F0A37402F0124F2590A3DFE0A3E0645A1F
:1047E80060030249CB90A3DDE0FEA3E0C3941FEE73
:1047F8009401506190A3DDE0A3E090853A75F00E36
:10480800123702EE75F00EA42583F583E06402707A
:104818004490A3DDE0A3E090853B75F00E123702CB
:10482800EE75F00EA42583F583E0FEA3E0FF90A3C8
:10483800DDE0FCA3E090852D75F00E123702EC75D3
:10484800F00EA42583F583E0FCA3E06F7002EC6E04
:1048580070030249D8E490A3DFF0A3F090A3DDE051
:10486800FEA3E090852D75F00E123702EE75F00E5E
:10487800A42583F583E0FEA3E0FF7B017AA379DF1B
:1048880090A5F2E4F0A37402F01251920249D89074
:10489800A3DDE0FEA3E090852C75F00E123702EE42
:1048A80075F00EA42583F583E0640360030249CB09
:1048B80090A3DDE0A3E090853375F00E123702EE89
:1048C80075F00EA42583F583E0FEA3E0FF90A9E828
:1048D800E0FCA3E0FDEF6D7002EE6C60030249CBD3
:1048E80090A3DDE0FEA3E090852D75F00E1237024F
:1048F800EE75F00EA42583F583E0FEA3E0FF7B01AF
:104908007AA379DF90A5E0E4F0A37402F0124F25B2
:1049180090A3DFE0A3E0645A60030249CB90A3DDD3
:10492800E0FEA3E0C3941FEE9401505E90A3DDE087
:10493800A3E090853A75F00E123702EE75F00EA4DA
:104948002583F583E06403704190A3DDE0A3E09044
:10495800853B75F00E123702EE75F00EA42583F52F
:1049680083E0FEA3E0FF90A3DDE0FCA3E090852DAB
:1049780075F00E123702EC75F00EA42583F583E06E
:10498800FCA3E06F7002EC6E6046E490A3DFF0A336
:10499800F090A3DDE0FEA3E090852D75F00E1237B0
:1049A80002EE75F00EA42583F583E0FEA3E0FF7BFD
:1049B800017AA379DF90A5F2E4F0A37402F0125112
:1049C80092800D90A3DDE475F00112349A0246D16D
:1049D80090A3DDE0FEA3E0FF90A3DA12370EEE8F7E
:1049E800F01235292290A3E512372E90A3E8ECF0B7
:1049F800A3EDF07BFF7A8179BC78EA7CA37D017E08
:104A0800007F1812337F90A3E512370E90000A1228
:104A180034F1246CFFE5F0340790A416F0A3EFF00E
:104A280090A416E0FEA3E0FF7C007D64123464EDE0
:104A38004C601390A416E0FEA3E0FF7C007D0412F6
:104A48003464ED4C601390A416E0FEA3E0FF7C01F3
:104A58007D90123464ED4C70067E007F0180047EE8
:104A6800007F0090A412EEF0A3EFF090A3E51237B8
:104A78000E90000A1234F124BAFFE5F034FFFE3339
:104A880095E0FDFC90A4021236C590A3E512370EFE
:104A98009000081234F1C39401E5F06480948050CA
:104AA8004090A412E0FEA3E064014E703490A4028A
:104AB8001236ADEF2402FFE43EFEE43DFDE43CFC8B
:104AC800E47B04FAF9F8127A9EEF24FFFFEE34FF34
:104AD800FEED34FFFDEC34FFFC90A40A1236C580CD
:104AE8002290A4021236ADEF2402FFE43EFEE43D1C
:104AF800FDE43CFCE47B04FAF9F8127A9E90A40ADF
:104B08001236C590A4061236D100000000E490A425
:104B180014F0A3F090A3E512370E9000081234F1B8
:104B2800FF90A414E0FCA3E0C39FE5F06480F8ECD8
:104B3800648098504890A4061236ADC006C007900D
:104B4800A414E0FEA3E025E0FFEE33FE74EA2FF59F
:104B58008274A33EF583E0FEA3E0FFFBAA06EA33D6
:104B680095E0F9F8D007D00612354890A406123619
:104B7800C590A414E475F00112349A809790A406A5
:104B88001236ADC006C00790A3E512370E90000696
:104B98001234F124FFFFE5F034FFFEAB07FA33953A
:104BA800E0F9F8D007D00612354890A4061236C5A9
:104BB80090A4061236ADC004C005C006C007E47F45
:104BC8006D7E01FDFC90A4021236B912355590A4F1
:104BD8000A1236B9123548A804A905AA06AB07D0A7
:104BE80007D006D005D00412354890A4061236C561
:104BF80090A3E512370E9000041234F1FF90A3E859
:104C0800E0FCA3E0FDC3EF9DFFE5F09CFE3395E0DB
:104C1800FDFC90A40E1236C5E47F107E0EFDFC90BC
:104C2800A40E1236B9123555C004C005C006C00717
:104C38007F807E517D017C0090A4061236B9123522
:104C480055A804A905AA06AB07D007D006D005D0F9
:104C580004123548C004C005C006C00790A3E51279
:104C6800370E9000021234F1FFAEF07C007D3C124A
:104C780033FDAB07AA06EA3395E0F9F8D007D0066A
:104C8800D005D004123548C006C00790A3E51237F6
:104C98000E1234C6FFAEF0FBAA06EA3395E0F9F827
:104CA800D007D00612354822E51330E10D90A9EA65
:104CB800E475F00112349A12686190A9EAE0FEA343
:104CC800E0C394B8EE940B5003024F24E490A9EA91
:104CD800F0A3F090A9EEE0FEA3E02400FFEE34106C
:104CE80090A3D5F0A3EFF07B017AA379D790A5E044
:104CF800E4F0A37402F07FA37EA0124F2590A3D7FF
:104D0800E475F0C812349A90A3D5E0FEA3E0FF7BC7
:104D1800017AA379D790A5F2E4F0A37402F01251B6
:104D28009290A9EEE0FEA3E02400FFEE341890A3D1
:104D3800D5F0A3EFF07B017AA379D790A5E0E4F052
:104D4800A37402F07FA47EA0124F2590A3D5E0FEA5
:104D5800A3E0FF7B017AA379D790A5F2E4F0A374CE
:104D680002F012519290A9EEE0FEA3E0FF90A3DBBF
:104D7800EEF0A3EFF090A9EEE475F00112349A90EA
:104D8800A9EEE0FEA3E0C394FEEE94074007E4908A
:104D9800A9EEF0A3F07B017AA979EE90A5F2E4F0F0
:104DA800A37402F07F007E031251927B017AA979E5
:104DB800EE90A5F2E4F0A37402F0FF7E0312519284
:104DC80090A3D97407F0A374FEF07B017AA379D974
:104DD80090A5F2E4F0A37402F07F087E501251927D
:104DE8007B017AA379D990A5F2E4F0A37402F07F4D
:104DF800097E5012519290A3D97402F0A3748AF0DC
:104E08007B017AA379D990A5F2E4F0A37402F07F2C
:104E1800117E5012519290A9B5E075F03CA4FFA301
:104E2800E07C002FFFEC35F090A9ECF0A3EFF090B8
:104E3800A9ECE0FEA3E0FF12609B90A9EEE0A3E0DE
:104E480030E003024F2490A3DB74FFF5F012349A8C
:104E580090A3DBE0FEA3E02400FFEE3410FE7B010C
:104E68007AA379D590A5E0E4F0A37404F0124F2555
:104E780090A3D974A5F0A3745AF07B017AA379D5CD
:104E880090A5F2E4F0A37406F07F007E50125192D0
:104E980090A3DBE0FEA3E0FFE4FCFD90A5DE123664
:104EA800C590A5E2E4F0A37404F07D007C507FA5D2
:104EB80012726B90A3DBE0FEA3E02400FFEE34182F
:104EC800FE7B017AA379D590A5E0E4F0A37404F001
:104ED800124F2590A3D974A5F0A3745AF07B017AD8
:104EE800A379D590A5F2E4F0A37406F07F007E5074
:104EF80012519290A3DBE0FEA3E02400FFEE3408F9
:104F0800FEE4FCFD90A5DE1236C590A5E2E4F0A310
:104F18007404F07D007C507FA512726B2290A5DB93
:104F2800EEF0A3EFF0A312372E7B007A007900C0D1
:104F380003C002C00190A5DD12370ED082D083D005
:104F4800E06B7008E965827003EA658370030251BB
:104F58009190A5E0E0FEA3E04E700302519190A568
:104F6800E0E0A3E0FFEEC313FEEF13FF90A5DBE044
:104F7800FCA3E02FFFEE3CFED3EF94FEEE94FF403F
:104F880003025191C2AF90A5DBE0A3E0540190A5C4
:104F9800E2F090A5DBE0FEA3E0FFEEC313FEEF1303
:104FA800FF90A5DBEEF0A3EFF090A5DBE0FEA3E019
:104FB8007810CEC313CE13D8F9F5F190A5DBE0FE37
:104FC800A3E0EEF5F290A5DBE0A3E0F5F3E4F5F855
:104FD80075F401D2FF30FCFDD2FD90A5E2E064013A
:104FE800707290A5E0E0FEA3E064014E700AC2FB77
:104FF800C2FAD2F9C2F88008C2FBC2FAD2F9D2F8D2
:10500800D2FE20FEFD90A5E0E0FEA3E064014E7014
:105018001A90A5DD75F001123717E5FC1233EB90F5
:10502800A5E074FFF5F012349A802990A5DDE475A7
:10503800F001123717E5FC1233EB90A5DDE475F0AB
:1050480001123717E5FD1233EB90A5E074FF75F0F8
:10505800FE12349A90A5E0E0FEA3E04E70030251E0
:105068008C90A5E0E0A3E0C39404EE940040030212
:10507800513590A5E0E0A3E08EF012375D50A9000D
:1050880001509F000250950003000050B1D2FBD29E
:10509800FAD2F9C2F88012D2FBD2FAC2F9C2F88069
:1050A80008D2FBC2FAC2F9C2F8D2FE20FEFD90A5D2
:1050B800E0E0FEA3E08EF012375D512200015102BC
:1050C800000250D200030000518C90A5DDE475F079
:1050D80001123717E5FA1233EB90A5DDE475F001FC
:1050E800123717E5FB1233EB90A5DDE475F00112DA
:1050F8003717E5FC1233EB02518C90A5DDE475F00F
:1051080001123717E5FA1233EB90A5DDE475F001CB
:10511800123717E5FB1233EB806A90A5DDE475F0D2
:1051280001123717E5FA1233EB80598057D2FBD2B8
:10513800FAD2F9D2F8D2FE20FEFD90A5DDE475F092
:1051480001123717E5FA1233EB90A5DDE475F0018B
:10515800123717E5FB1233EB90A5DDE475F0011269
:105168003717E5FC1233EB90A5DDE475F001123733
:1051780017E5FD1233EB90A5E074FF75F0FC1234CF
:105188009A02505CE4F5F8D2AF2290A5EDEEF0A3B8
:10519800EFF0A312372E7B007A007900C003C0021B
:1051A800C00190A5EF12370ED082D083D0E06B708B
:1051B80008E965827003EA658370030253FD90A5D0
:1051C800F2E0FEA3E04E70030253FD90A5F2E0A3C7
:1051D800E0FFEEC313FEEF13FF90A5EDE0FCA3E0A4
:1051E8002FFFEE3CFED3EF94FEEE94FF40030253F4
:1051F800FDC2AF90A5EDE0A3E0540190A5F4F090B6
:10520800A5EDE0FEA3E0FFEEC313FEEF13FF90A5AC
:10521800EDEEF0A3EFF090A5EDE0FEA3E07810CE60
:10522800C313CE13D8F9F5F190A5EDE0FEA3E0EE97
:10523800F5F290A5EDE0A3E0F5F3E4F5F875F401D7
:10524800D2FF30FCFDC2FD90A5F4E06401707290BD
:10525800A5F2E0FEA3E064014E700AC2FBC2FAD2D6
:10526800F9C2F88008C2FBC2FAD2F9D2F890A5F2C6
:10527800E0FEA3E064014E701A90A5EF75F00112EC
:1052880037171233A5F5FC90A5F274FFF5F0123428
:105298009A802990A5EFE475F0011237171233A50B
:1052A800F5FC90A5EFE475F0011237171233A5F558
:1052B800FD90A5F274FF75F0FE12349AD2FE20FE1E
:1052C800FD90A5F2E0FEA3E04E70030253F890A50E
:1052D800F2E0A3E0C39404EE940040030253A190CB
:1052E800A5F2E0A3E08EF012375D53160001530CCF
:1052F8000002530200030000531ED2FBD2FAD2F977
:10530800C2F88012D2FBD2FAC2F9C2F88008D2FBE6
:10531800C2FAC2F9C2F890A5F2E0FEA3E08EF0123C
:10532800375D5389000153690002533A00030000B6
:10533800539890A5EFE475F0011237171233A5F5CD
:10534800FA90A5EFE475F0011237171233A5F5FBB3
:1053580090A5EFE475F0011237171233A5F5FC801C
:105368002F90A5EFE475F0011237171233A5F5FA5F
:1053780090A5EFE475F0011237171233A5F5FB80FD
:105388000F90A5EFE475F0011237171233A5F5FA5F
:10539800D2FE30FE5B80FB8057D2FBD2FAD2F9D224
:1053A800F890A5EFE475F0011237171233A5F5FA56
:1053B80090A5EFE475F0011237171233A5F5FB90AD
:1053C800A5EFE475F0011237171233A5F5FC90A587
:1053D800EFE475F0011237171233A5F5FDD2FE2060
:1053E800FEFD90A5F274FF75F0FC12349A0252C9C2
:1053F800E4F5F8D2AF227BFF7A8079A278D57CA336
:105408007D017E007F2012337F7B017AA379D590BE
:10541800A3F712372E90A3FA12372EE490A3F5F0D3
:10542800A3F090A3F5E0FEA3E0C3EE9402400302CC
:1054380054C790A3F5E0A3E07803C333CE33CED8A6
:10544800F92400FFEE3420FEE4FCFD90A5DE1236C0
:10545800C590A5E2E4F0A37408F07D007C307F5A83
:1054680012726B7B017AA379D590A5E0E4F0A3745E
:1054780010F07F007E30124F2590A3F712370E12DE
:1054880034C6645A7004E5F064A5602690A3FA1245
:10549800370E1234C6B4A527E5F0B45A2290A3FA01
:1054A80012370E78247CA97D017E007F0812337F95
:1054B800800D90A3F5E475F00112349A02542AE4A1
:1054C80090A3F5F0A3F090A3F5E0FEA3E0C3940A3F
:1054D800EE940040030256597BFF7A8079C278FD2A
:1054E8007CA37D017E007F2012337F7B017AA8791F
:1054F800CD78FD7CA37D017E007F1A12337F90A3B7
:10550800F5E0FEA3E0FF7C007D1B1233FDEF246471
:10551800FFE43E90A401F0A3EFF090A4067401F01C
:1055280090A3F5E0FEA3E090A94775F006123702B4
:10553800EE75F006A42583F583E0FEA3E0FF7B016A
:105548007AA379FD90A5F2E4F0A37420F0125192A9
:105558007B017AA879E778FD7CA37D017E007F1A1C
:1055680012337F90A3F5E0FEA3E0FF7C007D1B12C1
:1055780033FDEF2464FFE43E90A401F0A3EFF09024
:10558800A4067401F090A3F5E0FEA3E090A9497584
:10559800F006123702EE75F006A42583F583E0FEC7
:1055A800A3E0FF7B017AA379FD90A5F2E4F0A37450
:1055B80020F01251927B017AA9798378FD7CA37D32
:1055C800017E007F1A12337F90A3F5E0FEA3E0FF6F
:1055D8007C007D1B1233FDEF2464FFE43E90A401A0
:1055E800F0A3EFF090A3F5E0FEA3E0FF1233FDEF88
:1055F8002464FFE43E90A407F0A3EFF090A3F5E045
:10560800FEA3E0FF1233FDEF247DFFE43E90A40BE0
:10561800F0A3EFF090A3F5E0FEA3E090A94B75F09E
:1056280006123702EE75F006A42583F583E0FEA383
:10563800E0FF7B017AA379FD90A5F2E4F0A3742042
:10564800F012519290A3F5E475F00112349A0254C5
:10565800CE22E490A3D5F0A3F0E51320E00302588E
:10566800AA7B017AA379D590A5E0E4F0A37402F0AF
:105678007F147E50124F2590A3D5E0FEA3E04E7014
:10568800030258AA90A3D5E0A3E08EF012375D5824
:105698001BA0005820A0265825A400582AA4015869
:1056A8002FA4A0582FA4A1582FA4A2582FA4A358C0
:1056B8002FA4A4582FA4A5582FA4A6582FA4A758A0
:1056C8002FA4A8582FA4A9582FA4AA582FA4AB5880
:1056D8002FA4AC582FA4AD582FA4AE582FA4AF5860
:1056E8002FA4B0582FA4B1582FA4B2582FA4B35840
:1056F8002FA4B4582FA4B5582FA4B6582FA4B75820
:105708002FA4B8582FA4B9582FA4BA582FA4BB58FF
:105718002FA4BC582FA4BD582FA4BE582FA4BF58DF
:105728002FA4C0582FA4C1582FA4C2582FA4C358BF
:105738002FA4C4582FA4C5582FA4C6582FA4C7589F
:105748002FA4C8582FA4C9582FA4CA582FA4CB587F
:105758002FA4CC582FA4CD582FA4CE582FA4CF585F
:105768002FA4D0582FA4D1582FA4D2582FA4D3583F
:105778002FA4D4582FA4D5582FA4D6582FA4D7581F
:105788002FA4D8582FA4D9582FA4DA582FA4DB58FF
:105798002FA4DC582FA4DD582FA4DE582FA4DF58DF
:1057A8002FA4E0582FA4E1582FA4E2582FA4E358BF
:1057B8002FA4E4582FA4E5583CA4F0583CA4F15871
:1057C8003CA4F2583CA4F3583CA4F45849A6005809
:1057D8008EA601584EAC005853AC015858C5005815
:1057E8005DC6005862C7005867C701586CC90158A0
:1057F8006CC906586CC90C586CC90E586CC911583C
:1058080079CF3C5879CF695886D600588BE000008C
:1058180000588E12758A806E127D87806912744CCA
:105828008064120016805F90A3D5E0FEA3E0FF120B
:105838007762805290A3D5E0FEA3E0FF1277BC8088
:1058480045127110804012786F803B127C5180366F
:10585800127C878031127652802C12796F80271241
:105868007B9E802290A3D5E0FEA3E0FF1279C18041
:105878001590A3D5E0FEA3E0FF127A0C8008127AF7
:10588800E28003127B21E490A3D5F0A3F07B017A98
:10589800A379D590A5F2F0A37402F07F147E50127C
:1058A800519222127DA47F6412791C7F1012791CF8
:1058B800127E20127DA47F6512791C90A3DE7406E7
:1058C800F090A3DEE0D3940074809480401D127899
:1058D800C790A3DEE024D6F582E434A3F583EFF085
:1058E800127DBF90A3DEE014F080D61278C790A393
:1058F800D6EFF0127DD8127E207B017AA379D67874
:10590800C07CA97D017E007F0712337FE490A3DE6F
:10591800F090A3DEE0C3940374809480504BE0249D
:10592800D6F582E434A3F583E0FFC4540F90A3DFD7
:10593800F090A3DEE024D6F582E434A3F583E054A6
:105948000F90A3E0F090A3DFE075F00AA4FFA3E0B6
:105958002FFF90A3DEE024D6F582E434A3F583EF8D
:10596800F090A3DEE004F080A890A3DE7404F09029
:10597800A3DEE0C3940774809480504BE024D6F5EE
:1059880082E434A3F583E0FFC4540F90A3DFF090C2
:10599800A3DEE024D6F582E434A3F583E0540F9027
:1059A800A3E0F090A3DFE075F00AA4FFA3E02FFFC7
:1059B80090A3DEE024D6F582E434A3F583EFF090DB
:1059C800A3DEE004F080A890A3D6E0FFA3E0FDA347
:1059D800E0FB12636390A3D9EFF07B017AA379D639
:1059E80090A5F2E4F0A37408F07F107E00125192A3
:1059F8007B017AA379D678B17CA97D017E007F07E7
:105A080012337F7B017AA979B590A5F2E4F0A374EB
:105A180002F07F287ECD12519290A9AFE0FEA3E05C
:105A2800C39448EE9403500A90A9AFE475F00112AC
:105A3800349A90A3DBE06013A3E0600F90A9AFE075
:105A4800FEA3E0C39447EE94035006200003025AD5
:105A5800FA90A3E11236D10000000090A3DCE0FF29
:105A680090A99DE4F0A3EFF090A3DBE0FF90A99F3D
:105A7800E4F0A3EFF090A3DAE0FF90A9A1E4F0A38B
:105A8800EFF090A3D8E0FF90A9A3E4F0A3EFF09083
:105A9800A3D7E024FFFFE434FF90A9A5F0A3EFF01B
:105AA80090A3D6E02464FFE43390A9A7F0A3EFF015
:105AB80090A3D6E4F0A3745AF0A3E4F0A37412F010
:105AC8007B017AA9799D7D087C001249ED90A3DAC3
